:100000000C949D000C94C7000C94C7000C94C7007E
:100010000C94C7000C94C7000C94C7000C94C70044
:100020000C94C7000C94C7000C9467010C94C70093
:100030000C94C7000C94C7000C94C7000C94C70024
:100040000C94C7000C941F200C94C7000C94C7009C
:100050000C94C7000C94C7000C94C7000C94C70004
:100060000C94C7000C94C7000C94C7000C94C700F4
:100070000C94C7000C94C7000C94C7000C94C700E4
:100080000C943B200C94C7000C94C7000C94C70040
:100090000C94C7000C94C70012010002000000403D
:1000A000EB031320001001020001090229000101E5
:1000B0000080320904000002030000000921110140
:1000C000000122350007058103080014070502031B
:1000D0000800140C03410054004D0045004C002260
:1000E00003410056005200200055005300420020FA
:1000F000004800490044002000440045004D004FE6
:10010000000403090406FFFF0901A1010902090314
:10011000150026FF007508950881020904090515D8
:100120000026FF00750895089102090609071500C9
:1001300026FF0075089504B102C011241FBECFEF41
:10014000D0E2DEBFCDBF80E090E020E80FB6F894AB
:1001500020936100809361000FBE81E013E0A0E076
:10016000B1E0E8E4F3E500E00BBF02C007900D92B8
:10017000AE3FB107D9F717E0AEEFB3E001C01D9273
:10018000AF33B107E1F70E940E1C0C94A2290C9426
:10019000000008950E943D020E946A22FBCF0E9447
:1001A00040020E94972208950E94CF000E94CA0038
:1001B00008958FB7F89497EF94BF98E10FB6F8942D
:1001C00090936000109260000FBE87FF01C078948A
:1001D0000895982F3FB7F89487EF84BF93FD02C02E
:1001E00028E001C028E29770292B88E190E00FB643
:1001F000F894A895809360000FBE2093600037FFAD
:1002000001C078940895982F3FB787EF84BF93FD7E
:1002100002C020E401C020E69770292B88E190E01D
:100220000FB6F894A895809360000FBE20936000ED
:1002300037FF01C078940895982F3FB7F89487EF5F
:1002400084BF93FD02C028E401C028E69770292BE3
:1002500088E190E00FB6F894A895809360000FBEF7
:100260002093600037FF01C07894089580913F0784
:1002700090914007A0914107B091420785559A4A55
:10028000AA4AB54569F410923F07109240071092B0
:10029000410710924207E0910001F0910101099598
:1002A0000895E0910001F09101010995089585E517
:1002B0009AEAAAEAB5E580933F0790934007A09396
:1002C0004107B093420785E00E94E900FFCF1F92EB
:1002D0000F920FB60F920BB60F9211242F933F93EC
:1002E0004F935F936F937F938F939F93AF93BF933E
:1002F000EF93FF938091E10082FF09C08091E200BB
:1003000082FF05C08BEF8093E1000E944A2080911C
:10031000E10080FF40C08091E20080FF3CC08091FE
:1003200002048130D9F480914F048823B9F0809180
:10033000E2008E7F8093E2008FEE8093E100809157
:10034000E20080618093E20089B58D7F89BD19BC90
:100350008091D80080628093D8001DC08FEE80937A
:10036000E1008091FE039091FF0380629093FF0370
:100370008093FE038EEF8093E1008091E200806124
:100380008093E2008091D80080628093D80089B584
:100390008D7F89BD19BC8091E10084FF27C08091C9
:1003A000E20084FF23C009B400FC05C086E189BDDA
:1003B00009B400FEFDCF8091D8008F7D8093D800D6
:1003C0008FEE8093E1008091E2008F7E8093E200C7
:1003D0008091FE039091FF0380649093FF038093CC
:1003E000FE038091E20081608093E2008091E10051
:1003F00085FF1AC08091E20085FF16C08091E2005F
:100400008F7E8093E2008FED8093E1008091E20087
:100410008F7D8093E2008091FE039091FF038068BE
:100420009093FF038093FE038091E10083FF12C04D
:100430008091E20083FF0EC087EF8093E1000E946D
:100440005C058091FE039091FF0391609093FF0300
:100450008093FE03FF91EF91BF91AF919F918F9198
:100460007F916F915F914F913F912F910F900BBEB4
:100470000F900FBE0F901F9018950E94780208955C
:10048000E7EDF0E080818160808380818F7B8083D5
:100490008081806880830E944E0208957894E8ED00
:1004A000F0E080818F768083808180698083808185
:1004B0008F7B80837894089586E189BD09B400FE1E
:1004C000FDCF8091D8008F7D8093D8000E945C057D
:1004D0008091E0008E7F8093E0008091E200816057
:1004E0008093E2008091E20088608093E2000895AA
:1004F0008091D90080FF14C080910004882381F48A
:1005000081E080930004109202048091FE03909198
:10051000FF0382609093FF038093FE030E945C02BE
:100520008091D90080FD13C031C010920004109258
:100530004F048091FE039091FF0384609093FF032A
:100540008093FE038091D80080628093D8008091D0
:10055000FE039091FF0390FF10C08091FE039091E5
:10056000FF039E7F9093FF038093FE0381E08093BF
:10057000EA001092EA0010924F041092E900809174
:10058000E80083FF08C00E94E502089580910004FE
:100590008130E9F6CACF089509B400FC05C086E1B0
:1005A00089BD09B400FEFDCF8091D8008F7D809376
:1005B000D80080910204813039F48091E00082609B
:1005C0008093E0001092020408950F931F93DF932D
:1005D000CF9300D0CDB7DEB78091E8008B7F8093BA
:1005E000E8001091F1000091F1000630F9F00730B9
:1005F00068F4013009F415C1013008F482C10330F8
:1006000009F443C1053009F0F1C1D3C0093009F440
:10061000F0C00A3020F4083009F0E8C1A5C00A3063
:1006200009F49DC10B3009F0E1C1BDC1103809F0DA
:10063000DDC16091F1008091F100813019F08230CC
:1006400089F406C082E18093500488E990E005C0F7
:1006500089E2809350048AEA90E090935204809358
:10066000510405C00E94B005882309F4BFC18091E0
:10067000F1008091F1008091F10089838091F10077
:100680008A838091E800877F8093E80029813A81FE
:100690008091500490E08217930730F48F7390702C
:1006A000892B21F461E003C02093500460E0809125
:1006B000E8008F7E8093E80020915104309152042D
:1006C0004091500422C08091E80084FF03C0F901EA
:1006D00090E00FC08091E80080FFF5CFF8CF542F55
:1006E0005150903449F09F5F84918093F10031968E
:1006F000452F9F01442399F78091E80084FD12C0A3
:100700008091E8008E7F8093E800442339F42093A1
:10071000510430935204109250040AC08091E800B2
:1007200084FFD8CF20935104309352044093500457
:10073000613069F48091E80084FD09C08091E8008F
:1007400080FFFCCF8091E8008E7F8093E80080914D
:10075000E80084FFFCCF8091E8008F7E8093E80062
:100760008091E8008B7F22C0103809F03FC1809152
:10077000E800877F8093E80080914F048093F10028
:100780008091E8008E7F8093E8008091E8008F7769
:100790008093E8008091E80082FFFCCF8091E80020
:1007A0008B7F8093E8008091E8008F778093E8004A
:1007B00030C1112309F01AC19091F1008091E3003A
:1007C0009F778078982B9093E3008091E800877F53
:1007D0008093E8008091E8008E7F8093E80080910C
:1007E000E80080FFFCCF8091E30080688093E30005
:1007F00010C1112309F0FAC09091F100923008F075
:10080000F5C08091E800877F8093E80090934F04C3
:100810008091E8008E7F8093E800892F0E94AA07CC
:10082000F8C01123C1F1123009F0E0C08091F1004D
:100830009091F100882309F0D9C0E091F100EF77A1
:10084000E093E9008091EB0080FF43C0EE23B1F01C
:100850008091EB0080618093EB0081E090E00E2EB0
:1008600002C0880F991F0A94E2F78093EA00109261
:10087000EA008091EB0088608093EB001092E90021
:10088000F0E0E85BFB4F108233C0112321F01230FF
:1008900009F0ACC003C08091F100A8C08091F100C4
:1008A0009091F100882309F0A1C0E091F100EF7769
:1008B00051F48091EB0080628093EB008091E8001E
:1008C000877F8093E800E093E9008091EB0080FD52
:1008D00003C01092E9008AC08091EB00806280938F
:1008E000EB001092E900F0E0E85BFB4F81E08083D1
:1008F0008091E800877F8093E8008091E8008E7FF8
:1009000055CF8091F1008091F100E091F100113814
:1009100029F0123859F0103809F068C08091E800C9
:10092000877F8093E8001092F1000DC08091E8006D
:10093000877F8093E800F0E0EF77F070E85BFB4F93
:1009400080818093F1001092F1008091E8008E7F09
:100950008093E8008091E80082FFFCCF1FCF113820
:1009600009F044C08091F1008091F1009091F10074
:1009700099839091F1009A838823C1F58091E800D2
:10098000877F8093E80089819A810E9488058093FF
:10099000F1008091E8008E7F8093E8008091E8006C
:1009A00082FFFCCFFBCE113009F56091F100809100
:1009B000F1009091F10099839091F1009A8388233E
:1009C000A9F48091E800877F8093E80089819A816B
:1009D0000E948A051092E9008091E8008E7F809342
:1009E000E8008091E80080FFFCCF13C0812F602FCA
:1009F0000E945A07882369F48091EB0080628093FB
:100A0000EB008091E800877F8093E80081E080938D
:100A100048040F900F90CF91DF911F910F9108958F
:100A20009091EB0091609093EB008093EC008091AB
:100A3000ED008270862B8093ED008091ED00826046
:100A40008093ED008091EE00881F8827881F08950D
:100A50009091F40080E090FD06C08F5F873011F028
:100A60009695F9CF80E00895FB018093E90004C0DA
:100A700081918093F10041508091E80085FF02C090
:100A80004423B1F7842F0895FB018093E90004C04B
:100A90008091F100819341508091E80085FF02C070
:100AA0004423B1F7842F08958093E900EBEEF0E042
:100AB00080818062808308958091D8008F7B8093AD
:100AC000D8008091D90081FF21C01092E900809167
:100AD000EB0080FD1BC01092E9008091EB0081606B
:100AE0008093EB0082E08093EC008091ED008270B7
:100AF00080638093ED008091ED0082608093ED0033
:100B00008091EE00881F8827881F089580E008954F
:100B100080E00895892B19F581E08093E9008091A8
:100B2000EB0080618093EB0092E09093EA001092DA
:100B3000EA008091EB0088608093EB009093E900DD
:100B40008091EB0080618093EB0084E08093EA0069
:100B50001092EA008091EB0088608093EB0008958A
:100B60008330F1F4613059F0613018F06230C1F433
:100B70000CC084E08093500481E091E00BC08CE0D5
:100B80008093500483ED90E005C082E2809350048E
:100B90008FED90E0909352048093510481E008958A
:100BA00080E00895DF93CF9300D000D0CDB7DEB7BB
:100BB0008091F1008B838091F1008C8385E3809399
:100BC000500485E091E09093520480935104809109
:100BD000F10089838091F1008A838091E800877F0A
:100BE0008093E80089819A818633910528F04091AD
:100BF000500425E031E01CC080935004F8CF809170
:100C0000E80080FFFCCFF90190E00AC0542F51505A
:100C1000903449F09F5F84918093F1003196452F85
:100C20009F01442399F78091E8008E7F8093E8002C
:100C3000442359F08091E80082FFE1CF30935204C1
:100C4000209351044093500406C0309352042093E3
:100C50005104109250048091E80082FFFCCF8091F3
:100C6000E8008B7F8093E8008091E8008F77809385
:100C7000E8000F900F900F900F90CF91DF910895A3
:100C80008091E800877F8093E8008091E8008E7F64
:100C90008093E8008091E80082FFFCCF8091E8001B
:100CA0008B7F8093E8008091E8008F778093E80045
:100CB0008091E8008E7F8093E8000895DF93CF93C2
:100CC00000D0CDB7DEB78091F10089838091F1002B
:100CD0008A838091E800877F8093E8006093040412
:100CE0008091E8008E7F8093E8008091E80080FF8B
:100CF000FCCF0F900F90CF91DF910895DF93CF93AA
:100D000000D000D0CDB7DEB78091F1008B83809109
:100D1000F1008C838091F10089838091F1008A83B6
:100D20008091E800877F8093E80089819A81892BF0
:100D300049F0809104048093F1008091E8008E7F57
:100D40008093E8008091E80082FFFCCF8091E8006A
:100D50008B7F8093E8008091E8008F778093E80094
:100D60000F900F900F900F90CF91DF910895809189
:100D7000E800877F8093E8008091E8008E7F809371
:100D8000E8008091E80082FFFCCF8091F10085357A
:100D900079F48091F1008A3A59F48091F100853517
:100DA00039F48091F1008A3A19F481E080930304C8
:100DB0008091E8008B7F8093E8008091E8008F7736
:100DC0008093E8008091E8008E7F8093E800809116
:100DD000E80080FFFCCF0895DF93CF9300D000D0D0
:100DE000CDB7DEB78091F1008B838091F1008C83C9
:100DF00089E0809350048CEB90E0909352048093B0
:100E000051048091F10089838091F1008A8380915F
:100E1000E800877F8093E80089819A818A30910574
:100E200028F0409150042CEB30E01CC0809350041B
:100E3000F8CF8091E80080FFFCCFF90190E00AC074
:100E4000542F5150903449F09F5F84918093F1006A
:100E50003196452F9F01442399F78091E8008E7FBA
:100E60008093E800442359F08091E80082FFE1CFAD
:100E700030935204209351044093500406C03093A1
:100E8000520420935104109250048091E80082FF94
:100E9000FCCF8091E8008B7F8093E8008091E80090
:100EA0008F778093E8000F900F900F900F90CF9165
:100EB000DF910895DF93CF9300D0CDB7DEB72091B7
:100EC000F1009091F100813869F46630E9F59132D2
:100ED00019F09232C9F503C00E94EC0633C00E949B
:100EE000D20530C0813239F5693019F06A3061F5C8
:100EF0000BC0923019F0933039F503C00E944006C0
:100F000021C00E94B7061EC08091F10089838091A4
:100F1000F1008A838091E800877F8093E8009093B6
:100F200004048091E8008E7F8093E8008091E800BF
:100F300080FFFCCF07C0813A39F4623029F4822F58
:100F40000E947E0681E001C080E00F900F90CF915B
:100F5000DF9108950F931F9309EE10E081E0F801EF
:100F6000808381EC60E00E94100582E0F8018083BC
:100F700080EC60E00E9410051F910F9108958F7022
:100F80008A3010F4805D0895895C0895982F80530D
:100F90008A3068F08151863010F4865F0895892F79
:100FA0008156863010F080E00895892F8755089586
:100FB000AF92BF92CF92DF92EF92FF920F931F9367
:100FC000DF93CF93CDB7DEB7E0970FB6F894DEBFCF
:100FD0000FBECDBFDC017A0159018C91853109F436
:100FE000A7C0863128F4813159F0823139F454C0D8
:100FF000873109F483C08A3109F478C092EAAEC01F
:1010000011969C911197913049F0913028F09230CF
:1010100029F0933041F404C086E003C083E001C0AE
:1010200084E08093050412968C9112978530C1F468
:101030008E010C5F1F4F892FB80145E00E945B0DA8
:10104000982F882309F084C020910504F701D80166
:1010500002C08D9181938A2F801B8217D0F319C013
:101060008430D1F48E010C5F1F4F892FB80144E00A
:101070000E948912982F882309F06AC020910504E4
:10108000F701D80102C08D9181938A2F801B8217AE
:10109000D0F3209302015EC0FD013196618172811F
:1010A0008EE0C82ED12CCC0EDD1E11968C9111979E
:1010B0001496AD01960103A10E94A70E982F8823D4
:1010C00009F046C040E050E09601F701E40FF51F3B
:1010D000D901A40FB51F8C9180834F5F5F4F4032C1
:1010E000510599F780E28093020134C011968C91EA
:1010F000119712966C910E94510D29C00E946C0CA0
:101100006EA77FA788ABDE011196FE01BE9683E035
:1011100001900D928150E1F78981F70180838A81E6
:1011200081838B81828383E08093020190E012C0EF
:10113000FD013196BF016F5F7F4F44855585119644
:101140008C9111971F969D01068D0E94290D982F55
:10115000F701908380910201F5018083892FE09649
:101160000FB6F894DEBF0FBECDBFCF91DF911F91B8
:101170000F91FF90EF90DF90CF90BF90AF900895C8
:10118000862FBA010E94CF1F80E008958F929F9210
:10119000AF92BF92CF92DF92EF92FF920F931F9385
:1011A000CF93DF936C01962E04ED14E0FF24C0E092
:1011B000D0E09FE7892E81E0A82EB12CC801692DCF
:1011C0000E947D1D882329F0C0932E04000080ED2D
:1011D00020C0F801808188258C7751F0C5010C2E44
:1011E00002C0880F991F0A94E2F78095F82208C080
:1011F000C5010C2E02C0880F991F0A94E2F7F82A45
:1012000021960F5F1F4FC830D105C1F6F601F0825D
:1012100080E0DF91CF911F910F91FF90EF90DF90D1
:10122000CF90BF90AF909F908F900895FF920F93B3
:101230001F93CF93DF93F62EC0E0D0E0082F10E08D
:10124000C8010C2E02C0959587950A94E2F780FF9D
:1012500004C08F2D0E94861C03C08F2D0E94C61CC7
:101260002196C830D10561F7DF91CF911F910F9181
:10127000FF9008954F925F926F927F928F929F920C
:10128000AF92BF92CF92DF92EF92FF920F931F9394
:10129000CF93DF934C01442EC22E009711F48FEEB2
:1012A000E5C01092D30460FFAAC088E2ECEDF4E040
:1012B000DF011D928A95E9F7822F0E943E1C8C2D3A
:1012C0000E94361E442011F089E901C088E86C2D87
:1012D0000E9416090E94571D8C2D0E94651C0E94B9
:1012E000FC1F04ED14E0FF24C0E0D0E05FE7D52E42
:1012F00041E0A42EB12CC8016C2D0E947D1D8823D5
:10130000A9F5F80180818D258C7751F0C5010C2E4F
:1013100002C0880F991F0A94E2F78095F82208C04E
:10132000C5010C2E02C0880F991F0A94E2F7F82A13
:1013300021960F5F1F4FC830D105E9F6F092DC040B
:10134000F8E2FF1508F491C0AA243FE7532E21E0EC
:10135000622E712C34C004ED14E0DD24C0E0D0E036
:10136000C8016C2D0E947D1D882329F0C0932E0496
:10137000000080ED7BC0D8018C9185258C7751F0E1
:10138000C3010C2E02C0880F991F0A94E2F78095C2
:10139000D82208C0C3010C2E02C0880F991F0A94DE
:1013A000E2F7D82A21960F5F1F4FC830D105C1F64A
:1013B000EDEDF4E0EE0EFF1ED701DC92A394EA2CD3
:1013C000FF248091DC0490E00197E816F90618F2FA
:1013D0000E9410206091DC04E62FF0E0E652FB4F03
:1013E0000081118162508CED94E00E943012081748
:1013F000190729F081E08093D3048FE837C0F40106
:101400004081493290F58CED94E0B40150E00E94A7
:1014100052290091DC04602F62508CED94E00E9410
:10142000301210E006521B4FD8018D939C938C2DE7
:101430000E943E1C442011F086E601C087E76C2D17
:101440000E94160900E009C0E02FF0E0E452FB4FD3
:1014500080816C2D0E9416090F5F8091DC040817B3
:1014600098F30E94571D80E001C080E9DF91CF9181
:101470001F910F91FF90EF90DF90CF90BF90AF90B2
:101480009F908F907F906F905F904F9008952F92D4
:101490003F924F925F926F927F928F929F92AF9204
:1014A000BF92CF92DF92EF92FF920F931F93DF9341
:1014B000CF9300D000D00F92CDB7DEB74C012B01F7
:1014C00049831801EA82A6E0B4E0FC0188E20190B9
:1014D0000D928150E1F78114910409F4E4C14114A3
:1014E000510409F4E0C12114310409F4DCC1109263
:1014F000D304ECEDF4E088E2DF01982F1D929A9579
:10150000E9F72B8320FFB5C0DF011D928A95E9F72B
:101510008C2D0E943E1C8C2D0E94361EBA81BB234E
:1015200011F089E901C088E86C2D0E9416090E941B
:10153000571D8C2D0E94651C0E94FC1FE4EDF4E0F9
:10154000FD83EC83FF2400E010E09FE7792E81E02B
:10155000A82EB12C8C819D816C2D0E947D1D88232D
:1015600021F000932E0400003BC0AC81BD818C9122
:1015700087258C7751F0C501002E02C0880F991F76
:101580000A94E2F78095F82208C0C501002E02C037
:10159000880F991F0A94E2F7F82A0F5F1F4FEC811A
:1015A000FD813196FD83EC830830110599F6F092A8
:1015B000DC04AA24B1E06B2E712C3EC084ED94E0D3
:1015C0009D838C83DD2400E010E08C819D816C2D57
:1015D0000E947D1D882331F000932E0400002D9879
:1015E00080ED62C1AC81BD818C91BFE78B278C7788
:1015F00051F0C301002E02C0880F991F0A94E2F730
:101600008095D82208C0C301002E02C0880F991F00
:101610000A94E2F7D82A0F5F1F4FEC81FD813196C3
:10162000FD83EC830830110581F68DED94E0E80E22
:10163000F91ED701DC92A394EA2CFF248091DC04EC
:1016400090E00197E816F90608F4B8CF0E94102040
:101650006091DC04E62FF0E0E652FB4F008111813F
:1016600062508CED94E00E9430120817190709F0BF
:10167000E7C0F4014081493208F013C18CED94E0D9
:10168000B40150E00E9452290091DC04602F6250A6
:101690008CED94E00E94301210E006521B4FD801EE
:1016A0008D939C938C2D0E943E1CBA81BB2311F01C
:1016B00086E601C087E76C2D0E94160910E009C07C
:1016C000E12FF0E0E452FB4F80816C2D0E9416095F
:1016D0001F5F8091DC04181798F30E94571D8981C1
:1016E0000E948C1E88E2ECEDF4E0DF011D928A95E9
:1016F000E9F7BA81BB2311F089E901C088E86C2DB4
:101700000E9416090E94571D8C2D0E94651C0E9484
:10171000FC1FA4ED6A2EA4E07A2EFF2400E010E066
:10172000FFE79F2EE1E0AE2EB12CC3016C2D0E948D
:101730007D1D882331F000932E04000000008FEC03
:10174000B3C0F301808189258C7751F0C501002E4B
:1017500002C0880F991F0A94E2F78095F82208C00A
:10176000C501002E02C0880F991F0A94E2F7F82ADB
:101770000F5F1F4F0894611C711C08301105A9F6FA
:10178000F092DC04AA247FE7772E61E0862E912C6C
:101790003BC084ED94E09D838C83DD2400E010E069
:1017A0008C819D816C2D0E947D1D882321F00093EA
:1017B0002E04000028C0AC81BD818C9187258C77D8
:1017C00051F0C401002E02C0880F991F0A94E2F75D
:1017D0008095D82208C0C401002E02C0880F991F2E
:1017E0000A94E2F7D82A0F5F1F4FEC81FD813196F2
:1017F000FD83EC830830110599F68DED94E0E80E39
:10180000F91ED701DC92A394EA2CFF248091DC041A
:1018100090E00197E816F90608F4BBCF0E9410206B
:101820006091DC04E62FF0E0E652FB4F008111816D
:1018300062508CED94E00E9430120817190729F0CD
:1018400081E08093D3048FE82FC0BB81B1FF0CC02F
:101850008C2D0E943E1C8CEC6C2D0E9416090E945F
:10186000571D86E00E948C1ED1014C918091DC04B2
:101870004817A8F0C20160E070E050E00E946429BF
:101880004091DC04C2016CED74E050E00E945229EA
:101890008091DC04F1018083000080E005C0D1016B
:1018A0001C9280E901C08FEE0F900F900F900F9067
:1018B0000F90CF91DF911F910F91FF90EF90DF90EC
:1018C000CF90BF90AF909F908F907F906F905F90E0
:1018D0004F903F902F900895DF93CF9300D00F92B9
:1018E000CDB7DEB7DE011196E3E0F1E083E00190D1
:1018F0000D928150E1F769817A818B8190E00F90A0
:101900000F900F90CF91DF9108950E94F50E0895EA
:101910000E94F80E08958F929F92AF92BF92CF923D
:10192000DF92EF92FF920F931F93DF93CF93CDB788
:10193000DEB7C85DD0400FB6F894DEBF0FBECDBF96
:101940004C016B017A015901DE011196EEE0F1E0E4
:1019500088E001900D928150E1F7DE011996E6E0F2
:10196000F1E088E001900D928150E1F7811491043B
:1019700009F45AC0C114D10409F456C0E114F104A9
:1019800009F452C0A114B10409F44EC0F7018785CF
:10199000816087878E010F5C1F4FC8010E94121A59
:1019A000C801B60120E230E040E050E00E94111B87
:1019B000C801BE016F5F7F4F28E030E040E050E09B
:1019C0000E94111BC801B70120E130E040E050E067
:1019D0000E94111BC801BE01675F7F4F28E030E005
:1019E00040E050E00E94111B81E1E82EF12CEC0E4A
:1019F000FD1EC801B7010E94331A40E050E0950176
:101A0000240F351FF701E40FF51FD401A40FB51FF4
:101A100080819C918927F90180834F5F5F4F4B3014
:101A2000510569F780E001C08FEEC852DF4F0FB655
:101A3000F894DEBF0FBECDBFCF91DF911F910F9104
:101A4000FF90EF90DF90CF90BF90AF909F908F90DE
:101A500008950F931F93CF93DF93182FEB01F90194
:101A600061157105C1F021153105A9F0882369F0D0
:101A70004115510581F0878581608787CA01B901C9
:101A8000402F0E94250F882339F4812FBE01402F5B
:101A90000E947C0F01C08FEEDF91CF911F910F91BB
:101AA0000895982F8054873110F08FEE0895892F74
:101AB0000E94D10F089561157105E9F0813061F040
:101AC000813028F0823069F08330A9F40FC0CB0157
:101AD000642F0E9413100895CB01642F0E94BC1044
:101AE0000895CB01642F0E94C6110895CB01642F85
:101AF0000E94761008958FEE08954F925F926F9234
:101B00007F928F929F92AF92BF92CF92EF92FF926D
:101B10000F931F93DF93CF93CDB7DEB7C05CD04058
:101B20000FB6F894DEBF0FBECDBFFE01E254FF4FEB
:101B3000918380834B013A01AE0140545F4FFA011B
:101B40002083580127016115710509F4E6C061146D
:101B5000710409F4E2C00115110509F4DEC0E114B5
:101B6000F10409F4DAC098E09983DE01189686E062
:101B7000FD0111928A95E9F783E0BE016E5F7F4F08
:101B8000FB01282F11922A95E9F79E012B5F3F4F09
:101B9000F90111928A95E9F79E01225F3F4FF90101
:101BA00011929A95E9F7FA0180818823B1F186FFB5
:101BB00008C0CD016C2D0E941310F82E882309F067
:101BC000AEC08E010E5F1F4FC8016C2D0E94BC106D
:101BD000F82E882309F0A3C08C8187FF06C083E01C
:101BE000F80111928A95E9F718C0FE01E054FF4F01
:101BF000808184FD05C083E0F80111928A95E9F7A0
:101C0000FE01E054FF4F8081807339F0CE010E96C3
:101C1000B50148E050E00E94522925E0A22EB12CE7
:101C2000AC0EBD1EC5016C2D0E94C611F82E882376
:101C300009F075C08E010A5E1F4FC8010E94121A7A
:101C4000C801B40120E230E040E050E00E94111BE6
:101C5000C801B30120E230E040E050E00E94111BD7
:101C6000C801BE016F5F7F4F21E030E040E050E0EF
:101C70000E94111BC801BE0160547F4F21E030E07B
:101C800040E050E00E94111BC801BE0162547F4F2A
:101C900022E030E040E050E00E94111BC801BE018C
:101CA000625F7F4F28E030E040E050E00E94111B6F
:101CB000C801BE016E5F7F4F23E030E040E050E09E
:101CC0000E94111BC801BE01695F7F4F21E030E017
:101CD00040E050E00E94111BC801BE01665F7F4FCB
:101CE00024E030E040E050E00E94111BC801B50143
:101CF00022E030E040E050E00E94111BC801BE012C
:101D0000685F7F4F22E030E040E050E00E94111B0E
:101D1000C801B2010E94651A02C09FEEF92E8F2DF4
:101D2000C054DF4F0FB6F894DEBF0FBECDBFCF91CA
:101D3000DF911F910F91FF90EF90CF90BF90AF90E8
:101D40009F908F907F906F905F904F9008950F932A
:101D50000E945B110F910895AF92BF92CF92DF92D4
:101D6000EF92FF920F931F93DF93CF93CDB7DEB720
:101D7000A0970FB6F894DEBF0FBECDBF6901580122
:101D80000E2D41155105F1F021153105D9F0A114A1
:101D9000B104C1F07E010894E11CF11C97010E947E
:101DA0005B11182F882379F4C601B70140E250E097
:101DB0000E943C29009711F480E001C08FEEF501EC
:101DC000808301C01FEE812FA0960FB6F894DEBF6E
:101DD0000FBECDBFCF91DF911F910F91FF90EF907C
:101DE000DF90CF90BF90AF9008950E94C0080895F3
:101DF000EF92FF920F931F93DF93CF9300D000D009
:101E00000F92CDB7DEB7182F062F7E010894E11C84
:101E1000F11CC70166E171E045E050E00E945229E3
:101E20001B83C70161E040E0202F0E943A09811125
:101E300080ED0F900F900F900F900F90CF91DF914A
:101E40001F910F91FF90EF900895BF92CF92DF9274
:101E5000EF92FF920F931F93DF93CF93CDB7DEB72F
:101E60006A970FB6F894DEBF0FBECDBF6C017B0141
:101E7000B42E6115710511F48FEE2EC084E08983B4
:101E80008E010A5F1F4FC8016BE171E045E150E030
:101E90000E945229DA86C986CE010B96B70140E12D
:101EA00050E00E945229C801BE016E5F7F4F44E09E
:101EB00021E08E010F5F1F4FEE24CB2C0E94470ABA
:101EC000882311F080ED08C08981843011F080E909
:101ED00003C08B81811180EE6A960FB6F894DEBF45
:101EE0000FBECDBFCF91DF911F910F91FF90EF906B
:101EF000DF90CF90BF900895CF92EF920F931F93F2
:101F0000DF93CF93CDB7DEB765970FB6F894DEBFFA
:101F10000FBECDBFE82E8B01C42E6115710511F4E3
:101F20009FEE31C084E08983CE01069660E371E0C4
:101F300040E150E00E9452298E2D81708887CE01A9
:101F40000B96B8014BE050E00E945229EE2011F4AC
:101F500023E001C022E0CE010696BE016E5F7F4FF6
:101F600044E08E010F5F1F4FEE240E94470A982F16
:101F70000000882341F48981843011F09EEC03C075
:101F80008B81811190EE892F65960FB6F894DEBF94
:101F90000FBECDBFCF91DF911F910F91EF90CF90EA
:101FA0000895CF92EF92FF920F931F93DF93CF93F9
:101FB000CDB7DEB728970FB6F894DEBF0FBECDBF02
:101FC000F82EC62E84E089838E010E5F1F4FC80154
:101FD00060E471E043E050E00E945229FC82C801B5
:101FE000BE016B5F7F4F43E023E08E010F5F1F4F09
:101FF000EE240E94470A882311F080ED06C08981F3
:10200000843011F480E001C080E928960FB6F8947E
:10201000DEBF0FBECDBFCF91DF911F910F91FF901B
:10202000EF90CF9008956F927F928F929F92AF9290
:10203000BF92CF92EF92FF920F931F93DF93CF93B4
:10204000CDB7DEB728970FB6F894DEBF0FBECDBF71
:102050005C01F62E009711F48FEE34C087E089837F
:1020600082E0682E712C6C0E7D1E85E491E0B30138
:1020700042E023E04E010894811C911C8401EE246F
:10208000CF2C0E94470A8823E1F4C501BE016B5F93
:102090007F4F42E050E00E9452298AE491E0B30170
:1020A00042E023E00E94470A882359F4C5010296C2
:1020B000BE016D5F7F4F44E050E00E94522980E0F6
:1020C00001C080ED28960FB6F894DEBF0FBECDBFDD
:1020D000CF91DF911F910F91FF90EF90CF90BF9024
:1020E000AF909F908F907F906F900895AF92BF9226
:1020F000CF92EF920F931F93DF93CF93CDB7DEB7BD
:1021000028970FB6F894DEBF0FBECDBF5C01C62E78
:10211000009711F48FEE21C087E0898384E591E078
:10212000BE016E5F7F4F42E023E08E010F5F1F4FC5
:10213000EE240E94470A882311F080ED0EC08981A9
:10214000873011F080E909C0C501BE016D5F7F4F86
:1021500044E050E00E94522980E028960FB6F8949F
:10216000DEBF0FBECDBFCF91DF911F910F91EF90DA
:10217000CF90BF90AF900895AF92BF92CF92EF9261
:102180000F931F93DF93CF93CDB7DEB728970FB68A
:10219000F894DEBF0FBECDBF5C01C62E009711F4D0
:1021A0008FEE21C087E089838FE491E0BE016E5FEE
:1021B0007F4F42E023E08E010F5F1F4FEE240E940D
:1021C000470A882311F080ED0EC08981873011F015
:1021D00080E909C0C501BE016D5F7F4F43E050E05B
:1021E0000E94522980E028960FB6F894DEBF0FBEF9
:1021F000CDBFCF91DF911F910F91EF90CF90BF9006
:10220000AF900895AF92BF92CF92DF92EF92FF927C
:102210000F931F93DF93CF93CDB7DEB72D970FB6F4
:10222000F894DEBF0FBECDBFD82E7B015A01C22E5F
:102230004115510511F48FEE2DC087E089838E0181
:102240000E5F1F4FC80165E471E045E050E00E9459
:102250005229DC82FE82ED82C801BE01695F7F4F98
:1022600043E023E08E010F5F1F4FEE240E94470AD8
:10227000882311F080ED0EC08981873011F080E94C
:1022800009C0C501BE01685F7F4F44E050E00E9475
:10229000522980E02D960FB6F894DEBF0FBECDBF59
:1022A000CF91DF911F910F91FF90EF90DF90CF9032
:1022B000BF90AF9008958F929F92AF92BF92CF92AE
:1022C000DF92EF92FF920F931F93DF93CF93CDB7DF
:1022D000DEB7C954D0400FB6F894DEBF0FBECDBFF5
:1022E000982E6B017A015901802E83E289838E0139
:1022F0000B5D1F4FC80169E571E045E250E00E94A7
:102300005229E114F10469F1A114B10451F19FA221
:10231000D9A6C8A6CE018A96B70140E250E00E9435
:102320005229C801BE016E5F7F4F41E023E08E015C
:102330000F5F1F4FEE24C82C0E94470A882311F01C
:1023400080ED10C08981833211F080E90BC0C50196
:10235000BE016D5F7F4F40E250E00E94522980E055
:1023600001C08FEEC75BDF4F0FB6F894DEBF0FBE24
:10237000CDBFCF91DF911F910F91FF90EF90DF9034
:10238000CF90BF90AF909F908F9008956F927F9263
:102390008F929F92AF92BF92CF92EF92FF920F9344
:1023A0001F93DF93CF93CDB7DEB728970FB6F8947E
:1023B000DEBF0FBECDBF5C01F62E009711F48FEE8D
:1023C0003BC087E0898392E0692E712C6C0E7D1EE4
:1023D00085E491E0B30142E023E04E010894811CC2
:1023E000911C8401EE24CF2C0E94470A882319F502
:1023F0008981873011F080E91FC0C501BE016D5F82
:102400007F4F42E050E00E9452298FE491E0B301F7
:1024100042E023E08401EE24CF2C0E94470A882367
:1024200051F48981873011F08EEC06C08E81F50160
:10243000828380E001C080ED28960FB6F894DEBF5D
:102440000FBECDBFCF91DF911F910F91FF90EF9005
:10245000CF90BF90AF909F908F907F906F90089596
:102460001F93CF93DF93162FDC0170E020E030E064
:10247000C5E0D0E818C090E0862F8E2309F091E0E7
:10248000832F881F8827881F220F331F981711F06A
:102490002C273D27EE0FFF1F4F5F5F4F4830510540
:1024A00051F77F5F1196711730F46C91E1E0F0E025
:1024B00040E050E0E0CFC901DF91CF911F91089536
:1024C000DF93CF9300D00F92CDB7DEB7DE01119628
:1024D000EEE7F1E083E001900D928150E1F7698130
:1024E0007A818B8190E00F900F900F90CF91DF91C8
:1024F00008950E94AB140895853010F08FEE089572
:102500000E94831608950E944C1408950E940F158E
:10251000089561157105E9F0813061F0813028F08E
:10252000823069F08330A9F40FC0CB01642F0E9480
:1025300005130895CB01642F0E94AC130895CB01BD
:10254000642F0E94EE130895CB01642F0E946A133A
:1025500008958FEE08954115510529F0263018F49D
:102560000E94201608958FEE08956115710529F0D7
:10257000463018F40E94C41508958FEE0895EF9226
:10258000FF920F93CF93DF93FB01EA01790161156D
:10259000710541F04115510529F02115310511F062
:1025A000063018F0809181011AC06A817B81AF01E9
:1025B000202F0E94201680938101882381F4898135
:1025C0008072BE01402F0E94C41580938101882330
:1025D00031F4C701602F0E94701580938101DF9153
:1025E000CF910F91FF90EF900895009729F06630FA
:1025F00018F40E94701508958FEE0895663010F05B
:102600008FEE08950E94C00808956F927F928F9276
:102610009F92AF92BF92CF92EF92FF920F931F9330
:10262000DF93CF93CDB7DEB728970FB6F894DEBF10
:102630000FBECDBF5C01F62E009711F41FEE35C022
:1026400087E0898382E0682E712C6C0E7D1E82E803
:1026500091E0B30142E023E04E010894811C911CFB
:102660008401EE24E394CF2C0E94470A182F88237C
:10267000E1F4C501BE016B5F7F4F42E050E00E9474
:10268000522987E891E0B30142E023E084010E94EF
:10269000470A182F882349F4C5010296BE016D5FD1
:1026A0007F4F44E050E00E945229812F28960FB6B8
:1026B000F894DEBF0FBECDBFCF91DF911F910F9178
:1026C000FF90EF90CF90BF90AF909F908F907F90B2
:1026D0006F900895AF92BF92CF92EF920F931F9396
:1026E000DF93CF93CDB7DEB728970FB6F894DEBF50
:1026F0000FBECDBF5C01C62E009711F48FEE1DC03A
:1027000087E0898381E991E0BE016E5F7F4F42E0FF
:1027100023E08E010F5F1F4FEE24E3940E94470ACF
:10272000882311F080ED09C0C501BE016D5F7F4FA8
:1027300044E050E00E94522980E028960FB6F894B9
:10274000DEBF0FBECDBFCF91DF911F910F91EF90F4
:10275000CF90BF90AF900895AF92BF92CF92EF927B
:102760000F931F93DF93CF93CDB7DEB728970FB6A4
:10277000F894DEBF0FBECDBF5C01C62E009711F4EA
:102780008FEE1DC087E089838CE891E0BE016E5F0B
:102790007F4F42E023E08E010F5F1F4FEE24E39452
:1027A0000E94470A882311F080ED09C0C501BE01CF
:1027B0006D5F7F4F43E050E00E94522980E02896F1
:1027C0000FB6F894DEBF0FBECDBFCF91DF911F9142
:1027D0000F91EF90CF90BF90AF9008956F927F923E
:1027E0008F929F92AF92BF92CF92EF92FF920F93F0
:1027F0001F93DF93CF93CDB7DEB728970FB6F8942A
:10280000DEBF0FBECDBF5C01F62E009711F48FEE38
:102810002FC087E0898392E0692E712C6C0E7D1E9B
:1028200082E891E0B30142E023E04E010894811C6C
:10283000911C8401EE24E394CF2C0E94470A882344
:10284000B1F4C501BE016D5F7F4F42E050E00E94D0
:1028500052298CE891E0B30142E023E00E94470A4C
:10286000882329F48E81F501828380E001C080ED08
:1028700028960FB6F894DEBF0FBECDBFCF91DF9183
:102880001F910F91FF90EF90CF90BF90AF909F90CE
:102890008F907F906F900895BF92CF92DF92EF92CA
:1028A000FF920F931F93DF93CF93CDB7DEB76A9755
:1028B0000FB6F894DEBF0FBECDBF6C017B01B42E06
:1028C0006115710511F48FEE36C084E089838E01A5
:1028D0000A5F1F4F85E1F80111928A95E9F7C80157
:1028E00066E971E045E150E00E94522987E18E835C
:1028F000DA86C986CE010B96B70140E150E00E940E
:102900005229C801BE016E5F7F4F41E021E08E0178
:102910000F5F1F4FEE24E394CB2C0E94470A8823BD
:1029200011F080ED08C08981843011F080E903C086
:102930008B81811180EE6A960FB6F894DEBF0FBED0
:10294000CDBFCF91DF911F910F91FF90EF90DF905E
:10295000CF90BF900895CF92DF92EF92FF920F93A6
:102960001F93DF93CF93CDB7DEB765970FB6F8947B
:10297000DEBF0FBECDBFD82E7B018A01C22E41150E
:10298000510511F49FEE3BC084E08983FE01369629
:1029900080E1DF011D928A95E9F7CF016CEA71E0D1
:1029A00040E150E00E94522982E18E838D2D81709A
:1029B0008887FA86E986CE010B96B8014BE050E095
:1029C0000E945229DD2011F423E001C022E0CE0153
:1029D0000696BE016E5F7F4F44E08E010F5F1F4F72
:1029E000EE24E3940E94470A982F882341F48981BA
:1029F000843011F090E903C08B81811190EE892F12
:102A000065960FB6F894DEBF0FBECDBFCF91DF91B4
:102A10001F910F91FF90EF90DF90CF900895AF92AC
:102A2000BF92CF92DF92EF92FF920F931F93DF93AB
:102A3000CF93CDB7DEB72E970FB6F894DEBF0FBE9B
:102A4000CDBFD82E7B015A01C22E4115510511F47C
:102A50008FEE35C087E089838E010E5F1F4F86E0C1
:102A6000F80111928A95E9F7C8016DEB71E046E033
:102A700050E00E94522988E08A83DC82FE82ED8247
:102A8000C801BE01685F7F4F43E023E08E010F5F06
:102A90001F4FEE24E3940E94470A882311F080ED33
:102AA0000EC08981873011F080E909C0C501BE01DF
:102AB000675F7F4F44E050E00E94522980E02E96ED
:102AC0000FB6F894DEBF0FBECDBFCF91DF911F913F
:102AD0000F91FF90EF90DF90CF90BF90AF9008954F
:102AE000CF92EF92FF920F931F93DF93CF93CDB7C7
:102AF000DEB7AA970FB6F894DEBF0FBECDBF7C013C
:102B0000C62E009711F48FEE31C084E089838E01C8
:102B10000A5F1F4F85E2F80111928A95E9F7C80113
:102B200063EC71E045E250E00E94522987E28E8317
:102B3000CE010B96B70140E250E00E945229C80135
:102B4000BE016E5F7F4F41E022E08E010F5F1F4F9D
:102B5000EE24E3940E94470A882311F080ED06C01A
:102B60008981843011F480EF01C080E9AA960FB604
:102B7000F894DEBF0FBECDBFCF91DF911F910F91B3
:102B8000FF90EF90CF900895CF92DF92EF92FF9257
:102B90000F931F93DF93CF93CDB7DEB767970FB631
:102BA000F894DEBF0FBECDBFE82E6B01F42E611589
:102BB000710511F48FEE35C084E089838E010A5FC0
:102BC0001F4F82E1F80111928A95E9F7C80169EC7B
:102BD00071E042E150E00E94522984E18E83F0E2EC
:102BE000EF22E886CE010B96B6014DE050E00E9440
:102BF0005229C801BE016E5F7F4F41E020E08E0187
:102C00000F5F1F4FEE24E394CF2C0E94470A8823C6
:102C100011F080ED06C08981843011F480EF01C08D
:102C200080E967960FB6F894DEBF0FBECDBFCF9197
:102C3000DF911F910F91FF90EF90DF90CF9008955B
:102C4000AF92BF92CF92DF92EF92FF920F931F93BA
:102C5000DF93CF93CDB7DEB7AA970FB6F894DEBF58
:102C60000FBECDBFB82E6B017A01A22E41155105C2
:102C700011F48FEE37C084E089838E010A5F1F4F05
:102C800085E2F80111928A95E9F7C8016FEC71E0CD
:102C900045E250E00E94522987E28E83B886DA86A8
:102CA000C986CE010B96B70140E250E00E9452293E
:102CB000C801BE016E5F7F4F41E021E08E010F5FD2
:102CC0001F4FEE24E394CA2C0E94470A882311F078
:102CD00080ED08C08981843011F080E903C08B81C8
:102CE000811180EFAA960FB6F894DEBF0FBECDBF5C
:102CF000CF91DF911F910F91FF90EF90DF90CF90D8
:102D0000BF90AF900895FF920F931F93DF93CF93DF
:102D100000D000D00F92CDB7DEB7F82E8E010F5F36
:102D20001F4F85E0F80111928A95E9F7C8016FE21B
:102D300074E045E050E00E94522987E08983C80191
:102D400061E041E02F2D0E943A09811180ED0F9042
:102D50000F900F900F900F90CF91DF911F910F91D7
:102D6000FF9008952F923F924F925F926F927F92C1
:102D70008F929F92AF92BF92CF92DF92EF92FF928B
:102D80000F931F93DF93CF93CDB7DEB7C054D140DD
:102D90000FB6F894DEBF0FBECDBFC15DDE4F7983A5
:102DA0006883CF52D140CF5CDE4F288339834A837A
:102DB0005B83C153D140C75DDE4F19821882C9526F
:102DC000D1409E012F5D3F4FC15CDE4F3983288388
:102DD000CF53D140A9014C5D5F4FC75CDE4F598393
:102DE0004883C953D140DE01AB5FBE4FC35CDE4FA9
:102DF000B983A883CD53D14088579F4FC55CDE4F20
:102E000099838883CB53D140E3C2C75DDE4F0881ED
:102E10001981C952D14026E0000F111F2A95E1F710
:102E2000C15DDE4FE881F981CF52D1400E0F1F1FE7
:102E30009E012F5D3F4FCD5DDE4F39832883C35206
:102E4000D140790160E070E0FB01EE0FFF1FEE0F53
:102E5000FF1FE00FF11F208130E040E050E0522FD3
:102E6000442733272227838190E0A0E0B0E0282B7D
:102E7000392B4A2B5B2B828190E0A0E0B0E0BA2F87
:102E8000A92F982F8827282B392B4A2B5B2B818140
:102E900090E0A0E0B0E0DC0199278827282B392BAF
:102EA0004A2B5B2BD7012D933D934D935D937D0171
:102EB0006F5F7F4F6031710539F6C75CDE4FE88187
:102EC000F981C953D140A488B588C688D788CD5D1B
:102ED000DE4FA881B981C352D14014966D907D9088
:102EE0008D909C9017972D903D904D905D90CD5D6D
:102EF000DE4FB983A883C352D14080819181A281E2
:102F0000B381280E391E4A1E5B1ED601C50103E19E
:102F1000B695A795979587950A95D1F7A60195013E
:102F20001DE0220F331F441F551F1A95D1F7822B26
:102F3000932BA42BB52BA601950171E156954795CE
:102F4000379527957A95D1F7860175016FE0EE0CDC
:102F5000FF1C001F111F6A95D1F72E293F29402B16
:102F6000512B82279327A427B5272AE0D694C7940C
:102F7000B794A7942A95D1F78A259B25AC25BD2522
:102F8000280E391E4A1E5B1ED401C30102E1B6950C
:102F9000A795979587950A95D1F7A40193011EE00F
:102FA000220F331F441F551F1A95D1F7822B932BE5
:102FB000A42BB52BA401930177E05695479537953F
:102FC00027957A95D1F78401730169E1EE0CFF1C16
:102FD000001F111F6A95D1F72E293F29402B512B35
:102FE00082279327A427B52723E096948794779484
:102FF00067942A95D1F786259725A825B925280E07
:10300000391E4A1E5B1E248E358E468E578E349690
:10301000C35CDE4F28813981CD53D140E217F307DD
:1030200009F051CFC55CDE4F48815981CB53D14067
:10303000C95DDE4F59834883C752D140CE01019606
:10304000CB5DDE4F99838883C552D140FA01CF5DB5
:10305000DE4F99838883C152D140219131914191B2
:103060005191CF5DDE4FA881B981C152D1402D93DE
:103070003D934D935D93CF5DDE4FB983A883C152DD
:10308000D140C15CDE4F28813981CF53D140A21796
:10309000B30719F760E070E0A988BA88CB88DC88AC
:1030A000898D9A8DAB8DBC8DC55DDE4F88839983EC
:1030B000AA83BB83CB52D140FB01EB50FE4F208053
:1030C0003180428053808D8D9E8DAF8DB8A1280EAA
:1030D000391E4A1E5B1EE1E2F0E0EC0FFD1FE60F19
:1030E000F71F80819181A281B381280E391E4A1E6B
:1030F0005B1EA60195010BE05695479537952795E0
:103100000A95D1F7D601C50115E1880F991FAA1FAD
:10311000BB1F1A95D1F7282B392B4A2B5B2BD601D5
:10312000C501F6E0B695A79597958795FA95D1F7DD
:1031300086017501EAE1EE0CFF1C001F111FEA95E4
:10314000D1F78E299F29A02BB12B282739274A2771
:103150005B27D601C501F9E1B695A79597958795A7
:10316000FA95D1F786017501E7E0EE0CFF1C001F10
:10317000111FEA95D1F78E299F29A02BB12B282763
:1031800039274A275B27220E331E441E551ED601BF
:10319000C50180959095A095B095C55DDE4F2881BD
:1031A00039814A815B81CB52D14082239323A4236E
:1031B000B5232D893E894F89588DCB5CDE4F2883FE
:1031C00039834A835B83C553D1402A213B214C215B
:1031D0005D2182279327A427B527280E391E4A1E72
:1031E0005B1E69807A808B809C80ED80FE800F81E1
:1031F000188529853A854B855C85C55DDE4F8881BC
:103200009981AA81BB81CB52D1408D8F9E8FAF8F88
:10321000B8A3CB5CDE4F88819981AA81BB81C5535D
:10322000D140898F9A8FAB8FBC8FAD8ABE8ACF8AEF
:10323000D88E8D859E85AF85B889820D931DA41D7E
:10324000B51D898B9A8BAB8BBC8B2D873E874F87A7
:10325000588BE986FA860B871C876D827E828F8267
:10326000988657016801A226B326C426D526A62033
:10327000B720C820D9202E213F2140235123A22648
:10328000B326C426D526A40193010DE05695479593
:10329000379527950A95D1F7D401C30113E1880F1B
:1032A000991FAA1FBB1F1A95D1F7282B392B4A2B20
:1032B0005B2BD401C301F2E0B695A795979587954E
:1032C000FA95D1F784017301EEE1EE0CFF1C001FAB
:1032D000111FEA95D1F78E299F29A02BB12B282702
:1032E00039274A275B27D401C301FAE0880F991FC9
:1032F000AA1FBB1FFA95D1F7E6E1969487947794BD
:103300006794EA95D1F786299729A829B92928270A
:1033100039274A275B27A20EB31EC41ED51EA20C56
:10332000B31CC41CD51CA982BA82CB82DC826C5F20
:103330007F4F91E06030790709F0AECEC95DDE4F76
:10334000E881F981C752D14080819181A281B38106
:10335000CB5DDE4FE881F981C552D1402191319199
:1033600041915191CB5DDE4FF983E883C552D14045
:10337000820F931FA41FB51FC95DDE4FE881F9813D
:10338000C752D14081939193A193B193C95DDE4F10
:10339000F983E883C752D140CB5DDE4F2881398164
:1033A000C552D140CF5DDE4F48815981C152D140D5
:1033B0002417350719F6C75DDE4F88819981C952F8
:1033C000D1400196C75DDE4F99838883C952D140B1
:1033D000C75DDE4FA881B981C952D140CF5CDE4FB5
:1033E000E881F981C153D140AE17BF070CF40DCD70
:1033F000C05CDE4F0FB6F894DEBF0FBECDBFCF91DD
:10340000DF911F910F91FF90EF90DF90CF90BF90D1
:10341000AF909F908F907F906F905F904F903F9074
:103420002F900895CF93DF93EC01E5EDF1E09C013F
:1034300028573F4F4191519161917191D9014D931D
:103440005D936D937D939D01B1E0E53FFB0791F79F
:103450001C821D821E821F82188219821A821B8280
:10346000DF91CF910895CF93DF93EC01C857DF4FE1
:1034700020E030E0F901EE0FFF1FEE0FFF1FE60F17
:10348000F71F8881838388819981AA81BB81892FD5
:103490009A2FAB2FBB27828388819981AA81BB8118
:1034A000CD01AA27BB27818389919991A991B991CF
:1034B0008B2F9927AA27BB2780832F5F3F4F283068
:1034C0003105C1F6DF91CF9108954F925F926F92CF
:1034D0007F928F929F92AF92BF92CF92DF92EF92A4
:1034E000FF920F931F93CF93DF93EC012B012C815D
:1034F0003D814E815F81DA01C9018F739070A070A8
:10350000B070C897A105B10530F471E0672E712C39
:10351000812C912C05C062E0662E712C812C912C9F
:10352000A880B980CA80DB80A20EB31EC41ED51E3F
:1035300053E0AA0CBB1CCC1CDD1C5A95D1F78401AE
:10354000730146E0EE0CFF1C001F111F4A95D1F7D6
:10355000F701E21BF30B285F3F4F2C0F3D1FC90102
:1035600060E070E0AF010E946429EC81FD81EC0F06
:10357000FD1F80E88087EC0EFD1EF701A782BB27A8
:10358000AD2D9C2D8B2D8683C601AA27BB27858355
:10359000AD2CBB24CC24DD24A482CE012896BE0110
:1035A000A40193010E94B216C058DF4F20E030E022
:1035B000F901EE0FFF1FEE0FFF1FE40DF51D8881CF
:1035C000838388819981AA81BB81892F9A2FAB2F10
:1035D000BB27828388819981AA81BB81CD01AA27DB
:1035E000BB27818389919991A991B9918B2F9927B3
:1035F000AA27BB2780832F5F3F4F28303105C1F6B4
:10360000DF91CF911F910F91FF90EF90DF90CF90BE
:10361000BF90AF909F908F907F906F905F904F90F2
:1036200008954F925F926F927F928F929F92AF9286
:10363000BF92CF92DF92EF92FF920F931F93CF939F
:10364000DF93EC012B0159016A012C813D814E81F0
:103650005F8180E490E0A0E0B0E0821B930BA40BBC
:10366000B50B350146018A159B05AC05BD0510F467
:103670003C014D01285F3F4F2C0F3D1FC901B20196
:10368000A3010E9449298C819D81AE81BF818A0D51
:103690009B1DAC1DBD1D80349105A105B10528F40D
:1036A0008C839D83AE83BF8353C0A618B708C80818
:1036B000D90886017501B6E016950795F794E79449
:1036C000BA95D1F7640C751CA8E08A2E912C8C0E4B
:1036D0009D1ECE01B40121E030E040E050E00E94A8
:1036E000B216CE01B301A80197010E94B2168FE372
:1036F00090E0A0E0B0E0A822B922CA22DB22970124
:10370000F6E0220F331FFA95E1F7260D371DC401AD
:10371000B901A5010E944929AC82BD82CE82DF8217
:103720000894E11CF11C011D111DE6E0EE0CFF1CCC
:10373000001F111FEA95D1F788819981AA81BB8169
:103740008E0D9F1DA01FB11F88839983AA83BB8301
:10375000DF91CF911F910F91FF90EF90DF90CF906D
:10376000BF90AF909F908F907F906F905F904F90A1
:1037700008958F929F92AF92BF92CF92DF92EF9275
:10378000FF920F931F93DF93CF93CDB7DEB7C85A45
:10379000D0400FB6F894DEBF0FBECDBF5C016A010A
:1037A0007B014901E5EDF1E09E0127573F4F419133
:1037B000519161917191D9014D935D936D937D9379
:1037C0009D01B1E0E53FFB0791F71D821E821F823C
:1037D000188619821A821B821C828E010F5F1F4F6E
:1037E000C801B501A70196010E94111BC801B401CF
:1037F0000E94651AC855DF4F0FB6F894DEBF0FBEA2
:10380000CDBFCF91DF911F910F91FF90EF90DF908F
:10381000CF90BF90AF909F908F9008950E943601F7
:103820000E94D90080E090E020E80FB6F894209341
:103830006100809361000FBE8AB180678AB920E081
:1038400040E951E08BB180678BB988E893E1FA01D8
:103850003197F1F70197D9F78BB18F788BB988E859
:1038600093E1FA013197F1F70197D9F72F5F2330F0
:1038700049F70E94D40080E090E00895823089F0FA
:10388000833028F48823C9F08130B9F407C084302C
:1038900071F0843048F0853081F40CC0299A219A67
:1038A0000EC02A9A229A0BC02B9A239A08C02E9AED
:1038B000269A05C02F9A279A02C0289A209A87EC48
:1038C0008A9501F0E9F7C8950895823081F0833038
:1038D00028F48823A1F0813091F407C0843059F096
:1038E000843038F0853059F408C0219809C02298F6
:1038F00007C0239805C0269803C0279801C02098C8
:103900008FE48A9501F0E9F7C89508958230B9F0FF
:10391000833038F4882309F42EC0813009F02BC09D
:1039200007C08430D1F0843088F0853021F51CC088
:10393000299881E18A9501F0E9F7299A22C02A980D
:1039400081E18A9501F0E9F72A9A1BC02B9881E161
:103950008A9501F0E9F72B9A14C02E9881E18A9597
:1039600001F0E9F72E9A0DC02F9881E18A9501F0B8
:10397000E9F72F9A06C0289881E18A9501F0E9F7C6
:10398000289A8CE98A9501F0E9F70895823021F1AF
:10399000833038F4882309F463C0813009F060C0B3
:1039A0000AC0843009F43AC0843008F426C0853057
:1039B00009F056C044C0299881E1982F9A9501F0EA
:1039C000E9F7299A982F9A9501F0E9F729988A95AD
:1039D00001F0E9F7299A54C02A9881E1982F9A9525
:1039E00001F0E9F72A9A982F9A9501F0E9F72A98B9
:1039F0008A9501F0E9F72A9A43C02B9881E1982F24
:103A00009A9501F0E9F72B9A982F9A9501F0E9F72A
:103A10002B988A9501F0E9F72B9A32C02E9881E114
:103A2000982F9A9501F0E9F72E9A982F9A9501F020
:103A3000E9F72E988A9501F0E9F72E9A21C02F9880
:103A400081E1982F9A9501F0E9F72F9A982F9A958E
:103A500001F0E9F72F988A9501F0E9F72F9A10C045
:103A6000289881E1982F9A9501F0E9F7289A982FE4
:103A70009A9501F0E9F728988A9501F0E9F7289AD4
:103A800088E68A9501F0E9F70895E1E9F0E08081A0
:103A90008E7F8083C19AE1E7F0E08081826080833D
:103AA00089E790E090939900809398000895089595
:103AB0008230A1F0833028F4882351F08130D1F492
:103AC0000AC0843089F0843060F0853099F40FC0EA
:103AD00083B18170089583B18270089583B1847039
:103AE000089583B18870089583B18074089583B177
:103AF0008078089583B181700895FC012D9A23C0C8
:103B0000623089F0633028F46623C9F06130B9F47B
:103B100007C0643071F0643048F0653081F40CC047
:103B200083B182700EC083B184700BC083B1887082
:103B300008C083B1807405C083B1807802C083B1AE
:103B40008170882321F0809135048823C9F22D9853
:103B500080913504882311F000002FC02D9A25C0D4
:103B6000623089F0633028F46623C9F06130B9F41B
:103B700007C0643071F0643048F0653081F40CC0E7
:103B800083B182700EC083B184700BC083B1887022
:103B900008C083B1807405C083B1807802C083B14E
:103BA0008170882311F081E005C08091350488235D
:103BB000B9F280E02D98882311F48FEC08951092CB
:103BC00095001092940089E790E09093990080937B
:103BD000980080919100816080939100109236044A
:103BE0002D9A91E024C0623089F0633028F4662376
:103BF000C9F06130B9F407C0643071F0643048F046
:103C0000653081F40CC083B182700EC083B18470C2
:103C10000BC083B1887008C083B1807405C083B1C4
:103C2000807802C083B18170882309F492E080918A
:103C300036048823C1F22D98809136048823E1F35D
:103C4000809191008E7F80939100809181008A7F86
:103C500080938100309711F48FEE0895913011F028
:103C600080E001C08FE7808380E008958230E1F03A
:103C7000833038F4882309F43FC0813009F03CC018
:103C800009C0843009F424C08430C0F0853009F0C4
:103C900033C028C0219A29988FE391E00197F1F76A
:103CA000000000C0299A31C0229A2A988FE391E03F
:103CB0000197F1F7000000C02A9A27C0239A2B9899
:103CC0008FE391E00197F1F7000000C02B9A1DC02F
:103CD000269A2E988FE391E00197F1F7000000C03B
:103CE0002E9A13C0279A2F988FE391E00197F1F74E
:103CF000000000C02F9A09C0209A28988FE391E015
:103D00000197F1F7000000C0289A8FE291E1019736
:103D1000F1F7000000C00895EF92FF920F931F93F8
:103D20008330C1F0843028F4813059F0823078F447
:103D30000BC08530A9F0853080F0863009F01CC1B9
:103D400012C062E675E711C062E370E00EC066E97A
:103D500070E00BC06EE571E008C06AE771E705C06E
:103D60006AEC7AE302C064E670E02D9A80E090E0AD
:103D70000E94CE2620E034E244E75BE40E94A424C3
:103D800020E034E244E759E40E949E2520E030E040
:103D900040E05FE30E9477240E94CE227B018C01E9
:103DA0006D3071058105910508F478C081E0E81651
:103DB00084E0F80680E0080780E0180708F5D801DD
:103DC000C7010197A109B1099C01AD0102E0569517
:103DD0004795379527950A95D1F713E0E12EF12CF9
:103DE000012D112DE822F9220A231B23211531056B
:103DF0004105510509F452C02A9501F0E9F74EC07A
:103E000092E0E91690E0F90694E0090790E01907BE
:103E100008F5D801C7010297A109B1099C01AD01BC
:103E2000F2E05695479537952795FA95D1F7E3E057
:103E3000EE2EF12C012D112DE822F9220A231B234D
:103E4000211531054105510549F1F9013197F1F786
:103E5000000024C0D801C7010497A109B1099C0141
:103E6000AD0173E056954795379527957A95D1F72B
:103E700067E0E62EF12C012D112DE822F9220A230C
:103E80001B23211531054105510541F0DA01C90116
:103E90000197A109B109000001F0D1F791E0E916FD
:103EA000F1040105110511F4000019C0A2E0EA16A1
:103EB000F1040105110511F400C01AC0B3E0EB16BE
:103EC000F1040105110511F4C8951BC024E0E216A8
:103ED000F1040105110519F4C89500001CC085E026
:103EE000E816F1040105110519F4C89500C01DC0BC
:103EF00096E0E916F1040105110519F4C895C89575
:103F00001AC0A7E0EA16F1040105110521F4C895CD
:103F1000C89500001BC0B8E0EB16F10401051105BF
:103F200021F4C895C89500C01CC029E0E216F10430
:103F300001051105E9F08AE0E816F1040105110513
:103F400029F4C895C895C895000015C09BE0E916EE
:103F5000F1040105110529F4C895C895C89500C05C
:103F60000AC0ACE0EA16F1040105110521F4C89578
:103F7000C895C895C8952D981F910F91FF90EF9007
:103F8000089528E020938100B19AEFE6F0E02081C7
:103F90002260208390938900809388000895823066
:103FA00089F0833028F48823C9F08130B9F407C040
:103FB000843071F0843048F0853081F40CC0299A47
:103FC000219A0EC02A9A229A0BC02B9A239A08C0D3
:103FD0002E9A269A05C02F9A279A02C0289A209ACC
:103FE00027EC2A9501F0E9F7C895CB010E94C11F83
:103FF0007894259A2D980895E1E8F0E080818A7FF1
:104000008083109285001092840010923504808184
:1040100085608083EFE6F0E0808182608083089590
:10402000E1E8F0E080818A7F80830895E1E8F0E0B4
:1040300080818A7F808381E08093350408951F9278
:104040000F920FB60F920BB60F9211248F93EF932E
:10405000FF93E1E8F0E080818A7F808381E08093B4
:104060003504FF91EF918F910F900BBE0F900FBE13
:104070000F901F9018951F920F920FB60F92112458
:104080008F9381E0809336048F910F900FBE0F9035
:104090001F901895809137048F5F8093370408959F
:1040A0001C9905C05E9A81E080933607089580913F
:1040B0003607813019F45E981092360708956F9292
:1040C0007F929F92AF92BF92CF92DF92EF92FF9238
:1040D0000F931F93DF93CF93CDB7DEB7982E5B017D
:1040E0006DB67EB6082F10E06801CC0CDD1CC60151
:1040F00003969C0153E0359527955A95E1F7209357
:104100003C048770907080933B04222319F481E073
:1041100090E00AC0882329F42093390410923A04CD
:1041200007C0822F90E0019690933A04809339045F
:104130002091390430913A0443E0220F331F4A950D
:10414000E1F78DB79EB7821B930B0FB6F8949EBF15
:104150000FBE8DBFEDB6FEB60894E11CF11CC70181
:1041600060E070E0A9010E94642983E7F701808381
:10417000918280E008C0F701EA0FFB1FAA0DBB1D6A
:104180008C918283892FA82FB0E0982F9F5FAC1568
:10419000BD058CF380933E040F5F1F4F000F111F6E
:1041A0000E0D1F1D80E7F801808381E08093E900F8
:1041B0008091E80085FF42C06091390470913A0413
:1041C00020913D0440E09FE3A92E9CE9B92EC12C2B
:1041D000D12C2BC09C0183E0220F331F8A95E1F77D
:1041E00080E02E0D3F1D07C0F901E80FF11D808111
:1041F0008093F100892F982F9F5F9930A9F78091C4
:10420000E8008E7F8093E8008091E8008F778093AC
:10421000E800D601C5010197A109B109000001F02C
:10422000D1F7C89500004F5F28E0842F90E08617F3
:10423000970780F220933D0440933E040FB6F89414
:104240007EBE0FBE6DBECF91DF911F910F91FF908B
:10425000EF90DF90CF90BF90AF909F907F906F9046
:1042600008958F929F92AF92BF92DF92EF92FF924A
:104270000F93DF93CF9300D0CDB7DEB7D82E8DB696
:104280009EB68DB79EB78D1991090FB6F8949EBF53
:104290000FBE8DBFADB6BEB60894A11CB11C7B018C
:1042A000DB0190E006C0F501E90FF11D8D918083DF
:1042B0009F5F9D15C0F300E018C0F501E00FF11DF0
:1042C000FA83E983808182958F700E94BF07F7018E
:1042D0008083E981FA8180810E94BF07F701818391
:1042E0000F5F82E090E0E80EF91E0D1530F30FB677
:1042F000F8949EBE0FBE8DBE0F900F90CF91DF91B0
:104300000F91FF90EF90DF90BF90AF909F908F90B4
:104310000895FF920F931F93F82E8B010E94312175
:104320008F2DB8010E945F201F910F91FF9008957B
:104330009F92AF92BF92CF92DF92EF92FF920F9334
:104340001F93DF93CF93CDB7DEB7982E6B01ADB639
:10435000BEB6282F30E0220F331F8DB79EB7821BC9
:10436000930B0FB6F8949EBF0FBE8DBF6DB77EB78F
:104370006F5F7F4F40E008C0FB01EA0FFB1FAC0DF1
:10438000BD1D8C9180834F5FA42FB0E0A217B307AF
:104390009CF38B01EE24FF241AC0D8018C910E945B
:1043A000C607F801808381810E94C607D801119653
:1043B0008C931197F601EE0DFF1D9C919295907FC5
:1043C000980F90830894E11CF11C0E5F1F4FE914B5
:1043D00020F30FB6F894BEBE0FBEADBECF91DF91F5
:1043E0001F910F91FF90EF90DF90CF90BF90AF9013
:1043F0009F90089590E008C08091F100E92FF0E0CF
:10440000E15CFB4F80839F5F9830B0F38091E800C0
:104410008B7F8093E8008091E8008F778093E8009D
:10442000209129058091250530E02EC0E32FF0E092
:10443000E15CFB4F9081933721F4332311F481E049
:1044400022C0823049F0833091F08130E1F49093C2
:104450002E0620E082E017C0903711F483E013C0ED
:104460002F5FE22FF0E0E25DF94F90830CC0373010
:1044700051F4922F969580912E06891711F484E0BD
:1044800002C020E080E03F5F383080F220932905B1
:104490008093250530934704843069F410922905F0
:1044A0001092250580912E066FE276E00E949821F9
:1044B00081E080930A05089580914F04882349F094
:1044C00082E08093E9008091E80082FF02C00E94B0
:1044D000FA210895DF93CF930F92CDB7DEB7809185
:1044E0004F04882301F10E945C2280910A058130EB
:1044F000D1F48FE296E060912E064AE255E025E382
:1045000037E00E94D8078983882329F480913507F2
:104510006AE275E004C081E0BE016F5F7F4F0E94D8
:10452000892110920A050F90CF91DF9108958AB1E9
:1045300080678AB9109236071092250586E0EFE170
:10454000F5E0DF011D928A95E9F783E0EEE2F7E0FE
:10455000DF01982F1D929A95E9F710922A06109282
:104560002B0610922C0610922D06E6E2F5E0DF01F4
:104570001D928A95E9F70E94451D80E065E04BE2B7
:1045800050E00E94850C81115C9A80E064E04BE26F
:1045900050E00E94FE1281115C9A0895EF92FF9202
:1045A0000F931F937B018C0120E030E040E05FE43B
:1045B0000E944A2688238CF0C801B70120E030E031
:1045C00040E05FE40E9446240E947A269B01AC01F1
:1045D000205030404040504806C0C801B7010E94FA
:1045E0007A269B01AC01B901CA011F910F91FF907E
:1045F000EF900895A0E0B0E0E0E0F3E20C946B29C6
:10460000DC012B01FA019C91923008F439C1EB01D5
:104610008881823008F433C1943069F4843009F021
:104620002FC111969C9111978981981709F428C17F
:10463000A5EFB2E025C1843009F421C18230A9F48C
:10464000923009F01DC19A01AD0188E0EA0109909C
:10465000AE01E90109929E018150C1F7E201898111
:1046600011969C918923818308C1923009F407C176
:1046700012962D903C901397EB018A819B811496A2
:10468000AD90BD90CD90DC901797EC80FD800E81B1
:104690001F819101281B390BB90137FF04C0662720
:1046A0007727621B730B603271050CF061C0121624
:1046B00013066CF537014801062E04C096948794C2
:1046C000779467940A94D2F721E030E040E050E01C
:1046D00004C0220F331F441F551F6A95D2F7215083
:1046E0003040404050402E213F214023512321158E
:1046F00031054105510521F021E030E040E050E076
:1047000079018A01E628F728082919293CC0232BBA
:10471000D1F1260E371E35014601062E04C09694AF
:104720008794779467940A94D2F721E030E040E0D0
:1047300050E004C0220F331F441F551F6A95D2F763
:1047400021503040404050402A213B214C215D21E6
:10475000211531054105510521F021E030E040E00F
:1047600050E059016A01A628B728C828D9280BC0EB
:10477000821593052CF01C01AA24BB24650103C0FB
:10478000EE24FF24870111969C91D20111968C9101
:10479000981709F445C0992339F0A80197012A19FF
:1047A0003B094C095D0906C0A60195012E193F0978
:1047B000400B510B57FD08C01182338222822483A3
:1047C0003583468357831DC081E0818333822282F3
:1047D00088279927DC01821B930BA40BB50B8483DC
:1047E0009583A683B7830DC0220F331F441F551F27
:1047F00024833583468357838281938101979383F2
:1048000082832481358146815781DA01C90101976C
:10481000A109B1098F5F9F4FAF4FBF4328F30BC072
:10482000918333822282EA0CFB1C0C1D1D1DE48245
:10483000F5820683178383E0808324813581468156
:10484000578157FF1AC0C901AA2797FDA095BA2F13
:1048500081709070A070B0705695479537952795E8
:10486000822B932BA42BB52B84839583A683B783AC
:1048700082819381019693838283DF0101C0D201FB
:10488000CD01CDB7DEB7E2E10C948729A0E2B0E01C
:10489000ECE4F4E20C94772969837A838B839C831C
:1048A0002D833E834F835887E9E0EE2EF12CEC0EEA
:1048B000FD1ECE010196B7010E946B288E010F5E8E
:1048C0001F4FCE010596B8010E946B288A8991E09E
:1048D00089278A8BC701B801AE01475E5F4F0E94EE
:1048E000FA220E949627A096E6E00C949329A0E273
:1048F000B0E0EDE7F4E20C94772969837A838B8347
:104900009C832D833E834F835887F9E0EF2EF12C53
:10491000EC0EFD1ECE010196B7010E946B288E01A0
:104920000F5E1F4FCE010596B8010E946B28C7018C
:10493000B801AE01475E5F4F0E94FA220E9496279F
:10494000A096E6E00C949329A0E2B0E0EAEAF4E253
:104950000C946B2969837A838B839C832D833E839C
:104960004F835887CE010196BE01675F7F4F0E943B
:104970006B28CE010596BE016F5E7F4F0E946B28AB
:104980009985923088F089898230C8F0943019F482
:10499000823051F404C0843029F4923081F485EFE0
:1049A00092E0C6C0923049F420E09A858A89981333
:1049B00021E02A87CE010996BBC0823049F420E06D
:1049C0009A858A89981321E02A8BCE014196B0C03E
:1049D0002D843E844F8458886D887E888F88988C7B
:1049E000EE24FF248701AA24BB24650140E050E0A7
:1049F00060E070E0E0E0F0E0C10181709070892B30
:104A0000E9F0E60CF71C081D191D9A01AB012A0DEF
:104A10003B1D4C1D5D1D80E090E0A0E0B0E0E61481
:104A2000F7040805190520F481E090E0A0E0B0E06B
:104A3000BA01A901480F591F6A1F7B1FAA0CBB1C92
:104A4000CC1CDD1C97FE08C081E090E0A0E0B0E047
:104A5000A82AB92ACA2ADB2A3196E032F10549F0A0
:104A6000660C771C881C991C56944794379427949D
:104A7000C3CFFA85EA892B893C898B859C85280FD1
:104A8000391F2E5F3F4F17C0CA0181709070892B6C
:104A900061F016950795F794E79480E090E0A0E028
:104AA000B0E8E82AF92A0A2B1B2B769567955795CB
:104AB00047952F5F3F4F77FDE7CF0CC0440F551F41
:104AC000661F771F17FD4160EE0CFF1C001F111FB2
:104AD00021503040403090E0590790E0690790E461
:104AE000790760F32B8F3C8FDB01CA018F779070C1
:104AF000A070B07080349105A105B10561F447FD47
:104B00000AC0E114F1040105110529F0405C5F4F72
:104B10006F4F7F4F40781A8EFE1711F081E08A8F19
:104B20004D8F5E8F6F8F78A383E0898FCE0149967A
:104B30000E949627A096E2E10C948729A8E1B0E0B4
:104B4000E4EAF5E20C94732969837A838B839C836E
:104B50002D833E834F835887B9E0EB2EF12CEC0E6A
:104B6000FD1ECE010196B7010E946B288E010F5EDB
:104B70001F4FCE010596B8010E946B28298522306F
:104B800008F47EC03989323010F4B8017CC08A85BF
:104B90009A8989278A87243011F0223031F423172B
:104BA00009F06EC065EF72E06EC0343039F41D86D6
:104BB0001E861F86188A1C861B8604C0323021F48C
:104BC00084E08987B7015FC02B853C858B899C89F0
:104BD000281B390B3C872B87ED84FE840F851889B1
:104BE000AD88BE88CF88D88CEA14FB040C051D055F
:104BF00040F4EE0CFF1C001F111F215030403C8779
:104C00002B8720E030E040E050E080E090E0A0E042
:104C1000B0E460E070E0EA14FB040C051D0540F010
:104C2000282B392B4A2B5B2BEA18FB080C091D0992
:104C3000B695A79597958795EE0CFF1C001F111F41
:104C40006F5F7F4F6F31710531F7DA01C9018F77DF
:104C50009070A070B07080349105A105B10561F429
:104C600027FD0AC0E114F1040105110529F0205CBB
:104C70003F4F4F4F5F4F20782D873E874F87588B90
:104C8000BE01675F7F4FCB010E9496276896EAE0DE
:104C90000C948F29A8E1B0E0E0E5F6E20C947729C6
:104CA00069837A838B839C832D833E834F835887CC
:104CB00089E0E82EF12CEC0EFD1ECE010196B70125
:104CC0000E946B288E010F5E1F4FCE010596B80122
:104CD0000E946B288985823040F08989823028F0D3
:104CE000C701B8010E94E32801C08FEF6896E6E093
:104CF0000C949329ACE0B0E0E0E8F6E20C947B2958
:104D000069837A838B839C83CE010196BE016B5F9E
:104D10007F4F0E946B288D81823061F1823050F18B
:104D2000843021F48E81882351F12EC02F81388563
:104D300037FD20C06E812F3131051CF06623F9F05C
:104D400023C08EE190E0821B930B29853A854B8529
:104D50005C8504C056954795379527958A95D2F777
:104D60006623B1F050954095309521953F4F4F4FB8
:104D70005F4F0EC020E030E040E050E009C02FEF70
:104D80003FEF4FEF5FE704C020E030E040E050E845
:104D9000B901CA012C96E2E00C949729A8E0B0E092
:104DA000E4EDF6E20C9473297B018C016115710529
:104DB0008105910519F482E0898360C083E08983CD
:104DC0008EE1C82ED12CDC82CB82ED82FE820F8355
:104DD0001887C801B7010E944727FC013197F7FFE8
:104DE0003BC0222733272E1B3F0B57016801022EA1
:104DF00004C0D694C794B794A7940A94D2F740E01D
:104E000050E060E070E081E090E0A0E0B0E004C03D
:104E1000880F991FAA1FBB1F2A95D2F70197A109D6
:104E2000B1098E219F21A023B1230097A105B105CF
:104E300021F041E050E060E070E04A295B296C29F4
:104E40007D294D835E836F8378878EE190E08E1B92
:104E50009F0B9C838B8312C0309781F00E2E04C071
:104E6000EE0CFF1C001F111F0A94D2F7ED82FE8288
:104E70000F831887CE1ADF0ADC82CB821A82CE011A
:104E800001960E9496272896EAE00C948F29EF92CB
:104E9000FF920F931F937B018C0180E0E81680E066
:104EA000F80681E0080780E0180788F48FEFE8161D
:104EB000F1040105110531F028F088E090E0A0E050
:104EC000B0E017C080E090E0A0E0B0E012C080E069
:104ED000E81680E0F80680E0080781E0180728F06F
:104EE00088E190E0A0E0B0E004C080E190E0A0E0C4
:104EF000B0E020E230E040E050E0281B390B4A0BE4
:104F00005B0B04C016950795F794E7948A95D2F742
:104F1000F701E350FD4F8081281B310941095109F8
:104F2000C9011F910F91FF90EF900895DF92EF92CA
:104F3000FF920F931F93FC01E480F5800681178197
:104F4000D1808081823048F480E090E0A0E1B0E040
:104F5000E82AF92A0A2B1B2BA5C0843009F49FC02C
:104F6000823021F4EE24FF24870105C0E114F1040E
:104F70000105110519F4E0E0F0E096C0628173814B
:104F80009FEF623879070CF05BC022E83FEF261BE9
:104F9000370B2A3131052CF020E030E040E050E0C2
:104FA0002AC0B801A701022E04C0769567955795CF
:104FB00047950A94D2F781E090E0A0E0B0E004C009
:104FC000880F991FAA1FBB1F2A95D2F70197A10925
:104FD000B1098E219F21A023B1230097A105B1051E
:104FE00021F081E090E0A0E0B0E09A01AB01282B35
:104FF000392B4A2B5B2BDA01C9018F779070A07097
:10500000B07080349105A105B10539F427FF09C0BE
:10501000205C3F4F4F4F5F4F04C0215C3F4F4F4FCD
:105020005F4FE0E0F0E02030A0E03A07A0E04A0760
:10503000A0E45A0710F0E1E0F0E079018A0127C00E
:105040006038710564F5FB01E158FF4FD801C701D5
:105050008F779070A070B07080349105A105B10574
:1050600039F4E7FE0DC080E490E0A0E0B0E004C0B9
:105070008FE390E0A0E0B0E0E80EF91E0A1F1B1FCE
:1050800017FF05C016950795F794E794319687E0CA
:1050900016950795F794E7948A95D1F705C0EE2405
:1050A000FF248701EFEFF0E06E2F67956627679585
:1050B000902F9F77D794DD24D7948E2F8695492FF4
:1050C000462B582F5D29B701CA011F910F91FF9000
:1050D000EF90DF900895FC01DB0140815181228136
:1050E000622F6F7770E0221F2227221F9381892F62
:1050F000880F822B282F30E0991F9927991F11962E
:105100009C93119721153105A9F5411551056105AC
:10511000710511F482E037C082E89FEF13969C93EB
:105120008E9312979A01AB0167E0220F331F441F41
:10513000551F6A95D1F783E08C930DC0220F331F62
:10514000441F551F12968D919C91139701971396AA
:105150009C938E931297203080E0380780E04807B8
:1051600080E4580758F314962D933D934D935C9328
:10517000179708952F3F310579F4411551056105C1
:10518000710519F484E08C93089564FF03C081E0F5
:105190008C9312C01C9210C02F57304013963C9332
:1051A0002E93129783E08C9387E0440F551F661F60
:1051B000771F8A95D1F7706414964D935D936D9324
:1051C0007C93179708951F93DC01FB019C9192300B
:1051D00008F447C08081823008F443C0943051F411
:1051E00011961C91843099F58181682F70E0611BC4
:1051F00071093FC0843021F0923031F48230B9F12E
:105200008181882389F12DC011961C9111978230DC
:10521000F1F081811817D9F412962D913C911397D2
:10522000828193818217930794F028173907BCF085
:1052300014968D919D910D90BC91A02D2481358166
:1052400046815781281739074A075B0718F411234D
:1052500041F00AC082179307A407B50740F4112351
:1052600019F061E070E005C06FEF7FEF02C060E011
:1052700070E0CB011F910895FB01DC0104C08D910A
:105280000190801921F441505040C8F7881B990BB8
:105290000895FB01DC0102C001900D924150504085
:1052A000D8F708956817790768F4FB01DC01E40F6B
:1052B000F51FA40FB51F02C002900E92415050403E
:1052C000D8F708950C944929DC0101C06D93415031
:1052D0005040E0F708952F923F924F925F926F9265
:1052E0007F928F929F92AF92BF92CF92DF92EF9276
:1052F000FF920F931F93CF93DF93CDB7DEB7CA1BF7
:10530000DB0B0FB6F894DEBF0FBECDBF09942A8821
:10531000398848885F846E847D848C849B84AA84C9
:10532000B984C884DF80EE80FD800C811B81AA8156
:10533000B981CE0FD11D0FB6F894DEBF0FBECDBF21
:08534000ED010895F894FFCF80
:1053480000F00101000100000000000001BFFFFFA4
:10535800FFFFFFFFFFFF0701000000172000AAAAB8
:10536800BBBBBBBBBBBBBBBBBBBBBBBBBBBBBBBB85
:105378001210FE0000000000000000000000000005
:1053880007044000000702000000070201030007AD
:10539800020102000702000100270899AABBCCCC31
:1053A800CCCCCCCCCCCCCCCCCCCCCCCCCCCCCCCC35
:1053B800CCCCCCCCCCCCCCCCCCCCCCCCCCCC0100BC
:1053C80001EF0702000000070201030007020102C3
:1053D80000070200010000202000AAAABBBBBBBB3B
:1053E800BBBBBBBBBBBBBBBBBBBBBBBB00100000E1
:1053F80000000000000000000000000000000200A3
:1054080000000000800000000000400000000000D4
:10541800080000000067E6096A85AE67BB72F36E94
:105428003C3AF54FA57F520E518C68059BABD9834A
:105438001F19CDE05B982F8A4291443771CFFBC08A
:10544800B5A5DBB5E95BC25639F111F159A4823F24
:1054580092D55E1CAB98AA07D8015B8312BE853132
:1054680024C37D0C55745DBE72FEB1DE80A706DCD8
:105478009B74F19BC1C1699BE48647BEEFC69DC181
:105488000FCCA10C246F2CE92DAA84744ADCA9B096
:105498005CDA88F97652513E986DC631A8C8270360
:1054A800B0C77F59BFF30BE0C64791A7D55163CA70
:1054B8000667292914850AB72738211B2EFC6D2C6D
:1054C8004D130D385354730A65BB0A6A762EC9C248
:1054D80081852C7292A1E8BFA24B661AA8708B4BEB
:1054E800C2A3516CC719E892D1240699D685350E06
:1054F800F470A06A1016C1A419086C371E4C7748BE
:1055080027B5BCB034B30C1C394AAAD84E4FCA9C34
:105518005BF36F2E68EE828F746F63A5781478C87A
:10552800840802C78CFAFFBE90EB6C50A4F7A3F96D
:10553800BEF27871C6000000000000000000010201
:105548000203030303040404040404040405050516
:1055580005050505050505050505050505060606F0
:1055680006060606060606060606060606060606D3
:1055780006060606060606060606060606070707C0
:1055880007070707070707070707070707070707A3
:105598000707070707070707070707070707070793
:1055A8000707070707070707070707070707070783
:1055B8000707070707070707070707070708080870
:1055C8000808080808080808080808080808080853
:1055D8000808080808080808080808080808080843
:1055E8000808080808080808080808080808080833
:1055F8000808080808080808080808080808080823
:105608000808080808080808080808080808080812
:105618000808080808080808080808080808080802
:1056280008080808080808080808080808080808F2
:0E5638000808080808080808080808080800FC
:00000001FF
