:100000000C9472000C948B000C948B000C948B005D
:100010000C948B000C948B000C948B000C948B0034
:100020000C948B000C948B000C948B000C948B0024
:100030000C948B000C948B000C948B000C948B0014
:100040000C948B000C948B000C948B000C948B0004
:100050000C948B000C948B000C948B000C948B00F4
:100060000C948B000C948B000C948B000C948B00E4
:100070000C948B000C948B000C948B000C948B00D4
:100080000C948B000C948B000C948B000C948B00C4
:100090000C948B000C948B000C948B000C948B00B4
:1000A0000C948B000C948B000C948B000C948B00A4
:1000B0000C948B000C948B000C948B000C948B0094
:1000C0000C948B000C948B000C948B000C948B0084
:1000D0000C948B000C948B000C948B000C948B0074
:1000E0000C948B0011241FBECFEFD1E2DEBFCDBF39
:1000F00000E00CBF12E0A0E0B2E0E6EBF7E000E0C9
:100100000BBF02C007900D92AA32B107D9F70E9427
:1001100083020C94D9030C940000FC01808180932D
:1001200000020895AF92BF92DF92EF92FF920F9379
:100130001F93CF93DF93E82E5A01882319F450E0E0
:1001400090E031C0F62E262F372FD90150E090E0F5
:100150000F2EF0E8DF2EF02DC0E0D0E005E060E0EB
:1001600011E0FC917D2D9E01E92FEE1FEE27EE1F81
:10017000852F881F8827881F550F990F982B462F8A
:10018000872F8F2309F0412F4E1711F050279058D9
:1001900076952F5F3F4F2830310531F711968A2F22
:1001A0008F198E15F0F2F50190835183DF91CF9175
:1001B0001F910F91FF90EF90DF90BF90AF90089547
:1001C000DF93CF930F92CDB7DEB7198281E06FEF47
:1001D00040EE9E012F5F3F4F0E942E020F90CF9165
:1001E000DF910895EF92FF921F93DF93CF930F92C9
:1001F0000F92CDB7DEB7182F7B01813410F081E26A
:100200002CC06EEF40E097010E94EC01882329F595
:100210001250812FB701AE014F5F5F4F0E949200D5
:10022000212F30E0F701E20FF31F998180819817A9
:1002300039F4F701E20FF31F9A818181981731F0A9
:100240000E94E000882349F48BE207C0F701818116
:10025000882311F081E301C080E00F900F90CF91CF
:10026000DF911F91FF90EF900895FF920F931F93DE
:10027000DF93CF930F92CDB7DEB78C011982FC01CB
:10028000F080F0E4FF1510F491E22FC00E94E0002E
:10029000982F882351F5CE0101960E947D01982F59
:1002A000882319F580910002882359F08F2D90E062
:1002B0000297A801480F591F8F2D8250B8010E9444
:1002C00092008F2D6EEF40E098010E942E02982F31
:1002D0008152823050F0CE0101960E947D019981B9
:1002E00094FD03C0992309F490E2892F0F90CF91D8
:1002F000DF911F910F91FF900895CF92DF92EF92BF
:10030000FF920F931F93DF93CF930F92CDB7DEB77A
:100310007C0185E0898314E06E010894C11CD11C26
:100320000E942E0381E0B6010E94780381E0B701AC
:100330000E94A203082F0E943703002321F01123FB
:1003400011F01150EDCFF70180818078802B0F9054
:10035000CF91DF911F910F91FF90EF90DF90CF90A1
:100360000895EF92FF920F931F93DF93CF930F9215
:10037000CDB7DEB719820E942E0314E07E010894E7
:10038000E11CF11CC7010E947D01082F90E08F77CE
:10039000892B99F489818F3F19F4115098F716C071
:1003A0001123A1F402E209C01150898180FF05C028
:1003B000C7010E947D011123B9F7802F0F90CF91C3
:1003C000DF911F910F91FF90EF90089511507E01E2
:1003D0000894E11CF11CE9CFDF92EF92FF920F939A
:1003E0001F93DF93CF9300D00F92CDB7DEB7182FB6
:1003F000062FD42E79016E3F21F4442311F480E4BA
:1004000001C080E21123E9F08117D8F00E94B10108
:100410008823C1F483E08A830B83DC820E942E034D
:1004200083E0BE016E5F7F4F0E947803812FB7018A
:100430000E94A2030E943703CE0101960E947D0113
:1004400001C081E20F900F900F900F90CF91DF913C
:100450001F910F91FF90EF90DF900895CF92DF9260
:10046000EF92FF920F931F93DF93CF9300D00F92E1
:10047000CDB7DEB7082FF62EE42E69018EEF681790
:1004800021F4442311F480E401C080E2002331F11F
:10049000801720F186E089830E94B101182F8823FC
:1004A000F1F482E08A83FB82EC820E942E0381E0D9
:1004B000BE016F5F7F4F0E9478030E9437030E9446
:1004C0002E0383E0BE016E5F7F4F0E947803802F72
:1004D000B6010E9478030E94370301C011E2812F08
:1004E0000F900F900F900F90CF91DF911F910F9170
:1004F000FF90EF90DF90CF9008950E9468030895D9
:100500000E9440030895DF92EF92FF920F931F9392
:10051000DF93CF93CDB7DEB72F970FB6F894DEBF3A
:100520000FBECDBFDE011196E1E0F2E089E001905F
:100530000D928150E1F70E9480027E010894E11C37
:10054000F11C0F2EF7ECDF2EF02D8E01065F1F4FF2
:10055000C7010E943501882329F08D2D8A9501F06D
:10056000E9F7C89586E0B8010E94F200882381F37C
:100570008D2D8A9501F0E9F7C895EACF8AE092E0DF
:1005800008959B01AC01611571058105910509F480
:1005900063C0EAE0F2E060E080819181A281B381F2
:1005A00082179307A407B50728F46F5F3496683065
:1005B00099F752C0683009F44FC0EDE4F0E0808153
:1005C0008E7F8083ECE4F0E080818C7F80836330D9
:1005D00011F1643028F4662359F0623039F40FC009
:1005E000653061F16530F0F0663079F180E00895B2
:1005F000EDE4F0E080818160808380E00895EDE4A7
:10060000F0E0808181608083ECE4F0E080818160B3
:10061000808380E00895ECE4F0E080818160808355
:1006200080E00895EDE4F0E0808181608083ECE477
:10063000F0E080818260808380E00895ECE4F0E067
:1006400080818260808380E00895ECE4F0E0808126
:100650008360808380E0089581E20895E5E2F0E020
:1006600080818D7F808380818E7F80830895E5E205
:10067000F0E080818D7F8083808181608083089518
:10068000DF93CF930F92CDB7DEB7E5E2F0E0808144
:100690008160808380818D7F8083A4E2B0E08C9133
:1006A00087608C93808188608083E4E6F0E08081BD
:1006B0008B7F808380E58CBDEDE4F0E081E080837A
:1006C000808189838EB589830F90CF91DF910895C2
:1006D000ECE4F0E080818F7B8083E4E6F0E08081D1
:1006E00084608083E4E2F0E08081887F80830895E5
:1006F0000F931F93DF93CF930F92CDB7DEB788236D
:10070000D1F0282F21508B014EE450E0ADE4B0E051
:1007100030E02F5F3F4F260F371FF80181918F0187
:10072000FA0180838C918823ECF7FA018081898318
:100730000217130791F780E00F90CF91DF911F917F
:100740000F910895DF93CF930F92CDB7DEB7982F17
:100750008AEF8983FB011082992331F1292F2150DF
:100760004EE450E0ADE4B0E03AEFFA0110820EC082
:100770009981892F81508983992341F48DB58823EC
:1007800014F082E212C08EB582E20FC08C918823F1
:100790007CF7FA018081FB0180833983222321F0D9
:1007A0006F5F7F4F2150E1CF80E00F90CF91DF91BD
:0607B0000895F894FFCF4C
:1007B60001090C0000060000000000093D008084CD
:1007C6001E0040420F0020A1070090D0030048E819
:0A07D600010024F400000000000000
:00000001FF
