:100000000C944C000C946B000C946B000C946B00E3
:100010000C946B000C946B000C946B000C946B00B4
:100020000C946B000C946B000C946B000C946B00A4
:100030000C9437040C946B000C946B000C946B00C4
:100040000C946B000C946B000C946B000C946B0084
:100050000C946B000C946B000C946B000C946B0074
:100060000C946B000C946B000C946B000C946B0064
:100070000C946B000C946B000C946B000C946B0054
:100080000C946B000C946B000C946B000C947B0331
:100090000C945B060C946B0011241FBECFEFD0E2D2
:1000A000DEBFCDBF11E0A0E0B1E0EAE2F2E100E0A6
:1000B0000BBF02C007900D92A830B107D9F711E02D
:1000C000A8E0B1E001C01D92AB3CB107E1F70E948E
:1000D000A7000C9413090C940000DF93CF93CDB7C5
:1000E000DEB781E290E021E230E0F90120812A616F
:1000F000FC012083CF91DF910895DF93CF930F927E
:10010000CDB7DEB7898382E290E022E230E0F901E8
:1001100030812981232BFC0120830F90CF91DF9127
:100120000895DF93CF930F92CDB7DEB7898382E234
:1001300090E022E230E0F9012081322F29812095E0
:100140002323FC0120830F90CF91DF910895DF934B
:10015000CF9300D000D0CDB7DEB7CE01029620E01D
:1001600031E043E0F90100802F5F3F4FFC01008246
:10017000019641504423B1F70E946D000E94700423
:100180000E945B01198211C088E10E947D008AEF04
:1001900090E00E94EF0388E10E9491008AEF90E0D6
:1001A0000E94EF0389818F5F89838981823060F3A8
:1001B00028E031E087E4B9010E948F048093530165
:1001C00080915301882381F080915301823C51F04A
:1001D00080915301843C31F01092520182E591E00C
:1001E0000E941D050000E4CF82E591E060E070E030
:1001F00045E250E00E940C0980910801882F90E0B0
:100200008230910599F18330910534F4009759F0CB
:100210008130910531F144C08330910561F1843022
:10022000910571F13DC080910A01843220F082EE87
:10023000809353013BC040910A018BE091E024E59B
:1002400031E0B9010E948A028093530180915301E9
:10025000882319F48091540101C080E080935201F9
:1002600025C080910B010E94310220C080910B01BA
:100270000E9447021BC080910B010E94700216C0B1
:100280001092530183E08093520184E591E09E0136
:100290002E5F3F4FB90143E050E00E94030906C0C2
:1002A00080EC8093530110925201000082E591E0AE
:1002B0000E941D057DCFDF93CF93CDB7DEB70E949F
:1002C0006C07CF91DF910895DF93CF930F92CDB755
:1002D000DEB7898389810E9462070F90CF91DF91F9
:1002E0000895DF93CF9300D000D0CDB7DEB78A83D7
:1002F0007C836B8387E70E945E08898389818823DA
:1003000011F080EF06C02B813C818A81B9010E94E7
:10031000BD070F900F900F900F90CF91DF91089530
:10032000DF93CF9300D000D000D0CDB7DEB78C8361
:100330007E836D8319820CC08981882F90E02D8186
:100340003E81820F931FFC01108289818F5F898318
:1003500099818C81981780F388E80E945E082D812E
:100360003E818C81B9010E946F088A838A8188232B
:1003700019F08A81893F81F48D819E81FC01808101
:100380008B838B81843020F09B818C81891710F4C2
:1003900084EE08C080E006C08A81813F11F487EEB8
:1003A00001C086EE26960FB6F894DEBF0FBECDBF15
:1003B000CF91DF910895DF93CF93CDB7DEB780E083
:1003C0000E948B078CE390E00E94CD0381E00E94A5
:1003D0008B070E943E02482F50E024E630E0429F07
:1003E000C001439F900D529F900D11240E94CD0398
:1003F00080E0CF91DF910895DF93CF93CDB7DEB743
:100400008BEB0E945E08CF91DF910895DF93CF932D
:10041000CDB7DEB78CEC0E945E08CF91DF910895D6
:10042000DF93CF93CDB7DEB780E0CF91DF91089512
:10043000DF93CF9300D00F92CDB7DEB789837B8354
:100440006A8385E590E00E94EF032A813B818981E0
:10045000B9010E9490010F900F900F90CF91DF9102
:100460000895DF93CF930F92CDB7DEB7898389814B
:10047000809303010F90CF91DF910895DF93CF9385
:10048000CDB7DEB780910301CF91DF910895DF935F
:10049000CF930F92CDB7DEB789838AE290E02AE24C
:1004A00030E0F90120812B7FFC01208389818823A2
:1004B00051F08BE290E02BE230E0F90120812460E2
:1004C000FC01208309C08BE290E02BE230E0F901CF
:1004D00020812B7FFC0120830F90CF91DF91089525
:1004E000DF93CF930F92CDB7DEB789838981882FB1
:1004F00090E0880F991F9C01220F331F220F331F9A
:10050000820F931F90930501809304010F90CF9168
:10051000DF910895DF93CF9300D000D000D0CDB706
:10052000DEB79B838A837D836C834E830E94DB01CD
:100530008A819B81FC0180812A813B81B9010E94D3
:10054000710189838981882321F00E94FC018981BE
:100550001CC080910401909105010E9411040AC001
:100560002C813D818E81B9010E949001898389810E
:10057000882329F08091CA01882391F301C00000EB
:100580000E9449030E94FC01898126960FB6F894C7
:10059000DEBF0FBECDBFCF91DF910895DF93CF9324
:1005A00000D000D0CDB7DEB789836A835C834B83EC
:1005B00080E890E02981FC01208381E890E02A8195
:1005C000FC01208388E890E02B813C81FC01318391
:1005D000208384E890E0FC011182108286E390E0A1
:1005E00022E0FC0120830F900F900F900F90CF918D
:1005F000DF910895DF93CF93CDB7DEB780E890E029
:10060000FC01108281E890E0FC01108288E890E013
:100610002FEF3FE0FC013183208384E890E0FC0170
:100620001182108286E390E022E0FC012083CF91CA
:10063000DF910895DF93CF93CDB7DEB781E790E0E8
:1006400021E730E0F90120812F7DFC01208380E942
:1006500090E0FC01108281E990E022E0FC0120831F
:1006600082E990E0FC01108288E390E028E330E02A
:10067000F90120812062FC01208381E790E021E7DD
:1006800030E0F90120812160FC012083CF91DF91CE
:100690000895DF93CF93CDB7DEB781E790E021E7F0
:1006A00030E0F90120812F7DFC01208310927A0136
:1006B0001092790180E990E0FC01108281E990E0DC
:1006C000FC01108282E990E0FC01108288E390E056
:1006D00028E330E0F90120812062FC01208381E7DA
:1006E00090E021E730E0F90120812062FC012083C5
:1006F000CF91DF9108951F920F920FB60F92009045
:100700005B000F9211242F933F938F939F93EF934E
:10071000FF93DF93CF93CDB7DEB7809179019091AE
:100720007A01009721F482E08093770126C08091BE
:10073000790190917A01019790937A0180937901E0
:100740008091790190917A01009741F084E990E0DD
:100750002FE238EFFC01318320830FC080E990E065
:10076000FC01108281E990E0FC01108282E990E0B6
:10077000FC01108281E08093CA01CF91DF91FF914B
:10078000EF919F918F913F912F910F9000925B007D
:100790000F900FBE0F901F901895DF93CF9300D04E
:1007A000CDB7DEB79A83898384E990E029813A81C5
:1007B000220F331F20953095FC01318320830E9446
:1007C0001A03109277010000809177018823E1F3EA
:1007D0000E9449030F900F90CF91DF910895DF930E
:1007E000CF9300D000D0CDB7DEB79C838B831A8225
:1007F000198209C088EE93E00E94CD0389819A8115
:1008000001969A83898329813A818B819C8128175B
:10081000390780F30F900F900F900F90CF91DF91D9
:100820000895DF93CF9300D0CDB7DEB79A83898345
:1008300081E790E021E730E0F90120812F7DFC0184
:10084000208389819A8190937A0180937901109213
:10085000CA0184E990E02FE238EFFC013183208364
:100860000E941A030F900F90CF91DF9108951F926D
:100870000F920FB60F9211248F93DF93CF93CDB7C2
:10088000DEB781E080937801CF91DF918F910F9057
:100890000FBE0F901F901895DF93CF93CDB7DEB7A3
:1008A000A89588E10FB6F8948093600010926000DC
:1008B0000FBECF91DF910895DF93CF93CDB7DEB711
:1008C0001092780188E190E026E40FB6F894A8959C
:1008D000809360000FBE20936000CF91DF91089558
:1008E000DF93CF93CDB7DEB788EC0E946105789493
:1008F00081E00E94F505CF91DF910895DF93CF93BA
:10090000CDB7DEB70E949705882311F082EC04C0B2
:1009100081E00E94F50580E0CF91DF910895DF939B
:10092000CF9300D000D00F92CDB7DEB78B837D83FD
:100930006C8319821A828C819D81FC0111820E9434
:100940009705882311F082EC70C080917B01827042
:10095000882311F482EC69C080E10E947D008C81C3
:100960009D8163E00E941A068A838A81882331F47C
:1009700080E00E94F50583EC89834CC08C819D81C9
:10098000FC018181882F90E09C012D5F3F4F8B817E
:10099000882F90E082179307C8F481EC89830000C8
:1009A0008C819D81039661E00E941A06882351F094
:1009B00080917B018270882329F080917B0188706F
:1009C000882371F380E00E94F50524C08C819D810D
:1009D000FC0181818823D9F00E947705882319F4CE
:1009E00083EC898317C080E00E94F5058C819D818E
:1009F0002C813D81F90121812D5F622F0E941A0611
:100A00008A838A81882331F483EC898303C080E060
:100A10000E94F5058981882321F488E00E949100D5
:100A200003C088E00E947D0089810F900F900F9095
:100A30000F900F90CF91DF910895DF93CF9300D067
:100A400000D0CDB7DEB79C838B831A820E949705B6
:100A5000882349F08B819C81FC0110828B819C81D1
:100A600022ECFC0121838B819C81FC0180818E5FC3
:100A700089838981863258F08B819C81FC011082A8
:100A80008B819C8124EEFC01218382E089838B8110
:100A90009C8169810E94B4058A81882321F488E0C1
:100AA0000E94910003C088E00E947D0080E10E94C6
:100AB00091008A810F900F900F900F90CF91DF914E
:100AC0000895DF93CF930F92CDB7DEB789838AEB7A
:100AD00090E02981FC0120838CEB90E024E0FC0174
:100AE00020831092C8010F90CF91DF910895DF937A
:100AF000CF93CDB7DEB784E690E00E9411040DC01D
:100B00008091CA01882349F08AEB90E0FC01808142
:100B10000E946105789480E007C08091C801882315
:100B200079F70E94490381E0CF91DF910895DF9327
:100B3000CF93CDB7DEB78091C801CF91DF910895F3
:100B4000DF93CF930F92CDB7DEB7809106018983F3
:100B50000E947705882311F4898102C080910601E3
:100B60000F90CF91DF910895DF93CF9300D000D005
:100B7000CDB7DEB79B838A836C830E947705882379
:100B800021F481E00E94F50529C08C818093C70182
:100B9000198213C08981882F90E02981222F30E0AB
:100BA0004A815B81240F351FF901208184589E4FB3
:100BB000FC01208389818F5F898399818C819817BB
:100BC00048F310927B0188EF809306018CEB90E054
:100BD00025ECFC01208381E08093C8010F900F90E9
:100BE0000F900F90CF91DF910895DF93CF930F92E5
:100BF000CDB7DEB789830E9477058823B1F088EFEF
:100C0000809306011092C7018981882341F01092D8
:100C10007B018CEB90E025ECFC01208307C08CEB82
:100C200090E025E8FC01208301C000000F90CF91E7
:100C3000DF910895DF93CF9300D000D0CDB7DEB71A
:100C40009B838A836C830E947705882339F4809183
:100C50007B01886080937B0180E026C080917B01CE
:100C600081708823F1F0198213C08981882F90E068
:100C70002A813B81820F931F2981222F30E0245843
:100C80003E4FF9012081FC01208389818F5F898398
:100C900099818C81981748F380917B018D7F809397
:100CA0007B0180917B0181700F900F900F900F90CE
:100CB000CF91DF9108951F920F920FB60F9200907F
:100CC0005B000F9211242F933F938F939F93EF9389
:100CD000FF93DF93CF93CDB7DEB789EB90E0FC01B4
:100CE0008081882F90E08039910509F484C0813992
:100CF0009105C4F48037910509F468C081379105E6
:100D000044F4009709F4B3C08036910509F463C038
:100D1000BAC08038910509F46EC08838910509F48D
:100D20009AC0B1C0883A9105B9F0893A91054CF45E
:100D30008839910509F48FC0803A910509F47EC085
:100D4000A2C0803C910541F1883C910509F483C023
:100D5000883B910519F097C01092C9018BEB90E088
:100D60002091C901222F30E024583E4FF901208103
:100D7000FC0120838091C9018B3428F48091C90142
:100D80008F5F8093C9018CEB90E025ECFC01208300
:100D900081E08093C80186C09091C9018091C7010C
:100DA000981731F480917B01816080937B0106C0AC
:100DB00089EB90E0FC018081809306018CEB90E050
:100DC00025ECFC0120831092C8016CC080917B014E
:100DD000846080937B0180917B01826080937B01A2
:100DE0001092C9018CEB90E025ECFC01208381E09E
:100DF0008093C80157C08091C901882F90E02BEBE8
:100E000030E0F901208184589E4FFC0120838091BD
:100E1000C9018B3428F48091C9018F5F8093C90187
:100E200080917B01816080937B018CEB90E025ECCD
:100E3000FC01208381E08093C80134C08CEB90E0FA
:100E400025ECFC01208380917B01806180937B01F4
:100E50001092C80127C089EB90E0FC01808180934B
:100E600006018CEB90E020E9FC0120831BC089EB9C
:100E700090E0FC018081809306018CEB90E020E9FA
:100E8000FC0120830FC089EB90E0FC0180818093FE
:100E900006018CEB90E025ECFC0120831092C80148
:100EA0001092C901CF91DF91FF91EF919F918F91A6
:100EB0003F912F910F9000925B000F900FBE0F900B
:100EC0001F901895DF93CF930F92CDB7DEB789832C
:100ED0000F90CF91DF910895DF93CF93CDB7DEB719
:100EE00088EC90E022E0FC0120838CEC90E028E08C
:100EF000FC0120838AEC90E024E0FC01208389EC53
:100F000090E029EC30E0F90120812F73FC0120836F
:100F1000CF91DF910895DF93CF930F92CDB7DEB7D6
:100F2000898389EC90E029EC30E0F9012081277E6B
:100F3000FC0120838AE290E02AE230E0F90120817E
:100F40002860FC0120838981882351F08BE290E0A6
:100F50002BE230E0F90120812860FC01208309C0E8
:100F60008BE290E02BE230E0F9012081277FFC0149
:100F700020830F90CF91DF910895DF93CF93CDB76A
:100F8000DEB727970FB6F894DEBF0FBECDBF8D83B7
:100F90007F836E838CE08C8389EC90E029EC30E0D9
:100FA000F90120812F7EFC01208389EC90E029EC5F
:100FB00030E0F90120812860FC012083000081E0FD
:100FC0009C81992309F480E09C8191509C83882323
:100FD000B1F7198242C081E08A8339C088EC8B83E3
:100FE00015C081E09B81992309F080E09B8191509D
:100FF0009B83882359F088EC90E028EC30E0F901DD
:1010000020812064FC01208381EF4FC088EC90E0B8
:10101000FC018081882F90E080729070009709F326
:101020008EEC90E02981222F30E04E815F81240FE9
:10103000351FF90130812A812323222311F02FE764
:1010400001C02DE7FC0120838A81880F8A838A8171
:10105000882321F689818F5F898399818D819817F3
:1010600008F4B9CF88EC8B830CC081E09B81992375
:1010700009F080E09B8191509B83882311F081EFE0
:1010800014C088EC90E0FC018081882F90E080748F
:101090009070009751F388EC90E028EC30E0F90173
:1010A00020812064FC01208380E027960FB6F8940D
:1010B000DEBF0FBECDBFCF91DF910895DF93CF93F9
:1010C0000F92CDB7DEB7898381E09E012F5F3F4F3E
:1010D000B9010E94BD070F90CF91DF910895DF9372
:1010E000CF93CDB7DEB727970FB6F894DEBF0FBE0C
:1010F000CDBF8D837F836E8389EC90E029EC30E057
:10110000F9012081277FFC0120838AE290E02AE216
:1011100030E0F9012081237FFC0120838BE290E005
:101120002BE230E0F9012081237FFC01208389EC50
:1011300090E029EC30E0F90120812061FC0120835E
:10114000198252C08981882F90E02E813F81820FC1
:10115000931FFC01108281E08A833FC088EC8B835F
:1011600011C081E09B81992309F080E09B8191501F
:101170009B83882339F08981882311F481EF01C092
:1011800089EF38C088EC90E0FC01808188234CF71F
:101190008EEC90E0FC0180818C839C818FE7892715
:1011A000882F90E08C7790700097A1F48981882F28
:1011B00090E02E813F81820F931F2981222F30E002
:1011C0004E815F81240F351FF90130812A81232B45
:1011D000FC0120838A81880F8A838A81882309F011
:1011E000BDCF89818F5F898399818D81981708F49C
:1011F000A9CF80E027960FB6F894DEBF0FBECDBF13
:10120000CF91DF910895FB01DC0102C001900D92A6
:1012100041505040D8F70895DC0101C06D93415012
:0A1220005040E0F70895F894FFCF66
:08122A000101000AF401F800C3
:00000001FF
