:100000000C944C000C946B000C946B000C946B00E3
:100010000C946B000C946B000C946B000C946B00B4
:100020000C946B000C946B000C946B000C946B00A4
:100030000C946B000C946B000C946B000C946B0094
:100040000C946B000C946B000C946B000C946B0084
:100050000C946B000C946B000C946B000C946B0074
:100060000C946B000C946B000C946B000C946B0064
:100070000C946B000C946B000C946B000C946B0054
:100080000C946B000C946B000C946B000C946B0044
:100090000C946B000C946B0011241FBECFEFD0E2C8
:1000A000DEBFCDBF11E0A0E0B1E0ECE2FAE000E09D
:1000B0000BBF02C007900D92A831B107D9F711E02C
:1000C000A8E1B1E001C01D92A931B107E1F70E949A
:1000D000F1030C9414050C940000882311F083EEB6
:1000E00008951092180180E008952998A0911801B0
:1000F000B0E0FD01EE0FFF1FED5FFE4F0190F081BC
:10010000E02D9081AE5FBE4F8C91809589238083D6
:1001100008952998A0911801B0E0FD01EE0FFF1F8E
:10012000ED5FFE4F0190F081E02D8081AE5FBE4F0C
:100130009C91892B80830895DF93CF930F92CDB745
:10014000DEB784B1866084B92998E0911801F0E0A7
:10015000CF01880F991FDC01A050BF4F0D90BC91BB
:10016000A02D2C91EE5FFE4F3081232B2C938D5FC1
:100170009E4FDC01ED91FC918081832B80832B9A33
:10018000E4E6F0E080818B7F808380E58CBD81E0B8
:100190008DBD8DB589838EB589830F90CF91DF9109
:1001A00008958CB58F7B8CBDE4E6F0E0808184609F
:1001B000808384B1897F84B9A0911801B0E0FD01EA
:1001C000EE0FFF1FE050FF4F0190F081E02D908176
:1001D000AE5FBE4F8C918095892380830895DF9315
:1001E000CF930F92CDB7DEB7982FFB010FC0808160
:1001F0008EBD82E304C0815011F481EF0AC00DB4BA
:1002000007FEF9CF31968EB589839150992379F7FE
:1002100080E00F90CF91DF910895982FFB0110C0DF
:100220001EBC8AEF07C0815029F40DB407FC8EB5BF
:1002300087EE08950DB407FEF6CF8EB581939150E9
:10024000992371F780E00895DF93CF930F92CDB794
:10025000DEB7982F2EE009C0298303C08981815021
:10026000898389818823D1F791509923A9F70F9029
:10027000CF91DF9108951F93182F04C088E60E9444
:10028000240111501123D1F71F9108950F931F934B
:10029000CF93DF93182FEA01FB0170E050E090E06C
:1002A00005E01CC0A92FAA1FAA27AA1F852F881FF7
:1002B0008827881F550F990F982B40E0862F8B2396
:1002C00009F041E04A1711F05027905866952F5FCA
:1002D0003F4F2830310531F77F5F3196711728F491
:1002E000B08160E820E030E0DDCF98835983DF9172
:1002F000CF911F910F910895CF92DF92EF92FF92CD
:100300000F931F93DF93CF930F92CDB7DEB7F82EE5
:10031000E62E8A016E010894C11CD11C81E060EFB9
:100320007FEFA6010E948B04803A61F0882389F454
:10033000998121E0E21621F49F219F1519F409C04B
:100340009F2139F00115110519F001501040E6CF39
:1003500087EE0F90CF91DF911F910F91FF90EF905B
:10036000DF90CF90089580E461E048E95DE00E946D
:100370007C01089581E060E040E659E00E947C0144
:1003800008950E94BA010895CF93DF93EC0181E0B4
:1003900060EF7FEFAE010E948B04882331F081E093
:1003A00060EF7FEFAE010E948B04DF91CF91089543
:1003B00080E060EE7FEF40E050E00E94B8040895D6
:1003C0000E948904882331F460EE7FEF40E050E022
:1003D0000E94B80408958F929F92AF92BF92CF92DD
:1003E000DF92EF92FF920F931F93DF93CF9300D092
:1003F000CDB7DEB7C82E7B0182E0D82E5B01089412
:10040000A11CB11C4E010894811C911C0E94B301D7
:10041000182F882319F581E060E07EEFA7010E9484
:100420008B04182F8823D1F4F7010081C01620F423
:100430000E94E00112EA2DC0802F8450813320F009
:100440000E94E00114EE25C0802F815060E07EEF15
:10045000A5010E948B04182F882319F00E94E00147
:1004600018C0102F1250812FB701A4010E9446011D
:10047000F701E10FF11D99818081981739F49A8174
:100480008181981719F4F701118106C00E94E001DB
:1004900015EEDA9409F0BACF812F0F900F90CF911B
:1004A000DF911F910F91FF90EF90DF90CF90BF9061
:1004B000AF909F908F900895AF92BF92CF92DF92AE
:1004C000EF92FF920F931F93DF93CF9300D000D052
:1004D000CDB7DEB7082F7B016A01A22E92E0B92EBC
:1004E0000E94BA01182F8823D1F5AA2041F0802F4D
:1004F000B701A6010E948B04882341F42EC0802FEF
:10050000B701A6010E94B804882369F00E94BA01CD
:10051000882329F5AA20D1F4802FB701A6010E94D3
:10052000B8048823E1F480E0E8168EEFF806F8F4CA
:1005300083E00E943B0184E0BE016F5F7F4F0E9419
:10054000EB01182F882399F41A8111C0802FB7016D
:10055000A6010E948B04882311F4182F08C0182FBD
:10056000BA9429F00E94E001112309F0B9CF812F3C
:100570000F900F900F900F90CF91DF911F910F91DF
:10058000FF90EF90DF90CF90BF90AF90089521E063
:100590000E945C02089520E00E945C020895DF92B0
:1005A000EF92FF920F931F93DF93CF930F92CDB7EC
:1005B000DEB77C01FC010081D62E60FD0BC0402F10
:1005C00050E0425050404E0D5F1D802F8250B701C9
:1005D0000E944601802F60E07EEFA7010E94CB02BF
:1005E000182F882381F4D1FC2EC081E060EF7FEFCB
:1005F000AE014F5F5F4F0E948B04182F8823E9F4F0
:10060000898184FF20C0802F60E07EEFA7010E94D7
:10061000CB02182F8823B9F4D1FC15C081E060EF1C
:100620007FEFAE014F5F5F4F0E948B04182F88232E
:1006300021F4898184FD11C006C0103A11F410E044
:1006400002C00E94E001812F0F90CF91DF911F9196
:100650000F91FF90EF90DF90089514EDF4CFFF928B
:100660000F931F93CF93DF93162FF42EE901602F82
:100670000E94CF02882349F4112319F0812F0E9490
:100680003B018F2DBE010E94EB01DF91CF911F91A5
:100690000F91FF9008951F93182F80E060EE7FEF79
:1006A00040E050E00E94B804882351F4112319F46B
:1006B0008EE091E002C085E091E063E00E94CF020D
:1006C0001F91089580E40E944B03089580E00E94EA
:1006D0004B0308952F923F924F925F926F927F92B9
:1006E0008F929F92AF92BF92CF92DF92EF92FF9242
:1006F0000F931F93DF93CF93CDB7DEB77E2D9F2C43
:100700007A2C6B2C5D884E88DF88388C298CAA8CDB
:10071000BB8C902F975F9C0D980D9D0DF5019193CB
:10072000D50111968C93DF0111966183FD013196FD
:1007300011965C93DF0111964183FD01319611966C
:100740003C93218322E0E22EF12CEE0EFF1E0023CB
:1007500051F010E0C701672F792D402F50E00E9423
:100760000B05E00EF11ECC2059F00C2D10E0C70156
:10077000672D762D4C2D50E00E940B05E00EF11EEA
:10078000882059F0082D10E0C701652D742D482DE3
:1007900050E00E940B05E00EF11EDD2039F0C7018C
:1007A000632D722D4D2D50E00E940B05C50160E0B8
:1007B00044E32C8D3D8D00E00E942F03CF91DF910B
:1007C0001F910F91FF90EF90DF90CF90BF90AF906F
:1007D0009F908F907F906F905F904F903F902F9061
:1007E00008956F927F928F92AF92BF92CF92EF92C5
:1007F000FF920F931F93DF93CF93CDB7DEB765972B
:100800000FB6F894DEBF0FBECDBF85E589838AEAB7
:100810008A838CEB8B838EED8C830E94FB0484E0B7
:1008200060E070E03E010894611C711CA3010E940D
:10083000CB02182F882309F055C085E0E82EF12C53
:10084000EC0EFD1E84E060E070E0A7010E94C7028C
:10085000182F882309F046C0C301B70144E050E0D7
:100860000E94FE04182F8823E9F58DB79EB70997DB
:100870000FB6F8949EBF0FBE8DBFEDB7FEB7319691
:10088000ADB7BEB712961C921E92119712821482B7
:100890001382CE010D9696838583F086E78280E1F0
:1008A00060E040E050E024E030E000E0EE24FF248F
:1008B000CC24AA24BB2488240E946A03182F8DB755
:1008C0009EB709960FB6F8949EBF0FBE8DBF112339
:1008D00049F4C301BE01695F7F4F44E050E00E94CC
:1008E000FE04182F0E94F804812F90E065960FB641
:1008F000F894DEBF0FBECDBFCF91DF911F910F9156
:10090000FF90EF90CF90BF90AF908F907F906F90BF
:10091000089580E00895EF92FF920F931F93DF9365
:10092000CF9300D00F92CDB7DEB7082F7A0183E0C6
:1009300089837A836B830E94750083E0BE016F5FB9
:100940007F4F0E94EF00182F882329F4802FB701D2
:100950000E940D01182F0E948900812F0F900F9087
:100960000F90CF91DF911F910F91FF90EF9008951D
:10097000EF92FF920F931F93DF93CF9300D000D09D
:10098000CDB7DEB7082F7A0186E0898382E08A83BB
:100990007B836C830E94750081E0BE016F5F7F4F97
:1009A0000E94EF00182F0E948900112391F40E94E9
:1009B000750083E0BE016E5F7F4F0E94EF00182F2D
:1009C000882329F4802FB7010E94EF00182F0E947E
:1009D0008900812F0F900F900F900F90CF91DF9192
:1009E0001F910F91FF90EF9008950E946D00089560
:1009F0000E94D10008950E949C000895FB01DC0133
:100A000004C08D910190801921F441505040C8F7E5
:100A1000881B990B0895FB01DC0102C001900D9227
:0C0A200041505040D8F70895F894FFCFE3
:100A2C00240001250009114000000000EF8209118B
:080A3C000000000000718100C0
:00000001FF
