:100000000C944C000C946B000C946B000C946B00E3
:100010000C946B000C946B000C946B000C946B00B4
:100020000C946B000C946B000C946B000C946B00A4
:100030000C946B000C946B000C946B000C946B0094
:100040000C946B000C946B000C946B000C946B0084
:100050000C946B000C946B000C946B000C946B0074
:100060000C946B000C946B000C946B000C946B0064
:100070000C946B000C946B000C946B000C946B0054
:100080000C946B000C946B000C946B000C946B0044
:100090000C946B000C946B0011241FBECFEFD0E2C8
:1000A000DEBFCDBF11E0A0E0B1E0E4E3FBE000E0A3
:1000B0000BBF02C007900D92A233B107D9F711E030
:1000C000A2E3B1E001C01D92A433B107E1F70E94A1
:1000D00096040C9498050C940000AF92BF92DF92A6
:1000E000EF92FF920F931F93CF93DF93E82E5A0165
:1000F000882319F450E090E031C0F62E262F372FD8
:10010000D90150E090E00F2EF0E8DF2EF02DC0E096
:10011000D0E005E060E011E0FC917D2D9E01E92F2B
:10012000EE1FEE27EE1F852F881F8827881F550F8B
:10013000990F982B462F872F8F2309F0412F4E17A9
:1001400011F05027905876952F5F3F4F283031059A
:1001500031F711968A2F8F198E15F0F2F5019083E1
:100160005183DF91CF911F910F91FF90EF90DF901E
:10017000BF90AF900895CF92DF92EF92FF920F93CE
:100180001F93DF93CF930F92CDB7DEB7F82EE62EF5
:100190008A016E010894C11CD11C81E060EF7FEFE1
:1001A000A6010E946203982F853A69F0882391F492
:1001B00081E0E81629F489818F218F1521F40AC086
:1001C00089818F2139F00115110519F00150104076
:1001D000E4CF91EA892F0F90CF91DF911F910F917A
:1001E000FF90EF90DF90CF90089580E461E040E6CB
:1001F00059E00E94BB00089581E060E040E659E0CC
:100200000E94BB0008950E94FC000895CF93DF93E5
:10021000EC0181E060EF7FEFAE010E946203882372
:1002200031F081E060EF7FEFAE010E946203DF9169
:10023000CF91089580E060EE7FEF40E050E00E94B3
:100240008F0308950E946003882311F40E941A010D
:1002500008953F924F925F926F927F928F929F92FA
:10026000AF92BF92CF92DF92EF92FF920F931F93C4
:10027000DF93CF9300D0CDB7DEB7C82E7B01DD244E
:100280006894D1F85B010894A11CB11C3E0108944C
:10029000611C711C0F2EF3EA3F2EF02D0F2EF7EA92
:1002A0005F2EF02D0F2EF2EA4F2EF02D0E94F5005A
:1002B000182F882319F00E94220146C081E060E0D7
:1002C0007EEFA7010E946203182F882319F00E9475
:1002D00022013AC0F7010081C01620F40E942201D9
:1002E000142D32C0802F8450813320F00E942201CF
:1002F000152D2AC0802F815060E07EEFA5010E945D
:100300006203182F882319F00E9422011DC0102FAC
:100310001250812FB701A3010E946D00212F30E000
:10032000F701E20FF31F99818081981751F4F701CB
:10033000E20FF31F9A818181981719F4F50110815A
:1003400006C00E942201132DDA9409F0AFCF812F4D
:100350000F900F90CF91DF911F910F91FF90EF9031
:10036000DF90CF90BF90AF909F908F907F906F90D5
:100370005F904F903F9008959F92AF92BF92CF921F
:10038000DF92EF92FF920F931F93DF93CF9300D0F2
:1003900000D0CDB7DEB7A82E6B017A01922E02E015
:1003A0000E94FC00B82E882311F0182F3EC099201F
:1003B00049F08A2DB601A7010E946203182F8823F5
:1003C00041F43AC08A2DB601A7010E948F03882309
:1003D00079F00E94FC00182F882339F59920E9F460
:1003E0008A2DB601A7010E948F03182F8823E9F4F4
:1003F00080E0C8168EEFD80610F01B2D1DC083E0DC
:100400000E94EE0384E0BE016F5F7F4F0E942901CE
:10041000182F882389F41A810FC08A2DB601A701ED
:100420000E946203182F882339F0015029F00E949E
:100430002201112309F0B4CF812F0F900F900F905C
:100440000F90CF91DF911F910F91FF90EF90DF9070
:10045000CF90BF90AF909F90089521E00E94BC0183
:10046000089520E00E94BC010895DF92EF92FF9270
:100470000F931F93DF93CF930F92CDB7DEB77C011D
:10048000FC010081D62E60FD0BC0802F90E002970A
:10049000A701480F591F802F8250B7010E946D009D
:1004A000802F60E07EEFA7010E943102182F882381
:1004B00081F4D1FC30C081E060EF7FEFAE014F5F8F
:1004C0005F4F0E946203182F8823E9F4898184FF1B
:1004D00022C0802F60E07EEFA7010E943102182F1A
:1004E0008823C9F4D1FC17C081E060EF7FEFAE0133
:1004F0004F5F5F4F0E946203182F882321F4898188
:1005000084FD08C008C0153A11F410E004C00E9430
:10051000220101C014EB812F0F90CF91DF911F9129
:100520000F91FF90EF90DF900895FF920F931F932C
:10053000CF93DF93162FF42EE901602F0E9435022E
:10054000882349F4112319F0812F0E94EE038F2D87
:10055000BE010E942901DF91CF911F910F91FF9061
:1005600008951F93182F0E941A01882369F41123FC
:1005700031F489E091E063E00E94350205C080E03B
:1005800091E063E00E9435021F91089580E40E948B
:10059000B102089580E00E94B10208950F93DF93A5
:1005A000CF93CDB7DEB729970FB6F894DEBF0FBE55
:1005B000CDBF9A01DE011196E2E1F1E049E0019040
:1005C0000D924150E1F79C838D836F83462F4C5FE2
:1005D000CE01019664E000E00E94950229960FB6D4
:1005E000F894DEBF0FBECDBFCF91DF910F9108957C
:1005F000EF92FF920F93DF93CF93CDB7DEB728979B
:100600000FB6F894DEBF0FBECDBF7C018BE191E049
:1006100064E048E09E012F5F3F4F01E00E94950299
:10062000682F8823C9F49B8180E02D8130E040E071
:100630005FEFF901E49F9001E59F300DF49F300DCD
:100640001124820F931F2C81820F911D2E81821BFA
:100650009109F70191838083862F28960FB6F8942D
:10066000DEBF0FBECDBFCF91DF910F91FF90EF9016
:1006700008950F93DF93CF93CDB7DEB729970FB6C9
:10068000F894DEBF0FBECDBF9B01DE011196E4E200
:10069000F1E099E001900D929150E1F78D83CE0148
:1006A000019660E046E000E00E94950229960FB6B0
:1006B000F894DEBF0FBECDBFCF91DF910F910895AB
:1006C00080E00895EF92FF920F931F93DF93CF93F3
:1006D00000D00F92CDB7DEB7082F7A0183E089836F
:1006E0007A836B830E94AA0483E0BE016F5F7F4F11
:1006F0000E943C05182F882329F4802FB7010E94FF
:100700006405182F0E94C204812F0F900F900F9044
:10071000CF91DF911F910F91FF90EF900895EF928D
:10072000FF920F931F93DF93CF9300D000D0CDB7EC
:10073000DEB7082F7A0186E0898382E08A837B8393
:100740006C830E94AA0481E0BE016F5F7F4F0E940C
:100750003C05182F0E94C204112391F40E94AA04A0
:1007600083E0BE016E5F7F4F0E943C05182F8823F7
:1007700029F4802FB7010E943C05182F0E94C20463
:10078000812F0F900F900F900F90CF91DF911F91BD
:100790000F91FF90EF9008950E94A20408950E9487
:1007A0001A0508950E94D9040895DF93CF930F92FC
:1007B000CDB7DEB7982F882369F021E0298389819E
:1007C000882331F089818150898389818823D1F7F9
:1007D0009150A1F70F90CF91DF9108951F93882337
:1007E00031F0182F8CE60E94D5031150D9F71F91D4
:1007F0000895DF93CF93CDB7DEB727970FB6F89460
:10080000DEBF0FBECDBFFE01319687E0DF011D9236
:100810008A95E9F782E190EF63E0AF010E94CE0292
:10082000882341F480E490EF62E0AE014F5F5F4FB8
:100830000E94CE0227960FB6F894DEBF0FBECDBF42
:10084000CF91DF910895DF93CF93CDB7DEB728978F
:100850000FB6F894DEBF0FBECDBF85E589838AEA67
:100860008A838CEB8B838EED8C8384E060E070E078
:10087000AE014F5F5F4F0E943102882399F484E0FC
:1008800060E070E0AE014B5F5F4F0E942D02882355
:1008900049F4CE010196BE016B5F7F4F44E050E00A
:1008A0000E948B0528960FB6F894DEBF0FBECDBF11
:1008B000CF91DF9108950E9403010E94CA0281E056
:1008C0000E94EE030E9403010E94C60281E00E9482
:1008D000EE0380E00895DF93CF9300D000D000D0E6
:1008E000CDB7DEB7FE01319686E0DF011D928A9515
:1008F000E9F786E0BF010E94390326960FB6F89407
:10090000DEBF0FBECDBFCF91DF910895DF93CF93B0
:1009100000D0CDB7DEB71A821982CE0101960E94AF
:10092000F8020F900F90CF91DF9108950E94D203AB
:100930000E946B04809332018823D1F38AE00E94E5
:10094000EE03F6CF882311F088EA08951092330160
:1009500080E00895E5E2F0E080818D7F8083A091C2
:100960003301B0E0FD01EE0FFF1FE05DFE4F01908F
:10097000F081E02D9081A15DBE4F8C9180958923FF
:1009800080830895E5E2F0E080818D7F8083A091EF
:100990003301B0E0FD01EE0FFF1FE05DFE4F01905F
:1009A000F081E02D8081A15DBE4F9C91892B8083D9
:1009B0000895DF93CF930F92CDB7DEB7E4E2F0E076
:1009C00080818660808345E250E0DA018C918D7FE2
:1009D0008C93E0913301F0E0CF01880F991FDC0187
:1009E000A35DBE4F0D90BC91A02D2C91E15DFE4FFB
:1009F0003081232B2C93805D9E4FDC01ED91FC9187
:100A00008081832B8083FA01808188608083E4E683
:100A1000F0E080818B7F808382E58CBDEDE4F0E0A7
:100A200081E08083808189838EB589830F90CF9107
:100A3000DF910895ECE4F0E080818F7B8083E4E631
:100A4000F0E0808184608083E4E2F0E08081897F4F
:100A50008083A0913301B0E0FD01EE0FFF1FE35D45
:100A6000FE4F0190F081E02D9081A15DBE4F8C91F1
:100A70008095892380830895DF93CF930F92CDB71C
:100A8000DEB78823E1F0282F21504EE450E032E316
:100A9000EDE4F0E0DB018D91BD01DA018C93932F41
:100AA00002C0915051F080818823DCF7DA018C91EB
:100AB0008983222321F02150EDCF81EF01C080E016
:100AC0000F90CF91DF910895CF93DF93DB018823BF
:100AD000F1F0282F2150CEE4D0E03AEFEDE4F0E041
:100AE0001882932F0AC0915041F48DB5882314F0D9
:100AF00081EA0EC08EB581EA0BC0808188239CF705
:100B000088818C93222319F011962150E9CF80E03F
:100B1000DF91CF910895FB01DC0104C08D9101901C
:100B2000801921F441505040C8F7881B990B089553
:040B3000F894FFCF67
:100B340009114000000000EF8209110000000000CC
:100B44007181091000000000000000090E0000007F
:100B54000000D99C090C00000000000000240001E2
:020B640025006A
:00000001FF
