:100000000C942A010C9449010C9449010C94490167
:100010000C9449010C9449010C9449010C94490138
:100020000C9449010C9449010C9464140C944901FA
:100030000C94D9080C9449010C9449010C94490181
:100040000C9449010C9449010C9449010C94490108
:100050000C9449010C9449010C9449010C94330807
:100060000C9449010C9449010C9449010C944901E8
:100070000C9449010C9449010C9449010C944901D8
:100080000C9449010C9449010C9449010C946D089D
:100090000C9449010C944901BF05CD05E305E30526
:1000A000E305E305E305AD05E305E305E305E30546
:1000B000E305E305E305E3059D05DC05E305E3054D
:1000C0009505B505A505E305E305E305C505E605C5
:1000D000E305E305E305D505E305E305E305E305EE
:1000E000E305E305E3058705E305E305E305E3052C
:1000F000E305E305E3058F05D60F7110980F711026
:100100007110711071107110CF0F7110711071108A
:10011000711071107110E70F7110A90FC30FE60E67
:10012000711071107A0F3C0F460F570F570F570F72
:10013000570F570F2F0F570F570F570F570F570FB7
:10014000570F570F570F250F520F570F570F200FED
:10015000340F2A0F570F570F570F410F160F570F16
:10016000570F570F4D0F570F570F570F570F570F69
:10017000570F570F110F570F570F570F570F570F95
:10018000570F570F1B0F001053104F107A107A1093
:100190007A1057107A107A107A107A107A107A1032
:1001A0007A107A1011102B107A107A107A10FD0F35
:1001B000B9133E1342147E1342140C134B12421413
:1001C000EE122813F7132214040309040902430052
:1001D000020100803209040000010202010005242E
:1001E0000010010524010301042402060524060071
:1001F00001070583032000FF09040100020A000033
:1002000000070581022000000705020220000012FD
:1002100001000202000020EB032221001000000078
:100220000141543838434B3439302000434B343982
:1002300030200045434331303820004145533133AD
:1002400032200053484132303420000001000101C7
:100250000001000511241FBECFEFD0E2DEBFCDBFED
:1002600012E0A0E0B1E0E6EEF5E400E00BBF02C072
:1002700007900D92AA3DB107D9F725E1AAEDB2E0AA
:1002800001C01D92A634B207E1F70E94FE1C0C9437
:10029000F1220C940000BF92CF92DF92EF92FF9276
:1002A0000F931F93CF93DF93882399F1B62EE62FF8
:1002B000F72F60E090E06894CC24C3F8D12C6894C8
:1002C000EE24E7F805E011E0F12C1EC0B62FBB1FAD
:1002D000BB27BB1F660FA92FAA1FAA27AA1F6A2B1D
:1002E000990FA12FC72FCD2309F4AF2DAB1711F014
:1002F000902760587695215031092115310531F745
:100300002E2F2B19281738F4D1912C2D3D2D7E2D11
:10031000DDCF60E090E0FA0160839183DF91CF91BF
:100320001F910F91FF90EF90DF90CF90BF900895B5
:1003300040E050E060EE7FEF80E00E94961C089560
:100340000E94A01C811102C00E9498010895CF93C1
:10035000DF93EC01AC0160EF7FEF81E00E948C1C29
:10036000882331F0AE0160EF7FEF81E00E948C1CAA
:10037000DF91CF910895EF92FF920F931F93CF9348
:10038000DF931F92CDB7DEB7F82EE62E8A01AE01BD
:100390004F5F5F4F60EF7FEF81E00E948C1C803ADF
:1003A00069F0811117C081E0E81205C089818F21B1
:1003B0008F1104C00AC099819F2149F098012150F2
:1003C0003109012B31F08901E2CF80E003C080E0E8
:1003D00001C087EE0F90DF91CF911F910F91FF9099
:1003E000EF90089540E659E060E081E00E94BB0193
:1003F000089548E95DE061E080E40E94BB01089552
:100400007F928F929F92AF92BF92CF92DF92EF92A4
:10041000FF920F931F93CF93DF9300D0CDB7DEB73A
:10042000B82E8B016894CC24C1F87B018FEFE81AB9
:10043000F80A0F2EF5EE8F2EF02D0F2EF4EEAF2EC4
:10044000F02D0F2EF2EA9F2EF02D0E94F901D82EEA
:10045000882319F00E94A0014BC0A80160E07EEF44
:1004600081E00E948C1CD82E882319F00E94A001E4
:100470003FC0F8017080B71420F40E94A001D92C6D
:1004800037C08CEF870D813320F00E94A001DA2C59
:100490002FC0A70160E07EEF8FEF870D0E948C1CBC
:1004A000D82E882319F00E94A00122C07A947A9451
:1004B000AE014F5F5F4FB801872D0E944B01272D82
:1004C00030E0F801E20FF31F9981808198130AC090
:1004D000F801E20FF31F9A818181981303C0F8019C
:1004E000818109C00E94A001D82C02C08D2D03C0BB
:1004F000CA94E1F3AACF0F900F90DF91CF911F9193
:100500000F91FF90EF90DF90CF90BF90AF909F90B2
:100510008F907F9008958F929F92AF92BF92CF92CB
:10052000DF92EF92FF920F931F93CF93DF9300D050
:1005300000D0CDB7DEB7982E8B017A01A22E689439
:10054000BB24B1F86894882481F8C82C0E94F20179
:10055000D82E811124C0A11018C0A701B801892D7F
:100560000E94961CD82E811118C001151E4FF0F460
:1005700083E00E946606BE016F5F7F4F84E00E94A9
:100580000002811119C08A8117C0A701B801892D05
:100590000E948C1CD82E882359F0CA94B9F6BA94BC
:1005A00041F00E94A001D110D0CF05C080E004C06E
:1005B00003C08D2D01C08D2D0F900F900F900F90C7
:1005C000DF91CF911F910F91FF90EF90DF90CF902F
:1005D000BF90AF909F908F90089520E00E948B0273
:1005E0000895AF92BF92CF92DF92EF92FF920F9356
:1005F0001F93CF93DF931F92CDB7DEB78C01E62E0A
:10060000FC01D08060FD0BC04D2D50E042505109DF
:10061000480F591FBC018EEF8D0D0E944B0168944D
:10062000FF24F1F8FE2DF270CF2E0F2EF4EDAF2E39
:10063000F02DA80160E07EEF8D2D0E94ED0281116A
:100640001EC0EC2CC11016C0AE014F5F5F4F60EFB3
:100650007FEF81E00E948C1CB82E811104C089813B
:1006600084FD0CC00FC080EAB81661F00E94A001A2
:10067000EB2C08C0E12C06C0E82E04C08A2DFA94A9
:10068000D9F3D7CF8E2D0F90DF91CF911F910F917E
:10069000FF90EF90DF90CF90BF90AF9008951F93A1
:1006A000CF93DF93CDB7DEB762970FB6F894DEBF76
:1006B0000FBECDBF182F99E0E3E3F1E0DE01119604
:1006C00001900D929A95E1F799E0ECE3F1E0DE01FB
:1006D0001A9601900D929A95E1F70E949801811166
:1006E0000DC0111106C063E0CE0101960E94F10217
:1006F00005C063E0CE010A960E94F10262960FB631
:10070000F894DEBF0FBECDBFDF91CF911F9108954A
:1007100080E00E944F03089580E40E944F030895F3
:1007200021E00E948B020895FF920F931F93CF93B5
:10073000DF93162FF42EE901602F0E94F102811140
:1007400009C0112319F0812F0E946606BE018F2D6A
:100750000E940002DF91CF911F910F91FF900895A9
:100760000F93CF93DF93CDB7DEB729970FB6F894E9
:10077000DEBF0FBECDBF9B0199E0E5E4F1E0DE01F5
:10078000119601900D929A95E1F78D8300E046E075
:1007900060E0CE0101960E94940329960FB6F8946A
:1007A000DEBF0FBECDBFDF91CF910F910895CF92E5
:1007B000DF92EF92FF920F931F93CF93DF938823E3
:1007C00069F1C62EE62FF72F20E030E06894DD2493
:1007D000D3F8E12CFF24F3941F2D00E01AC0B32FAF
:1007E000BB1FBB27BB1F220F331FA12FC92FCD2338
:1007F00009F4A02FAB1719F0A5E02A273058990F5C
:10080000615071096115710551F79E2F9C19981758
:1008100038F4D1916D2D7E2D9F2DE1CF20E030E079
:10082000FA0120833183DF91CF911F910F91FF90C7
:10083000EF90DF90CF900895FF920F931F93CF9387
:10084000DF9300D0CDB7DEB78C01FC01F080FA94C5
:10085000FA94AE014F5F5F4FBC018F2D0E94D7030A
:100860008F2D90E0F801E80FF91F398120813213B4
:1008700009C0F801E80FF91F9A818181981721F0CA
:1008800085EE03C085EE01C080E00F900F90DF91F0
:10089000CF911F910F91FF900895CF93DF93EC01BB
:1008A0000E94CC1C81111FC0BE0184E00E94E01C8C
:1008B000811119C08881843059F48981813151F4C2
:1008C0008A81833349F48B81833441F480E00BC007
:1008D000C4EE05C0C0EF03C0C5EE01C0C5EE86E49E
:1008E0000E9466068C2FDF91CF910895CF93DF93FE
:1008F000EB010E94C21C882341F00E94F41CCE012F
:100900000E944D04811101C088EEDF91CF910895BE
:100910002F923F924F925F926F927F928F929F920F
:10092000AF92BF92CF92DF92EF92FF920F931F93FD
:10093000CF93DF9300D000D01F92CDB7DEB74C012C
:10094000762E5A01322EFC015080EEEFE50D202F5D
:1009500030E0A8EEB3E00E9448226B017C01F5E292
:10096000CF0ED11CE11CF11CA4014E0F511DB4018E
:100970008E2F0E94D7030F2EF3E06F2EF02D10EE76
:100980006894222421F80A2D76C0B401852D0E9496
:10099000D61C182F882341F0B501872D0E947604BC
:1009A000873E09F068C06DC0832D0E946606422C08
:1009B0005BC011928E2F801B8715D8F3C982DA8213
:1009C000EB82FC82B501872D0E94E01C182F8981E3
:1009D0009A81AB81BC818597A109B10989839A83EA
:1009E000AB83BC8389819A81AB81BC818697A10549
:1009F000B10518F0173E31F30CC01D83173E49F4C2
:100A0000B501872D0E947604873E09F43CC01D8104
:100A100032C0143E51F4B501872D0E94760488231C
:100A200009F1883E41F184EE37C0C5010E941C04E3
:100A3000182F81110DC0F5018081853030F581813D
:100A4000833029F18F3029F18F3FA1F080E024C05D
:100A5000B501872D0E947604882321F0883E59F045
:100A6000812F1AC04A9439F0772009F4A7CFEA2DD4
:100A7000FB2D9FCF14ED6A9471F0111186CF812F59
:100A80000BC0812F09C087EE07C080E005C082ED52
:100A900003C083ED01C0812F0F900F900F900F9036
:100AA0000F90DF91CF911F910F91FF90EF90DF900A
:100AB000CF90BF90AF909F908F907F906F905F90FE
:100AC0004F903F902F9008952F923F924F925F92B8
:100AD0006F927F928F929F92AF92BF92CF92DF924E
:100AE000EF92FF920F931F93CF93DF93CDB7DEB7B3
:100AF000D8016E887F88282E312CF1013197E033A0
:100B0000F10508F060C0E45BFF4F0C94422294E0D2
:100B1000988F0AE10F2EFCE0BF2EF02D6CC0E7E0AD
:100B2000E88F01E0BB24B39466C0F4E0F88F00E2E4
:100B30000F2EFBE0BF2EF02D5EC093E2988F0BE2EC
:100B40000F2EFBE1BF2EF02D56C0E4E0E88F03E14D
:100B50000F2EF5E0BF2EF02D4EC0F3E2F88F07E127
:100B60000F2EFCE0BF2EF02D46C06330B9F594E0A7
:100B7000988F07E20F2EF6E1BF2EF02D3CC0E4E087
:100B8000E88F01E0BB24B39436C0F3E2F88F08E2AB
:100B90000F2EFBE0BF2EF02D2EC066233CF593E216
:100BA000988F03E0BB24B39426C0E4E0E88F04E010
:100BB0006894BB24B3F81FC0F4E0F88F06E2689491
:100BC000BB24B2F818C006E4B12C15C094E0988F8D
:100BD00001E30F2EFEE0BF2EF02D0DC0E3E2E88F03
:100BE00007E20F2EF6E1BF2EF02D05C0F7E0F88FDB
:100BF00003E0BB24B3941E2D1A0D120F97E0910F42
:100C0000F30190838183628343832301F5E04F0ED8
:100C1000511CF3015483222349F0222E312CA101CF
:100C2000BD01C2010E949422420C531CEE2041F0EF
:100C3000F12CA701B601C2010E9494224E0C5F1C48
:100C4000AA2049F0EA2CF12CA701B401C2010E94AC
:100C500094224E0C5F1CA201B30185E0810F0E941B
:100C6000D7032B2D498D5A8D688DC3010E948804AE
:100C7000DF91CF911F910F91FF90EF90DF90CF9078
:100C8000BF90AF909F908F907F906F905F904F90AC
:100C90003F902F90089580E691E00895CF93DF93E1
:100CA0001F92CDB7DEB7882369F02EE029839981A2
:100CB000992331F099819150998399819111FACFBB
:100CC0008150A1F70F90DF91CF910895CF93C82F56
:100CD000882329F088E60E944E06C150D9F7CF91AB
:100CE0000895E4E6F0E080818F7780838AB18C7F7D
:100CF0008AB98BB183608BB98CE08093B80008957A
:100D00001092BC00E4E6F0E0808180688083089562
:100D100084EA8093BC008AEFECEBF0E002C08150E3
:100D200061F090819923DCF78091B900887F883049
:100D300031F0803131F480E0089581EF089580E052
:100D4000089580EF089584E98093BC008AEFECEB6E
:100D5000F0E002C0815049F0908194FDFBCF80917A
:100D6000B900887F21F480EF089581EF089580E035
:100D70000895EF92FF921F93CF93DF93882339F169
:100D8000162FA62FB72F0F2EFBEBEF2EF12CF02DE9
:100D9000ECEBF0E064E858EC29EB30E09D91E701E2
:100DA00098836083952F02C0915099F0408144232D
:100DB000DCF7E9019881987F983121F0983211F0A1
:100DC000903449F49A2F911B981740F306C080E0A5
:100DD00005C081EF03C088EF01C080E0DF91CF91B3
:100DE0001F91FF90EF90089524EC2093BC0028EC15
:100DF000ECEBF0E002C0215091F030813323DCF7BE
:100E00002091B900287F203521F00E94A30680EFB1
:100E100008952091BB00FC01208380E0089581EFBC
:100E20000895AF92BF92DF92EF92FF920F931F93BC
:100E3000CF93DF93482F50E0415051091416150607
:100E40009CF5D62EA62FB72FECEBF0E00F2EF4EC8E
:100E5000EF2EF02D0F2EF8ECFF2EF02D0F2EF9EBCC
:100E6000AF2EB12CF02D0BEB10E0E0828F2D02C0E5
:100E70008150B1F190819923DCF7E5018881887F69
:100E8000803521F00E94A30680EF2DC0CD01019690
:100E9000BC01E80128812C93282F2D1930E024175C
:100EA000350714F4DC01E1CF84E88093BC0088ECC2
:100EB000ECEBF0E002C08150A9F090819923DCF7BF
:100EC0008091B900887F883521F00E94A30680EFC9
:100ED0000AC08091BB00FB0180830E94A30603C06F
:100EE00081EF01C081EFDF91CF911F910F91FF90B2
:100EF000EF90DF90BF90AF900895811103C01092E2
:100F0000DA02089583EE089529982898089529987B
:100F1000289A0895CF93DF931F92CDB7DEB784B19F
:100F2000866084B92998209A289A2B9AE4E6F0E002
:100F300080818B7F808380E58CBD81E08DBD8DB508
:100F400089838EB589830F90DF91CF9108958CB5F9
:100F50008F7B8CBDE4E6F0E080818460808384B187
:100F6000897F84B920980895CF93DF931F92CDB7DE
:100F7000DEB7882381F0E62FF72F91919EBD92E393
:100F800002C0915051F00DB407FEFBCF9EB599837E
:100F9000815099F704C080E003C081EF01C080E078
:100FA0000F90DF91CF9108958823B1F0E62FF72FAE
:100FB0002AEF1EBC922F08C0915031F40DB407FEE9
:100FC0000DC08EB587EE08950DB407FEF5CF9EB522
:100FD0009193815071F704C080E0089587EE0895E1
:100FE00080E008958AB188638AB96A9884B1816182
:100FF00084B92C9A289A08955C9A5D9A5B9A089510
:101000005C985D985B980895882311F05C9A089528
:101010005C980895882311F05D9A08955D9808956D
:10102000882311F05B9A08955B9808958EE1809370
:10103000DD02EEE6F0E080818E7F808314BC85E0E7
:1010400085BDA89A8081816080831092DB0208951B
:10105000EEE6F0E080818E7F808315BCA89A8081C7
:101060008160808308951F920F920FB60F92112412
:101070008F938091DD0281508093DD02811106C043
:1010800081E08093DB028EE18093DD028F910F90EF
:101090000FBE0F901F901895E1E7F0E080818E7FE2
:1010A00080831092900082E08093910010929200D1
:1010B000C09A8081816080830895E1E7F0E08081BB
:1010C0008E7F808310929100C09A8081816080839E
:1010D0001092DF021092DE0208951F920F920FB657
:1010E0000F9211248F939F938091DE029091DF02E3
:1010F000892B21F482E08093E10217C08091DE0207
:101100009091DF0201979093DF028093DE02892B9A
:1011100039F08FE298EF909395008093940005C08A
:101120001092910081E08093DC029F918F910F904B
:101130000FBE0F901F901895880F991F809590955E
:1011400090939500809394000E944C081092E102C5
:101150008091E1028823E1F30E945D0808950F93D6
:101160001F93CF93DF938C01009751F0C0E0D0E044
:1011700088EE93E00E949C082196C017D107C1F722
:10118000DF91CF911F910F910895E1E7F0E0208169
:101190002E7F20839093DF028093DE021092DC0288
:1011A0008FE298EF90939500809394000E944C08F2
:1011B00008951F920F920FB60F9211248F9381E022
:1011C0008093E0028F910F900FBE0F901F901895A3
:1011D0008091E3029091E4028F50944F0895682F1C
:1011E00070E04CEF58E081EF9BE00E949D2210924E
:1011F000E4021092E30281EF9BE008959F92AF9288
:10120000BF92CF92DF92EF92FF920F931F93CF93F3
:10121000DF936B018C0101501109EC01C150D048E2
:10122000CC0FDD1F5E0125E0A20EB11CFB01EC0F0F
:10123000FD1F2AE02483229629E22383011511054C
:10124000E1F07B01E80EF91EC60FD71F015011090E
:10125000F70192907F01892D0E948A108883892D41
:1012600082958F700E948A10FE01319780832297A9
:101270000115110559F7C2E0D0E0F601EC0FFD1F92
:1012800088E28083F601F0808E01015011090C0D77
:101290001D1D8F2D0E948A10F80180832297CC0D8E
:1012A000DD1D8F2D82958F700E948A108883C50165
:1012B000DF91CF911F910F91FF90EF90DF90CF9032
:1012C000BF90AF909F900895AF92BF92CF92DF9260
:1012D000EF92FF920F931F93CF93DF931F92CDB79F
:1012E000DEB76C011982E090E302F090E40280E046
:1012F0000E94040880E00E940A0880E00E94100812
:1013000081E090E00E9466068091E602882379F0F1
:101310008093F50281E090E0D6018D939C9365EF78
:1013200072E00E94FE08F60191838083A3C05701FA
:10133000F1E0AF1AB1088CEF98E0E5EFF2E0DF01E1
:101340009C011D9221503040E1F7A114B10489F0B5
:1013500001EF1BE0C7018051944F7C01D8018C91B3
:1013600090E00E945722F80181938F01EE15FF054E
:10137000A9F78091F10B8C3681F44091E3025091F2
:10138000E4026AE370E081EF9BE00E947A22BC01F4
:10139000009729F06F5F7F4F02C061EF7BE0DB01B8
:1013A0008C91853609F128F4813641F0823639F185
:1013B0003AC0893681F1833761F035C026EF32E0DB
:1013C000A6018A2D0E946F0B182F81E00E940A0847
:1013D00030C026EF32E0A601C5010E94BF0E182FD3
:1013E00081E00E94040825C026EF32E0A601C50175
:1013F0000E94BF0E182F81E00E9410081AC08E01B3
:101400000F5F1F4F25EF32E0A6018A2D90E00E946A
:101410009A1D182F0EC026EF32E0A601C5010E94CA
:10142000680E182F06C081E090E0F601918380835A
:1014300010EC998191111EC01093F502D6018D9187
:101440009C9111978B37910518F401968D939C937D
:10145000F601808191818C37910528F082EC809390
:10146000F5028BE790E065EF72E00E94FE08D6017E
:101470008D939C931092E5021092E20285EF92E028
:101480000F90DF91CF911F910F91FF90EF90DF9020
:10149000CF90BF90AF900895CF92DF92EF92FF92DE
:1014A0000F931F93CF93DF93882309F46DC040916E
:1014B000E7022091E3023091E4021091E6020091EC
:1014C000E502D091E20290E0C3E0A1EFBBE0EE24A0
:1014D000E394F12CC12CD12C413029F008F460C0E8
:1014E000433049F142C0F901EF50F44F50815A3076
:1014F000D9F404C0D1E010E020E030E01093E6021F
:10150000D093E2021092E70281E08093E502C901E4
:1015100001969093E4028093E3022F50344FFB0135
:101520003183208381E047C02C3FF8E03F07E0F49F
:101530002F5F3F4F1AC0F901EF50F44F50815A30DE
:10154000A1F43093E4022093E302D093E2029F01DE
:10155000FB01318320831092E70281EC8093E60245
:1015600081E08093E50227C04C2F9F5F9813B4CF92
:101570004093E7023093E4022093E3021093E602E3
:101580000093E502D093E2028091E3029091E4029D
:101590008F50944FFB01918380838091E5020BC0B3
:1015A0002C912A3009F4A6CFDE2D0F2D1F2D4E2DA4
:1015B0002C2D3D2DBDCFDF91CF911F910F91FF902D
:1015C000EF90DF90CF9008959F92AF92BF92CF920D
:1015D000DF92EF92FF920F931F93CF93DF9300D090
:1015E00000D0CDB7DEB7982E7B016A015901AE015C
:1015F0004D5F5F4FBE016F5F7F4FC70102960E9434
:10160000E510882319F0F601108259C00B811C8166
:10161000F70180818737C9F5F801618170E0762F85
:1016200066278281680F711D911025C06115FEEF3C
:101630007F0708F5A8014D5F5F4FF80180810E9488
:10164000ED02803FA8F40E949801811138C0A501E5
:1016500060E07EEF84E00E949003813930F4F50170
:101660008081F601808380E02AC0F601108227C0C5
:10167000F601108224C0A8014D5F5F4FF801808100
:101680000E94961CF60110821AC0F801618170E078
:10169000762F66278281680F711D911005C0A50104
:1016A00080810E94900305C0A501F80180810E94FD
:1016B0008C1C811104C0F8019081F60190830F9079
:1016C0000F900F900F90DF91CF911F910F91FF908E
:1016D000EF90DF90CF90BF90AF909F900895AF9222
:1016E000BF92CF92DF92EF92FF920F931F93CF930F
:1016F000DF9300D000D000D0CDB7DEB77B016A0108
:1017000059011D826AE370E0C7010E94AF228C017B
:10171000009709F433C1FC018181833761F4CE0164
:1017200006960E94A701811120C19E81F501908338
:1017300091E09D831AC18D3659F4B8016E5F7F4FD9
:101740009501AE014B5F5F4F80E00E94E40A0DC13E
:10175000843709F051C0AE014D5F5F4FBE016F5F2E
:101760007F4FC80102960E94E510182F811108C111
:1017700000E095014BE761E08B819C810E9494031E
:10178000811104C0F50190819D83F2C0813928F454
:10179000F50180818D83812FEBC0873E18F49D81F8
:1017A000992319F0803F09F0E0C01D820E94980142
:1017B0008111DBC01E82AE014A5F5F4F60E07EEFA9
:1017C00081E00E948C1C8111D0C09E81F501908324
:1017D000911103C091E09D83C8C09C3710F08BE746
:1017E0008E838E818D83A5014F5F5F4F60E07EEF1A
:1017F00081500E948C1CB9C0833691F5F80182811A
:10180000823771F489E0F701982F11929A95E9F7E0
:10181000F7018083118262E0C7010E94F102A5C036
:10182000AE014D5F5F4FBE016F5F7F4FC8010296F3
:101830000E94E5108111B0C08B819C81F80122814A
:10184000233751F4FC018081882319F00E948C0316
:101850008CC00E94880389C060E00E94F10285C0AC
:101860008237D9F4AE014D5F5F4FBE016F5F7F4F8E
:10187000C80102960E94E510182F811182C0EB81E9
:10188000FC81B50180810E940002803F08F06FC09A
:10189000F50180818D83812F6BC0873751F4F8016A
:1018A0008281843619F40E94F2015FC00E94F9011E
:1018B0005CC0803709F06AC06AE370E0C801019635
:1018C0000E94AF22009709F45DC0FC0121812936F6
:1018D000B9F46AE370E001960E94AF22009709F420
:1018E00053C0FC018181893621F482E00E94791B7A
:1018F0003CC0833709F04CC081E00E94791B35C0A1
:101900002D3659F4BC016E5F7F4F9501AE014B5FE0
:101910005F4F81E00E94E40A28C02337C1F4FC0134
:101920002281293719F40E94A01C1FC0AE014D5F0F
:101930005F4FBE016F5F7F4F02960E94E5108111DD
:101940002BC0EB81FC8180810E94821C0EC08CE93F
:10195000820F8230F8F4253621F40E94721C80E058
:1019600007C00E947A1C80E003C0803F08F01D82FF
:101970002D8130E0F601318320830EC080EC0CC055
:101980000BC00AC080EC08C080EC06C080ECF0CF31
:1019900080ECEECF80ECECCF26960FB6F894DEBF4D
:1019A0000FBECDBFDF91CF911F910F91FF90EF90B0
:1019B000DF90CF90BF90AF900895EF92FF920F937A
:1019C0001F93CF93DF9300D000D0CDB7DEB7CB010C
:1019D0008A0179016AE370E00E94AF22F801118266
:1019E00010820097D1F1FC0121812437C1F4AE01AE
:1019F0004D5F5F4FBE016F5F7F4F02960E94E51003
:101A0000811127C06B817C8189810E940B20F701A5
:101A1000808321E030E0F8013183208318C0223731
:101A2000F1F4AE014D5F5F4FBE016F5F7F4F0296D5
:101A30000E94E51081110DC0B70189810E9491209B
:101A4000F701808329813A81F8013183208388233B
:101A500041F0F8011182108204C080EC02C080ECD9
:101A6000F8CF0F900F900F900F90DF91CF911F91B3
:101A70000F91FF90EF900895EF92FF920F931F93B5
:101A8000CF93DF9300D000D0CDB7DEB7CB018A0172
:101A900079016AE370E00E94AF22F801118210829E
:101AA000009709F453C0FC0121812437C1F4AE0131
:101AB0004D5F5F4FBE016F5F7F4F02960E94E51042
:101AC000811140C06B817C8189810E94B906F70138
:101AD000808381E090E0F801918380833BC02237CE
:101AE000D9F4AE014D5F5F4FBE016F5F7F4F02962D
:101AF0000E94E510811126C0EB81FC81B701808135
:101B00000E94110781111EC0EB81FC81808190E051
:101B1000F801918380831EC02337D1F4FC018381B7
:101B2000813619F40E94880604C08F36A9F40E94F9
:101B3000A306F701808321E030E0F80131832083A0
:101B4000882371F0F801118210820AC080EC08C06D
:101B500080ECF8CF80E004C080ECF7018083F2CF06
:101B60000F900F900F900F90DF91CF911F910F91D9
:101B7000FF90EF900895DF92EF92FF920F931F93E3
:101B8000CF93DF9300D000D0CDB7DEB7CB018A0171
:101B900079016AE370E00E94AF22F801118210829D
:101BA000009709F47EC0FC0121812436F1F4AE01D6
:101BB0004D5F5F4FBE016F5F7F4F02960E94E51041
:101BC000D82E811108C0EB81FC818081882319F017
:101BD0000E948A0702C00E94A707F701108221E035
:101BE00030E0F8013183208356C02337F1F4AE0191
:101BF0004D5F5F4FBE016F5F7F4F02960E94E51001
:101C0000D82E811108C0EB81FC818081882319F0D6
:101C10000E94840702C00E948707F701108221E01A
:101C200030E0F8013183208336C02437D1F4AE018F
:101C30004D5F5F4FBE016F5F7F4F02960E94E510C0
:101C4000D82E81112AC06B817C8189810E94B407C2
:101C5000D82EF701808321E030E0F8013183208322
:101C60001AC0223719F5AE014D5F5F4FBE016F5F9D
:101C70007F4F02960E94E510D82E81110EC0B70149
:101C800089810E94D407D82EF701808389819A81A7
:101C9000F80191838083DD2071F0F80111821082B8
:101CA0000AC00F2EF0ECDF2EF02D05C00F2EF0EC49
:101CB000DF2EF02DF2CF8D2D0F900F900F900F9003
:101CC000DF91CF911F910F91FF90EF90DF900895DA
:101CD000AF92BF92CF92DF92EF92FF920F931F933A
:101CE000CF93DF936C01CB015A0179016AE370E075
:101CF0000E94AF22EC010097A1F18C010F5F1F4FF2
:101D00006CE872E0C8010E94C122892B19F4C981D4
:101D1000C13339F49701A501B801C6010E94DD0C59
:101D200023C06FE872E0C8010E94C122892B11F420
:101D3000C23339F49701A501B801C6010E943C0DD8
:101D400013C062E972E0C8010E94C122892B11F41C
:101D5000C33349F49701A501B801C6010E94BB0D28
:101D600003C080EC01C080ECDF91CF911F910F91F7
:101D7000FF90EF90DF90CF90BF90AF900895CF92FB
:101D8000DF92EF92FF920F931F93CF93DF9300D0D8
:101D900000D0CDB7DEB7CB017A0169016AE370E00C
:101DA0000E94AF22F70111821082009709F497C1B7
:101DB000FC01018110E0F801E156F109E731F1057C
:101DC00008F08FC1E458FF4F0C944222AE014D5FE2
:101DD0005F4FBE016F5F7F4F02960E94E510182F84
:101DE000811181C1F601108280910001882329F0C0
:101DF000C6010E944D04811180C1AB81BC81129645
:101E00008C91129711964C91119750E041505109C5
:101E10004033510508F04BC04D565F4FFA010C940A
:101E2000422286E28093ED1464E049C08FE3809300
:101E3000ED1464E044C082E08093ED1467E03FC09D
:101E40008BE28093ED1464E03AC086E48093ED1455
:101E500063E235C088E18093ED1464E030C083E232
:101E60008093ED1463E22BC09DE39093ED14837097
:101E7000833011F564E023C082E08093ED1464E0C8
:101E80001EC083E38093ED1463E219C094E0909345
:101E9000ED1488239CF463E212C08CE08093ED146F
:101EA00064E00DC08AE28093ED1464E008C088EC21
:101EB0008093ED146BE403C063E201C067E000911E
:101EC000ED14055025E0A601CD010E9488049FE293
:101ED000980F953008F0182FF601208130E0F701B7
:101EE0003183208380910001882309F4FDC00E9482
:101EF000EA1C03C180910001882381F084E0F6018F
:101F0000808381E1818383E3828383E4838384E02C
:101F100090E0F7019183808380E0EFC0C6010E94CA
:101F20004D04F601208130E0F70131832083E5C0C4
:101F3000AE014D5F5F4FBE016F5F7F4F02960E9403
:101F4000E5108111DAC06B817C8189810E94D61CE9
:101F5000D4C0AE014D5F5F4FBE016F5F7F4F0296F1
:101F60000E94E5108111C9C0F6011082EB81FC814D
:101F7000B60180810E94E01CF601208130E0F7016B
:101F800031832083BAC080910001882329F0C601E3
:101F90000E944D048111B1C00E94F41CAEC080911A
:101FA00000018111A3C00E94EA1CA7C0AE014D5FD1
:101FB0005F4FBE016F5F7F4F02960E94E510811157
:101FC0009CC0EB81FC8190819093000196C06AE3F4
:101FD00070E001960E94AF22009709F489C0FC01CD
:101FE000418150E0FA01E356F109E531F10508F0CD
:101FF00081C0ED53FF4F0C9442220E94CC1C7DC047
:10200000AE014D5F5F4FBE016F5F7F4F02960E9432
:10201000E510811172C06B817C8189810E94D61C80
:102020006CC0AE014D5F5F4FBE016F5F7F4F029688
:102030000E94E510811161C0F6011082EB81FC81E4
:10204000B60180810E94E01CF601208130E0F7019A
:102050003183208352C0FC012281293759F4B60113
:1020600084E00E94C21CF601208130E0F701318338
:10207000208343C0AE014D5F5F4FBE016F5F7F4F56
:1020800002960E94E510811107C0EB81FC818081DE
:102090000E94AA1C80E031C00E94F41C2EC00E9445
:1020A000B21C80E02AC00E94BA1C80E026C06AE30D
:1020B00070E001960E94AF22009771F0FC018181CF
:1020C000893621F482E00E94DF1B17C08337A1F418
:1020D00083E00E94DF1B11C00E94EA1C0EC080E05A
:1020E0000CC080EC0AC009C0812F07C080E005C089
:1020F00080E003C080EC01C080E00F900F900F9053
:102100000F90DF91CF911F910F91FF90EF90DF9093
:10211000CF9008958F708A3010F4805D0895895CA7
:102120000895982F80ED890F8A3078F08FEB890F12
:10213000863018F489EC890F08958FE9890F86306D
:1021400018F489EA890F089580E00895BF92CF922C
:10215000DF92EF92FF920F931F93CF93DF936C0167
:1021600082E0C816D10410F1EB0121967B0100E05A
:1021700010E0FE01319780810E949110B82EBB0CB7
:10218000BB0CBB0CBB0CF701B0820F5F1F4F8881EB
:102190000E9491108B29F70181937F01229698016B
:1021A000220F331F2C153D0520F303C080E090E083
:1021B00002C0802F912FDF91CF911F910F91FF903F
:1021C000EF90DF90CF90BF900895CF92DF92EF9283
:1021D000FF920F931F93CF93DF93EC018B017A0152
:1021E000009749F16115710541F14115510539F12A
:1021F00068E270E00E94AF226C01009711F169E281
:1022000070E00E94AF22009731F409900020E9F7B6
:10221000CE01019701C00197B6016F5F7F4FF701B3
:10222000718360838C199D090E94A610F801918327
:10223000808380E007C083EC05C083EC03C083EC9F
:1022400001C083ECDF91CF911F910F91FF90EF9030
:10225000DF90CF900895EBEEF0E090819160908355
:102260008093EC00EDEEF0E080818270682B60835B
:102270008081826080838091EE00881F8827881F7C
:1022800008951092E9008091EB0080FD07C0109244
:10229000E90060E282E00E942B11089580E0089539
:1022A00085E59AEAAAEAB5E5809346159093471525
:1022B000A0934815B093491585E00E948B11FFCF7C
:1022C0008091461590914715A0914815B0914915F8
:1022D00085359A4AAA4AB54569F410924615109276
:1022E00047151092481510924915E0910101F0919F
:1022F0000201099508958FB7F89497EF94BF98E17C
:102300000FB6F89490936000109260000FBE88237F
:102310000CF4789408959FB79078F89427EF24BF31
:1023200083FF02C028E201C028E08770822B28E1E9
:1023300030E00FB6F894A895209360000FBE80930C
:102340006000992309F078940895E8EDF0E0808129
:102350008F768083808180698083808180618083A3
:1023600078940895E8EDF0E080818062808386E1D2
:1023700089BD09B400FEFDCFF894E8EDF0E080815E
:102380008F7D8083E0EEF0E080818E7F80830E94ED
:102390004111E2EEF0E0808181608083808188607D
:1023A0008083789408958091D90080FF1CC080912B
:1023B000E902811118C081E08093E9028091EB026B
:1023C0009091EC0282609093EC028093EB02E8ED36
:1023D000F0E08081806980830E94B211E0EEF0E03D
:1023E00080818E7F80838091D90080FD1BC0809189
:1023F000E9028130B9F41092E9021092F51480914B
:10240000EB029091EC0284609093EC028093EB02DB
:10241000E0EEF0E0808181608083E8EDF0E0808193
:10242000806280838091EB029091EC0290FF10C05B
:102430008091EB029091EC029E7F9093EC0280934E
:10244000EB02EAEEF0E081E0808310821092F51456
:102450001092E9008091E80083FD0E9430120895F7
:102460000F931F93CF93DF9300D0CDB7DEB7E8EE85
:10247000F0E080818B7F8083E1EFF0E010810081CC
:10248000402F50E04C30510508F0FCC1FA01E852F1
:10249000FF4F0C944222103809F0F4C1E1EFF0E054
:1024A00060818081813019F0823059F014C082E15E
:1024B0008093F6148FE092E09093F8148093F714D1
:1024C0000FC083E48093F6148CEC91E09093F814A1
:1024D0008093F71405C00E941C16882309F4D2C10A
:1024E000E1EFF0E0808180818081898380818A832F
:1024F000E8EEF0E08081877F80834091F614898147
:102500009A81242F30E02817390728F44F7151E0C1
:1025100029F050E003C08093F61450E0E8EEF0E0BC
:1025200080818F7E80838091F6148823C9F1809109
:10253000E80084FF05C034C08C9184FF05C007C04B
:10254000A8EEB0E021EF30E08C9180FFF5CF8091D4
:10255000F6148823C1F040E202C04150A1F0E0919E
:10256000F714F091F814CF0101969093F81480932A
:10257000F7148491F90180838091F614815080933F
:10258000F6148111EACF8C9184FD0AC08C918E7F64
:102590008C938091F614882319F08C9184FFD4CF0A
:1025A000513071F48091E80084FD0AC0E8EEF0E05B
:1025B000808180FFFDCFE8EEF0E080818E7F808318
:1025C000E8EEF0E0808184FFFDCFE8EEF0E080816E
:1025D0008F7E808380818B7F808367C1103809F074
:1025E00051C1E8EEF0E08081877F80838091F5140F
:1025F0008093F10080818E7F808380818F778083BC
:10260000808182FFFDCFE8EEF0E080818B7F8083C8
:1026100080818F77808349C1111134C19091F1007D
:10262000E3EEF0E080819F778078892B8083E8EE6D
:10263000F0E08081877F808380818E7F80838081AE
:1026400080FFFDCFE3EEF0E08081806880832DC1C4
:10265000111118C18091F100823008F013C1E8EE29
:10266000F0E09081977F90838093F51480818E7F36
:1026700080838091F5140E94C01517C1112319F0B1
:10268000123021F0FFC08091F100FCC0E1EFF0E0DA
:10269000808190818111F6C02091F1002F772093E5
:1026A000E9008091EB0080FD03C01092E900EAC0D0
:1026B0002223A1F0EBEEF0E080818061808381E055
:1026C00090E0022E02C0880F991F0A94E2F7AAEE4A
:1026D000B0E08C931C928081886080831092E90026
:1026E000E22FF0E0E251FB4E1082E8EEF0E0808154
:1026F000877F808380818E7F8083D7C0112319F0EC
:10270000123021F0BFC08091F100BCC0E1EFF0E0D9
:10271000808190818111B6C08091F1008F7751F452
:10272000EBEEF0E0908190629083E8EEF0E0908133
:10273000977F90838093E9009091EB0090FD03C018
:102740001092E9009FC0EBEEF0E0908190629083E0
:102750001092E900E82FF0E0E251FB4E81E0808327
:10276000E8EEF0E08081877F808380818E7F8083A8
:102770009CC0E1EFF0E0808180818081113879F0A8
:102780001238A9F0103809F07DC0E8EEF0E0808141
:10279000877F80838091EA028093F10015C0E8EE84
:1027A000F0E08081877F80831092F1000DC0E8EE19
:1027B000F0E09081977F90838F77E82FF0E0E251EF
:1027C000FB4E80818093F1001092F100E8EEF0E082
:1027D00080818E7F8083808182FFFDCFE8EEF0E0F4
:1027E00080818B7F808380818F7780835EC011386A
:1027F00009F048C0E1EFF0E0808120819081998369
:1028000090819A8381113EC021113CC008EE10E0F6
:10281000F8018081877F808389819A810E94E515F4
:102820008093F100F80180818E7F8083808182FF18
:10283000FDCFE8EEF0E080818B7F808380818F7711
:10284000808333C01130F1F4E1EFF0E060818081EA
:102850009081998390819A83811114C008EE10E0D1
:10286000F8018081877F808389819A810E94E715A2
:102870001092E900F80180818E7F8083808180FF43
:10288000FDCF13C0602F812F0E94AE1681110DC0A5
:10289000EBEEF0E0808180628083E8EEF0E0808102
:1028A000877F808381E08093EE140F900F90DF91FB
:1028B000CF911F910F910895E7EDF0E08081816045
:1028C00080830E94A51108951F920F920FB60F9258
:1028D00011240BB60F922F933F934F935F936F93F7
:1028E0007F938F939F93AF93BF93EF93FF938091C9
:1028F000E10082FF07C08091E20082FF03C08BEFFE
:102900008093E1008091E10080FF27C08091E20088
:1029100080FF23C081E08093E802E1EEF0E08FEEDB
:1029200080838091EB029091EC0280629093EC02A4
:102930008093EB028EEF8083E2EEF0E08081806195
:10294000808380818F7D8083E8EDF0E080818062EC
:10295000808389B58D7F89BD19BC8091E10084FF9A
:1029600038C08091E20084FF34C009B400FC05C087
:1029700086E189BD09B400FEFDCFE8EDF0E080817D
:102980008F7D80838FEE8093E1008091E802882321
:1029900001F1E2EEF0E080818062808380818860D6
:1029A00080838FEE8093E10080818F7E8083809191
:1029B000EB029091EC0280649093EC028093EB0226
:1029C0008081816080838081806280838081886053
:1029D00080838091E10085FF1AC08091E20085FF2D
:1029E00016C01092E802E2EEF0E080818F7E8083D4
:1029F0008FED8093E10080818F7D80838091EB0259
:102A00009091EC0280689093EC028093EB028091AD
:102A1000E10083FF12C08091E20083FF0EC087EFC8
:102A20008093E1000E9441118091EB029091EC02B1
:102A300091609093EC028093EB02FF91EF91BF9134
:102A4000AF919F918F917F916F915F914F913F9146
:102A50002F910F900BBE0F900FBE0F901F901895E7
:102A60008091F514882311F18091F914811117C018
:102A700082E08093E9008091E80082FF10C080919D
:102A8000F3008091F2008093F914811108C0E8EE00
:102A9000F0E080818B7F808380818F77808381E0ED
:102AA0009091F914911103C080E0089580E0089599
:102AB00082E08093E9008091F914811104C00E94A2
:102AC00030158823E1F38091F1009091F914915031
:102AD0009093F914911108C0E8EEF0E090819B7F8B
:102AE000908390819F7790830895CF93DF93209177
:102AF000F514222309F441C0362F3F7121E02093C1
:102B0000E900662309F1A8EEB0E0C1EFD0E02C9116
:102B100025FFFDCF2C9125FF0FC0662329F1E82F5B
:102B2000F92F819188838E2F9F2F61502C9125FF43
:102B300003C06111F6CF18C02C912E7F2C932C91DD
:102B40002F772C936111E3CF311117C0E8EEF0E03D
:102B5000808185FFFDCFE8EEF0E080818E7F80836D
:102B600080818F77808309C0E8EEF0E080818E7FDE
:102B7000808380818F778083E7CFDF91CF91089525
:102B80001F93CF93DF93C9EED0E083E0888360E2A8
:102B900081EC0E942B1181E0888360E281E80E9431
:102BA0002B1112E0188360E280E80E942B11EAEEFC
:102BB000F0E088E0808310821083108284E08083BC
:102BC0001082DF91CF911F91089580E00895CF93F7
:102BD000DF93009789F483E08093E900EBEEF0E067
:102BE000808180618083AAEEB0E088E08C931C92A3
:102BF0008081886080831DC00197D9F4C9EED0E040
:102C000081E08883EBEEF0E0808180618083AAEE32
:102C1000B0E082E08C931C929081986090838883CE
:102C200080818061808384E08C931C9280818860A5
:102C30008083DF91CF910895833069F461110DC0D5
:102C400084E08093F61488EC91E09093F8148093DC
:102C5000F71481E0089580E0089580E00895CF930F
:102C6000DF93A8EEB0E08C91877F8C93CAEFD4E11C
:102C70008881E1EFF0E08083898180838A8180838D
:102C80008B8180838091FE1480838091FF148083E8
:102C90008091001580838C918E7F8C93E8EEF0E01C
:102CA000808180FFFDCFE8EEF0E0808182FFFDCFE4
:102CB000E8EEF0E080818B7F808380818F77808356
:102CC000DF91CF910895E8EEF0E08081877F8083E7
:102CD000808182FFFDCFE1EFF0E08081AAEFB4E1D7
:102CE0008C93808111968C931197808112968C938E
:102CF0001297808113968C9380818093FE1480813B
:102D00008093FF14808180930015E8EEF0E08081CD
:102D10008B7F808380818F77808380818E7F80838B
:102D2000808180FFFDCF0895E8EEF0E09081977FED
:102D3000908390819E7F908380930115808180FF96
:102D4000FDCF0895E8EEF0E08081877F8083808169
:102D50008E7F8083808180FFFDCF0895CF93DF93A6
:102D600000D0CDB7DEB7E1EFF0E09081998390819C
:102D70009A838132B1F4623241F0633261F06032A1
:102D800081F40E94631681E017C089819A810E94B4
:102D9000941681E011C089819A810E94A21681E077
:102DA0000BC0813A31F4613231F40E942F1681E078
:102DB00003C080E001C080E00F900F90DF91CF91C1
:102DC00008950E948A0708950E94A70708950E9407
:102DD0007D070895EF92FF920F931F93CF93DF9398
:102DE00000D000D0CDB7DEB7E82E8A0196E09983F7
:102DF00092E09A837B836C830E948407BE016F5F9D
:102E00007F4F81E00E94B407F82E0E948707F110DF
:102E100014C00E948407BE016E5F7F4F83E00E9452
:102E2000B407F82E811105C0B8018E2D0E94B40799
:102E3000F82E0E9487078F2D01C08F2D0F900F90C5
:102E40000F900F90DF91CF911F910F91FF90EF9016
:102E50000895EF92FF920F931F93CF93DF9300D0CB
:102E60001F92CDB7DEB7E82E8A0193E099837A836B
:102E70006B830E948407BE016F5F7F4F83E00E94D7
:102E8000B407F82E811105C0B8018E2D0E94D40719
:102E9000F82E0E9487078F2D0F900F900F90DF91D3
:102EA000CF911F910F91FF90EF90089580E00895CA
:102EB0000F931F93CF93DF931F92CDB7DEB7182FD9
:102EC0008091EE02812B89830E948806811115C0B2
:102ED000BE016F5F7F4F81E00E94B906082F8823F3
:102EE00041F00E94A306083F29F4113029F481EA39
:102EF00004C003C0802F01C080EA0F90DF91CF9102
:102F00001F910F9108950E94710680EA8093EE024E
:102F100008950E94800608958E7F8093EE0280E0DF
:102F20000895EF92FF920F931F93CF93DF9300D0FA
:102F3000CDB7DEB7F82E8A0179836A8380E00E94DC
:102F4000581781111CC0BE016F5F7F4F82E00E9445
:102F5000B906E82E882321F00E94A3068E2D0FC00B
:102F6000FF2059F0B8018F2D0E94B906182F882331
:102F700021F00E94A306812F02C00E94A3060F9099
:102F80000F90DF91CF911F910F91FF90EF900895D7
:102F9000EF92FF920F931F93CF93DF9300D0CDB7A3
:102FA000DEB7F82E8A0179836A8380E00E94581781
:102FB000811116C0BE016F5F7F4F82E00E94B9068B
:102FC000E82E882321F00E94A3068E2D09C081E0FF
:102FD0000E945817811104C0B8018F2D0E9411075B
:102FE0000F900F90DF91CF911F910F91FF90EF9075
:102FF00008951F93CF93DF931F92CDB7DEB78FEF66
:1030000089830E948806882381F00E9480060E949E
:1030100071060E948806182F882331F00E948006CE
:103020000E947106812F09C008C0BE016F5F7F4FEB
:1030300081E00E94B9060E94A3060F90DF91CF9114
:103040001F9108950E945C147894089581E09091F6
:10305000F514911180E00895BF92CF92DF92EF9224
:10306000FF920F931F938C01029904C081E080931B
:10307000EF0206C08091EF02813011F41092EF024E
:103080000E94D3110E943015882309F447C0809113
:10309000ED02882309F43CC00F2EF3E0BF2EF02D83
:1030A0000F2EFFE7CF2EFAE1DF2EF6E0EF2EF12C08
:1030B000F02D0E94FC07D701C6010197A109B109B3
:1030C000000001F0D1F7C89500000E940008D70168
:1030D000C6010197A109B109000001F0D1F7C89517
:1030E0000000BA9431F7E0EEF0E0808181608083E7
:1030F0008FED92E2A2E0B0E00197A109B1090000D2
:1031000001F0D1F7C89500001092ED020E94501115
:103110000E945815F801808381E001C080E01F9172
:103120000F91FF90EF90DF90CF90BF900895282FE0
:10313000CB01622F0E94751508959091F0028917B6
:1031400050F490E0880F991F880F991F880F991FDE
:103150008B5D9A4E089580E090E00895FF920F9362
:103160001F93CF93DF9300D0CDB7DEB78C01FC0166
:1031700080819CEF980F9032C0F40F2EFEEFFF2E4F
:10318000F02DF80EAE014F5F5F4FB8018F2D0E94FA
:10319000D703F801EF0DF11D29813A8180819181DA
:1031A0002817390721F480E003C084EE01C085EEC2
:1031B0000F900F90DF91CF911F910F91FF90089585
:1031C0001F93CF93DF9300D000D01F92CDB7DEB70F
:1031D0008D838091F002843008F046C08D818A830F
:1031E0008FEF8B8380EF8C830E948806BE016E5F19
:1031F0007F4F83E00E94B906182F882321F00E9498
:10320000A306812F32C08D8181608D830E94880644
:10321000BE016B5F7F4F81E00E94B906182F8823A3
:1032200021F00E94A306812F20C0BE016F5F7F4F57
:1032300081E00E941107182F811112C0E091F00265
:10324000F0E0EE0FFF1FEE0FFF1FEE0FFF1FEB5D15
:10325000FA4E8D818E7F828382E0808388E0818335
:103260000E94A306812F01C080E00F900F900F9065
:103270000F900F90DF91CF911F9108951F93CF93DF
:10328000DF93CDB7DEB72E970FB6F894DEBF0FBE33
:10329000CDBF8E878091F002843008F0AAC08E8561
:1032A000898383E08A8384E08A8781E18B8783E353
:1032B0008C8783E48D870E9488068111A1C08E854A
:1032C00081608E87BE01625F7F4F81E00E94B906F8
:1032D000182F882321F00E94A306812F91C0BE01E0
:1032E0006D5F7F4F84E00E941107811189C044E027
:1032F00050E0BE01665F7F4FCE0103960E94872299
:10330000892B09F078C00E948806811179C0BE011E
:103310006F5F7F4F82E00E94B906182F882321F04B
:103320000E94A306812F6CC063E071E087E00E94D9
:10333000B906182F0E94A30611115FC08FE39FE109
:103340000197F1F7000000C00E948806BE01625F8D
:103350007F4F81E00E94B906182F882321F00E9438
:10336000A306812F4DC0BE016D5F7F4F87E00E9495
:103370001107811145C081E08A830E948806BE0141
:103380006F5F7F4F82E00E94B906182F0E94A3064C
:10339000CE0103960E94AE18811131C02091F00237
:1033A00030E0F901EE0FFF1FEE0FFF1FEE0FFF1FC2
:1033B000EB5DFA4E8E858E7F828382E080834C8126
:1033C0005D816E817F8144835583668377838681A7
:1033D000811102C097E001C099E0220F331F220F34
:1033E000331F220F331FF901EB5DFA4E9183812FBA
:1033F00007C080E005C080EF03C0812F01C080EFCF
:103400002E960FB6F894DEBF0FBECDBFDF91CF91E1
:103410001F9108958091F0028430A0F50E947106FA
:103420000E94B92180EC0E943E1981110AC081E0FE
:103430000E9410088091F0028F5F8093F002843028
:1034400010F588EC0E943E1981110AC081E00E94AB
:1034500004088091F0028F5F8093F002843098F42A
:1034600080EA0E94E01881110AC081E00E940A08E7
:103470008091F0028F5F8093F002843020F480917D
:10348000F002089580E008952F923F924F925F924C
:103490006F927F928F929F92AF92BF92CF92DF9264
:1034A000EF92FF920F931F93CF93DF93CDB7DEB7C9
:1034B00028970FB6F894DEBF0FBECDBF8091F00203
:1034C000882349F080912615883019F40E947A1CCF
:1034D00002C00E94BA1C1092F00280E2E5E2F5E11F
:1034E000DF011D928A95E9F70E940A1A8091F00285
:1034F000882309F4DCC0B0912515B887F12C0F2E74
:10350000FFE82F2E33243394F02D0F2EF7E0BF2E3B
:10351000F02DCE0101962C016F2C712CF301EE0FD2
:10352000FF1FEE0FFF1FEE0FFF1FEB5DFA4E8181B5
:10353000873019F0893009F06BC088850E94DF1B45
:103540000E94B21C9885923059F4F301EE0FFF1FD0
:10355000EE0FFF1FEE0FFF1FEB5DFA4E82810AC0D8
:10356000F301EE0FFF1FEE0FFF1FEE0FFF1FEB5DCE
:10357000FA4E83810E94AA1C82E095E10E944D04CC
:10358000882371F00E94F41C0E94BA1C1092F00271
:1035900080E2E5E2F5E1DF011D928A95E9F736C0A8
:1035A000C1010197F1F7000000C082E095E19F930F
:1035B0008F93BF925F924F92BF92812C912CA12C3E
:1035C000C12CD12CE12C00E010E020E040E050E0E4
:1035D00060E080E30E946405182F0E94F41C0F90A5
:1035E0000F900F900F900F900F90112309F458C077
:1035F0000E94BA1C1092F002F301EE0FFF1FEE0FB3
:10360000FF1FEE0FFF1FEB5DFA4E108280E052C0ED
:1036100088850E94791B0E94721CB885B23059F4CB
:10362000F301EE0FFF1FEE0FFF1FEE0FFF1FEB5D0D
:10363000FA4E82810AC0F301EE0FFF1FEE0FFF1F4B
:10364000EE0FFF1FEB5DFA4E83810E94821C62E049
:1036500075E186E00E94B003882389F00E947A1CFD
:103660001092F002F301EE0FFF1FEE0FFF1FEE0F9F
:10367000FF1FEB5DFA4E1082118280E01BC0F30148
:10368000EE0FFF1FEE0FFF1FEE0FFF1FEB5DFA4E59
:10369000A4E0B5E18C918683A5E0B5E18C918783A8
:1036A000F3948091F002F81608F436CF02C080E05F
:1036B00001C0888528960FB6F894DEBF0FBECDBF37
:1036C000DF91CF911F910F91FF90EF90DF90CF90FE
:1036D000BF90AF909F908F907F906F905F904F9032
:1036E0003F902F900895ECEBF0E080818B7F8083FA
:1036F0000895CF93C82F80912A018C1709F45AC0DE
:10370000C23039F50E94E41623E837E130932901ED
:103710002093280129E837E13093270120932601DF
:103720002CE837E1309325012093240129EF37E17C
:10373000309323012093220128EC37E130931F01BD
:1037400020931E0121E937E13093210120932001CC
:1037500028C0C13089F50E94891781EE96E19093C7
:1037600029018093280184EE96E1909327018093AC
:10377000260187EE96E1909325018093240186E54A
:1037800097E1909323018093220129E237E130935E
:103790001F0120931E012AEE36E130932101209370
:1037A0002001C0932A01E0912801F0912901099597
:1037B00080E003C083EC01C083ECCF910895CF93E8
:1037C000C82F80912A018C1709F487C0C230E9F50F
:1037D0000E94B21F23EB31E230931D0120931C01A4
:1037E00083E79BE190931B0180931A0140EB51E228
:1037F000509319014093180130931701209316013B
:1038000029EB31E230931301209312012AEC31E2CB
:10381000309311012093100122EF31E230930F0118
:1038200020930E0120ED31E230930D0120930C0125
:1038300024EE31E230930B0120930A0120E232E2C0
:1038400030931501209314013FC0C33009F047C0E5
:103850000E94731B88EE90E290931D0180931C01DF
:1038600022EB3FE130931B0120931A012BEE30E253
:10387000309319012093180190931701809316013A
:1038800083E391E290931301809312018EEE90E214
:10389000909311018093100185E091E290930F01C4
:1038A00080930E0181E491E290930D0180930C01CD
:1038B00085E491E290930B0180930A0189E491E2FF
:1038C0009093150180931401C0932A01E0911C018B
:1038D000F0911D01099580E003C083EC01C083ECE9
:1038E000CF910895E0912801F0912901309709F0D6
:1038F00009950895E0912601F0912701309709F08C
:1039000009950895E0912401F0912501309711F077
:103910000995089584EC0895E0911E01F0911F012E
:10392000309711F00995089584EC0895E0912001F5
:10393000F0912101309711F00995089584EC0895D4
:10394000E0912201F0912301309711F0099508953B
:1039500084EC0895E0911801F0911901309709F075
:1039600009950895E0911601F0911701309709F03B
:1039700009950895E0911A01F0911B01309709F023
:1039800009950895E0911401F0911501309711F017
:103990000995089584EC0895E0911201F0911301C6
:1039A000309711F00995089584EC0895E091100185
:1039B000F0911101309711F00995089584EC089564
:1039C000E0910E01F0910F01309711F009950895E3
:1039D00084EC0895E0910C01F0910D01309711F005
:1039E0000995089584EC0895E0910A01F0910B0186
:1039F000309711F00995089584EC0895CF93DF93E3
:103A000000D000D0CDB7DEB7E1E6F0E080E88083FB
:103A100010820E947B110E94601111E01093F1024C
:103A20000E94F2070E94FC070E94221888EE93E091
:103A30000E94AF080E9400081093DC020E94E80870
:103A40009C838B8303EF12E00F2EF4EFEF2EF2E056
:103A5000FF2EF02D0F2EF8EEAF2EF02D0F2EF3E0EF
:103A6000BF2EF02D0F2EF0EDCF2EF02D0F2EF7E004
:103A7000DF2EF02D0E942618882319F00E94D31102
:103A800030C0F8018081882381F08091DB02882397
:103A900061F090904515F7018081809345150E9453
:103AA000EA1C909245151092DB028B819C810E944A
:103AB0002C188823B1F0BE016D5F7F4F81E00E941A
:103AC0004C0A882371F0CE0101960E946409BC0162
:103AD00089819A810E94971880E00E94EF089C8358
:103AE0008B838091DC02882329F281E09091F1029E
:103AF000911180E08093F1020E942618882319F02A
:103B00008C2D9D2D02C08A2D9B2D0E94C508809171
:103B10002B01882309F4AECF0E94441AABCF682F43
:103B200080E090E00E94E322089580E090E00E940F
:103B3000DB2208958F929F92AF92BF92CF92DF9235
:103B4000EF92FF920F931F93CF93DF93CDB7DEB722
:103B50002C970FB6F894DEBF0FBECDBFCB015A0134
:103B6000690121E030E03A83298328E0E4E8F2E0CB
:103B7000DE01159601900D922A95E1F76AE370E057
:103B80000E94AF227C01009709F4A9C181E0D8010D
:103B90008C93F7018181863609F445C020F4843680
:103BA00009F4BBC078C18D3609F450C1863709F0DD
:103BB00072C10E94441AF82E81E0F11080E08093D7
:103BC0002B016CE272E0C6010E947322FF2009F40F
:103BD00088C180E00E949D188C01DC0111968C91B7
:103BE000873031F463E472E0C6010E94682288C124
:103BF000883031F46BE372E0C6010E94682280C114
:103C0000893009F07DC163E372E0C6010E94682239
:103C100077C1D80112968C9103C0D80113968C916C
:103C2000808310E04CC1AE014D5F5F4FBE016F5FFE
:103C30007F4FC7010E94E510182F811130C184E029
:103C400090E09A838983EB81FC8180818130E9F067
:103C500030F08230B1F1833009F449C023C161E210
:103C600072E0C6010E947322F60101900020E9F77C
:103C7000CF01019749815A817C01EC18FD0861E56B
:103C800072E001960E945F221AC163E472E0C601ED
:103C90000E947322F60101900020E9F731977F011D
:103CA000EC18FD0889809A800E944B0697012F5FCF
:103CB0003F4FA401BC01C601820F931F0E949422B2
:103CC000FEC06BE372E0C6010E947322D6010D9024
:103CD0000020E9F7CD01019749815A817C01EC1858
:103CE000FD086EE472E001960E945F22E8C063E383
:103CF00072E0C6010E947322F60101900020E9F7EC
:103D0000CF01019749815A817C01EC18FD086BE4D1
:103D100072E001960E945F22D2C082818F3361F4EB
:103D200082E090E09A83898380912B01F601818360
:103D3000E12CF12C10E0C3C0AE014D5F5F4FBE011E
:103D40006F5F7F4FC7010E94E510182F8111AEC031
:103D5000D70112968C91893641F4EB81FC818081E8
:103D600080932B01E12CF12CAAC00E94441A082F49
:103D700091E0811190E090932B01EB81FC81808197
:103D80000E949D184C01009709F493C0FC01918199
:103D9000973049F018F49923C1F01EC0983049F0CB
:103DA000993069F019C063E472E0C6010E94732281
:103DB0001BC06BE372E0C6010E94732215C063E36F
:103DC00072E0C6010E9473220FC06D817E81C60120
:103DD0000E94BA2215EC08C08FE0E5E9F2E0D601B6
:103DE00001900D928A95E1F7D4018C91811109C05F
:103DF000F60101900020E9F731977F01EC18FD08EA
:103E00005EC0E02FF0E0EE0FFF1FEC0FFD1F65819D
:103E10007681C6010E94A422F60101900020E9F7F4
:103E2000319789819A8101969A8389837F01EC1861
:103E3000FD083196D4018C91823019F412968C9140
:103E400003C0D40113968C91808339C0AE014D5FBD
:103E50005F4FBE016F5F7F4FC7010E94E510182FB3
:103E6000F7018281873619F0833769F026C081E037
:103E700090E0D5018D939C930E94951DF60180835F
:103E8000E12CF12C1CC0EB81FC8180810E948F1DF4
:103E9000E12CF12C14C0E12CF12C10EC10C0E12C21
:103EA000F12C0DC0E12CF12C13EC09C0E12CF12C0C
:103EB00006C0E12CF12C15EC02C0E12CF12CB6016E
:103EC0006E0D7F1DDB011C9389819A810E94FE0883
:103ED0008E0D9F1DF50191838083812F30C080EC72
:103EE0002EC06D817E81C6010E94A422F601019040
:103EF0000020E9F731977F01EC18FD0810E0DFCFD3
:103F0000EF2DF0E0EE0FFF1FEC0FFD1F65817681B6
:103F1000C6010E94A422F60101900020E9F7319722
:103F200089819A8101969A8389837F01EC18FD0823
:103F30003196D8018C91823009F06FCE6ACE2C96E2
:103F40000FB6F894DEBF0FBECDBFDF91CF911F91AA
:103F50000F91FF90EF90DF90CF90BF90AF909F9028
:103F60008F900895E0912C01F0912D019081809126
:103F70003201809598239083E0913001F0913101D6
:103F800090818923808380E00895843030F5809388
:103F9000F20290E0FC01EA52FD4F208120933201B1
:103FA000880F991FFC01E253FD4F2081318130932E
:103FB000310120933001FC01E254FD4F2081318119
:103FC00030932F0120932E01FC01EA53FD4F808195
:103FD000918190932D0180932C0108950895E09193
:103FE0002C01F0912D01208190913201292B208309
:103FF000882341F0E0913001F09131018081982BCC
:1040000090830895E0913001F09131018081909585
:10401000982390830895EF92FF920F931F93CF936D
:10402000DF93882309F465C0E0912C01F0912D0104
:10403000208190913201922B90839BE39A9501F01D
:10404000E9F7C895F894E0913001F0913101C09101
:104050003201DC2FD095E62EA62FB72F6894FF24CF
:10406000F3F800E011E040E176E668E73BC05C91E0
:10407000592379F050815D235083542F5A9501F0D4
:10408000E9F750815C2B5083562F5A9501F0E9F7E0
:104090001DC050815D235083542F5A9501F0E9F7DC
:1040A00050815C2B5083542F5A9501F0E9F75081D1
:1040B0005D235083542F5A9501F0E9F750815C2B12
:1040C0005083572F5A9501F0E9F7C895990F215061
:1040D00031092115310509F0CACF11969A2F9E1981
:1040E000981720F42F2D302F912FC1CF789480E096
:1040F00001C082EEDF91CF911F910F91FF90EF9061
:104100000895CF93DF931F92CDB7DEB78983BE01A9
:104110006F5F7F4F81E00E940B200F90DF91CF9166
:1041200008951F93CF93DF93E0912C01F0912D011F
:10413000908120913201209592239083F8948823D6
:1041400009F440C0E0912E01F0912F01209132013D
:10415000C62FD72F60E011E05EEF7AE1DE01188212
:10416000412F04C03081322319F405C0952FFACFB6
:104170009150C1F720C03081322319F49150D9F702
:104180001AC0972F3081322319F09150D9F709C006
:104190003081322349F43FEF390F992329F0932FCF
:1041A000F7CF9C91942B9C93440F01F76F5F21965E
:1041B0006813D4CF07C0611102C081EF01C086EE41
:1041C000789402C080E0FCCFDF91CF911F910895D9
:1041D0000E94EE1F08950E94C51F08951F93CF935C
:1041E000DF93182FEB0180E00E94812087E70E9477
:1041F0008120811105C0BE01812F0E940B2001C0CA
:1042000080EFDF91CF911F9108951F93CF93DF939C
:10421000182FEB01882341F0862FEC2FFD2F1192F0
:104220009E2F981B9117D8F388E80E948120BE0129
:10423000812F0E949120882311F0863E39F48881D5
:10424000843040F0181740F484EE09C0813F31F407
:1042500087EE05C084EE03C080E001C086EEDF91EA
:10426000CF911F91089580E00E94EF1F8CE00E9483
:104270004E0681E00E94EF1F83E00E94660680E008
:1042800008958BEB0E94812008958CEC0E94812080
:1042900008951F93CF93DF93182FEB0185E50E94BC
:1042A0006606BE01812F0E94E01CDF91CF911F9115
:1042B00008951F93CF93DF931F92CDB7DEB79091F0
:1042C0004515892B89830E94880681110DC0BE0186
:1042D0006F5F7F4F81E00E94B906182F882321F07D
:1042E0000E94A306812F00C00F90DF91CF911F91F4
:1042F0000895FF920F931F93CF93DF931F92CDB733
:10430000DEB78983F62E8A0180E00E945921882336
:1043100021F00E94A30680EF1CC0BE016F5F7F4F9B
:1043200081E00E94B906811111C0F11004C00E9401
:10433000A30680E00EC0B8018F2D0E94B906182F89
:104340000E94A306112321F080EF03C080EF01C07B
:1043500080E00F90DF91CF911F910F91FF90089512
:104360008093451508950E94710688EC8093451549
:1043700008950E9428081092F3021092BC00519AEE
:1043800059988CE00E944E06599A8AEF0E944E0678
:1043900080E00895AB01682F83E00E9479210895A1
:1043A0008091F302811109C00E94160881E0809378
:1043B000F302809145158093F40240E050E060E004
:1043C00082E00E947921089540E050E060E081E0C1
:1043D0000E947921089540E050E060E080E00E9472
:1043E000792108951F93CF93DF93182FEB0181E07C
:1043F0000E945921882319F0883FC9F01DC0CE01C1
:104400000E94F406811115C08881843010F01817BD
:1044100020F40E94A30684EE0FC0BE016F5F7F4FA1
:1044200081500E941107882331F080EF05C087EE8C
:1044300003C080EF01C080E0DF91CF911F9108950C
:10444000CF93DF931F92CDB7DEB78FEF89830E94A2
:104450008806BE016F5F7F4F81E00E94B90681E050
:104460000E945921811107C00E94A306811105C035
:104470000E94EB2103C080EF01C080EF0F90DF911D
:10448000CF910895EE0FFF1F0590F491E02D099450
:10449000A29FB001B39FC001A39F700D811D112485
:1044A000911DB29F700D811D1124911D08959111D0
:1044B000089581548A5108F4805E855A0895FB015D
:1044C000DC0102C005900D9241505040D8F708958C
:1044D000FB01DC010D900020E9F7119705900D928A
:1044E0000020E1F70895FB01DC0105900D9200200A
:1044F000E1F70895FC014150504030F0019006165C
:10450000D1F73197CF010895882799270895FB01A6
:10451000DC0104C08D910190801921F4415050407C
:10452000C8F7881B990B0895FB01DC0102C00190BC
:104530000D9241505040D8F70895DC0101C06D93B1
:1045400041505040E0F70895FB01DC010D90002040
:10455000E9F7119701900D920020E1F70895FC0111
:104560008191861721F08823D9F7992708953197EB
:10457000CF010895FB01DC0101900D920020E1F7CD
:104580000895FB0151915523A9F0BF01DC014D9124
:1045900045174111E1F759F4CD010190002049F090
:1045A0004D9140154111C9F3FB014111EFCF81E05D
:1045B00090E001970895F999FECF92BD81BDF89AD8
:1045C000992780B50895262FF999FECF1FBA92BD7D
:1045D00081BD20BD0FB6F894FA9AF99A0FBE0196E4
:0645E0000895F894FFCFDE
:1045E6000100F00730000000035DE421D021F22134
:1045F600CA21B9212022B321B021731BB321C817C8
:104606009117F9178C1789178317020124002300C5
:104616002500800911000000000071810911400089
:10462600000000EF82090C00000000000000090EE7
:104636000000000000D99C091000000000000000E6
:104646000200000067E6096A85AE67BB72F36E3C3E
:104656003AF54FA57F520E518C68059BABD9831F47
:1046660019CDE05B982F8A4291443771CFFBC0B5D4
:10467600A5DBB5E95BC25639F111F159A4823F9227
:10468600D55E1CAB98AA07D8015B8312BE85312480
:10469600C37D0C55745DBE72FEB1DE80A706DC9B41
:1046A60074F19BC1C1699BE48647BEEFC69DC10FED
:1046B600CCA10C246F2CE92DAA84744ADCA9B05C29
:1046C600DA88F97652513E986DC631A8C82703B0EC
:1046D600C77F59BFF30BE0C64791A7D55163CA06FA
:1046E60067292914850AB72738211B2EFC6D2C4D06
:1046F600130D385354730A65BB0A6A762EC9C281F4
:10470600852C7292A1E8BFA24B661AA8708B4BC289
:10471600A3516CC719E892D1240699D685350EF4B3
:1047260070A06A1016C1A419086C371E4C7748276A
:10473600B5BCB034B30C1C394AAAD84E4FCA9C5BE0
:10474600F36F2E68EE828F746F63A5781478C88431
:104756000802C78CFAFFBE90EB6C50A4F7A3F9BE13
:10476600F27871C6A402AF02B402B9027377006987
:104776003200737000756E6B6E6F776E5F64657670
:10478600696365006E6F5F646576696365200053D3
:104796005049200054574920005357492000230010
:1047A6002300230029002400240024002A002500D9
:0A47B600250025002B0080400402BE
:00000001FF
