:100000000C949D000C94C7000C94C7000C94C7007E
:100010000C94C7000C94C7000C94C7000C94C70044
:100020000C94C7000C94C7000C94430F0C94C700A9
:100030000C94C7000C94C7000C94C7000C94C70024
:100040000C94C7000C9406190C94C7000C94C700BC
:100050000C94C7000C94C7000C94C7000C94C70004
:100060000C94C7000C94C7000C94C7000C94C700F4
:100070000C94C7000C94C7000C94C7000C94C700E4
:100080000C94C7000C94C7000C94C7000C94C700D4
:100090000C94C7000C94C70012010002000000403D
:1000A000EB031320001001020001090229000101E5
:1000B0000080320904000002030000000921110140
:1000C000000122350007058103080014070502031B
:1000D0000800140C03410054004D0045004C002260
:1000E00003410056005200200055005300420020FA
:1000F000004800490044002000440045004D004FE6
:10010000000403090406FFFF0901A1010902090314
:10011000150026FF007508950881020904090515D8
:100120000026FF00750895089102090609071500C9
:1001300026FF0075089504B102C011241FBECFEF41
:10014000D0E2DEBFCDBF80E090E020E80FB6F894AB
:1001500020936100809361000FBE81E012E0A0E077
:10016000B1E0E0E9F3E300E00BBF02C007900D92BD
:10017000AE39B107D9F715E0AEE9B2E001C01D9282
:10018000A337B107E1F70E94C9000C94C6190C947B
:1001900000000E94120F0E94B50E80E090E020E85F
:1001A0000FB6F89420936100809361000FBE8AB16E
:1001B00080678AB984B1816184B92398279820E047
:1001C00040E951E08BB180678BB988E893E1FA018F
:1001D0003197F1F70197D9F78BB18F788BB988E810
:1001E00093E1FA013197F1F70197D9F72F5F2330A7
:1001F00049F70E94B00E80E090E008952F923F9260
:100200004F925F926F927F928F929F92AF92BF9226
:10021000CF92DF92EF92FF920F931F93DF93CF93D2
:10022000CDB7DEB7C054D1400FB6F894DEBF0FBED5
:10023000CDBFC15DDE4F79836883CF52D140CF5CA3
:10024000DE4F288339834A835B83C153D140C75D26
:10025000DE4F19821882C952D1409E012F5D3F4F57
:10026000C15CDE4F39832883CF53D140A9014C5D57
:100270005F4FC75CDE4F59834883C953D140DE01CD
:10028000AB5FBE4FC35CDE4FB983A883CD53D14073
:1002900088579F4FC55CDE4F99838883CB53D140ED
:1002A000E3C2C75DDE4F08811981C952D14026E003
:1002B000000F111F2A95E1F7C15DDE4FE881F9813A
:1002C000CF52D1400E0F1F1F9E012F5D3F4FCD5DBE
:1002D000DE4F39832883C352D140790160E070E05A
:1002E000FB01EE0FFF1FEE0FFF1FE00FF11F20813C
:1002F00030E040E050E0522F44273327222783810B
:1003000090E0A0E0B0E0282B392B4A2B5B2B8281B8
:1003100090E0A0E0B0E0BA2FA92F982F8827282BD3
:10032000392B4A2B5B2B818190E0A0E0B0E0DC010F
:1003300099278827282B392B4A2B5B2BD7012D9304
:100340003D934D935D937D016F5F7F4F60317105EC
:1003500039F6C75CDE4FE881F981C953D140A488E2
:10036000B588C688D788CD5DDE4FA881B981C352D4
:10037000D14014966D907D908D909C9017972D9004
:100380003D904D905D90CD5DDE4FB983A883C35203
:10039000D14080819181A281B381280E391E4A1EED
:1003A0005B1ED601C50103E1B695A7959795879584
:1003B0000A95D1F7A60195011DE0220F331F441FB6
:1003C000551F1A95D1F7822B932BA42BB52BA60181
:1003D000950171E156954795379527957A95D1F70F
:1003E000860175016FE0EE0CFF1C001F111F6A955E
:1003F000D1F72E293F29402B512B82279327A42761
:10040000B5272AE0D694C794B794A7942A95D1F734
:100410008A259B25AC25BD25280E391E4A1E5B1E4C
:10042000D401C30102E1B695A795979587950A95E2
:10043000D1F7A40193011EE0220F331F441F551F63
:100440001A95D1F7822B932BA42BB52BA4019301E2
:1004500077E056954795379527957A95D1F784019A
:10046000730169E1EE0CFF1C001F111F6A95D1F7A3
:100470002E293F29402B512B82279327A427B527CC
:1004800023E096948794779467942A95D1F78625EC
:100490009725A825B925280E391E4A1E5B1E248ED5
:1004A000358E468E578E3496C35CDE4F2881398157
:1004B000CD53D140E217F30709F051CFC55CDE4FB1
:1004C00048815981CB53D140C95DDE4F5983488360
:1004D000C752D140CE010196CB5DDE4F9983888310
:1004E000C552D140FA01CF5DDE4F99838883C15256
:1004F000D1402191319141915191CF5DDE4FA88141
:10050000B981C152D1402D933D934D935D93CF5D01
:10051000DE4FB983A883C152D140C15CDE4F288130
:100520003981CF53D140A217B30719F760E070E0CB
:10053000A988BA88CB88DC88898D9A8DAB8DBC8DD3
:10054000C55DDE4F88839983AA83BB83CB52D1409C
:10055000FB01E05EFE4F20803180428053808D8D14
:100560009E8DAF8DB8A1280E391E4A1E5B1EE1E29A
:10057000F0E0EC0FFD1FE60FF71F80819181A28153
:10058000B381280E391E4A1E5B1EA60195010BE0A1
:1005900056954795379527950A95D1F7D601C50108
:1005A00015E1880F991FAA1FBB1F1A95D1F7282B99
:1005B000392B4A2B5B2BD601C501F6E0B695A795E2
:1005C00097958795FA95D1F786017501EAE1EE0CCA
:1005D000FF1C001F111FEA95D1F78E299F29A02B20
:1005E000B12B282739274A275B27D601C501F9E116
:1005F000B695A79597958795FA95D1F786017501D8
:10060000E7E0EE0CFF1C001F111FEA95D1F78E29C1
:100610009F29A02BB12B282739274A275B27220E99
:10062000331E441E551ED601C50180959095A09598
:10063000B095C55DDE4F288139814A815B81CB52FF
:10064000D14082239323A423B5232D893E894F894A
:10065000588DCB5CDE4F288339834A835B83C55337
:10066000D1402A213B214C215D2182279327A427B9
:10067000B527280E391E4A1E5B1E69807A808B8042
:100680009C80ED80FE800F81188529853A854B85F9
:100690005C85C55DDE4F88819981AA81BB81CB5283
:1006A000D1408D8F9E8FAF8FB8A3CB5CDE4F8881FA
:1006B0009981AA81BB81C553D140898F9A8FAB8F15
:1006C000BC8FAD8ABE8ACF8AD88E8D859E85AF8538
:1006D000B889820D931DA41DB51D898B9A8BAB8B98
:1006E000BC8B2D873E874F87588BE986FA860B8710
:1006F0001C876D827E828F82988657016801A226B0
:10070000B326C426D526A620B720C820D9202E215E
:100710003F2140235123A226B326C426D526A40177
:1007200093010DE056954795379527950A95D1F792
:10073000D401C30113E1880F991FAA1FBB1F1A958B
:10074000D1F7282B392B4A2B5B2BD401C301F2E0C4
:10075000B695A79597958795FA95D1F7840173017A
:10076000EEE1EE0CFF1C001F111FEA95D1F78E2958
:100770009F29A02BB12B282739274A275B27D40193
:10078000C301FAE0880F991FAA1FBB1FFA95D1F782
:10079000E6E19694879477946794EA95D1F7862951
:1007A0009729A829B929282739274A275B27A20E84
:1007B000B31EC41ED51EA20CB31CC41CD51CA9821A
:1007C000BA82CB82DC826C5F7F4F91E06030790728
:1007D00009F0AECEC95DDE4FE881F981C752D14044
:1007E00080819181A281B381CB5DDE4FE881F98167
:1007F000C552D1402191319141915191CB5DDE4F54
:10080000F983E883C552D140820F931FA41FB51FFF
:10081000C95DDE4FE881F981C752D1408193919340
:10082000A193B193C95DDE4FF983E883C752D140EC
:10083000CB5DDE4F28813981C552D140CF5DDE4F7F
:1008400048815981C152D1402417350719F6C75D37
:10085000DE4F88819981C952D1400196C75DDE4F34
:1008600099838883C952D140C75DDE4FA881B98181
:10087000C952D140CF5CDE4FE881F981C153D140EC
:10088000AE17BF070CF40DCDC05CDE4F0FB6F89469
:10089000DEBF0FBECDBFCF91DF911F910F91FF90B3
:1008A000EF90DF90CF90BF90AF909F908F907F9010
:1008B0006F905F904F903F902F900895CF93DF936C
:1008C000EC01E0E0F1E09C0128573F4F419151914C
:1008D00061917191D9014D935D936D937D939D01CC
:1008E000B1E0E032FB0791F71C821D821E821F825D
:1008F000188219821A821B82DF91CF910895CF93BB
:10090000DF93EC01C857DF4F20E030E0F901EE0F34
:10091000FF1FEE0FFF1FE60FF71F8881838388817B
:100920009981AA81BB81892F9A2FAB2FBB27828304
:1009300088819981AA81BB81CD01AA27BB278183A8
:1009400089919991A991B9918B2F9927AA27BB27B2
:1009500080832F5F3F4F28303105C1F6DF91CF9163
:1009600008954F925F926F927F928F929F92AF9273
:10097000BF92CF92DF92EF92FF920F931F93CF938C
:10098000DF93EC012B012C813D814E815F81DA01E7
:10099000C9018F739070A070B070C897A105B105A0
:1009A00030F471E0672E712C812C912C05C062E02F
:1009B000662E712C812C912CA880B980CA80DB8096
:1009C000A20EB31EC41ED51E53E0AA0CBB1CCC1C29
:1009D000DD1C5A95D1F78401730146E0EE0CFF1C33
:1009E000001F111F4A95D1F7F701E21BF30B285F97
:1009F0003F4F2C0F3D1FC90160E070E0AF010E9426
:100A0000BF19EC81FD81EC0FFD1F80E88087EC0EA3
:100A1000FD1EF701A782BB27AD2D9C2D8B2D868354
:100A2000C601AA27BB278583AD2CBB24CC24DD249B
:100A3000A482CE012896BE01A40193010E94FE006B
:100A4000C058DF4F20E030E0F901EE0FFF1FEE0F3E
:100A5000FF1FE40DF51D8881838388819981AA8118
:100A6000BB81892F9A2FAB2FBB27828388819981E5
:100A7000AA81BB81CD01AA27BB2781838991999146
:100A8000A991B9918B2F9927AA27BB2780832F5F24
:100A90003F4F28303105C1F6DF91CF911F910F9163
:100AA000FF90EF90DF90CF90BF90AF909F908F908E
:100AB0007F906F905F904F9008954F925F926F92EA
:100AC0007F928F929F92AF92BF92CF92DF92EF92DE
:100AD000FF920F931F93CF93DF93EC012B015901EA
:100AE0006A012C813D814E815F8180E490E0A0E02D
:100AF000B0E0821B930BA40BB50B350146018A15A0
:100B00009B05AC05BD0510F43C014D01285F3F4F2E
:100B10002C0F3D1FC901B201A3010E94A4198C81B1
:100B20009D81AE81BF818A0D9B1DAC1DBD1D803492
:100B30009105A105B10528F48C839D83AE83BF8305
:100B400053C0A618B708C808D90886017501B6E0D1
:100B500016950795F794E794BA95D1F7640C751C30
:100B6000A8E08A2E912C8C0E9D1ECE01B40121E0AE
:100B700030E040E050E00E94FE00CE01B301A80149
:100B800097010E94FE008FE390E0A0E0B0E0A82271
:100B9000B922CA22DB229701F6E0220F331FFA9511
:100BA000E1F7260D371DC401B901A5010E94A41962
:100BB000AC82BD82CE82DF820894E11CF11C011D53
:100BC000111DE6E0EE0CFF1C001F111FEA95D1F786
:100BD00088819981AA81BB818E0D9F1DA01FB11FA5
:100BE00088839983AA83BB83DF91CF911F910F9153
:100BF000FF90EF90DF90CF90BF90AF909F908F903D
:100C00007F906F905F904F9008958F929F92AF92D8
:100C1000BF92CF92DF92EF92FF920F931F93DF93D9
:100C2000CF93CDB7DEB7C85AD0400FB6F894DEBF29
:100C30000FBECDBF5C016A017B014901E0E0F1E03C
:100C40009E0127573F4F4191519161917191D90177
:100C50004D935D936D937D939D01B1E0E032FB0771
:100C600091F71D821E821F82188619821A821B82AA
:100C70001C828E010F5F1F4FC801B501A7019601AD
:100C80000E945D05C801B4010E94B104C855DF4F40
:100C90000FB6F894DEBF0FBECDBFCF91DF911F918D
:100CA0000F91FF90EF90DF90CF90BF90AF909F900B
:100CB0008F900895209A289885B7806185BF089500
:100CC0000E94380C0895FF920F931F93DF93CF93E8
:100CD00000D000D00F92CDB7DEB7F82E8E010F5F97
:100CE0001F4FC80160E272E045E050E00E94AD197C
:100CF000FB82C80161E00E947F0C811180ED0F90A2
:100D00000F900F900F900F90CF91DF911F910F9147
:100D1000FF900895CF92DF92EF92FF920F931F936F
:100D2000DF93CF93CDB7DEB76A970FB6F894DEBFE7
:100D30000FBECDBF6C017B016115710511F48FEE03
:100D40002CC084E089838E010A5F1F4FC80165E2D1
:100D500072E045E150E00E94AD19DA86C986CE0105
:100D60000B96B70140E150E00E94AD19C801BE01E9
:100D70006E5F7F4F41E021E08E010F5F1F4F0E94A9
:100D80003D0D882311F080ED08C08981843011F079
:100D90008EEC03C08B81811180EE6A960FB6F894B9
:100DA000DEBF0FBECDBFCF91DF911F910F91FF909E
:100DB000EF90DF90CF9008959F92AF92BF92CF9225
:100DC000DF92EF92FF920F931F93DF93CF93CDB7F4
:100DD000DEB7C954D0400FB6F894DEBF0FBECDBF0A
:100DE000982E7B018A01690183E2898385E2A82E1E
:100DF000B12CAC0EBD1EC5016AE372E045E250E0C5
:100E00000E94AD190115110559F1C114D10441F128
:100E10009FA2F9A6E8A6CE018A96B80140E250E06A
:100E20000E94AD19C501BE016E5F7F4F41E023E016
:100E30008E010F5F1F4F0E943D0D882311F080ED42
:100E400010C08981833211F08EEC0BC0C601BE0147
:100E50006D5F7F4F40E250E00E94AD1980E001C01D
:100E60008FEEC75BDF4F0FB6F894DEBF0FBECDBF6E
:100E7000CF91DF911F910F91FF90EF90DF90CF9076
:100E8000BF90AF909F900895FF920F931F93DF93B1
:100E9000CF93CDB7DEB765970FB6F894DEBF0FBE20
:100EA000CDBFF82E8B016115710511F48FEE30C0A6
:100EB00084E08983CE0106966FE572E040E150E060
:100EC0000E94AD198F2D81708887CE010B96B801D5
:100ED0004BE050E00E94AD19FF2011F423E001C067
:100EE00022E0CE010696BE016E5F7F4F41E08E018B
:100EF0000F5F1F4F0E943D0D882311F080ED08C049
:100F00008981843011F08EEC03C08B81811180EED9
:100F100065960FB6F894DEBF0FBECDBFCF91DF91BF
:100F20001F910F91FF900895EF92FF920F931F93DF
:100F3000DF93CF93CDB7DEB728970FB6F894DEBF17
:100F40000FBECDBF182F84E0898392E0E92EF12CEB
:100F5000EC0EFD1EC7016FE672E043E050E00E9418
:100F6000AD191C83C701BE016B5F7F4F43E023E0D7
:100F70008E010F5F1F4F0E943D0D882311F080ED01
:100F800006C08981843011F480E001C08EEC28967F
:100F90000FB6F894DEBF0FBECDBFCF91DF911F918A
:100FA0000F91FF90EF900895AF92BF92CF92DF9292
:100FB000EF92FF920F931F93DF93CF93CDB7DEB7DE
:100FC00028970FB6F894DEBF0FBECDBF7C01009707
:100FD00011F48FEE3AC087E0898322E0A22EB12C73
:100FE000AC0EBD1E84E792E0B50142E023E06E0145
:100FF0000894C11CD11C86010E943D0D882311F567
:101000008981873009F5C701BE016B5F7F4F42E0E0
:1010100050E00E94AD1989E792E0B50142E023E07B
:101020000E943D0D882371F48981873069F4C701DE
:101030000296BE016D5F7F4F44E050E00E94AD1903
:1010400080E003C080ED01C08EEC28960FB6F894C6
:10105000DEBF0FBECDBFCF91DF911F910F91FF90EB
:10106000EF90DF90CF90BF90AF900895EF92FF92F6
:101070000F931F93DF93CF93CDB7DEB728970FB6AB
:10108000F894DEBF0FBECDBF7C01009711F48FEE48
:1010900020C087E0898383E892E0BE016E5F7F4FC6
:1010A00042E023E08E010F5F1F4F0E943D0D882319
:1010B00011F080ED0EC08981873011F08EEC09C0EF
:1010C000C701BE016D5F7F4F44E050E00E94AD1943
:1010D00080E028960FB6F894DEBF0FBECDBFCF914B
:1010E000DF911F910F91FF90EF900895EF92FF9283
:1010F0000F931F93DF93CF93CDB7DEB728970FB62B
:10110000F894DEBF0FBECDBF7C01009711F48FEEC7
:1011100020C087E089838EE792E0BE016E5F7F4F3B
:1011200042E023E08E010F5F1F4F0E943D0D882398
:1011300011F080ED0EC08981873011F08EEC09C06E
:10114000C701BE016D5F7F4F43E050E00E94AD19C3
:1011500080E028960FB6F894DEBF0FBECDBFCF91CA
:10116000DF911F910F91FF90EF900895BF92CF9262
:10117000DF92EF92FF920F931F93DF93CF93CDB740
:10118000DEB72D970FB6F894DEBF0FBECDBFB82ED9
:101190007B016A014115510511F48FEE2CC087E0E7
:1011A00089838E010E5F1F4FC80164E772E045E03E
:1011B00050E00E94AD19BC82FE82ED82C801BE01E2
:1011C000695F7F4F43E023E08E010F5F1F4F0E9456
:1011D0003D0D882311F080ED0EC08981873011F01C
:1011E0008EEC09C0C601BE01685F7F4F44E050E04D
:1011F0000E94AD1980E02D960FB6F894DEBF0FBEA9
:10120000CDBFCF91DF911F910F91FF90EF90DF90B5
:10121000CF90BF900895AF92BF92CF92DF92EF929E
:10122000FF920F931F93DF93CF93CDB7DEB728972D
:101230000FB6F894DEBF0FBECDBF7C01009711F44E
:101240008FEE34C087E0898332E0A32EB12CAC0E40
:10125000BD1E84E792E0B50142E023E06E010894F0
:10126000C11CD11C86010E943D0D8823E1F48981B7
:101270008730D9F4C701BE016D5F7F4F42E050E077
:101280000E94AD198EE792E0B50142E023E00E9492
:101290003D0D882341F48981873039F48E81F7012F
:1012A000828380E003C080ED01C08EEC28960FB6EB
:1012B000F894DEBF0FBECDBFCF91DF911F910F918C
:1012C000FF90EF90DF90CF90BF90AF900895DF93A5
:1012D000CF9300D00F92CDB7DEB7DE011196E8E8CC
:1012E000F2E083E001900D928150E1F769817A810B
:1012F0008B8190E00F900F900F90CF91DF91089528
:101300000E94600608950E94630608958F929F923E
:10131000AF92BF92CF92DF92EF92FF920F931F9303
:10132000DF93CF93CDB7DEB7C85DD0400FB6F8944A
:10133000DEBF0FBECDBF4C016B017A015901009792
:1013400009F46CC06115710509F468C041155105B7
:1013500009F464C02115310509F460C0DE0111965D
:10136000E3E9F2E088E001900D928150E1F7DE01BF
:101370001996EBE8F2E088E001900D928150E1F7D8
:10138000F7018785816087878E010F5C1F4FC80139
:101390000E945E04C801B60120E230E040E050E067
:1013A0000E945D05C801BE016F5F7F4F28E030E0FD
:1013B00040E050E00E945D05C801B70120E130E047
:1013C00040E050E00E945D05C801BE01675F7F4FAD
:1013D00028E030E040E050E00E945D0581E1E82E29
:1013E000F12CEC0EFD1EC801B7010E947F0440E005
:1013F00050E09501240F351FF701E40FF51FD401CC
:10140000A40FB51F80819C918927F90180834F5FCC
:101410005F4F4B30510569F780E001C08FEEC85235
:10142000DF4F0FB6F894DEBF0FBECDBFCF91DF9177
:101430001F910F91FF90EF90DF90CF90BF90AF90F2
:101440009F908F9008951F93CF93DF93182FEB01F8
:10145000F90161157105B1F02115310599F0882365
:1014600061F04115510571F0878581608787CA0158
:10147000B9010E948A06882331F4812FBE010E949F
:10148000440701C08FEEDF91CF911F910895982FEF
:101490008054873110F08FEE0895892F0E949407B1
:1014A000089561157105C9F0813059F0813028F037
:1014B000823059F0833089F40CC0CB010E94D407EC
:1014C0000895CB010E9476080895CB010E940B0974
:1014D0000895CB010E94360808958FEE08956F920B
:1014E0007F928F929F92AF92BF92CF92DF92EF92B4
:1014F000FF920F931F93DF93CF93CDB7DEB7C05CFE
:10150000D0400FB6F894DEBF0FBECDBFFE01E2544F
:10151000FF4F918380835B014A01AE0140545F4FCE
:10152000FA012083680137016115710509F4E3C0F0
:101530008114910409F4DFC00115110509F4DBC021
:10154000E114F10409F4D7C098E09983DE011896FC
:1015500086E0FD0111928A95E9F783E0BE016E5F96
:101560007F4FFB01282F11922A95E9F79E012B5FEF
:101570003F4FF90111928A95E9F79E01225F3F4F93
:10158000F90111929A95E9F7FA0180818823A1F176
:1015900086FF07C0CD010E94D407F82E882309F0EA
:1015A000ACC08E010E5F1F4FC8010E947608F82E56
:1015B000882309F0A2C08C8187FF06C083E0F80170
:1015C00011928A95E9F718C0FE01E054FF4F80811F
:1015D00084FD05C083E0F80111928A95E9F7FE01C8
:1015E000E054FF4F8081807339F0CE010E96B60132
:1015F00048E050E00E94AD1925E0C22ED12CCC0E5F
:10160000DD1EC6010E940B09F82E882309F075C063
:101610008E010A5E1F4FC8010E945E04C801B50119
:1016200020E230E040E050E00E945D05C801B401D6
:1016300020E230E040E050E00E945D05C801BE01BC
:101640006F5F7F4F21E030E040E050E00E945D0599
:10165000C801BE0160547F4F21E030E040E050E01F
:101660000E945D05C801BE0162547F4F22E030E058
:1016700040E050E00E945D05C801BE01625F7F4FFF
:1016800028E030E040E050E00E945D05C801BE0166
:101690006E5F7F4F23E030E040E050E00E945D0548
:1016A000C801BE01695F7F4F21E030E040E050E0BB
:1016B0000E945D05C801BE01665F7F4F24E030E0F7
:1016C00040E050E00E945D05C801B60122E030E034
:1016D00040E050E00E945D05C801BE01685F7F4F99
:1016E00022E030E040E050E00E945D05C801B30117
:1016F0000E94B10402C09FEEF92E8F2DC054DF4F1F
:101700000FB6F894DEBF0FBECDBFCF91DF911F9112
:101710000F91FF90EF90DF90CF90BF90AF909F9090
:101720008F907F906F9008954115510531F02115EC
:10173000310519F00E94DC0608958FEE0895AF92EE
:10174000BF92CF92DF92FF920F931F93DF93CF93BD
:10175000CDB7DEB7A0970FB6F894DEBF0FBECDBFF2
:10176000590141155105F9F021153105E1F0011537
:101770001105C9F06E010894C11CD11C96010E948C
:10178000DC06F82E882389F4C501B60140E250E05A
:101790000E949719009721F08FEEF801808305C011
:1017A000F801108202C03FEEF32E8F2DA0960FB6E7
:1017B000F894DEBF0FBECDBFCF91DF911F910F9187
:1017C000FF90DF90CF90BF90AF9008951F93CF937D
:1017D000DF93162FDC0170E020E030E0C5E0D0E8B8
:1017E00018C090E0862F8E2309F091E0832F881F88
:1017F0008827881F220F331F981711F02C273D27A9
:10180000EE0FFF1F4F5F5F4F4830510551F77F5F6D
:101810001196711730F46C91E1E0F0E040E050E097
:10182000E0CFC901DF91CF911F91089520E030E012
:10183000482F50E07DE76FE7CA01022E02C0959560
:1018400087950A94E2F780FF07C08091C80085FF62
:10185000FCCF6093CE0006C08091C80085FFFCCF0E
:101860007093CE002F5F3F4F2830310529F7089540
:101870000E94E4180E942219789480E008950F9342
:101880001F93CF93DF938C01C9EAD2E0CE010E946F
:101890004919882311F08FEF2DC0219682E0C13BBA
:1018A000D807A1F740E020E030E05FE761E070E0BA
:1018B000F901E755FD4F808185278C7759F0FB01B1
:1018C000022E02C0EE0FFF1F0A94E2F7CF018095AF
:1018D000482308C0FB01022E02C0EE0FFF1F0A942E
:1018E000E2F74E2B2F5F3F4F2830310509F7F80103
:1018F000408380E0DF91CF911F910F9108950F9366
:101900001F93CF93DF93EC01009711F48FEEB0C0DB
:101910001092A80260FF6CC088E2E1EBF2E0DF0108
:101920001D928A95E9F78091C9008F7E8093C90046
:101930008091C90088608093C9000E94321988E8AC
:101940000E94160C8091C80086FFFCCF8091C800D1
:1019500080648093C8008091C900877F8093C9000C
:101960008091C90080618093C90010928500109217
:1019700084001092720580918100856080938100BF
:1019800081EB92E00E943F0C882309F06EC08091A9
:10199000B102893208F06BC000E009C0C9018E5461
:1019A0009D4F0E943F0C882309F05FC00F5F202FDE
:1019B00030E06091B102E62FF0E0CF0101972817E7
:1019C000390760F3809181008A7F80938100E1551F
:1019D000FD4F00811181625081EB92E00E94E60B85
:1019E0000817190729F081E08093A80282E440C01B
:1019F00048814932E0F581EB92E0BE0150E00E945F
:101A0000AD190091B102602F625081EB92E00E940B
:101A1000E60B10E001551D4FF80191838083809102
:101A2000C9008F7E8093C9008091C900886080932F
:101A3000C90087E70E94160C00E008C0E02FF0E024
:101A4000EF54FD4F80810E94160C0F5F8091B10210
:101A50000817A0F38091C80086FFFCCF8091C800D2
:101A600080648093C80080E003C080ED01C080E402
:101A7000DF91CF911F910F910895AF92BF92CF92B6
:101A8000DF92EF92FF920F931F93CF93DF93EC01BE
:101A90007B01A42E6801009709F447C16115710507
:101AA00009F443C10115110509F43FC11092A802C0
:101AB000B22E20FF68C088E2E1EBF2E0DF011D9268
:101AC0008A95E9F78091C9008F7E8093C900809143
:101AD000C90088608093C9000E94321988E80E947A
:101AE000160C8091C80086FFFCCF8091C8008064EE
:101AF0008093C8008091C900877F8093C90080913E
:101B0000C90080618093C900109285001092840002
:101B1000109272058091810085608093810081EB35
:101B200092E00E943F0C882309F001C18091B1022C
:101B3000893208F0FEC010E009C0C9018E549D4FE3
:101B40000E943F0C882309F0F2C01F5F212F30E074
:101B50006091B102E62FF0E0CF0101972817390715
:101B600060F3809181008A7F80938100E155FD4F71
:101B700000811181625081EB92E00E94E60B081710
:101B8000190709F094C04881493208F0D2C081EBAE
:101B900092E0BE0150E00E94AD190091B102602FA9
:101BA000625081EB92E00E94E60B10E001551D4F60
:101BB000F801918380838091C9008F7E8093C90052
:101BC0008091C90088608093C90087E70E94160C45
:101BD00010E008C0E12FF0E0EF54FD4F80810E943B
:101BE000160C1F5F8091B1021817A0F38091C800F6
:101BF00086FFFCCF8091C80080648093C8008A2D46
:101C00000E945A1988E2E1EBF2E0DF011D928A9509
:101C1000E9F788E80E94160C8091C80086FFFCCF87
:101C20008091C80080648093C8008091C900877F3C
:101C30008093C9008091C90080618093C90010928F
:101C40008500109284001092720580918100856059
:101C50008093810081EB92E00E943F0C8091B10261
:101C6000893208F066C010E006C0C9018E549D4F4D
:101C70000E943F0C1F5F212F30E06091B102E62FE0
:101C8000F0E0CF0101972817390778F380918100A0
:101C90008A7F80938100E155FD4F00811181625060
:101CA00081EB92E00E94E60B0817190729F081E00A
:101CB0008093A80282E43EC0B1FE19C08091C900A1
:101CC0008F7E8093C9008091C90088608093C9008D
:101CD0008CEC0E94160C8091C80086FFFCCF80918E
:101CE000C80080648093C80086E00E945A19F601FB
:101CF00040818091B1024817A0F0C70160E070E018
:101D000050E00E94BF194091B102C70161EB72E03F
:101D100050E00E94AD198091B102D6018C9380E011
:101D200009C0F601108281E405C08FEE03C08FEF79
:101D300001C080E4DF91CF911F910F91FF90EF9050
:101D4000DF90CF90BF90AF90089508950E94191032
:101D50000E948F18FBCF0E941C100E94BC1808958F
:101D60000E94AB0E0E94A60E08958FB7F89497EFCD
:101D700094BF98E10FB6F8949093600010926000C1
:101D80000FBE87FF01C078940895982F3FB7F8944D
:101D900087EF84BF93FD02C028E001C028E297705E
:101DA000292B88E190E00FB6F894A8958093600005
:101DB0000FBE2093600037FF01C078940895982FDC
:101DC0003FB787EF84BF93FD02C020E401C020E647
:101DD0009770292B88E190E00FB6F894A89580932E
:101DE00060000FBE2093600037FF01C07894089513
:101DF000982F3FB7F89487EF84BF93FD02C028E483
:101E000001C028E69770292B88E190E00FB6F8947E
:101E1000A895809360000FBE2093600037FF01C03B
:101E2000789408958091730590917405A09175053B
:101E3000B091760585559A4AAA4AB54569F410923B
:101E40007305109274051092750510927605E09155
:101E50009B02F0919C0209950895E0919B02F091FC
:101E60009C020995089585E59AEAAAEAB5E580936A
:101E7000730590937405A0937505B093760585E07E
:101E80000E94C50EFFCF1F920F920FB60F920BB696
:101E90000F9211242F933F934F935F936F937F93F0
:101EA0008F939F93AF93BF93EF93FF938091E10044
:101EB00082FF09C08091E20082FF05C08BEF809312
:101EC000E1000E9484168091E10080FF40C0809173
:101ED000E20080FF3CC08091A2028130D9F4809161
:101EE000E0028823B9F08091E2008E7F8093E200C7
:101EF0008FEE8093E1008091E20080618093E200A8
:101F000089B58D7F89BD19BC8091D800806280938E
:101F1000D8001DC08FEE8093E10080919E029091C9
:101F20009F02806290939F0280939E028EEF809327
:101F3000E1008091E20080618093E2008091D8000E
:101F400080628093D80089B58D7F89BD19BC80914E
:101F5000E10084FF27C08091E20084FF23C009B420
:101F600000FC05C086E189BD09B400FEFDCF80916B
:101F7000D8008F7D8093D8008FEE8093E100809110
:101F8000E2008F7E8093E20080919E0290919F02FA
:101F9000806490939F0280939E028091E200816012
:101FA0008093E2008091E10085FF1AC08091E200F9
:101FB00085FF16C08091E2008F7E8093E2008FED56
:101FC0008093E1008091E2008F7D8093E200809118
:101FD0009E0290919F02806890939F0280939E0240
:101FE0008091E10083FF12C08091E20083FF0EC068
:101FF00087EF8093E1000E94381380919E029091B8
:102000009F02916090939F0280939E02FF91EF91B7
:10201000BF91AF919F918F917F916F915F914F9100
:102020003F912F910F900BBE0F900FBE0F901F90FE
:1020300018950E9454100895E7EDF0E080818160CA
:10204000808380818F7B80838081806880830E94F1
:102050002A1008957894E8EDF0E080818F768083EF
:1020600080818069808380818F7B808378940895CC
:1020700086E189BD09B400FEFDCF8091D8008F7D37
:102080008093D8000E9438138091E0008E7F809367
:10209000E0008091E20081608093E2008091E200A4
:1020A00088608093E20008958091D90080FF14C079
:1020B0008091A002882381F481E08093A002109295
:1020C000A20280919E0290919F02826090939F0253
:1020D00080939E020E9438108091D90080FD13C029
:1020E00031C01092A0021092E00280919E02909165
:1020F0009F02846090939F0280939E028091D800FB
:1021000080628093D80080919E0290919F0290FF00
:1021100010C080919E0290919F029E7F90939F029B
:1021200080939E0281E08093EA001092EA00109270
:10213000E0021092E9008091E80083FF08C00E944D
:10214000C11008958091A0028130E9F6CACF0895A8
:1021500009B400FC05C086E189BD09B400FEFDCFCD
:102160008091D8008F7D8093D8008091A202813029
:1021700039F48091E00082608093E0001092A20226
:1021800008950F931F93DF93CF9300D0CDB7DEB7A1
:102190008091E8008B7F8093E8001091F10000911E
:1021A000F1000630F9F0073068F4013009F415C188
:1021B000013008F482C1033009F443C1053009F04D
:1021C000F1C1D3C0093009F4F0C00A3020F408305E
:1021D00009F0E8C1A5C00A3009F49DC10B3009F02F
:1021E000E1C1BDC1103809F0DDC16091F1008091FD
:1021F000F100813019F0823089F406C082E18093C9
:10220000E10288E990E005C089E28093E1028AEA70
:1022100090E09093E3028093E20205C00E948C1349
:10222000882309F4BFC18091F1008091F100809171
:10223000F10089838091F1008A838091E800877F93
:102240008093E80029813A818091E10290E0821731
:10225000930730F48F739070892B21F461E003C0F1
:102260002093E10260E08091E8008F7E8093E80097
:102270002091E2023091E3024091E10222C080917C
:10228000E80084FF03C0F90190E00FC08091E800EE
:1022900080FFF5CFF8CF542F5150903449F09F5F15
:1022A00084918093F1003196452F9F01442399F743
:1022B0008091E80084FD12C08091E8008E7F8093B9
:1022C000E800442339F42093E2023093E3021092B1
:1022D000E1020AC08091E80084FFD8CF2093E20297
:1022E0003093E3024093E102613069F48091E800A9
:1022F00084FD09C08091E80080FFFCCF8091E80058
:102300008E7F8093E8008091E80084FFFCCF80916D
:10231000E8008F7E8093E8008091E8008B7F22C0E8
:10232000103809F03FC18091E800877F8093E80072
:102330008091E0028093F1008091E8008E7F80938D
:10234000E8008091E8008F778093E8008091E800B2
:1023500082FFFCCF8091E8008B7F8093E800809122
:10236000E8008F778093E80030C1112309F01AC18B
:102370009091F1008091E3009F778078982B909363
:10238000E3008091E800877F8093E8008091E80077
:102390008E7F8093E8008091E80080FFFCCF8091E1
:1023A000E30080688093E30010C1112309F0FAC0B4
:1023B0009091F100923008F0F5C08091E800877F9D
:1023C0008093E8009093E0028091E8008E7F8093F4
:1023D000E800892F0E948615F8C01123C1F1123040
:1023E00009F0E0C08091F1009091F100882309F09C
:1023F000D9C0E091F100EF77E093E9008091EB0024
:1024000080FF43C0EE23B1F08091EB0080618093A8
:10241000EB0081E090E00E2E02C0880F991F0A9415
:10242000E2F78093EA001092EA008091EB00886066
:102430008093EB001092E900F0E0E752FD4F10822C
:1024400033C0112321F0123009F0ACC003C08091D9
:10245000F100A8C08091F1009091F100882309F06B
:10246000A1C0E091F100EF7751F48091EB00806220
:102470008093EB008091E800877F8093E800E093F1
:10248000E9008091EB0080FD03C01092E9008AC052
:102490008091EB0080628093EB001092E900F0E005
:1024A000E752FD4F81E080838091E800877F809331
:1024B000E8008091E8008E7F55CF8091F1008091F7
:1024C000F100E091F100113829F0123859F010387C
:1024D00009F068C08091E800877F8093E80010923F
:1024E000F1000DC08091E800877F8093E800F0E064
:1024F000EF77F070E752FD4F80818093F1001092EA
:10250000F1008091E8008E7F8093E8008091E800E0
:1025100082FFFCCF1FCF113809F044C08091F10039
:102520008091F1009091F10099839091F1009A834C
:102530008823C1F58091E800877F8093E800898136
:102540009A810E9464138093F1008091E8008E7F4D
:102550008093E8008091E80082FFFCCFFBCE113031
:1025600009F56091F1008091F1009091F10099835B
:102570009091F1009A838823A9F48091E800877FE5
:102580008093E80089819A810E9466131092E90085
:102590008091E8008E7F8093E8008091E80080FFC2
:1025A000FCCF13C0812F602F0E943615882369F459
:1025B0008091EB0080628093EB008091E800877F40
:1025C0008093E80081E08093D9020F900F90CF9123
:1025D000DF911F910F9108959091EB00916090937E
:1025E000EB008093EC008091ED008270862B80934D
:1025F000ED008091ED0082608093ED008091EE000F
:10260000881F8827881F08959091F40080E090FD2E
:1026100006C08F5F873011F09695F9CF80E008955E
:10262000FB018093E90004C081918093F100415047
:102630008091E80085FF02C04423B1F7842F0895FC
:10264000FB018093E90004C08091F1008193415027
:102650008091E80085FF02C04423B1F7842F0895DC
:102660008093E900EBEEF0E0808180628083089542
:102670008091D8008F7B8093D8008091D90081FF12
:1026800021C01092E9008091EB0080FD1BC01092E8
:10269000E9008091EB0081608093EB0082E0809301
:1026A000EC008091ED00827080638093ED0080915A
:1026B000ED0082608093ED008091EE00881F8827F6
:1026C000881F089580E0089580E00895892B19F50A
:1026D00081E08093E9008091EB0080618093EB00C2
:1026E00092E09093EA001092EA008091EB008860FB
:1026F0008093EB009093E9008091EB0080618093E0
:10270000EB0084E08093EA001092EA008091EB00F5
:1027100088608093EB0008958330F1F4613059F0C4
:10272000613018F06230C1F40CC084E08093E102A3
:1027300081E091E00BC08CE08093E10283ED90E0BA
:1027400005C082E28093E1028FED90E09093E30276
:102750008093E20281E0089580E00895DF93CF93B3
:1027600000D000D0CDB7DEB78091F1008B8380918F
:10277000F1008C8385E38093E10285E091E0909302
:10278000E3028093E2028091F10089838091F1005D
:102790008A838091E800877F8093E80089819A810D
:1027A0008633910528F04091E10225E031E01CC01C
:1027B0008093E102F8CF8091E80080FFFCCFF9011F
:1027C00090E00AC0542F5150903449F09F5F84919B
:1027D0008093F1003196452F9F01442399F7809112
:1027E000E8008E7F8093E800442359F08091E80050
:1027F00082FFE1CF3093E3022093E2024093E102B3
:1028000006C03093E3022093E2021092E10280912D
:10281000E80082FFFCCF8091E8008B7F8093E80086
:102820008091E8008F778093E8000F900F900F90D1
:102830000F90CF91DF9108958091E800877F80937A
:10284000E8008091E8008E7F8093E8008091E800A6
:1028500082FFFCCF8091E8008B7F8093E80080911D
:10286000E8008F778093E8008091E8008E7F809366
:10287000E8000895DF93CF9300D0CDB7DEB7809105
:10288000F10089838091F1008A838091E800877F3D
:102890008093E8006093A4028091E8008E7F80938B
:1028A000E8008091E80080FFFCCF0F900F90CF915F
:1028B000DF910895DF93CF9300D000D0CDB7DEB77E
:1028C0008091F1008B838091F1008C838091F100E5
:1028D00089838091F1008A838091E800877F8093CB
:1028E000E80089819A81892B49F08091A402809324
:1028F000F1008091E8008E7F8093E8008091E800ED
:1029000082FFFCCF8091E8008B7F8093E80080916C
:10291000E8008F778093E8000F900F900F900F9052
:10292000CF91DF9108958091E800877F8093E80040
:102930008091E8008E7F8093E8008091E80082FF1C
:10294000FCCF8091F100853579F48091F1008A3ACD
:1029500059F48091F100853539F48091F1008A3A7B
:1029600019F481E08093A3028091E8008B7F80932B
:10297000E8008091E8008F778093E8008091E8007C
:102980008E7F8093E8008091E80080FFFCCF08955F
:10299000DF93CF9300D000D0CDB7DEB78091F100A8
:1029A0008B838091F1008C8389E08093E1028CEB32
:1029B00090E09093E3028093E2028091F10089839A
:1029C0008091F1008A838091E800877F8093E800FE
:1029D00089819A818A30910528F04091E1022CEB9F
:1029E00030E01CC08093E102F8CF8091E80080FFC6
:1029F000FCCFF90190E00AC0542F5150903449F0B7
:102A00009F5F84918093F1003196452F9F0144236D
:102A100099F78091E8008E7F8093E800442359F075
:102A20008091E80082FFE1CF3093E3022093E2023D
:102A30004093E10206C03093E3022093E202109239
:102A4000E1028091E80082FFFCCF8091E8008B7F5B
:102A50008093E8008091E8008F778093E8000F90E2
:102A60000F900F900F90CF91DF910895DF93CF9348
:102A700000D0CDB7DEB72091F1009091F100813800
:102A800069F46630E9F5913219F09232C9F503C064
:102A90000E94C81433C00E94AE1330C0813239F591
:102AA000693019F06A3061F50BC0923019F093303B
:102AB00039F503C00E941C1421C00E9493141EC04B
:102AC0008091F10089838091F1008A838091E800F0
:102AD000877F8093E8009093A4028091E8008E7F26
:102AE0008093E8008091E80080FFFCCF07C0813A26
:102AF00039F4623029F4822F0E945A1481E001C017
:102B000080E00F900F90CF91DF9108950F931F9366
:102B100009EE10E081E0F801808381EC60E00E9422
:102B2000EC1282E0F801808380EC60E00E94EC12FD
:102B30001F910F9108958F708A3010F4805D089571
:102B4000895C0895982F80538A3068F081518630CF
:102B500010F4865F0895892F8156863010F080E04A
:102B60000895892F87550895CF92DF92EF92FF92B3
:102B70000F931F93DF93CF93CDB7DEB7E0970FB6D8
:102B8000F894DEBF0FBECDBFFC018A0169018081D0
:102B9000893109F47AC08A3170F4823109F449C06C
:102BA000833118F48131C1F419C0873109F475C03B
:102BB000883191F46EC08C3109F488C08D3130F4C5
:102BC0008A3109F45BC08B3139F482C08D3109F44C
:102BD00083C08E3109F47EC092EA86C041814130C3
:102BE00049F0413028F0423029F0433041F404C02C
:102BF00086E003C083E001C084E08093A50294E0F6
:102C0000E92EF12CEC0EFD1E842FB7010E94510A13
:102C1000982F8823B9F52091A502F801D70102C0A9
:102C20008D9181938A2F8E198217D0F320939D0264
:102C300057C05C9A628173818EE0E82EF12CEC0E15
:102C4000FD1E81813496AF0197010E94940B982F4D
:102C50008823C1F440E050E09701F801E40FF51F2C
:102C6000D901A40FB51F8C9180834F5F5F4F403215
:102C7000510599F780E280939D0232C081810E94C4
:102C8000470A982FF80190832BC081810E94830905
:102C9000F8CF81810E948009F4CF0E9467096EA756
:102CA0007FA788ABDE011196FE01BE9683E00190FE
:102CB0000D928150E1F78981F80180838A818183B7
:102CC0008B81828383E080939D0209C02C9A05C08A
:102CD000289A03C02C9801C02898F801108290E02F
:102CE00080919D02F6018083892FE0960FB6F894BB
:102CF000DEBF0FBECDBFCF91DF911F910F91FF902F
:102D0000EF90DF90CF9008958091A6028F5F80931F
:102D1000A60208951C9905C05E9A81E080936C0517
:102D2000089580916C05813019F45E9810926C05BD
:102D300008958F929F92AF92BF92CF92DF92EF92BF
:102D4000FF920F931F93DF93CF93CDB7DEB7F82F8A
:102D50006B018DB69EB6282F30E0B901660F771F44
:102D6000CB010B964DB75EB7481B590B0FB6F894C5
:102D70005EBF0FBE4DBFEDB6FEB60894E11CF11C60
:102D80008B010D5F1F4FA801E3E055954795EA952C
:102D9000E1F7E42FC80187709070882319F4542F4D
:102DA00040E004C048E0481B5E2F5F5F83E7D70127
:102DB0008C931196FC9390E008C0F701EA0FFB1F7B
:102DC000AC0DBD1D8C9182839F5FA92FB0E0A6172B
:102DD000B7079CF32F5F3F4F220F331F2E0D3F1D70
:102DE00080E7F9018083F701E00FF11F80E002C066
:102DF00011928F5F8417E0F381E08093E900809166
:102E0000E80085FF2EC040E020E030E08FE3A82EF0
:102E10008CE9B82EC12CD12C1DC081918093F1007A
:102E20009F5F9830D1F78091E8008E7F8093E80013
:102E30008091E8008F778093E800D601C501019763
:102E4000A109B109000001F0D1F7C89500004F5F5A
:102E5000285F3F4F451728F4F701E20FF31F90E07A
:102E6000DCCF0FB6F8949EBE0FBE8DBECF91DF9122
:102E70001F910F91FF90EF90DF90CF90BF90AF9098
:102E80009F908F9008958F929F92AF92BF92DF9202
:102E9000EF92FF920F93DF93CF9300D0CDB7DEB7C1
:102EA000D82E8DB69EB68DB79EB78D1991090FB6E7
:102EB000F8949EBF0FBE8DBFADB6BEB60894A11CE0
:102EC000B11C7B01DB0190E006C0F501E90FF11DAB
:102ED0008D9180839F5F9D15C0F300E018C0F501C0
:102EE000E00FF11DFA83E983808182958F700E9443
:102EF0009B15F7018083E981FA8180810E949B15EF
:102F0000F70181830F5F82E090E0E80EF91E0D1556
:102F100030F30FB6F8949EBE0FBE8DBE0F900F908B
:102F2000CF91DF910F91FF90EF90DF90BF90AF9026
:102F30009F908F900895FF920F931F93F82E8B010F
:102F40000E9443178F2DB8010E9499161F910F916F
:102F5000FF9008959F92AF92BF92CF92DF92EF922F
:102F6000FF920F931F93DF93CF93CDB7DEB7982EC9
:102F70006B01ADB6BEB6282F30E0220F331F8DB7E0
:102F80009EB7821B930B0FB6F8949EBF0FBE8DBFEA
:102F90006DB77EB76F5F7F4F40E008C0FB01EA0F5F
:102FA000FB1FAC0DBD1D8C9180834F5FA42FB0E043
:102FB000A217B3079CF38B01EE24FF241AC0D8019B
:102FC0008C910E94A215F801808381810E94A21534
:102FD000D80111968C931197F601EE0DFF1D9C916F
:102FE0009295907F980F90830894E11CF11C0E5FDE
:102FF0001F4FE91420F30FB6F894BEBE0FBEADBE4E
:10300000CF91DF911F910F91FF90EF90DF90CF90C4
:10301000BF90AF909F900895DF93CF93CDB7DEB769
:1030200028970FB6F894DEBF0FBECDBFFE013196D4
:103030009E01275F3F4F8091F1008193E217F307D4
:10304000D1F78091E8008B7F8093E8008091E800C1
:103050008F778093E8004091630380915F0320E0C5
:1030600030E0BE016F5F7F4FFB01E20FF31F9081E5
:10307000933721F4222311F481E022C0823049F0F9
:10308000833091F08130E1F49093680440E082E075
:1030900017C0903711F483E013C04F5FE42FF0E0C6
:1030A000E859FB4F90830CC0273051F4942F96952C
:1030B00080916804891711F484E002C040E080E048
:1030C0002F5F3F4F2830310579F64093630380939B
:1030D0005F03843069F41092630310925F03809160
:1030E000680469E674E00E94AA1781E080934703B0
:1030F00028960FB6F894DEBF0FBECDBFCF91DF91FB
:1031000008958091E002882349F082E08093E900ED
:103110008091E80082FF02C00E940C180895DF939E
:10312000CF930F92CDB7DEB78091E002882301F1F3
:103130000E948118809147038130D1F489E694E0A0
:103140006091680444E653E02BE635E00E94B41534
:103150008983882329F480916B0564E673E004C0B9
:1031600081E0BE016F5F7F4F0E949B171092470363
:103170000F90CF91DF9108958AB180678AB910923C
:103180006C0510925F0386E0E9E5F3E0DF011D9234
:103190008A95E9F783E0E8E6F5E0DF01982F1D92D4
:1031A0009A95E9F7109264041092650410926604EF
:1031B00010926704E0E6F3E0DF011D928A95E9F7DB
:1031C00080E00E9480090895DF93CF9300D00F9292
:1031D000CDB7DEB788E090E09B838A8381E0898366
:1031E0008981882319F082E08093C8008A819B81BD
:1031F0008093CC0088E18093C90084E08093CA006A
:103200000F900F900F90CF91DF9108951F920F9222
:103210000FB60F920BB60F9211248F93EF93FF937B
:10322000E1E8F0E080818A7F808381E0809372050D
:10323000FF91EF918F910F900BBE0F900FBE0F90EB
:103240001F90189588E080938100B19AEFE6F0E036
:1032500080818260808385ED91E0909389008093E6
:10326000880008958091C80085FFFCCF80EF80938F
:10327000CE008091C80086FFFCCF8091C80080649A
:103280008093C8008FE99FE00197F1F7000000C02C
:103290000895FC0106C080917205882311F08FEF1C
:1032A00008958091C80087FFF6CF8091CE0080837B
:1032B00080E008958330E9F0843028F4813089F08B
:1032C0008230A0F408C0853021F18530A8F0863026
:1032D00009F02CC025C087EC8A9501F0E9F7C89564
:1032E000089583EC9AEEA0E0B0E00AC087E592E092
:1032F00012C087E795E00FC083E89BECA0E0B0E048
:103300000197A109B109000001F0D1F7C8950000AB
:10331000089583E091E00197F1F7000000C008955F
:103320008FE891E00197F1F7000000C00895FB01DC
:10333000DC0104C08D910190801921F4415050406E
:10334000C8F7881B990B0895FB01DC0102C00190AE
:103350000D9241505040D8F708956817790768F4E6
:10336000FB01DC01E40FF51FA40FB51F02C00290A2
:103370000E9241505040D8F708950C94A419DC01E6
:1033800001C06D9341505040E0F70895F894FFCF8D
:1033900067E6096A85AE67BB72F36E3C3AF54FA5E6
:1033A0007F520E518C68059BABD9831F19CDE05B12
:1033B000982F8A4291443771CFFBC0B5A5DBB5E9A0
:1033C0005BC25639F111F159A4823F92D55E1CAB14
:1033D00098AA07D8015B8312BE853124C37D0C55A2
:1033E000745DBE72FEB1DE80A706DC9B74F19BC1EA
:1033F000C1699BE48647BEEFC69DC10FCCA10C24DA
:103400006F2CE92DAA84744ADCA9B05CDA88F976BD
:1034100052513E986DC631A8C82703B0C77F59BF27
:10342000F30BE0C64791A7D55163CA066729291453
:10343000850AB72738211B2EFC6D2C4D130D3853F0
:1034400054730A65BB0A6A762EC9C281852C7292B2
:10345000A1E8BFA24B661AA8708B4BC2A3516CC7E0
:1034600019E892D1240699D685350EF470A06A1019
:1034700016C1A419086C371E4C774827B5BCB03468
:10348000B30C1C394AAAD84E4FCA9C5BF36F2E6806
:10349000EE828F746F63A5781478C8840802C78C95
:1034A000FAFFBE90EB6C50A4F7A3F9BEF27871C698
:1034B0000701000000172000AAAABBBBBBBBBBBB17
:1034C000BBBBBBBBBBBBBBBBBBBB270899AABBCCB5
:1034D000CCCCCCCCCCCCCCCCCCCCCCCCCCCCCCCC2C
:1034E000CCCCCCCCCCCCCCCCCCCCCCCCCCCCCC12D6
:1034F00010FE0000000000000000000000000007B7
:103500000440000007020000000702010300070258
:10351000010200070200010001010000000000009C
:0E3520000001BFFFFFFFFFFFFFFFFF00F001F4
:00000001FF
