:100000000C9492000C94B1000C94B1000C94B100CB
:100010000C94B1000C94B1000C94B1000C94B1009C
:100020000C94B1000C94B1000C9489140C94B100A0
:100030000C9461080C94B1000C94B1000C94B100C4
:100040000C94B1000C94B1000C94B1000C94B1006C
:100050000C94B1000C94B1000C94B1000C94BB074B
:100060000C94B1000C94B1000C94B1000C94B1004C
:100070000C94B1000C94B1000C94B1000C94B1003C
:100080000C94B1000C94B1000C94B1000C94F507E1
:100090000C94B1000C94B10004030904090243005C
:1000A000020100803209040000010202010005245F
:1000B00000100105240103010424020605240600A2
:1000C00001070583032000FF09040100020A000064
:1000D000000705810220000007050202200000122F
:1000E00001000202000020EB0322210010000000AA
:1000F0000141543838434B3439302000434B3439B4
:1001000030200045434331303820004145533133DE
:1001100032200053484132303420000001000101F8
:100120000001000511241FBECFEFD0E2DEBFCDBF1E
:1001300012E0A0E0B1E0E0E4F6E400E00BBF02C0B2
:1001400007900D92AA3DB107D9F725E1AAEDB2E0DB
:1001500001C01D92A634B207E1F70E941D1D0C9448
:100160001E230C940000BF92CF92DF92EF92FF9279
:100170000F931F93CF93DF93882391F1B62EE62F31
:10018000F72FA0E090E068E070E06894CC24C7F816
:100190000F2EF5E0EF2EF02DFF24F394D12C1CC090
:1001A000DA2FDD1FDD27DD1FC92FCC1FCC27CC1F89
:1001B000990FAA0FAC2B1B2F1023CF2D09F4CD2D97
:1001C000CD1711F09E25A058B6952150310941F761
:1001D0002E2F2B19281730F401919B01BC2DE0CF55
:1001E000A0E090E0FA01A0839183DF91CF911F916D
:1001F0000F91FF90EF90DF90CF90BF90089540E077
:1002000050E060EE7FEF80E00E94B51C08950E94F0
:10021000BF1C811102C00E94FF000895CF93DF939D
:10022000EC01AC0160EF7FEF81E00E94AB1C882302
:1002300031F0AE0160EF7FEF81E00E94AB1CDF91F7
:10024000CF910895EF92FF920F931F93CF93DF9377
:100250001F92CDB7DEB7F82EE62E8A0101C08901C4
:10026000AE014F5F5F4F60EF7FEF81E00E94AB1CFC
:10027000803A69F0811111C091E0E91205C09981BD
:100280009F219F1104C009C099819F2131F09801DD
:1002900021503109012B19F787EE0F90DF91CF9193
:1002A0001F910F91FF90EF90089540E659E060E0B4
:1002B00081E00E942201089548E95DE061E080E468
:1002C0000E94220108957F928F929F92AF92BF92D7
:1002D000CF92DF92EF92FF920F931F93CF93DF9312
:1002E00000D0CDB7DEB7B82E8B016894CC24C1F80E
:1002F0007B018FEFE81AF80A0F2EF5EE8F2EF02D06
:100300000F2EF4EEAF2EF02D0F2EF2EA9F2EF02DD1
:100310000E945C01D82E882319F00E94070148C072
:10032000A80160E07EEF81E00E94AB1CD82E8823FC
:1003300019F00E9407013CC0F8017080B71420F446
:100340000E940701D92C34C0872D8450813320F0BE
:100350000E940701DA2C2CC0A70160E07EEF872DF8
:1003600081500E94AB1CD82E882319F00E940701EF
:100370001FC07A947A94AE014F5F5F4FB801872D0A
:100380000E94B300272D30E0F801E20FF31F99819E
:10039000808198130AC0F801E20FF31F9A818181CE
:1003A000981303C0F801D18006C00E940701D82C21
:1003B000CA9409F0ADCF8D2D0F900F90DF91CF91A2
:1003C0001F910F91FF90EF90DF90CF90BF90AF9073
:1003D0009F908F907F9008958F929F92AF92BF923F
:1003E000CF92DF92EF92FF920F931F93CF93DF9301
:1003F00000D000D0CDB7DEB7982E8B017A01A22EA7
:100400006894BB24B1F86894882481F8C82C0E94B1
:100410005501D82E811125C0A11019C0A701B8011E
:10042000892D0E94B51CD82E811119C001151E4FAF
:10043000F0F483E00E940906BE016F5F7F4F84E005
:100440000E946301D82E811112C0DA8010C0A7016A
:10045000B801892D0E94AB1CD82E882341F0CA9484
:10046000B1F6BA9421F00E940701D110CFCF8D2DA3
:100470000F900F900F900F90DF91CF911F910F91E0
:10048000FF90EF90DF90CF90BF90AF909F908F90B4
:10049000089521E00E94EC01089520E00E94EC0103
:1004A0000895AF92BF92CF92DF92EF92FF920F9397
:1004B0001F93CF93DF931F92CDB7DEB78C01F62E3B
:1004C000FC01D08060FD0BC04D2D50E04250510921
:1004D000480F591FBC018D2D82500E94B3006894B3
:1004E000EE24E1F86894BB24B1F8BF200F2EF4EDA0
:1004F000AF2EF02DA80160E07EEF8D2D0E944D0201
:10050000F82E81111AC0B1101AC0AE014F5F5F4FB3
:1005100060EF7FEF81E00E94AB1CC82E811105C007
:10052000898184FD09C0FC2C0AC0F0EA8F1739F0DC
:100530000E940701FC2C03C0FA2CEA94D9F68F2DF7
:100540000F90DF91CF911F910F91FF90EF90DF906F
:10055000CF90BF90AF9008951F93CF93DF93CDB707
:10056000DEB762970FB6F894DEBF0FBECDBF182F6F
:1005700099E0E3E3F1E0DE01119601900D929A9586
:10058000E1F799E0ECE3F1E0DE011A9601900D92BB
:100590009A95E1F70E94FF0081110DC0111106C06C
:1005A00063E0CE0101960E94510205C063E0CE01D6
:1005B0000A960E94510262960FB6F894DEBF0FBEF3
:1005C000CDBFDF91CF911F91089580E40E94AC02CE
:1005D000089580E00E94AC020895FF920F931F934C
:1005E000CF93DF93162FF42EE901602F0E94510262
:1005F000811109C0112319F0812F0E940906BE0143
:100600008F2D0E946301DF91CF911F910F91FF9079
:1006100008950F93CF93DF93CDB7DEB729970FB629
:10062000F894DEBF0FBECDBF9B0199E0E5E4F1E099
:10063000DE01119601900D929A95E1F78D8300E00D
:1006400046E060E0CE0101960E94ED0229960FB6C9
:10065000F894DEBF0FBECDBFDF91CF910F9108950B
:10066000CF92DF92EF92FF920F931F93CF93DF937E
:10067000882341F1C62EE62FF72F20E030E0A8E0D6
:10068000B0E0DD24D394FD2CE12C18C0D32FDD1F66
:10069000DD27DD1F220F331F192F1023CF2D09F463
:1006A000CE2DCD1719F0C5E02C273058990F615089
:1006B000710961F79E2F9C19981730F40191BD01C3
:1006C0009D2DE4CF20E030E0FA0120833183DF91DB
:1006D000CF911F910F91FF90EF90DF90CF900895F1
:1006E000FF920F931F93CF93DF9300D0CDB7DEB768
:1006F0008C01FC01F080FA94FA94AE014F5F5F4FD9
:10070000BC018F2D0E9430038F2D90E0F801E80F7F
:10071000F91F39812081321309C0F801E80FF91F50
:100720009A818181981721F085EE03C085EE01C082
:1007300080E00F900F90DF91CF911F910F91FF906C
:1007400008951F93CF93DF93EC010E94EB1C182FA9
:1007500081111EC0BE0184E00E94FF1C182F811170
:1007600017C08881843051F48981813149F48A81AC
:10077000833341F48B81833439F40AC014EE05C00D
:1007800010EF03C015EE01C015EE86E40E940906C5
:10079000812FDF91CF911F910895CF93DF93EB01CC
:1007A0000E94E11C882341F00E94131DCE010E948B
:1007B000A103811101C088EEDF91CF9108952F929E
:1007C0003F924F925F926F927F928F929F92AF92E1
:1007D000BF92CF92DF92EF92FF920F931F93CF932E
:1007E000DF9300D000D01F92CDB7DEB74C01762E3C
:1007F0005A01322EFC015080E52DE250202F30E0CE
:10080000A8EEB3E00E9478220F2EF5E2CF2ED12C75
:10081000E12CF12CF02DC60ED71EE81EF91EA40106
:100820004E0F511DB4018E2F0E9430030F2EF3E0A6
:100830006F2EF02D10EE6894222421F80A2D72C03C
:10084000B401852D0E94F51C182F882341F0B501B5
:10085000872D0E94CD03873E09F064C06DC0832DB3
:100860000E940906422C57C011928E2F801B8715BB
:10087000D8F3C982DA82EB82FC82B501872D0E940F
:10088000FF1C182F89819A81AB81BC818597A109B2
:10089000B10989839A83AB83BC8389819A81AB81B7
:1008A000BC818697A105B10518F0173E31F30BC046
:1008B0001D83173E41F4B501872D0E94CD03873E6D
:1008C000B1F11D812FC0143E49F4B501872D0E945E
:1008D000CD038823F1F0883E29F12EC0C5010E9486
:1008E0007003182F81110CC0F5018081853020F52F
:1008F00081818330F1F08F30F1F08F3F91F01CC097
:10090000B501872D0E94CD03882319F0883E51F050
:1009100013C04A9439F0772009F4ABCFEA2DFB2DB0
:10092000A3CF14ED6A9441F011118ACF05C01D8147
:1009300003C012ED01C013ED812F0F900F900F90A7
:100940000F900F90DF91CF911F910F91FF90EF903B
:10095000DF90CF90BF90AF909F908F907F906F90DF
:100960005F904F903F902F9008952F923F924F921B
:100970005F926F927F928F929F92AF92BF92CF922F
:10098000DF92EF92FF920F931F93CF93DF9300D0EC
:10099000CDB7DEB7688C798C863109F464C0A0F4D9
:1009A000883009F455C038F4813009F469C08230C8
:1009B00009F096C078C0823109F489C0853149F1C7
:1009C000813109F08DC02FC08C3109F48EC030F414
:1009D0008731A1F18B3109F083C05AC0883231F0E0
:1009E000803371F0803209F07BC068C06894BB240A
:1009F000B2F89AE19A830F2EFCE0FF2EF02D92C000
:100A00000F2EF7E0BF2EF02DE1E0EA83FF24F394F0
:100A100089C06894BB24B2F8F0E2FA830F2EFBE0A1
:100A2000FF2EF02D7FC00F2EF3E2BF2EF02D9BE2A4
:100A30009A830F2EFBE1FF2EF02D74C06894BB2427
:100A4000B2F8E3E1EA830F2EF5E0FF2EF02D6AC045
:100A50000F2EF3E2BF2EF02DF7E1FA830F2EFCE00C
:100A6000FF2EF02D5FC0633009F049C06894BB24AD
:100A7000B2F897E29A830F2EF6E1FF2EF02D52C0C6
:100A80006894BB24B2F8E1E0EA83FF24F3944AC0FF
:100A90000F2EF3E2BF2EF02DF8E2FA830F2EFBE0CB
:100AA000FF2EF02D3FC06623ACF50F2EF3E2BF2ED4
:100AB000F02D93E09A83FF24F39434C06894BB2410
:100AC000B2F8E4E0EA836894FF24F3F82BC068945A
:100AD000BB24B2F8F6E2FA836894FF24F2F822C04D
:100AE000BA8C96E49A83F12C1DC06894BB24B2F8AA
:100AF000E1E3EA830F2EFEE0FF2EF02D13C00F2E50
:100B0000F3E2BF2EF02DF7E2FA830F2EF6E1FF2E6F
:100B1000F02D08C00F2EF7E0BF2EF02D93E09A8342
:100B2000FF24F3949E2D920F9A0D9983995FF30100
:100B3000908381836283438354832301F5E04F0EC6
:100B4000511C222361F0222E312C422F50E0602FC5
:100B5000712F842D952D0E94C122420C531CEE2032
:100B600061F00E2D10E04E2D50E06C2D7D2D842D6A
:100B7000952D0E94C122400E511EAA2061F00A2D1F
:100B800010E04A2D50E0682D792D842D952D0E947E
:100B9000C122400E511EA201B30189818B5F0E94C8
:100BA00030030A812F2D4B8D5C8D6B2DC3010E946C
:100BB000DF030F900F90DF91CF911F910F91FF9066
:100BC000EF90DF90CF90BF90AF909F908F907F90ED
:100BD0006F905F904F903F902F90089580E691E046
:100BE0000895CF93DF931F92CDB7DEB7882369F0C6
:100BF0002EE029839981992331F09981915099832D
:100C000099819111FACF8150A1F70F90DF91CF9187
:100C10000895CF93882331F0C82F88E60E94F1050C
:100C2000C150D9F7CF910895E4E6F0E080818F7745
:100C300080838AB18C7F8AB98BB183608BB98CE059
:100C40008093B80008951092BC00E4E6F0E0808143
:100C500080688083089584EA8093BC008AEFECEB7F
:100C6000F0E002C0815061F090819923DCF780911F
:100C7000B900887F883031F0803131F480E0089508
:100C800081EF089580E0089580EF089584E98093CE
:100C9000BC008AEFECEBF0E002C0815049F090819B
:100CA00094FDFBCF8091B900887F21F480EF0895F7
:100CB00081EF089580E008950F931F93CF93DF9302
:100CC000882321F1A62FB72F0BEB10E0ECEBF0E01F
:100CD00074E858EC29EB30E09D91E801988370832B
:100CE000952F02C09150A1F040814423DCF7E90127
:100CF0009881987F983121F0983211F0903451F416
:100D00009A2F961B981740F380E005C080E003C03F
:100D100081EF01C088EFDF91CF911F910F9108956E
:100D200024EC2093BC0028ECECEBF0E002C0215056
:100D300091F030813323DCF72091B900287F2035F2
:100D400021F00E94460680EF08952091BB00FC012F
:100D5000208380E0089581EF0895CF92DF92FF9283
:100D60000F931F93CF93DF93282F30E02150310949
:100D7000121613064CF5F62EA62FB72FECEBF0E06B
:100D800004EC18EC0F2EF9EBCF2ED12CF02D4BEB01
:100D900050E00083812F02C0815091F1908199230E
:100DA000DCF7E6018881887F803521F00E944606C5
:100DB00080EF29C0EA0188818D93BD018A2F8F19A8
:100DC00090E0821793072CF384E88093BC0088ECB2
:100DD000ECEBF0E002C08150A9F090819923DCF7A0
:100DE0008091B900887F883521F00E94460680EF07
:100DF0000AC08091BB00FB0180830E94460603C0AD
:100E000081EF01C081EFDF91CF911F910F91FF9092
:100E1000DF90CF900895811103C01092DA020895F7
:100E200083EE08952998289808952998289A089576
:100E3000CF93DF931F92CDB7DEB784B1866084B9BC
:100E40002998209A289A2B9AE4E6F0E080818B7FFB
:100E5000808380E58CBD81E08DBD8DB589838EB5A5
:100E600089830F90DF91CF9108958CB58F7B8CBDD6
:100E7000E4E6F0E080818460808384B1897F84B976
:100E800020980895CF93DF931F92CDB7DEB7FB0173
:100E9000882371F091919EBD92E302C0915051F070
:100EA0000DB407FEFBCF9EB59983815099F703C01F
:100EB00080E001C081EF0F90DF91CF910895FB0199
:100EC0008823A1F02AEF1EBC922F08C0915031F464
:100ED0000DB407FE0DC08EB587EE08950DB407FE64
:100EE000F5CF9EB59193815071F7089580E00895F4
:100EF00087EE08958AB188638AB96A9884B181615E
:100F000084B92C9A289A08955C9A5D9A5B9A089500
:100F10005C985D985B980895882311F05C9A089519
:100F20005C980895882311F05D9A08955D9808955E
:100F3000882311F05B9A08955B9808958EE1809361
:100F4000DD02EEE6F0E080818E7F808314BC85E0D8
:100F500085BDA89A8081816080831092DB0208950C
:100F6000EEE6F0E080818E7F808315BCA89A8081B8
:100F70008160808308951F920F920FB60F92112403
:100F80008F938091DD0281508093DD02811106C034
:100F900081E08093DB028EE18093DD028F910F90E0
:100FA0000FBE0F901F901895E1E7F0E080818E7FD3
:100FB00080831092900082E08093910010929200C2
:100FC000C09A8081816080830895E1E7F0E08081AC
:100FD0008E7F808310929100C09A8081816080838F
:100FE0001092DF021092DE0208951F920F920FB648
:100FF0000F9211248F939F938091DE029091DF02D4
:10100000892B21F482E08093E10217C08091DE02F7
:101010009091DF0201979093DF028093DE02892B8B
:1010200039F08FE298EF909395008093940005C07B
:101030001092910081E08093DC029F918F910F903C
:101040000FBE0F901F901895880F991F809590954F
:1010500090939500809394000E94D4071092E1022F
:101060008091E1028823E1F30E94E50708950F9340
:101070001F93CF93DF938C01009751F0C0E0D0E035
:1010800088EE93E00E9424082196C017D107C1F78B
:10109000DF91CF911F910F910895E1E7F0E020815A
:1010A0002E7F20839093DF028093DE021092DC0279
:1010B0008FE298EF90939500809394000E94D4075C
:1010C00008951F920F920FB60F9211248F9381E013
:1010D0008093E0028F910F900FBE0F901F90189594
:1010E0002091E3023091E4022F50344F822F932F4E
:1010F00008954CEF58E0682F70E081EF9BE00E946C
:10110000CA221092E4021092E30281EF9BE008955C
:101110009F92AF92BF92CF92DF92EF92FF920F9386
:101120001F93CF93DF936B018C0101501109EC01E8
:10113000C150D048CC0FDD1F5E0125E0A20EB11CCE
:10114000FB01EC0FFD1F2AE0248329E22383229672
:1011500001151105E1F07B01E80EF91EC60FD71F3E
:10116000F70192907F0101501109892D0E9493107F
:101170008883892D82958F700E949310FE0131978C
:10118000808322970115110559F7C2E0D0E0F601DE
:10119000EC0FFD1F88E280832197F601F080860125
:1011A0000C0F1D1F8F2D0E949310F8018083219733
:1011B000CC0DDD1D8F2D82958F700E94931088833A
:1011C0008A2D9B2DDF91CF911F910F91FF90EF9072
:1011D000DF90CF90BF90AF909F9008958C3791058E
:1011E00028F082ECFB0180838BE790E00E94880866
:1011F0000895AF92BF92CF92DF92EF92FF920F933A
:101200001F93CF93DF931F92CDB7DEB76C01198286
:10121000E090E302F090E40280E00E948C0780E01E
:101220000E94920780E00E94980781E090E00E946F
:1012300009068091E502882379F08093F50281E028
:1012400090E0D6018D939C9365EF72E00E94EE08CA
:10125000F601918380839BC05701F1E0AF1AB1087A
:101260008CEF98E0E5EFF2E0DF019C011D92215048
:101270003040E1F7A114B10489F001EF1BE080EFE9
:101280009BE0E80EF91ED8018C9190E00E94842228
:10129000F80181938F01EE15FF05A9F78091F10BFD
:1012A0008C3681F44091E3025091E4026AE370E0ED
:1012B00081EF9BE00E94A722BC01009729F06F5F9D
:1012C0007F4F02C061EF7BE0DB018C91853609F135
:1012D00028F4813641F08236D9F526C0893681F16D
:1012E0008337B1F50BC026EF32E0A6018A2D0E94AC
:1012F000020B182F81E00E94920730C026EF32E0E7
:10130000A601C5010E94760E182F81E00E948C076D
:1013100025C026EF32E0A601C5010E94760E182FE7
:1013200081E00E9498071AC08E010F5F1F4F25EFC2
:1013300032E0A6018A2D90E00E94B51D182F0EC044
:1013400026EF32E0A601C5010E941F0E182F06C02D
:1013500081E090E0F6019183808310EC99819111F6
:1013600016C01093F502D6018D919C9111978B3781
:10137000910518F401968D939C9365EF72E0F60148
:10138000808191810E94EE08D6018D939C931092EA
:10139000E6021092E20285EF92E00F90DF91CF918A
:1013A0001F910F91FF90EF90DF90CF90BF90AF9083
:1013B0000895DF92EF92FF920F931F93CF93DF93E5
:1013C000882309F470C0C091E7022091E3023091B4
:1013D000E4020091E502F090E6021091E20290E052
:1013E000D3E0A1EFBBE0DD24D394E12C40E050E05A
:1013F000C13031F008F463C0C33009F045C029C0E2
:10140000F901EF50F44FE081EA30E1F404C011E05B
:1014100000E020E030E00093E5021093E202109239
:10142000E70281E08093E602C9018F50944FFB01EF
:10143000918380832F5F3F4F3093E4022093E30238
:1014400081E047C02C3FF8E03F07E8F42F5F3F4FB3
:101450001BC0F901EF50F44FE081EA30A9F420936A
:10146000E3023093E4021093E2022F50344FFB0169
:10147000318320831092E70281EC8093E50281E0C2
:101480008093E60226C0CD2F9F5F9813B1CFC09303
:10149000E7023093E4022093E3020093E502F09226
:1014A000E6021093E2028091E3029091E4028F50F1
:1014B000944FFB01918380838091E6020AC02C91B6
:1014C0002A3009F4A4CF1D2DFE2C0E2DCD2D9A010E
:1014D000BDCFDF91CF911F910F91FF90EF90DF90E3
:1014E00008958F929F92AF92BF92CF92DF92EF9228
:1014F000FF920F931F93CF93DF9300D000D0CDB70F
:10150000DEB7982E7B016A015901AE014D5F5F4F36
:10151000BE016F5F7F4FC70102960E94EF10882EB9
:10152000882319F0F60110825BC00B811C81F70142
:1015300080818737D9F5F801718160E08281680F79
:10154000711D911028C06115FEEF7F0720F5A801DD
:101550004D5F5F4FF80180810E944D02882EFFEEA3
:10156000F817B0F00E94FF00882E811139C0A50144
:1015700060E07EEF84E00E944902813928F4F501A1
:101580008081F60180832CC0F6011082882E28C04D
:10159000F601108225C0A8014D5F5F4FF8018081E0
:1015A0000E94B51C882EF60110821AC0F8017181C4
:1015B00060E08281680F711D911006C0A5018081D5
:1015C0000E944902882E06C0A501F80180810E9470
:1015D000AB1C882E811004C0F8018081F601808345
:1015E000882D0F900F900F900F90DF91CF911F914A
:1015F0000F91FF90EF90DF90CF90BF90AF909F90B2
:101600008F900895AF92BF92CF92DF92EF92FF92A8
:101610000F931F93CF93DF9300D000D000D0CDB7AE
:10162000DEB76B017A0159011D826AE370E0C601E1
:101630000E94DC228C01009709F447C1FC018181E2
:10164000833769F4CE0106960E940E01D82E8111CF
:1016500031C18E81F501808381E08D832BC18D3670
:1016600061F4B8016E5F7F4F9501AE014B5F5F4F34
:1016700080E00E94710AD82E1DC1843709F054C041
:10168000AE014D5F5F4FBE016F5F7F4FC801029695
:101690000E94EF10D82E811136C100E095014BE772
:1016A00061E08B819C810E94ED02811105C0F501F2
:1016B00090819D83D82E04C1813920F4F501808169
:1016C0008D83FEC0873E18F49D81992319F0803FD9
:1016D00009F0EFC01D820E94FF00D82E8111EAC0E0
:1016E0001E82AE014A5F5F4F60E07EEF81E00E94A4
:1016F000AB1CD82E8111DEC08E81F5018083811153
:1017000003C081E08D83D6C08C3710F08BE78E83C9
:101710008E818D83A5014F5F5F4F60E07EEF81502A
:101720000E94AB1CD82EC6C08336B9F5F801828161
:10173000823779F489E0F601982F11929A95E9F7AA
:10174000F6018083118262E0C6010E945102D82E08
:10175000B1C0AE014D5F5F4FBE016F5F7F4FC801EB
:1017600002960E94EF10D82E8111CDC08B819C81F2
:10177000F8012281233761F4FC018081882321F064
:101780000E94E502D82E96C00E94E902D82E92C08F
:1017900060E00E945102D82E8DC08237D1F4AE0194
:1017A0004D5F5F4FBE016F5F7F4FC80102960E9481
:1017B000EF10D82E8111A7C0EB81FC81B50180818B
:1017C0000E946301803F08F079C0F50180818D831C
:1017D00077C0873761F4F8018281843621F40E9452
:1017E0005501D82E67C00E945C01D82E63C0803797
:1017F00009F07AC06AE370E0C80101960E94DC2219
:10180000009709F467C0FC0121812936C9F46AE315
:1018100070E001960E94DC22009709F460C0FC0190
:101820008181893629F482E00E94981BD82E42C01B
:10183000833709F05EC081E00E94981BD82E3AC021
:101840002D3661F4BC016E5F7F4F9501AE014B5F99
:101850005F4F81E00E94710AD82E2CC02337D9F443
:10186000FC012281293721F40E94BF1CD82E22C0FE
:10187000AE014D5F5F4FBE016F5F7F4F02960E94CA
:10188000EF10D82E81113FC0EB81FC8180810E9436
:10189000A11CD82E0FC0822F8456823078F52536B1
:1018A00021F40E94911CD12C0BC00E94991CD12CB8
:1018B00007C0D82EFFEEFD1510F002C0D82E1D82F5
:1018C0008D81F701808311821EC00F2EF0ECDF2E78
:1018D000F02D19C00F2EF0ECDF2EF02D14C00F2EBE
:1018E000F0ECDF2EF02D0FC00F2EF0ECDF2EF02DE0
:1018F000E7CF0F2EF0ECDF2EF02DE2CF0F2EF0EC25
:10190000DF2EF02DDDCF8D2D26960FB6F894DEBF9D
:101910000FBECDBFDF91CF911F910F91FF90EF9040
:10192000DF90CF90BF90AF900895EF92FF920F930A
:101930001F93CF93DF9300D000D0CDB7DEB7CB019C
:101940008A0179016AE370E00E94DC22F8011182C9
:1019500010820097D1F1FC0121812437C1F4AE013E
:101960004D5F5F4FBE016F5F7F4F02960E94EF1089
:10197000811127C06B817C8189810E944820F701F9
:10198000808321E030E0F8013183208318C02237C2
:10199000F1F4AE014D5F5F4FBE016F5F7F4F029666
:1019A0000E94EF1081110DC0B70189810E94CA20E9
:1019B000F701808329813A81F801318320838823CC
:1019C00041F0F8011182108204C080EC02C080EC6A
:1019D000F8CF0F900F900F900F90DF91CF911F9144
:1019E0000F91FF90EF900895EF92FF920F931F9346
:1019F000CF93DF9300D000D0CDB7DEB7CB018A0103
:101A000079016AE370E00E94DC22F8011182108201
:101A1000009709F452C0FC0121812437C1F4AE01C2
:101A20004D5F5F4FBE016F5F7F4F02960E94EF10C8
:101A300081113FC06B817C8189810E945C06F70126
:101A4000808381E090E0F801918380833AC022375F
:101A5000D1F4AE014D5F5F4FBE016F5F7F4F0296C5
:101A60000E94EF10811125C0EB81FC81B7018081BC
:101A70000E94AD0681111DC0EB81FC818081F801BF
:101A8000808311821EC02337D1F4FC01838181360B
:101A900019F40E942B0604C08F36A9F40E94460652
:101AA000F701808321E030E0F8013183208388232F
:101AB00071F0F801118210820AC080EC08C080EC3D
:101AC000F8CF80E004C080ECF7018083F2CF0F9064
:101AD0000F900F900F90DF91CF911F910F91FF907A
:101AE000EF900895DF92EF92FF920F931F93CF93A1
:101AF000DF9300D000D0CDB7DEB7CB018A017901EA
:101B00006AE370E00E94DC22F801118210820097E3
:101B100009F47EC0FC0121812436F1F4AE014D5F51
:101B20005F4FBE016F5F7F4F02960E94EF10D82E6D
:101B3000811108C0EB81FC818081882319F00E940B
:101B4000180702C00E943507F701108221E030E03B
:101B5000F8013183208356C02337F1F4AE014D5F85
:101B60005F4FBE016F5F7F4F02960E94EF10D82E2D
:101B7000811108C0EB81FC818081882319F00E94CB
:101B8000120702C00E941507F701108221E030E021
:101B9000F8013183208336C02437D1F4AE014D5F84
:101BA0005F4FBE016F5F7F4F02960E94EF10D82EED
:101BB00081112AC06B817C8189810E944207D82EC5
:101BC000F701808321E030E0F801318320831AC0DF
:101BD000223719F5AE014D5F5F4FBE016F5F7F4F3A
:101BE00002960E94EF10D82E81110EC0B701898194
:101BF0000E945F07D82EF701808389819A81F801BE
:101C000091838083DD2071F0F801118210820AC077
:101C10000F2EF0ECDF2EF02D05C00F2EF0ECDF2E96
:101C2000F02DF2CF8D2D0F900F900F900F90DF9130
:101C3000CF911F910F91FF90EF90DF900895AF9299
:101C4000BF92CF92DF92EF92FF920F931F93CF93A9
:101C5000DF936C01CB015A0179016AE370E00E94C5
:101C6000DC22EC010097A1F18C010F5F1F4F6CE8A3
:101C700072E0C8010E94EE22892B19F4C981C13398
:101C800039F49701A501B801C6010E94950C23C043
:101C90006FE872E0C8010E94EE22892B11F4C23372
:101CA00039F49701A501B801C6010E94F40C13C0D4
:101CB00062E972E0C8010E94EE22892B11F4C3335D
:101CC00049F49701A501B801C6010E94720D03C035
:101CD00080EC01C080ECDF91CF911F910F91FF90BC
:101CE000EF90DF90CF90BF90AF900895CF92DF92AA
:101CF000EF92FF920F931F93CF93DF9300D000D00A
:101D0000CDB7DEB7CB017A0169016AE370E00E94CA
:101D1000DC22F70111821082009709F4E9C1FC016D
:101D20002181203709F44AC150F4233609F4F0C068
:101D3000293609F429C1213609F0DCC12DC1233728
:101D400009F414C120F4223709F0D4C1F4C02437B7
:101D500021F0273709F0CEC1BDC0AE014D5F5F4F06
:101D6000BE016F5F7F4F02960E94EF10182F811106
:101D7000CCC1F601108280910001882329F0C601B0
:101D80000E94A1038111B8C1EB81FC819281818104
:101D9000863109F450C0A0F4883009F446C038F404
:101DA000813009F451C0823009F06EC059C08231CF
:101DB00009F464C0853139F1813109F065C029C069
:101DC0008C31A9F030F4873151F18B3109F05CC0CE
:101DD00041C0883231F0803381F0803209F054C044
:101DE00047C086E28093ED1464E070E058C08FE352
:101DF0008093ED1464E070E052C082E08093ED14B3
:101E000067E070E04CC08BE28093ED1464E070E01A
:101E100046C086E48093ED1463E270E040C088E140
:101E20008093ED1464E070E03AC083E28093ED1497
:101E300063E270E034C08DE38093ED1493709330CF
:101E400049F564E070E02BC082E08093ED1464E01B
:101E500070E025C083E38093ED1463E270E01FC05F
:101E600084E08093ED149923C4F463E270E017C01A
:101E70008CE08093ED1464E070E011C08AE28093FE
:101E8000ED1464E070E00BC088EC8093ED146BE41B
:101E900070E005C063E270E002C067E070E00091AE
:101EA000ED14055025E0A601CF010E94DF03982F15
:101EB000915D953008F0182FF6018081F70180833D
:101EC000118280910001882309F41FC10E94091D1D
:101ED000182F1BC180910001882381F084E0F60156
:101EE000808381E1818383E3828383E4838384E04D
:101EF00090E0F7019183808310E007C1C6010E9442
:101F0000A103182FF6018081F70180831182FDC0A3
:101F1000AE014D5F5F4FBE016F5F7F4F02960E9423
:101F2000EF10182F8111F1C06B817C8189810E9493
:101F3000F51C182FEAC0AE014D5F5F4FBE016F5F09
:101F40007F4F02960E94EF10182F8111DEC0F6011C
:101F50001082EB81FC81B60180810E94FF1C182F4A
:101F6000F6018081F70180831182CFC0809100014A
:101F7000882331F0C6010E94A103182F8111C5C02A
:101F80000E94131D182FC1C0809100018111B6C09D
:101F90000E94091D182FB9C0AE014D5F5F4FBE01F1
:101FA0006F5F7F4F02960E94EF10182F8111ADC016
:101FB000EB81FC81808180930001A7C06AE370E01F
:101FC00001960E94DC22009709F49AC0FC0121814D
:101FD000293609F472C050F4243609F46AC0253653
:101FE00009F463C0233609F08DC00CC02337C1F15A
:101FF000273721F0223709F085C017C00E94EB1C5B
:10200000182F83C0AE014D5F5F4FBE016F5F7F4FE2
:1020100002960E94EF10182F811177C06B817C818E
:1020200089810E94F51C182F70C0AE014D5F5F4F73
:10203000BE016F5F7F4F02960E94EF10182F811133
:1020400064C0F6011082EB81FC81B60180810E94A0
:10205000FF1C182FF6018081F7018083118255C083
:10206000FC012281293759F4B60184E00E94E11C69
:10207000182FF6018081F7018083118246C0AE01DE
:102080004D5F5F4FBE016F5F7F4F02960E94EF1062
:10209000182F811106C0EB81FC8180810E94C91C30
:1020A00034C00E94131D182F30C00E94D11C10E0B4
:1020B0002CC00E94D91C10E028C06AE370E0019691
:1020C0000E94DC22009781F0FC018181893629F48D
:1020D00082E00E94FE1B182F18C08337A9F483E00A
:1020E0000E94FE1B182F11C00E94091D182F0DC041
:1020F00010E00BC010EC09C0182F07C010E005C09D
:1021000010E003C010EC01C010E0812F0F900F9081
:102110000F900F90DF91CF911F910F91FF90EF9053
:10212000DF90CF9008958F708A3010F4805D08950D
:10213000895C0895982F80538A3060F081518630F1
:1021400010F4865F0895892F8156863010F4865FDB
:10215000089580E00895BF92CF92DF92EF92FF92B0
:102160000F931F93CF93DF936C0182E0C816D104C5
:1021700028F1C114D10429F1EB0121967B0100E083
:1021800010E0FE01319780810E949A10B82EBB0C9E
:10219000BB0CBB0CBB0CF701B08288810E949A106B
:1021A0008B29F70181937F010F5F1F4F22969801C2
:1021B000220F331F2C153D0520F305C000E010E071
:1021C00002C000E010E0802F912FDF91CF911F918E
:1021D0000F91FF90EF90DF90CF90BF900895CF9236
:1021E000DF92EF92FF920F931F93CF93DF93EC0157
:1021F0008B017A01009781F16115710579F1411523
:10220000510571F168E270E00E94DC226C010097D8
:1022100049F169E270E00E94DC22009769F4EC2F3A
:10222000FD2FDF010D900020E9F71197CD018E1BE6
:102230009F0B8C0F9D1F01C00197B6016F5F7F4FF1
:10224000F701718360838C199D090E94AB10F8011E
:102250009183808380E007C083EC05C083EC03C0DA
:1022600083EC01C083ECDF91CF911F910F91FF9020
:10227000EF90DF90CF900895EBEEF0E090819160C9
:1022800090838093EC00EDEEF0E080818270682B0B
:1022900060838081826080838091EE00881F882720
:1022A000881F08951092E9008091EB0080FD07C01F
:1022B0001092E90060E282E00E943C11089580E003
:1022C000089585E59AEAAAEAB5E5809346159093C4
:1022D0004715A0934815B093491585E00E949C11BD
:1022E000FFCF8091461590914715A0914815B09168
:1022F000491585359A4AAA4AB54569F4109246159A
:10230000109247151092481510924915E09101015D
:10231000F0910201099508958FB7F89497EF94BF53
:1023200098E10FB6F89490936000109260000FBE91
:1023300088230CF4789408959FB79078F89427EF49
:1023400024BF83FF02C028E201C028E08770822BEF
:1023500028E130E00FB6F894A895209360000FBEF6
:1023600080936000992309F078940895E8EDF0E0F7
:1023700080818F7680838081806980838081806185
:10238000808378940895E8EDF0E080818062808316
:1023900086E189BD09B400FEFDCFF894E8EDF0E0D8
:1023A00080818F7D8083E0EEF0E080818E7F80836E
:1023B0000E945211E2EEF0E0808181608083808192
:1023C00088608083789408958091D90080FF1CC034
:1023D0008091E902811118C081E08093E902809127
:1023E000EB029091EC0282609093EC028093EB02FE
:1023F000E8EDF0E08081806980830E94C311E0EE07
:10240000F0E080818E7F80838091D90080FD1BC0A9
:102410008091E9028130B9F41092E9021092F5142A
:102420008091EB029091EC0284609093EC02809397
:10243000EB02E0EEF0E0808181608083E8EDF0E087
:102440008081806280838091EB029091EC0290FF0A
:1024500010C08091EB029091EC029E7F9093EC0271
:102460008093EB02EAEEF0E081E08083108210922C
:10247000F5141092E9008091E80083FD0E9441125A
:1024800008950F931F93CF93DF9300D0CDB7DEB79E
:10249000E8EEF0E080818B7F8083E1EFF0E0108157
:1024A00000810630E1F060F4013009F40AC108F45B
:1024B00085C1033009F446C1053009F008C2D1C016
:1024C000093009F4EAC020F4083009F000C2ABC0BA
:1024D0000A3009F4B1C10B3009F0F9C1D8C1103884
:1024E00009F0F5C1E1EFF0E060818081813019F001
:1024F0008230A9F40AC082E18093F6148FED90E057
:102500009093F8148093F7140FC083E48093F6142B
:102510008CE990E09093F8148093F71405C00E9422
:102520004116882309F4D3C1E1EFF0E08081808176
:102530008081898380818A83E8EEF0E08081877FD3
:1025400080834091F61489819A81242F30E02817E6
:10255000390728F44F7151E029F050E003C080930F
:10256000F61450E0E8EEF0E080818F7E8083809169
:10257000F6148823D1F18091E80084FF05C035C0AE
:102580008C9184FF05C007C0A8EEB0E021EF30E0D9
:102590008C9180FFF5CF8091F614811104C018C092
:1025A000415011F415C040E2E091F714F091F81495
:1025B000CF0101969093F8148093F7148491F90158
:1025C00080838091F61481508093F6148111E8CFB6
:1025D0008C9184FD0AC08C918E7F8C938091F6142F
:1025E000882319F08C9184FFD3CF513071F48091FE
:1025F000E80084FD0AC0E8EEF0E0808180FFFDCFB6
:10260000E8EEF0E080818E7F8083E8EEF0E080816C
:1026100084FFFDCFE8EEF0E080818F7E80838081B3
:102620008B7F808367C1103809F051C1E8EEF0E07C
:102630008081877F80838091F5148093F100808171
:102640008E7F808380818F778083808182FFFDCF22
:10265000E8EEF0E080818B7F808380818F778083BC
:1026600049C1111134C19091F100E3EEF0E0808195
:102670009F778078892B8083E8EEF0E08081877FE8
:10268000808380818E7F8083808180FFFDCFE3EE19
:10269000F0E08081806880832DC1111118C1809184
:1026A000F100823008F013C1E8EEF0E09081977FEE
:1026B00090838093F51490819E7F90830E94E5150E
:1026C00019C1112321F0123009F001C103C080911A
:1026D000F100FDC0E1EFF0E0808190818111F7C051
:1026E0002091F1002F772093E9008091EB0080FD8D
:1026F00003C01092E900EBC02223A1F0EBEEF0E062
:1027000080818061808381E090E0022E02C0880F8A
:10271000991F0A94E2F7AAEEB0E08C931C92808194
:10272000886080831092E900E22FF0E0E251FB4ED6
:102730001082E8EEF0E08081877F808380818E7F49
:102740008083D8C0112321F0123009F0C0C003C02B
:102750008091F100BCC0E1EFF0E0808190818111B7
:10276000B6C08091F1008F7751F4EBEEF0E09081EC
:1027700090629083E8EEF0E09081977F9083809361
:10278000E9009091EB0090FD03C01092E9009FC01A
:10279000EBEEF0E09081906290831092E900E82FD8
:1027A000F0E0E251FB4E81E08083E8EEF0E08081D2
:1027B000877F808380818E7F80839CC0E1EFF0E003
:1027C000808180818081113879F01238A9F0103829
:1027D00009F07DC0E8EEF0E08081877F8083809102
:1027E000EA028093F10015C0E8EEF0E08081877F77
:1027F00080831092F1000DC0E8EEF0E09081977FA9
:1028000090838F77E82FF0E0E251FB4E8081809338
:10281000F1001092F100E8EEF0E080818E7F80837D
:10282000808182FFFDCFE8EEF0E080818B7F8083A6
:1028300080818F7780835EC0113809F048C0E1EF56
:10284000F0E0808120819081998390819A83811129
:102850003EC021113CC008EE10E0F8018081877F66
:10286000808389819A810E940A168093F100F80181
:1028700080818E7F8083808182FFFDCFE8EEF0E053
:1028800080818B7F808380818F77808333C01130FC
:10289000F1F4E1EFF0E06081808190819983908193
:1028A0009A83811114C008EE10E0F8018081877FBF
:1028B000808389819A810E940C161092E900F801A8
:1028C00080818E7F8083808180FFFDCF13C0602F49
:1028D000812F0E94D31681110DC0EBEEF0E08081B4
:1028E00080628083E8EEF0E08081877F808381E0F2
:1028F0008093EE140F900F90DF91CF911F910F9165
:102900000895E7EDF0E08081816080830E94B61138
:1029100008951F920F920FB60F9211240BB60F92CB
:102920002F933F934F935F936F937F938F939F93D7
:10293000AF93BF93EF93FF938091E10082FF07C0B5
:102940008091E20082FF03C08BEF8093E1008091D1
:10295000E10080FF27C08091E20080FF23C081E07A
:102960008093E802E1EEF0E08FEE80838091EB024D
:102970009091EC0280629093EC028093EB028EEFD8
:102980008083E2EEF0E080818061808380818F7DB2
:102990008083E8EDF0E080818062808389B58D7F5F
:1029A00089BD19BC8091E10084FF38C08091E200AC
:1029B00084FF34C009B400FC05C086E189BD09B4B8
:1029C00000FEFDCFE8EDF0E080818F7D80838FEE0B
:1029D0008093E1008091E802882301F1E2EEF0E0CB
:1029E0008081806280838081886080838FEE809385
:1029F000E10080818F7E80838091EB029091EC02D8
:102A000080649093EC028093EB02808181608083EC
:102A10008081806280838081886080838091E100F2
:102A200085FF1AC08091E20085FF16C01092E8026F
:102A3000E2EEF0E080818F7E80838FED8093E10075
:102A400080818F7D80838091EB029091EC02806881
:102A50009093EC028093EB028091E10083FF12C01F
:102A60008091E20083FF0EC087EF8093E1000E9417
:102A700052118091EB029091EC0291609093EC02E4
:102A80008093EB02FF91EF91BF91AF919F918F9156
:102A90007F916F915F914F913F912F910F900BBE5E
:102AA0000F900FBE0F901F9018958091F5148823FA
:102AB00011F18091F914811117C082E08093E9002F
:102AC0008091E80082FF10C08091F3008091F200B5
:102AD0008093F914811108C0E8EEF0E080818B7FCB
:102AE000808380818F77808381E09091F9149111A8
:102AF00003C080E0089580E0089582E08093E900BB
:102B00008091F914811104C00E9455158823E1F3C6
:102B10008091F1009091F91491509093F9149111D2
:102B200008C0E8EEF0E090819B7F908390819F77D2
:102B300090830895CF93DF932091F514222309F415
:102B400041C0362F3F7121E02093E900662309F14F
:102B5000A8EEB0E0C1EFD0E02C9125FFFDCF2C9185
:102B600025FF0FC0662329F1E82FF92F8191888373
:102B70008E2F9F2F61502C9125FF03C06111F6CF3E
:102B800018C02C912E7F2C932C912F772C936111B0
:102B9000E3CF311117C0E8EEF0E0808185FFFDCF73
:102BA000E8EEF0E080818E7F808380818F77808364
:102BB00009C0E8EEF0E080818E7F808380818F778E
:102BC0008083E7CFDF91CF9108951F93CF93DF9359
:102BD000C9EED0E083E0888360E281EC0E943C1182
:102BE00081E0888360E281E80E943C1112E0188352
:102BF00060E280E80E943C11EAEEF0E088E0808329
:102C000010821083108284E080831082DF91CF9144
:102C10001F91089580E00895CF93DF93009789F482
:102C200083E08093E900EBEEF0E0808180618083B7
:102C3000AAEEB0E088E08C931C928081886080834B
:102C40001DC00197D9F4C9EED0E081E08883EBEE96
:102C5000F0E0808180618083AAEEB0E082E08C9316
:102C60001C929081986090838883808180618083AA
:102C700084E08C931C92808188608083DF91CF9167
:102C80000895833069F461110DC084E08093F614D7
:102C900088E990E09093F8148093F71481E0089508
:102CA00080E0089580E00895CF93DF93A8EEB0E030
:102CB0008C91877F8C93CAEFD4E18881E1EFF0E0BB
:102CC0008083898180838A8180838B8180838091C6
:102CD000FE1480838091FF1480838091001580838F
:102CE0008C918E7F8C93E8EEF0E0808180FFFDCFA9
:102CF000E8EEF0E0808182FFFDCFE8EEF0E0808139
:102D00008B7F808380818F778083DF91CF9108953F
:102D1000E8EEF0E08081877F8083808182FFFDCFB5
:102D2000E1EFF0E08081AAEFB4E18C93808111960D
:102D30008C931197808112968C93129780811396B1
:102D40008C9380818093FE1480818093FF14808116
:102D500080930015E8EEF0E080818B7F8083808196
:102D60008F77808380818E7F8083808180FFFDCFFD
:102D70000895E8EEF0E09081977F908390819E7FA8
:102D8000908380930115808180FFFDCF0895E8EE48
:102D9000F0E08081877F808380818E7F8083808147
:102DA00080FFFDCF0895CF93DF9300D0CDB7DEB77E
:102DB000E1EFF0E09081998390819A838132B1F4C0
:102DC000623241F0633261F0603281F40E94881611
:102DD00081E017C089819A810E94B91681E011C0F3
:102DE00089819A810E94C71681E00BC0813A31F433
:102DF000613231F40E94541681E003C080E001C0CA
:102E000080E00F900F90DF91CF9108950E941807F6
:102E100008950E94350708950E940B070895EF92C8
:102E2000FF920F931F93CF93DF9300D000D0CDB7C5
:102E3000DEB7E82E8A0196E0998392E09A837B833D
:102E40006C830E941207BE016F5F7F4F81E00E947A
:102E50004207F82E0E941507F11012C00E941207B7
:102E6000BE016E5F7F4F83E00E944207F82E811102
:102E700005C0B8018E2D0E944207F82E0E9415074A
:102E80008F2D0F900F900F900F90DF91CF911F918A
:102E90000F91FF90EF900895EF92FF920F931F9381
:102EA000CF93DF9300D01F92CDB7DEB7E82E8A0113
:102EB00093E099837A836B830E941207BE016F5F50
:102EC0007F4F83E00E944207F82E811105C0B801B0
:102ED0008E2D0E945F07F82E0E9415078F2D0F90F0
:102EE0000F900F90DF91CF911F910F91FF90EF9076
:102EF000089580E008950F931F93CF93DF931F925F
:102F0000CDB7DEB7082F8091EE02802B89830E9417
:102F10002B06182F811112C0BE016F5F7F4F81E019
:102F20000E945C06182F882349F00E944606183F2D
:102F300029F4013011F411EA01C010EA812F0F9039
:102F4000DF91CF911F910F9108950E94140680EA9E
:102F50008093EE0208950E94230608958E7F809349
:102F6000EE0280E00895EF92FF920F931F93CF93AC
:102F7000DF9300D0CDB7DEB7E82E8A0179836A836C
:102F800080E00E947B17F82E81111BC0BE016F5F8D
:102F90007F4F82E00E945C06F82E882319F00E9481
:102FA00046060FC0EE2051F0B8018E2D0E945C063F
:102FB000F82E882319F00E94460603C00E94460698
:102FC000F82E8F2D0F900F90DF91CF911F910F91C1
:102FD000FF90EF900895EF92FF920F931F93CF937E
:102FE000DF9300D0CDB7DEB7E82E8A0179836A83FC
:102FF00080E00E947B17F82E811117C0BE016F5F21
:103000007F4F82E00E945C06F82E882319F00E9410
:1030100046060BC081E00E947B17F82E811105C087
:10302000B8018E2D0E94AD06F82E8F2D0F900F90B7
:10303000DF91CF911F910F91FF90EF9008951F9313
:10304000CF93DF931F92CDB7DEB78FEF89830E94B6
:103050002B06882371F00E9423060E9414060E940A
:103060002B06182F882371F00E9423060E94140655
:1030700009C0BE016F5F7F4F81E00E945C060E9425
:103080004606182F812F0F90DF91CF911F91089541
:103090000E9481147894089581E09091F514911123
:1030A00080E00895CF92DF92EF92FF921F93CF932B
:1030B000DF93EC01029904C081E08093EF0206C027
:1030C0008091EF02813011F41092EF020E94E4111E
:1030D0000E945515882309F443C08091ED0288238E
:1030E00009F439C013E00F2EFFE7CF2EFAE1DF2EEF
:1030F000F6E0EF2EF12CF02D0E948407D701C601D7
:103100000197A109B109000001F0D1F7C8950000AD
:103110000E948807D701C6010197A109B1090000E3
:1031200001F0D1F7C8950000115031F7E0EEF0E062
:103130008081816080838FED92E2A2E0B0E0019710
:10314000A109B109000001F0D1F7C8950000109263
:10315000ED020E9461110E947D15888381E001C00B
:1031600080E0DF91CF911F91FF90EF90DF90CF90A3
:103170000895282FCB01622F0E949A1508959091EF
:10318000F002891758F4282F30E0220F331F220F46
:10319000331F220F331F2B5D3A4E02C020E030E078
:1031A000822F932F0895FF920F931F93CF93DF9356
:1031B00000D0CDB7DEB78C01FC018081982F9450F0
:1031C0009032B0F4F82EFA94FA94AE014F5F5F4F4C
:1031D000B8018F2D0E943003F801EF0DF11D2981F8
:1031E0003A81808191812817390721F480E003C05A
:1031F00084EE01C085EE0F900F90DF91CF911F916B
:103200000F91FF9008951F93CF93DF9300D000D0CC
:103210001F92CDB7DEB78D838091F002843008F025
:1032200043C08D818A838FEF8B8380EF8C830E94D4
:103230002B06BE016E5F7F4F83E00E945C06182F55
:10324000882319F00E94460630C08D8181608D83ED
:103250000E942B06BE016B5F7F4F81E00E945C06DF
:10326000182F882319F00E9446061FC0BE016F5F09
:103270007F4F81E00E94AD06182F811112C0E091AE
:10328000F002F0E0EE0FFF1FEE0FFF1FEE0FFF1F2B
:10329000EB5DFA4E8D818E7F828382E0808388E0B1
:1032A00081830E94460601C010E0812F0F900F908D
:1032B0000F900F900F90DF91CF911F9108951F9362
:1032C000CF93DF93CDB7DEB72E970FB6F894DEBF5E
:1032D0000FBECDBF8E878091F002843008F0ACC065
:1032E0008E85898383E08A8384E08A8781E18B8766
:1032F00083E38C8783E48D870E942B06182F81112E
:10330000A0C08E8581608E87BE01625F7F4F81E0A5
:103310000E945C06182F882319F00E94460691C06F
:10332000BE016D5F7F4F84E00E94AD06182F8111B2
:1033300088C044E050E0BE01665F7F4FCE01039637
:103340000E94B422282F392F232B09F077C00E9426
:103350002B06182F811175C0BE016F5F7F4F82E071
:103360000E945C06182F882319F00E94460669C047
:1033700063E071E087E00E945C06182F0E94460619
:1033800011115FC08FE39FE10197F1F7000000C0CA
:103390000E942B06BE01625F7F4F81E00E945C06A7
:1033A000182F882319F00E9446064BC0BE016D5F9E
:1033B0007F4F87E00E94AD06182F811142C081E047
:1033C0008A830E942B06BE016F5F7F4F82E00E94BE
:1033D0005C06182F0E944606CE0103960E94D31861
:1033E00081112EC02091F00230E0F901EE0FFF1F95
:1033F000EE0FFF1FEE0FFF1FEB5DFA4E8E858E7FE7
:10340000828382E080834C815D816E817F814483F1
:103410005583668377838681811102C087E001C06E
:1034200089E0220F331F220F331F220F331FF901B0
:10343000EB5DFA4E818305C010E003C010EF01C0C0
:1034400010EF812F2E960FB6F894DEBF0FBECDBFC2
:10345000DF91CF911F9108958091F0028430A0F503
:103460000E9414060E94F12180EC0E945F198111D4
:103470000AC081E00E9498078091F0028F5F8093DC
:10348000F002843010F588EC0E945F1981110AC0A7
:1034900081E00E948C078091F0028F5F8093F002A0
:1034A000843098F480EA0E94031981110AC081E0F7
:1034B0000E9492078091F0028F5F8093F002843027
:1034C00020F48091F002089580E008952F923F92B9
:1034D0004F925F926F927F928F929F92AF92BF9224
:1034E000CF92DF92EF92FF920F931F93CF93DF93D0
:1034F000CDB7DEB727970FB6F894DEBF0FBECDBFAE
:103500008091F002882349F080912615883019F4C3
:103510000E94991C02C00E94D91C1092F00280E205
:10352000E5E2F5E1DF011D928A95E9F70E942C1A88
:103530008091F002882309F4DAC0B0902515F12CAF
:103540000F2EFFE82F2E33243394F02D4424439480
:10355000512C4C0E5D1E6F2C712CF301EE0FFF1FD2
:10356000EE0FFF1FEE0FFF1FEB5DFA4E81818730DC
:1035700019F0893009F06CC08B2D0E94FE1B0E944F
:10358000D11CB2E0BB120BC0F301EE0FFF1FEE0F18
:10359000FF1FEE0FFF1FEB5DFA4E82810AC0F301A1
:1035A000EE0FFF1FEE0FFF1FEE0FFF1FEB5DFA4E3A
:1035B00083810E94C91C82E095E10E94A1038823B7
:1035C00071F00E94131D0E94D91C1092F00280E23B
:1035D000E5E2F5E1DF011D928A95E9F737C0C10107
:1035E0000197F1F7000000C082E095E19F938F936F
:1035F000B7E0BF935F924F92BF93812C912CA12C87
:10360000C12CD12CE12C00E010E020E040E050E0A3
:1036100060E080E30E94B504182F0E94131D0F90F4
:103620000F900F900F900F900F90112309F458C036
:103630000E94D91C1092F002F301EE0FFF1FEE0F53
:10364000FF1FEE0FFF1FEB5DFA4E1082B12C50C032
:103650008B2D0E94981B0E94911C82E0B8120BC017
:10366000F301EE0FFF1FEE0FFF1FEE0FFF1FEB5DCD
:10367000FA4E82810AC0F301EE0FFF1FEE0FFF1F0B
:10368000EE0FFF1FEB5DFA4E83810E94A11C62E0EA
:1036900075E186E00E940903882389F00E94991C45
:1036A0001092F002F301EE0FFF1FEE0FFF1FEE0F5F
:1036B000FF1FEB5DFA4E10821182B12C19C0F3018D
:1036C000EE0FFF1FEE0FFF1FEE0FFF1FEB5DFA4E19
:1036D000A4E0B5E18C918683A5E0B5E18C91878368
:1036E000F3948091F002F81608F435CF01C0B12CA4
:1036F0008B2D27960FB6F894DEBF0FBECDBFDF919E
:10370000CF911F910F91FF90EF90DF90CF90BF90DE
:10371000AF909F908F907F906F905F904F903F9071
:103720002F900895ECEBF0E080818B7F80830895EB
:10373000CF93C82F80912A018C1709F45AC0C23048
:1037400039F50E94091725EA37E1309329012093C2
:1037500028012BEA37E130932701209326012EEA36
:1037600037E130932501209324012FE138E1309394
:103770002301209322012BEE37E130931F01209388
:103780001E0123EB37E1309321012093200128C053
:10379000C13089F50E94AB1786E097E1909329012B
:1037A0008093280189E097E1909327018093260177
:1037B0008CE097E1909325018093240189E797E1BC
:1037C00090932301809322012CE437E130931F0171
:1037D00020931E012FE037E1309321012093200137
:1037E000C0932A01E0912801F0912901099580E018
:1037F00003C083EC01C083ECCF910895CF93C82F11
:1038000080912A018C1709F487C0C230E9F50E9423
:10381000EF1F2BEE31E230931D0120931C0182E952
:103820009BE190931B0180931A0148EE51E2509363
:10383000190140931801309317012093160121EFCD
:1038400031E2309313012093120122E032E23093EF
:103850001101209310012AE232E230930F012093EC
:103860000E0128E032E230930D0120930C012CE18F
:1038700032E230930B0120930A0126E532E23093C5
:103880001501209314013FC0C33009F047C00E94C6
:10389000921B81E291E290931D0180931C012FEE17
:1038A0003FE130931B0120931A0124E231E230936F
:1038B00019012093180190931701809316018CE64B
:1038C00091E2909313018093120187E291E2909329
:1038D0001101809310018EE391E290930F01809388
:1038E0000E018AE791E290930D0180930C018EE71F
:1038F00091E290930B0180930A0182E891E2909308
:10390000150180931401C0932A01E0911C01F091EC
:103910001D01099580E003C083EC01C083ECCF91C9
:103920000895E0912801F0912901309709F0099557
:103930000895E0912601F0912701309709F009954B
:103940000895E0912401F0912501309711F0099537
:10395000089584EC0895E0911E01F0911F013097C5
:1039600011F00995089584EC0895E0912001F091FB
:103970002101309711F00995089584EC0895E091A4
:103980002201F0912301309711F00995089584ECFC
:103990000895E0911801F0911901309709F0099507
:1039A0000895E0911601F0911701309709F00995FB
:1039B0000895E0911A01F0911B01309709F00995E3
:1039C0000895E0911401F0911501309711F00995D7
:1039D000089584EC0895E0911201F091130130975D
:1039E00011F00995089584EC0895E0911001F0918B
:1039F0001101309711F00995089584EC0895E09134
:103A00000E01F0910F01309711F00995089584ECA3
:103A10000895E0910C01F0910D01309711F0099596
:103A2000089584EC0895E0910A01F0910B0130971C
:103A300011F00995089584EC0895CF93DF9300D099
:103A400000D0CDB7DEB7E1E6F0E080E880831082F9
:103A50000E948C110E94711111E01093F1020E94DA
:103A60007A070E9484070E94481888EE93E00E941B
:103A700037080E9488071093DC020E9470089C831C
:103A80008B8303EF12E00F2EF4EFAF2EF2E0BF2E88
:103A9000F02D0F2EF8EECF2EF3E0DF2EF02D0F2EAF
:103AA000F0EDEF2EF7E0FF2EF02D0E944C1888234A
:103AB00019F00E94E41130C0F8018081882381F060
:103AC0008091DB02882361F090904515F50180819B
:103AD000809345150E94091D909245151092DB02B6
:103AE0008B819C810E9452188823B1F0BE016D5FCA
:103AF0007F4F81E00E94D909882371F0CE010196A1
:103B00000E94F908BC0189819A810E94B91880E05D
:103B10000E9479089C838B838091DC02882329F2A0
:103B200081E09091F102911180E08093F1020E9476
:103B30004C18882319F08E2D9F2D02C08C2D9D2DA1
:103B40000E944D0880912B01882309F4AECF0E947A
:103B5000661AABCF682F80E090E00E941023089592
:103B600080E090E00E94082308958F929F92AF9288
:103B7000BF92CF92DF92EF92FF920F931F93CF935A
:103B8000DF93CDB7DEB72C970FB6F894DEBF0FBE2C
:103B9000CDBFCB015A01690121E030E03A8329838E
:103BA00028E0E4E8F2E0DE01159601900D922A95F6
:103BB000E1F76AE370E00E94DC227C01009709F4DF
:103BC000C3C181E0D8018C93F7018181863609F465
:103BD00045C020F4843609F094C1CCC08D3609F478
:103BE0006BC1863709F08DC10E94661AF82E81E0FC
:103BF000F11080E080932B016CEF70E0C6010E9411
:103C0000A022FF2009F4A2C180E00E94BF188C010D
:103C1000DC0111968C91873031F463E171E0C601CB
:103C20000E949522A4C1883031F46BE071E0C60196
:103C30000E9495229CC1893009F099C163E071E02E
:103C4000C6010E94952293C1D80112968C9103C09F
:103C5000D80113968C91808310E067C1AE014D5F4F
:103C60005F4FBE016F5F7F4FC7010E94EF10182F9B
:103C700081114BC184E090E09A838983EB81FC81C0
:103C80008081813011F138F0823009F43FC08330F7
:103C900009F03EC155C061EF70E0C6010E94A0224C
:103CA000EC2DFD2DDF010D900020E9F711977D012E
:103CB000EE1AFF0A49815A81C701019661E271E05B
:103CC0008C0D9D1D0E948C2230C163E171E0C60104
:103CD0000E94A022EC2DFD2DDF010D900020E9F7C0
:103CE00011977D01EE1AFF0A99800A810E94EE0564
:103CF00097012F5F3F4F2C0D3D1D492D502F682FF1
:103D0000792F822F932F0E94C1220FC16BE071E0A7
:103D1000C6010E94A022EC2DFD2DDF010D90002098
:103D2000E9F711977D01EE1AFF0A49815A81C7010F
:103D300001966EE171E08C0D9D1D0E948C22F5C0F4
:103D400063E071E0C6010E94A022EC2DFD2DDF0191
:103D50000D900020E9F711977D01EE1AFF0A4981C5
:103D60005A81C70101966BE171E08C0D9D1D0E9487
:103D70008C22DBC0F70182818F3369F482E090E00E
:103D80009A83898380912B01D60111968C93E12C23
:103D9000F12C10E0CAC0AE014D5F5F4FBE016F5FF6
:103DA0007F4FC7010E94EF10182F8111B5C0F70196
:103DB0008281893641F4EB81FC81808180932B01E3
:103DC000E12CF12CB2C00E94661A082F91E08111FB
:103DD00090E090932B01EB81FC8180810E94BF18C1
:103DE0004C01009709F49BC0DC0111969C9197301F
:103DF00049F018F49923C1F01EC0983049F0993069
:103E0000D1F40CC063E171E0C6010E94A0221BC086
:103E10006BE071E0C6010E94A02215C063E071E072
:103E2000C6010E94A0220FC06D817E81C6010E9442
:103E3000E72215EC08C08FE0E5E9F2E0D601019039
:103E40000D928A95E1F7F401808181110BC0EC2D70
:103E5000FD2DDF010D900020E9F711977D01EE1A8D
:103E6000FF0A63C0E02FF0E0EE0FFF1FEC0FFD1F15
:103E700065817681C6010E94D122EC2DFD2DDF01E6
:103E80000D900020E9F711977D01EE1AFF0A898154
:103E90009A8101969A838983F7013196EC0DFD1D75
:103EA000D4018C91823019F412968C9103C0D40104
:103EB00013968C91808339C0AE014D5F5F4FBE0178
:103EC0006F5F7F4FC7010E94EF10182FF7018281AB
:103ED000873619F0833739F50CC081E090E0D501C1
:103EE0008D939C930E94B01DF6018083E12CF12CF0
:103EF0001CC0EB81FC8180810E94AA1DE12CF12C69
:103F000014C0E12CF12C10EC10C0E12CF12C0DC0F0
:103F1000E12CF12C13EC09C0E12CF12C06C0E12CB2
:103F2000F12C15EC02C0E12CF12CB6016E0D7F1DB9
:103F3000DB011C9389819A810E9488088E0D9F1D48
:103F4000F5019183808337C010EC35C06D817E818F
:103F5000C6010E94D122EC2DFD2DDF010D90002025
:103F6000E9F711977D01EE1AFF0A10E0DECFEF2D81
:103F7000F0E0EE0FFF1FEC0FFD1F65817681C6019B
:103F80000E94D122EC2DFD2DDF010D900020E9F7DC
:103F900011977D01EE1AFF0A89819A8101969A8311
:103FA0008983F7013196EC0DFD1DD8018C9182308B
:103FB00009F04ECE49CE812F2C960FB6F894DEBF75
:103FC0000FBECDBFDF91CF911F910F91FF90EF906A
:103FD000DF90CF90BF90AF909F908F900895E09129
:103FE0002C01F0912D01908180912E0180959823D4
:103FF0009083E0912F01F09130019081892380839B
:1040000080E00895843030F58093F20290E0FC0166
:10401000E254FD4F208120932E01880F991FFC014F
:10402000EE53FD4F208131813093300120932F01D9
:10403000FC01E653FD4F2081318130933201209302
:104040003101FC01EE52FD4F8081918190932D0151
:1040500080932C0108950895E0912C01F0912D0199
:10406000208190912E01292B2083882341F0E0911B
:104070002F01F09130018081982B90830895E09179
:104080002F01F091300180819095982390830895BD
:10409000EF92FF920F931F93CF93DF93882309F43E
:1040A00061C0E0912C01F0912D01208190912E01B1
:1040B000922B90839BE39A9501F0E9F7C895F894C9
:1040C000E0912F01F0913001C0912E01DC2FD095AD
:1040D000E62EA62FB72F48E050E0FF24F39460E1CE
:1040E00006E618E739C07C91792379F070817D2349
:1040F0007083762F7A9501F0E9F770817C2B7083BD
:10410000712F7A9501F0E9F71DC070817D237083CE
:10411000762F7A9501F0E9F770817C2B7083762FEA
:104120007A9501F0E9F770817D237083762F7A9577
:1041300001F0E9F770817C2B7083702F7A9501F084
:10414000E9F7C895990F2150310909F0CCCF1196A4
:104150009A2F9E19981718F49A019F2DC4CF78941E
:1041600080E001C082EEDF91CF911F910F91FF900F
:10417000EF900895CF93DF931F92CDB7DEB7898379
:10418000BE016F5F7F4F81E00E9448200F90DF915A
:10419000CF9108951F93CF93DF93E0912C01F0917D
:1041A0002D01908120912E01209592239083F894E7
:1041B000882309F440C0E0913101F091320120914F
:1041C0002E01C62FD72F60E011E05EEF7AE1DE010D
:1041D0001882412F04C03081322319F405C0952F75
:1041E000FACF9150C1F723C03081322319F4915096
:1041F000D9F71DC0972F3081322321F09150D9F784
:1042000009C0932F3081322341F4392F315091115D
:10421000F8CF03C09C91942B9C93440F01F76F5FE0
:1042200021966813D4CF07C086EE789406C061113A
:10423000FBCF81EFFACF80E0F8CFDF91CF911F91D4
:1042400008950E942B2008950E94022008951F9334
:10425000CF93DF93182FEB0180E00E94BA2087E70D
:104260000E94BA20811105C0BE01812F0E94482002
:1042700001C080EFDF91CF911F9108951F93CF93DD
:10428000DF93182FEB01882341F0862FEC2FFD2FB1
:1042900011929E2F981B9117D8F388E80E94BA209C
:1042A000BE01812F0E94CA20882311F0863E39F476
:1042B0008881843040F0181740F484EE09C0813FB3
:1042C00031F487EE05C084EE03C080E001C086EEC5
:1042D000DF91CF911F91089580E00E942C208CE007
:1042E0000E94F10581E00E942C2083E00E940906D3
:1042F00080E008958BEB0E94BA2008958CEC0E9418
:10430000BA2008951F93CF93DF93182FEB0185E513
:104310000E940906BE01812F0E94FF1CDF91CF91F0
:104320001F9108951F93CF93DF931F92CDB7DEB7F0
:1043300090914515892B89830E942B06182F811196
:104340000AC0BE016F5F7F4F81E00E945C06182F9C
:1043500081110E944606812F0F90DF91CF911F910E
:104360000895FF920F931F93CF93DF931F92CDB7C2
:10437000DEB78983F62E8A0180E00E94922188238D
:1043800021F00E94460680EF1CC0BE016F5F7F4F88
:1043900081E00E945C06811111C0F11004C00E94EE
:1043A000460680E00EC0B8018F2D0E945C06182FD3
:1043B0000E944606112321F080EF03C080EF01C068
:1043C00080E00F90DF91CF911F910F91FF900895A2
:1043D0008093451508950E94140688EC8093451536
:1043E00008950E94B0071092F3021092BC00519AF7
:1043F00059988CE00E94F105599A8AEF0E94F105C4
:1044000080E00895AB01682F83E00E94B1210895F8
:104410008091F302811109C00E949E0781E0809380
:10442000F302809145158093F40240E050E060E093
:1044300082E00E94B121089540E050E060E081E018
:104440000E94B121089540E050E060E080E00E94C9
:10445000B12108951F93CF93DF93182FEB0181E0D3
:104460000E949221882319F0883FE1F418C0CE0100
:104470000E949006811115C08881843010F01817B1
:1044800020F40E94460684EE0DC0BE016F5F7F4F90
:1044900081500E94AD06882329F080EF03C087EE8B
:1044A00001C080EFDF91CF911F910895CF93DF93EB
:1044B0001F92CDB7DEB78FEF89830E942B06BE0116
:1044C0006F5F7F4F81E00E945C0681E00E94922135
:1044D000811107C00E944606811105C00E94232257
:1044E00003C080EF01C080EF0F90DF91CF9108955E
:1044F000A29FB001B39FC001A39F01D0B29F700DD6
:10450000811D1124911D08959111089581548A519E
:1045100008F4805E855A0895FB01DC0102C0059015
:104520000D9241505040D8F70895FB01DC010D90E9
:104530000020E9F7119705900D920020E1F708950A
:10454000FB01DC0105900D920020E1F70895FC01CC
:104550004150504030F001900616D1F73197CF010D
:104560000895882799270895FB01DC0104C08D91E7
:104570000190801921F441505040C8F7881B990BD5
:104580000895FB01DC0102C001900D9241505040A2
:10459000D8F70895DC0101C06D9341505040E0F719
:1045A0000895FB01DC010D900020E9F711970190BF
:1045B0000D920020E1F70895FC018191861721F00A
:1045C0008823D9F7992708953197CF010895FB01E2
:1045D000DC0101900D920020E1F70895FB0151915B
:1045E0005523A9F0BF01DC014D9145174111E1F7B9
:1045F00059F4CD010190002049F04D914015411131
:10460000C9F3FB014111EFCF81E090E001970895DC
:10461000F999FECF92BD81BDF89A992780B508958A
:10462000262FF999FECF1FBA92BD81BD20BD0FB6CE
:10463000F894FA9AF99A0FBE01960895F894FFCF6C
:104640000100F00730000000035D1C2208222A222E
:104650000222F1215622EB21E821921BEB21EB17DC
:10466000B3171F18AE17AB17A5170201240080253A
:1046700000230009110000000000718109114000B1
:10468000000000EF82090C00000000000000090E8D
:104690000000000000D99C0910000000000000008C
:1046A0000200000067E6096A85AE67BB72F36E3CE4
:1046B0003AF54FA57F520E518C68059BABD9831FED
:1046C00019CDE05B982F8A4291443771CFFBC0B57A
:1046D000A5DBB5E95BC25639F111F159A4823F92CD
:1046E000D55E1CAB98AA07D8015B8312BE85312426
:1046F000C37D0C55745DBE72FEB1DE80A706DC9BE7
:1047000074F19BC1C1699BE48647BEEFC69DC10F92
:10471000CCA10C246F2CE92DAA84744ADCA9B05CCE
:10472000DA88F97652513E986DC631A8C82703B091
:10473000C77F59BFF30BE0C64791A7D55163CA069F
:1047400067292914850AB72738211B2EFC6D2C4DAB
:10475000130D385354730A65BB0A6A762EC9C28199
:10476000852C7292A1E8BFA24B661AA8708B4BC22F
:10477000A3516CC719E892D1240699D685350EF459
:1047800070A06A1016C1A419086C371E4C77482710
:10479000B5BCB034B30C1C394AAAD84E4FCA9C5B86
:1047A000F36F2E68EE828F746F63A5781478C884D7
:1047B0000802C78CFAFFBE90EB6C50A4F7A3F9BEB9
:1047C000F27871C6A402AF02B402B902737700692D
:1047D0003200737000756E6B6E6F776E5F64657616
:1047E000696365006E6F5F64657669636520005379
:1047F0005049200054574920005357492000804019
:1048000004022500250025002B002300230023009F
:0A48100029002400240024002A00DF
:00000001FF
