:100000000C94BA000C94D9000C94D9000C94D9002B
:100010000C94D9000C94D9000C94D9000C94D900FC
:100020000C94D9000C94D9000C94C3150C94D900ED
:100030000C9489080C94D9000C94D9000C94D90024
:100040000C94D9000C94D9000C94D9000C94D900CC
:100050000C94D9000C94D9000C94D9000C94E307AB
:100060000C94D9000C94D9000C94D9000C94D900AC
:100070000C94D9000C94D9000C94D9000C94D9009C
:100080000C94D9000C94D9000C94D9000C941D0840
:100090000C94D9000C94D90006FFFF0901A10109B5
:1000A000020903150026FF00750895408102090426
:1000B0000905150026FF00750895409102090609FB
:1000C00007150026FF0075089504B102C004030956
:1000D000042603430072007900700074006F002052
:1000E000004400650076006900630065002000445C
:1000F0000065006D006F000C03410054004D004589
:10010000004C0009022900010100803209040000AE
:10011000020300000009211101000122350007053A
:10012000810340001407050203400014120100027D
:1001300000000040EB0312230010010200014154B3
:100140003838434B34393053544B2000434B343907
:10015000302000454343313038200041455331338E
:1001600032200053484132303420000001000101A8
:100170000001000311241FBECFEFD0E2DEBFCDBFD0
:1001800012E0A0E0B1E0EAE0F9E400E00BBF02C059
:1001900007900D92AA3DB107D9F725E1AAEDB2E08B
:1001A00001C01D92AD33B207E1F70E94801E0C948E
:1001B00083240C940000BF92CF92DF92EF92FF92C3
:1001C0000F931F93CF93DF93882391F1B62EE62FE1
:1001D000F72FA0E090E068E070E06894CC24C7F8C6
:1001E0000F2EF5E0EF2EF02DFF24F394D12C1CC040
:1001F000DA2FDD1FDD27DD1FC92FCC1FCC27CC1F39
:10020000990FAA0FAC2B1B2F1023CF2D09F4CD2D46
:10021000CD1711F09E25A058B6952150310941F710
:100220002E2F2B19281730F401919B01BC2DE0CF04
:10023000A0E090E0FA01A0839183DF91CF911F911C
:100240000F91FF90EF90DF90CF90BF90089540E026
:1002500050E060EE7FEF80E00E94181E08950E943B
:10026000221E811102C00E9427010895CF93DF93BF
:10027000EC01AC0160EF7FEF81E00E940E1E88234D
:1002800031F0AE0160EF7FEF81E00E940E1EDF9142
:10029000CF910895EF92FF920F931F93CF93DF9327
:1002A0001F92CDB7DEB7F82EE62E8A0101C0890174
:1002B000AE014F5F5F4F60EF7FEF81E00E940E1E47
:1002C000803A69F0811111C091E0E91205C099816D
:1002D0009F219F1104C009C099819F2131F098018D
:1002E00021503109012B19F787EE0F90DF91CF9143
:1002F0001F910F91FF90EF90089540E659E060E064
:1003000081E00E944A01089548E95DE061E080E4EF
:100310000E944A0108957F928F929F92AF92BF925E
:10032000CF92DF92EF92FF920F931F93CF93DF93C1
:1003300000D0CDB7DEB7B82E8B016894CC24C1F8BD
:100340007B018FEFE81AF80A0F2EF5EE8F2EF02DB5
:100350000F2EF4EEAF2EF02D0F2EF2EA9F2EF02D81
:100360000E948401D82E882319F00E942F0148C0D2
:10037000A80160E07EEF81E00E940E1ED82E882347
:1003800019F00E942F013CC0F8017080B71420F4CE
:100390000E942F01D92C34C0872D8450813320F046
:1003A0000E942F01DA2C2CC0A70160E07EEF872D80
:1003B00081500E940E1ED82E882319F00E942F0112
:1003C0001FC07A947A94AE014F5F5F4FB801872DBA
:1003D0000E94DB00272D30E0F801E20FF31F998126
:1003E000808198130AC0F801E20FF31F9A8181817E
:1003F000981303C0F801D18006C00E942F01D82CA9
:10040000CA9409F0ADCF8D2D0F900F90DF91CF9151
:100410001F910F91FF90EF90DF90CF90BF90AF9022
:100420009F908F907F9008958F929F92AF92BF92EE
:10043000CF92DF92EF92FF920F931F93CF93DF93B0
:1004400000D000D0CDB7DEB7982E8B017A01A22E56
:100450006894BB24B1F86894882481F8C82C0E9461
:100460007D01D82E811125C0A11019C0A701B801A6
:10047000892D0E94181ED82E811119C001151E4FFA
:10048000F0F483E00E943106BE016F5F7F4F84E08D
:100490000E948B01D82E811112C0DA8010C0A701F2
:1004A000B801892D0E940E1ED82E882341F0CA94CF
:1004B000B1F6BA9421F00E942F01D110CFCF8D2D2B
:1004C0000F900F900F900F90DF91CF911F910F9190
:1004D000FF90EF90DF90CF90BF90AF909F908F9064
:1004E000089521E00E941402089520E00E94140261
:1004F0000895AF92BF92CF92DF92EF92FF920F9347
:100500001F93CF93DF931F92CDB7DEB78C01F62EEA
:10051000FC01D08060FD0BC04D2D50E042505109D0
:10052000480F591FBC018D2D82500E94DB0068943A
:10053000EE24E1F86894BB24B1F8BF200F2EF4ED4F
:10054000AF2EF02DA80160E07EEF8D2D0E94750288
:10055000F82E81111AC0B1101AC0AE014F5F5F4F63
:1005600060EF7FEF81E00E940E1EC82E811105C052
:10057000898184FD09C0FC2C0AC0F0EA8F1739F08C
:100580000E942F01FC2C03C0FA2CEA94D9F68F2D7F
:100590000F90DF91CF911F910F91FF90EF90DF901F
:1005A000CF90BF90AF9008951F93CF93DF93CDB7B7
:1005B000DEB762970FB6F894DEBF0FBECDBF182F1F
:1005C00099E0E3E3F1E0DE01119601900D929A9536
:1005D000E1F799E0ECE3F1E0DE011A9601900D926B
:1005E0009A95E1F70E94270181110DC0111106C0F3
:1005F00063E0CE0101960E94790205C063E0CE015E
:100600000A960E94790262960FB6F894DEBF0FBE7A
:10061000CDBFDF91CF911F91089580E40E94D40255
:10062000089580E00E94D4020895FF920F931F93D3
:10063000CF93DF93162FF42EE901602F0E947902E9
:10064000811109C0112319F0812F0E943106BE01CA
:100650008F2D0E948B01DF91CF911F910F91FF9001
:1006600008950F93CF93DF93CDB7DEB729970FB6D9
:10067000F894DEBF0FBECDBF9B0199E0E5E4F1E049
:10068000DE01119601900D929A95E1F78D8300E0BD
:1006900046E060E0CE0101960E94150329960FB650
:1006A000F894DEBF0FBECDBFDF91CF910F910895BB
:1006B000CF92DF92EF92FF920F931F93CF93DF932E
:1006C000882341F1C62EE62FF72F20E030E0A8E086
:1006D000B0E0DD24D394FD2CE12C18C0D32FDD1F16
:1006E000DD27DD1F220F331F192F1023CF2D09F413
:1006F000CE2DCD1719F0C5E02C273058990F615039
:10070000710961F79E2F9C19981730F40191BD0172
:100710009D2DE4CF20E030E0FA0120833183DF918A
:10072000CF911F910F91FF90EF90DF90CF900895A0
:10073000FF920F931F93CF93DF9300D0CDB7DEB717
:100740008C01FC01F080FA94FA94AE014F5F5F4F88
:10075000BC018F2D0E9458038F2D90E0F801E80F07
:10076000F91F39812081321309C0F801E80FF91F00
:100770009A818181981721F085EE03C085EE01C032
:1007800080E00F900F90DF91CF911F910F91FF901C
:1007900008951F93CF93DF93EC010E944E1E182FF4
:1007A00081111EC0BE0184E00E94621E182F8111BB
:1007B00017C08881843051F48981813149F48A815C
:1007C000833341F48B81833439F40AC014EE05C0BD
:1007D00010EF03C015EE01C015EE86E40E9431064D
:1007E000812FDF91CF911F910895CF93DF93EB017C
:1007F0000E94441E882341F00E94761ECE010E9472
:10080000C903811101C088EEDF91CF9108952F9225
:100810003F924F925F926F927F928F929F92AF9290
:10082000BF92CF92DF92EF92FF920F931F93CF93DD
:10083000DF9300D000D01F92CDB7DEB74C01762EEB
:100840005A01322EFC015080E52DE250202F30E07D
:10085000A8EEB3E00E94DD230F2EF5E2CF2ED12CBF
:10086000E12CF12CF02DC60ED71EE81EF91EA401B6
:100870004E0F511DB4018E2F0E9458030F2EF3E02E
:100880006F2EF02D10EE6894222421F80A2D72C0EC
:10089000B401852D0E94581E182F882341F0B50100
:1008A000872D0E94F503873E09F064C06DC0832D3B
:1008B0000E943106422C57C011928E2F801B871543
:1008C000D8F3C982DA82EB82FC82B501872D0E94BF
:1008D000621E182F89819A81AB81BC818597A109FD
:1008E000B10989839A83AB83BC8389819A81AB8167
:1008F000BC818697A105B10518F0173E31F30BC0F6
:100900001D83173E41F4B501872D0E94F503873EF4
:10091000B1F11D812FC0143E49F4B501872D0E940D
:10092000F5038823F1F0883E29F12EC0C5010E940D
:100930009803182F81110CC0F5018081853020F5B6
:1009400081818330F1F08F30F1F08F3F91F01CC046
:10095000B501872D0E94F503882319F0883E51F0D8
:1009600013C04A9439F0772009F4ABCFEA2DFB2D60
:10097000A3CF14ED6A9441F011118ACF05C01D81F7
:1009800003C012ED01C013ED812F0F900F900F9057
:100990000F900F90DF91CF911F910F91FF90EF90EB
:1009A000DF90CF90BF90AF909F908F907F906F908F
:1009B0005F904F903F902F9008952F923F924F92CB
:1009C0005F926F927F928F929F92AF92BF92CF92DF
:1009D000DF92EF92FF920F931F93CF93DF9300D09C
:1009E000CDB7DEB7688C798C863109F464C0A0F489
:1009F000883009F455C038F4813009F469C0823078
:100A000009F096C078C0823109F489C0853149F176
:100A1000813109F08DC02FC08C3109F48EC030F4C3
:100A20008731A1F18B3109F083C05AC0883231F08F
:100A3000803371F0803209F07BC068C06894BB24B9
:100A4000B2F89AE19A830F2EFCE0FF2EF02D92C0AF
:100A50000F2EF7E0BF2EF02DE1E0EA83FF24F394A0
:100A600089C06894BB24B2F8F0E2FA830F2EFBE051
:100A7000FF2EF02D7FC00F2EF3E2BF2EF02D9BE254
:100A80009A830F2EFBE1FF2EF02D74C06894BB24D7
:100A9000B2F8E3E1EA830F2EF5E0FF2EF02D6AC0F5
:100AA0000F2EF3E2BF2EF02DF7E1FA830F2EFCE0BC
:100AB000FF2EF02D5FC0633009F049C06894BB245D
:100AC000B2F897E29A830F2EF6E1FF2EF02D52C076
:100AD0006894BB24B2F8E1E0EA83FF24F3944AC0AF
:100AE0000F2EF3E2BF2EF02DF8E2FA830F2EFBE07B
:100AF000FF2EF02D3FC06623ACF50F2EF3E2BF2E84
:100B0000F02D93E09A83FF24F39434C06894BB24BF
:100B1000B2F8E4E0EA836894FF24F3F82BC0689409
:100B2000BB24B2F8F6E2FA836894FF24F2F822C0FC
:100B3000BA8C96E49A83F12C1DC06894BB24B2F859
:100B4000E1E3EA830F2EFEE0FF2EF02D13C00F2EFF
:100B5000F3E2BF2EF02DF7E2FA830F2EF6E1FF2E1F
:100B6000F02D08C00F2EF7E0BF2EF02D93E09A83F2
:100B7000FF24F3949E2D920F9A0D9983995FF301B0
:100B8000908381836283438354832301F5E04F0E76
:100B9000511C222361F0222E312C422F50E0602F75
:100BA000712F842D952D0E942624420C531CEE207B
:100BB00061F00E2D10E04E2D50E06C2D7D2D842D1A
:100BC000952D0E942624400E511EAA2061F00A2D68
:100BD00010E04A2D50E0682D792D842D952D0E942E
:100BE0002624400E511EA201B30189818B5F0E9411
:100BF00058030A812F2D4B8D5C8D6B2DC3010E94F4
:100C000007040F900F90DF91CF911F910F91FF90EC
:100C1000EF90DF90CF90BF90AF909F908F907F909C
:100C20006F905F904F903F902F90089580E691E0F5
:100C30000895CF93DF931F92CDB7DEB7882369F075
:100C40002EE029839981992331F0998191509983DC
:100C500099819111FACF8150A1F70F90DF91CF9137
:100C60000895CF93882331F0C82F88E60E94190693
:100C7000C150D9F7CF910895E4E6F0E080818F77F5
:100C800080838AB18C7F8AB98BB183608BB98CE009
:100C90008093B80008951092BC00E4E6F0E08081F3
:100CA00080688083089584EA8093BC008AEFECEB2F
:100CB000F0E002C0815061F090819923DCF78091CF
:100CC000B900887F883031F0803131F480E00895B8
:100CD00081EF089580E0089580EF089584E980937E
:100CE000BC008AEFECEBF0E002C0815049F090814B
:100CF00094FDFBCF8091B900887F21F480EF0895A7
:100D000081EF089580E008950F931F93CF93DF93B1
:100D1000882321F1A62FB72F0BEB10E0ECEBF0E0CE
:100D200074E858EC29EB30E09D91E80198837083DA
:100D3000952F02C09150A1F040814423DCF7E901D6
:100D40009881987F983121F0983211F0903451F4C5
:100D50009A2F961B981740F380E005C080E003C0EF
:100D600081EF01C088EFDF91CF911F910F9108951E
:100D700024EC2093BC0028ECECEBF0E002C0215006
:100D800091F030813323DCF72091B900287F2035A2
:100D900021F00E946E0680EF08952091BB00FC01B7
:100DA000208380E0089581EF0895CF92DF92FF9233
:100DB0000F931F93CF93DF93282F30E021503109F9
:100DC000121613064CF5F62EA62FB72FECEBF0E01B
:100DD00004EC18EC0F2EF9EBCF2ED12CF02D4BEBB1
:100DE00050E00083812F02C0815091F190819923BE
:100DF000DCF7E6018881887F803521F00E946E064D
:100E000080EF29C0EA0188818D93BD018A2F8F1957
:100E100090E0821793072CF384E88093BC0088EC61
:100E2000ECEBF0E002C08150A9F090819923DCF74F
:100E30008091B900887F883521F00E946E0680EF8E
:100E40000AC08091BB00FB0180830E946E0603C034
:100E500081EF01C081EFDF91CF911F910F91FF9042
:100E6000DF90CF900895811103C01092DA020895A7
:100E700083EE08952998289808952998289A089526
:100E8000CF93DF931F92CDB7DEB784B1866084B96C
:100E90002998209A289A2B9AE4E6F0E080818B7FAB
:100EA000808380E58CBD81E08DBD8DB589838EB555
:100EB00089830F90DF91CF9108958CB58F7B8CBD86
:100EC000E4E6F0E080818460808384B1897F84B926
:100ED00020980895CF93DF931F92CDB7DEB7FB0123
:100EE000882371F091919EBD92E302C0915051F020
:100EF0000DB407FEFBCF9EB59983815099F703C0CF
:100F000080E001C081EF0F90DF91CF910895FB0148
:100F10008823A1F02AEF1EBC922F08C0915031F413
:100F20000DB407FE0DC08EB587EE08950DB407FE13
:100F3000F5CF9EB59193815071F7089580E00895A3
:100F400087EE08958AB188638AB96A9884B181610D
:100F500084B92C9A289A08955C9A5D9A5B9A0895B0
:100F60005C985D985B980895882311F05C9A0895C9
:100F70005C980895882311F05D9A08955D9808950E
:100F8000882311F05B9A08955B9808958EE1809311
:100F9000DD02EEE6F0E080818E7F808314BC85E088
:100FA00085BDA89A8081816080831092DB020895BC
:100FB000EEE6F0E080818E7F808315BCA89A808168
:100FC0008160808308951F920F920FB60F921124B3
:100FD0008F938091DD0281508093DD02811106C0E4
:100FE00081E08093DB028EE18093DD028F910F9090
:100FF0000FBE0F901F901895E1E7F0E080818E7F83
:1010000080831092900082E0809391001092920071
:10101000C09A8081816080830895E1E7F0E080815B
:101020008E7F808310929100C09A8081816080833E
:101030001092DF021092DE0208951F920F920FB6F7
:101040000F9211248F939F938091DE029091DF0283
:10105000892B21F482E08093E10217C08091DE02A7
:101060009091DF0201979093DF028093DE02892B3B
:1010700039F08FE298EF909395008093940005C02B
:101080001092910081E08093DC029F918F910F90EC
:101090000FBE0F901F901895880F991F80959095FF
:1010A00090939500809394000E94FC071092E102B7
:1010B0008091E1028823E1F30E940D0808950F93C7
:1010C0001F93CF93DF938C01009751F0C0E0D0E0E5
:1010D00088EE93E00E944C082196C017D107C1F713
:1010E000DF91CF911F910F910895E1E7F0E020810A
:1010F0002E7F20839093DF028093DE021092DC0229
:101100008FE298EF90939500809394000E94FC07E3
:1011100008951F920F920FB60F9211248F9381E0C2
:101120008093E0028F910F900FBE0F901F90189543
:101130002091E3023091E4022F50344F822F932FFD
:1011400008954CEF58E0682F70E081EF9BE00E941B
:101150002F241092E4021092E30281EF9BE00895A5
:101160009F92AF92BF92CF92DF92EF92FF920F9336
:101170001F93CF93DF936B018C0101501109EC0198
:10118000C150D048CC0FDD1F5E0125E0A20EB11C7E
:10119000FB01EC0FFD1F2AE0248329E22383229622
:1011A00001151105E1F07B01E80EF91EC60FD71FEE
:1011B000F70192907F0101501109892D0E948E1133
:1011C0008883892D82958F700E948E11FE01319740
:1011D000808322970115110559F7C2E0D0E0F6018E
:1011E000EC0FFD1F88E280832197F601F0808601D5
:1011F0000C0F1D1F8F2D0E948E11F80180832197E7
:10120000CC0DDD1D8F2D82958F700E948E118883ED
:101210008A2D9B2DDF91CF911F910F91FF90EF9021
:10122000DF90CF90BF90AF909F9008958C3791053D
:1012300028F082ECFB0180838BE790E00E94B008ED
:101240000895AF92BF92CF92DF92EF92FF920F93E9
:101250001F93CF93DF931F92CDB7DEB76C01198236
:10126000E090E302F090E40280E00E94B40780E0A6
:101270000E94BA0780E00E94C0078091E50288239F
:1012800079F08093F50281E090E0D6018D939C93F4
:1012900065EF72E00E941609F60191838083A0C079
:1012A0005701F1E0AF1AB1088CEF98E0E5EFF2E0FA
:1012B000DF019C011D9221503040E1F7A114B104DF
:1012C00089F001EF1BE080EF9BE0E80EF91ED801EA
:1012D0008C9190E00E94E923F80181938F01EE1533
:1012E000FF05A9F78091F10B8C3689F44091E30258
:1012F0005091E4026AE370E081EF9BE00E940C24CD
:101300007C01009751F0FFEFEF1AFF0A06C00F2E85
:10131000F1EFEF2EFBE0FF2EF02DD7018C918536FB
:1013200009F128F4813641F08236D9F526C0893694
:1013300081F18337B1F50BC081E00E94BA0726EF37
:1013400032E0A601B7018A2D0E942B0B30C081E04C
:101350000E94B40726EF32E0A601B701C5010E9442
:101360009F0E25C081E00E94C00726EF32E0A60153
:10137000B701C5010E949F0E1AC08E010F5F1F4F5B
:1013800025EF32E0A601B7018A2D90E00E941A1FD6
:101390000EC026EF32E0A601B701C5010E94480E3B
:1013A00006C081E090E0F6019183808380EC998112
:1013B000911116C08093F502D6018D919C911197E1
:1013C0008B37910518F401968D939C9365EF72E02D
:1013D000F601808191810E941609D6018D939C931C
:1013E0001092E6021092E20285EF92E00F90DF91F8
:1013F000CF911F910F91FF90EF90DF90CF90BF9012
:10140000AF900895DF92EF92FF920F931F93CF93C7
:10141000DF93882309F470C0C091E7022091E302B2
:101420003091E4020091E502F090E6021091E202B0
:1014300090E0D3E0A1EFBBE0DD24D394E12C40E0C9
:1014400050E0C13031F008F463C0C33009F045C04A
:1014500029C0F901EF50F44FE081EA30E1F404C013
:1014600011E000E020E030E00093E5021093E2029A
:101470001092E70281E08093E602C9018F50944FF9
:10148000FB01918380832F5F3F4F3093E4022093D1
:10149000E30281E047C02C3FF8E03F07E8F42F5F0C
:1014A0003F4F1BC0F901EF50F44FE081EA30A9F43F
:1014B0002093E3023093E4021093E2022F50344F62
:1014C000FB01318320831092E70281EC8093E502D7
:1014D00081E08093E60226C0CD2F9F5F9813B1CFA5
:1014E000C093E7023093E4022093E3020093E50205
:1014F000F092E6021093E2028091E3029091E402FE
:101500008F50944FFB01918380838091E6020AC043
:101510002C912A3009F4A4CF1D2DFE2C0E2DCD2D9B
:101520009A01BDCFDF91CF911F910F91FF90EF9066
:10153000DF9008958F929F92AF92BF92CF92DF92E9
:10154000EF92FF920F931F93CF93DF9300D000D0C1
:10155000CDB7DEB7982E7B016A015901AE014D5F10
:101560005F4FBE016F5F7F4FC70102960E94EA1175
:10157000882E882319F0F60110825BC00B811C8134
:10158000F70180818737D9F5F801718160E08281A8
:10159000680F711D911028C06115FEEF7F0720F5BF
:1015A000A8014D5F5F4FF80180810E947502882E6F
:1015B000FFEEF817B0F00E942701882E811139C084
:1015C000A50160E07EEF84E00E947102813928F479
:1015D000F5018081F60180832CC0F6011082882EEF
:1015E00028C0F601108225C0A8014D5F5F4FF801A9
:1015F00080810E94181E882EF60110821AC0F80100
:10160000718160E08281680F711D911006C0A50193
:1016100080810E947102882E06C0A501F801808198
:101620000E940E1E882E811004C0F8018081F601F0
:101630008083882D0F900F900F900F90DF91CF91A6
:101640001F910F91FF90EF90DF90CF90BF90AF90E0
:101650009F908F900895AF92BF92CF92DF92EF92BA
:10166000FF920F931F93CF93DF9300D000D000D051
:10167000CDB7DEB76B017A0159011D826AE370E0D4
:10168000C6010E9441248C01009709F447C1FC0166
:101690008181833769F4CE0106960E943601D82EE7
:1016A000811131C18E81F501808381E08D832BC151
:1016B0008D3661F4B8016E5F7F4F9501AE014B5FCF
:1016C0005F4F80E00E949A0AD82E1DC1843709F02E
:1016D00054C0AE014D5F5F4FBE016F5F7F4FC801C9
:1016E00002960E94EA11D82E811136C100E09501C0
:1016F0004BE761E08B819C810E941503811105C03D
:10170000F50190819D83D82E04C1813920F4F50123
:1017100080818D83FEC0873E18F49D81992319F046
:10172000803F09F0EFC01D820E942701D82E811151
:10173000EAC01E82AE014A5F5F4F60E07EEF81E04B
:101740000E940E1ED82E8111DEC08E81F50180838D
:10175000811103C081E08D83D6C08C3710F08BE7F8
:101760008E838E818D83A5014F5F5F4F60E07EEF9A
:1017700081500E940E1ED82EC6C08336B9F5F801DE
:101780008281823779F489E0F601982F11929A9537
:10179000E9F7F6018083118262E0C6010E947902B6
:1017A000D82EB1C0AE014D5F5F4FBE016F5F7F4F5E
:1017B000C80102960E94EA11D82E8111CDC08B81FA
:1017C0009C81F8012281233761F4FC018081882308
:1017D00021F00E940D03D82E96C00E941103D82E2E
:1017E00092C060E00E947902D82E8DC08237D1F479
:1017F000AE014D5F5F4FBE016F5F7F4FC801029624
:101800000E94EA11D82E8111A7C0EB81FC81B5019D
:1018100080810E948B01803F08F079C0F5018081B2
:101820008D8377C0873761F4F8018281843621F493
:101830000E947D01D82E67C00E948401D82E63C00B
:10184000803709F07AC06AE370E0C80101960E940F
:101850004124009709F467C0FC0121812936C9F4AD
:101860006AE370E001960E944124009709F460C089
:10187000FC018181893629F482E00E94FB1CD82E6C
:1018800042C0833709F05EC081E00E94FB1CD82E65
:101890003AC02D3661F4BC016E5F7F4F9501AE01F9
:1018A0004B5F5F4F81E00E949A0AD82E2CC02337ED
:1018B000D9F4FC012281293721F40E94221ED82E5E
:1018C00022C0AE014D5F5F4FBE016F5F7F4F02963A
:1018D0000E94EA11D82E81113FC0EB81FC818081EA
:1018E0000E94041ED82E0FC0822F8456823078F5B5
:1018F000253621F40E94F41DD12C0BC00E94FC1D42
:10190000D12C07C0D82EFFEEFD1510F002C0D82E46
:101910001D828D81F701808311821EC00F2EF0EC95
:10192000DF2EF02D19C00F2EF0ECDF2EF02D14C09D
:101930000F2EF0ECDF2EF02D0FC00F2EF0ECDF2E6F
:10194000F02DE7CF0F2EF0ECDF2EF02DE2CF0F2E93
:10195000F0ECDF2EF02DDDCF8D2D26960FB6F8940E
:10196000DEBF0FBECDBFDF91CF911F910F91FF90D2
:10197000EF90DF90CF90BF90AF900895EF92FF92DD
:101980000F931F93CF93DF9300D000D0CDB7DEB776
:10199000CB018A0179016AE370E00E944124F801D9
:1019A000118210820097D1F1FC0121812437C1F40A
:1019B000AE014D5F5F4FBE016F5F7F4F02960E9489
:1019C000EA11811127C06B817C8189810E94AD2140
:1019D000F701808321E030E0F8013183208318C0D3
:1019E0002237F1F4AE014D5F5F4FBE016F5F7F4F55
:1019F00002960E94EA1181110DC0B70189810E94EF
:101A00002F22F701808329813A81F80131832083D5
:101A1000882341F0F8011182108204C080EC02C0DA
:101A200080ECF8CF0F900F900F900F90DF91CF9137
:101A30001F910F91FF90EF900895EF92FF920F93F7
:101A40001F93CF93DF9300D000D0CDB7DEB7CB018B
:101A50008A0179016AE370E00E944124F801118251
:101A60001082009709F452C0FC0121812437C1F48F
:101A7000AE014D5F5F4FBE016F5F7F4F02960E94C8
:101A8000EA1181113FC06B817C8189810E948406AB
:101A9000F701808381E090E0F801918380833AC070
:101AA0002237D1F4AE014D5F5F4FBE016F5F7F4FB4
:101AB00002960E94EA11811125C0EB81FC81B701D9
:101AC00080810E94D50681111DC0EB81FC8180813F
:101AD000F801808311821EC02337D1F4FC01838179
:101AE000813619F40E94530604C08F36A9F40E946F
:101AF0006E06F701808321E030E0F8013183208316
:101B0000882371F0F801118210820AC080EC08C0AD
:101B100080ECF8CF80E004C080ECF7018083F2CF46
:101B20000F900F900F900F90DF91CF911F910F9119
:101B3000FF90EF900895DF92EF92FF920F931F9323
:101B4000CF93DF9300D000D0CDB7DEB7CB018A01B1
:101B500079016AE370E00E944124F8011182108249
:101B6000009709F47EC0FC0121812436F1F4AE0116
:101B70004D5F5F4FBE016F5F7F4F02960E94EA117B
:101B8000D82E811108C0EB81FC818081882319F057
:101B90000E94400702C00E945D07F701108221E009
:101BA00030E0F8013183208356C02337F1F4AE01D1
:101BB0004D5F5F4FBE016F5F7F4F02960E94EA113B
:101BC000D82E811108C0EB81FC818081882319F017
:101BD0000E943A0702C00E943D07F701108221E0EF
:101BE00030E0F8013183208336C02437D1F4AE01D0
:101BF0004D5F5F4FBE016F5F7F4F02960E94EA11FB
:101C0000D82E81112AC06B817C8189810E946A074C
:101C1000D82EF701808321E030E0F8013183208362
:101C20001AC0223719F5AE014D5F5F4FBE016F5FDD
:101C30007F4F02960E94EA11D82E81110EC0B70183
:101C400089810E948707D82EF701808389819A8134
:101C5000F80191838083DD2071F0F80111821082F8
:101C60000AC00F2EF0ECDF2EF02D05C00F2EF0EC89
:101C7000DF2EF02DF2CF8D2D0F900F900F900F9043
:101C8000DF91CF911F910F91FF90EF90DF9008951A
:101C9000AF92BF92CF92DF92EF92FF920F931F937A
:101CA000CF93DF936C01CB015A0179016AE370E0B5
:101CB0000E944124EC010097A1F18C010F5F1F4F9E
:101CC0006CE872E0C8010E945324892B19F4C98181
:101CD000C13339F49701A501B801C6010E94BE0CB9
:101CE00023C06FE872E0C8010E945324892B11F4CD
:101CF000C23339F49701A501B801C6010E941D0D38
:101D000013C062E972E0C8010E945324892B11F4C8
:101D1000C33349F49701A501B801C6010E949B0D88
:101D200003C080EC01C080ECDF91CF911F910F9137
:101D3000FF90EF90DF90CF90BF90AF900895CF923B
:101D4000DF92EF92FF920F931F93CF93DF9300D018
:101D500000D0CDB7DEB7CB017A0169016AE370E04C
:101D60000E944124F70111821082009709F4E9C111
:101D7000FC012181203709F44AC150F4233609F4CB
:101D8000F0C0293609F429C1213609F0DCC12DC182
:101D9000233709F414C120F4223709F0D4C1F4C068
:101DA000243721F0273709F0CEC1BDC0AE014D5F09
:101DB0005F4FBE016F5F7F4F02960E94EA11182F9E
:101DC0008111CCC1F601108280910001882329F095
:101DD000C6010E94C9038111B8C1EB81FC819281C7
:101DE0008181863109F450C0A0F4883009F446C0DE
:101DF00038F4813009F451C0823009F06EC059C006
:101E0000823109F464C0853139F1813109F065C04E
:101E100029C08C31A9F030F4873151F18B3109F0B0
:101E20005CC041C0883231F0803381F0803209F0EB
:101E300054C047C086E28093ED1464E070E058C05F
:101E40008FE38093ED1464E070E052C082E08093F1
:101E5000ED1467E070E04CC08BE28093ED1464E019
:101E600070E046C086E48093ED1463E270E040C009
:101E700088E18093ED1464E070E03AC083E28093DF
:101E8000ED1463E270E034C08DE38093ED14937041
:101E9000933049F564E070E02BC082E08093ED144C
:101EA00064E070E025C083E38093ED1463E270E0AA
:101EB0001FC084E08093ED149923C4F463E270E0C2
:101EC00017C08CE08093ED1464E070E011C08AE2EA
:101ED0008093ED1464E070E00BC088EC8093ED1407
:101EE0006BE470E005C063E270E002C067E070E0A0
:101EF0000091ED14055025E0A601CF010E940704D2
:101F0000982F915D953008F0182FF6018081F70128
:101F10008083118280910001882309F41FC10E94EF
:101F20006C1E182F1BC180910001882381F084E072
:101F3000F601808381E1818383E3828383E4838369
:101F400084E090E0F7019183808310E007C1C6012F
:101F50000E94C903182FF6018081F7018083118246
:101F6000FDC0AE014D5F5F4FBE016F5F7F4F0296B8
:101F70000E94EA11182F8111F1C06B817C81898147
:101F80000E94581E182FEAC0AE014D5F5F4FBE0180
:101F90006F5F7F4F02960E94EA11182F8111DEC0F9
:101FA000F6011082EB81FC81B60180810E94621EE5
:101FB000182FF6018081F70180831182CFC08091B4
:101FC0000001882331F0C6010E94C903182F811136
:101FD000C5C00E94761E182FC1C0809100018111DA
:101FE000B6C00E946C1E182FB9C0AE014D5F5F4F86
:101FF000BE016F5F7F4F02960E94EA11182F811178
:10200000ADC0EB81FC81808180930001A7C06AE3B1
:1020100070E001960E944124009709F49AC0FC01E7
:102020002181293609F472C050F4243609F46AC0BB
:10203000253609F463C0233609F08DC00CC0233760
:10204000C1F1273721F0223709F085C017C00E945F
:102050004E1E182F83C0AE014D5F5F4FBE016F5FF4
:102060007F4F02960E94EA11182F811177C06B8171
:102070007C8189810E94581E182F70C0AE014D5F6F
:102080005F4FBE016F5F7F4F02960E94EA11182FCB
:10209000811164C0F6011082EB81FC81B601808160
:1020A0000E94621E182FF6018081F7018083118241
:1020B00055C0FC012281293759F4B60184E00E9401
:1020C000441E182FF6018081F7018083118246C0DB
:1020D000AE014D5F5F4FBE016F5F7F4F02960E9462
:1020E000EA11182F811106C0EB81FC8180810E94CA
:1020F0002C1E34C00E94761E182F30C00E94341E41
:1021000010E02CC00E943C1E10E028C06AE370E082
:1021100001960E944124009781F0FC01818189365B
:1021200029F482E00E94611D182F18C08337A9F49A
:1021300083E00E94611D182F11C00E946C1E182F91
:102140000DC010E00BC010EC09C0182F07C010E044
:1021500005C010E003C010EC01C010E0812F0F900B
:102160000F900F900F90DF91CF911F910F91FF90E3
:10217000EF90DF90CF9008950E94B5157894089560
:1021800081E09091F514911180E00895CF92DF9253
:10219000EF92FF921F93CF93DF93EC01029904C05B
:1021A00081E08093E80206C08091E802813011F45A
:1021B0001092E8020E94E6128091F514882309F437
:1021C00059C08091EE02882309F439C013E00F2E24
:1021D000FFE7CF2EFAE1DF2EF6E0EF2EF12CF02D07
:1021E0000E94AC07D701C6010197A109B1090000FF
:1021F00001F0D1F7C89500000E94B007D701C601D1
:102200000197A109B109000001F0D1F7C8950000BC
:10221000115031F7E0EEF0E08081816080838FED36
:1022200092E2A2E0B0E00197A109B109000001F03B
:10223000D1F7C89500001092EE020E94911282E040
:102240008093E9008091E80082FF16C0CE01805C97
:102250009F4FE1EFF0E020812993C817D907D9F704
:10226000E8EEF0E080818B7F808380818F778083B0
:1022700081E003C080E001C080E0DF91CF911F9139
:10228000FF90EF90DF90CF900895CF93DF939C0164
:102290000024220F331F001C220F331F001C232F8A
:1022A000302D8F739927892B09F02F5F81E0809360
:1022B000E9008091E80085FF2EC030E0211531054E
:1022C00051F1CB01805C9F4F0024369527950794F0
:1022D000369527950794322F202D280F391FA1EF0F
:1022E000B0E0C8EED0E013C041914C938E179F0729
:1022F000D9F748814E7F488348814F77488348818A
:1023000040FFFDCF805C9F4F8217930721F0FC01B7
:10231000E054F109E9CFDF91CF9108958F708A30B1
:1023200010F4805D0895895C0895982F80538A3059
:1023300060F08151863010F4865F0895892F8156B0
:10234000863010F4865F089580E00895BF92CF92A2
:10235000DF92EF92FF920F931F93CF93DF936C0165
:1023600082E0C816D10428F1C114D10429F1EB018F
:1023700021967B0100E010E0FE01319780810E94F0
:102380009511B82EBB0CBB0CBB0CBB0CF701B0827B
:1023900088810E9495118B29F70181937F010F5F3E
:1023A0001F4F22969801220F331F2C153D0520F355
:1023B00005C000E010E002C000E010E0802F912F87
:1023C000DF91CF911F910F91FF90EF90DF90CF9011
:1023D000BF900895CF92DF92EF92FF920F931F93D9
:1023E000CF93DF93EC018B017A01009781F16115A6
:1023F000710579F14115510571F168E270E00E94B3
:1024000041246C01009749F169E270E00E94412487
:10241000009769F4EC2FFD2FDF010D900020E9F704
:102420001197CD018E1B9F0B8C0F9D1F01C0019733
:10243000B6016F5F7F4FF701718360838C199D092F
:102440000E94A611F8019183808380E007C083EC8D
:1024500005C083EC03C083EC01C083ECDF91CF9116
:102460001F910F91FF90EF90DF90CF9008958FB75D
:10247000F89497EF94BF98E10FB6F89490936000AA
:10248000109260000FBE88230CF4789408959FB7D3
:102490009078F89427EF24BF83FF02C028E201C0A0
:1024A00028E08770822B28E130E00FB6F894A895D9
:1024B000209360000FBE80936000992309F0789408
:1024C0000895EBEEF0E09081916090838093EC00B2
:1024D000EDEEF0E080818270682B60838081826005
:1024E00080838091EE00881F8827881F0895E8ED7B
:1024F000F0E080818F7B80838091D90081FF0DC0C7
:102500001092E9008091EB0080FD09C01092E90073
:1025100060E382E00E946112089580E0089580E007
:10252000089585E59AEAAAEAB5E580933D1590936A
:102530003E15A0933F15B093401585E00E944712C9
:10254000FFCF80913D1590913E15A0913F15B09120
:10255000401585359A4AAA4AB54569F410923D1549
:1025600010923E1510923F1510924015E091010116
:10257000F0910201099508957894E8EDF0E08081EA
:102580008F76808380818069808380818F7B808348
:102590007894089586E189BD09B400FEFDCFF894D2
:1025A000E8EDF0E080818F7D80830E947712E0EE7D
:1025B000F0E080818E7F80837894E2EEF0E080818D
:1025C0008160808380818860808308958091D900B4
:1025D00080FF14C08091E902811110C081E08093D6
:1025E000E9021092EA028091EB029091EC02826083
:1025F0009093EC028093EB020E94CA128091D90062
:1026000080FD1BC08091E9028130B9F41092E9028B
:102610001092F5148091EB029091EC0284609093FB
:10262000EC028093EB02E0EEF0E080818160808339
:10263000E8EDF0E08081806280838091EB029091F0
:10264000EC0290FF10C08091EB029091EC029E7F13
:102650009093EC028093EB02EAEEF0E081E080835D
:1026600010821092F5141092E9008091E80083FD29
:102670000E943B1308950F931F93CF93DF9300D0D5
:10268000CDB7DEB7E8EEF0E080818B7F8083E1EFAD
:10269000F0E0108100810630E1F060F4013009F4CF
:1026A00032C108F4ADC1033009F46EC1053009F040
:1026B00042C2F3C0093009F412C120F4083009F015
:1026C0003AC2C7C00A3009F4DDC10B3009F033C289
:1026D0000AC2103809F02FC2E1EFF0E0608180817A
:1026E000813019F08230A9F40AC082E18093F61497
:1026F0008CE291E09093F8148093F7140FC089E274
:102700008093F61483E091E09093F8148093F7148B
:1027100005C00E94C816882309F40DC2E1EFF0E05D
:10272000808180818081898380818A83E8EEF0E0E6
:102730008081877F80834091F61489819A81242F3C
:1027400030E02817390728F44F7371E029F070E062
:1027500003C08093F61470E0E8EEF0E080818F7E95
:1027600080838091F614882309F447C08091E800A3
:1027700084FF0EC042C0F901808184FD04C0FA01CB
:10278000808180FD0BC08091F61481110FC022C0A2
:1027900028EE30E049ED50E0A1EFB0E0F901808192
:1027A00080FFE9CFF0CF615011F414C060E4E091F4
:1027B000F714F091F814CF0101969093F8148093D8
:1027C000F714E491EC938091F61481508093F61401
:1027D0008111E9CFF901808184FD0FC0FA01808168
:1027E00080FF0BC0F90180818E7F80838091F61479
:1027F000882319F0808184FFD1CF7130D1F480918A
:10280000E80084FF05C015C0808180FD05C007C0B9
:10281000A8EEB0E0E9EDF0E08C9180FFF5CFE8EEB6
:10282000F0E080818E7F808304C08C9180FD05C0A4
:1028300007C0E8EEF0E0A9EDB0E0808184FFF5CFBD
:10284000E8EEF0E080818F7E808380818B7F8083C3
:1028500085C1103809F06FC1E8EEF0E08081877F14
:1028600080838091F5148093F10080818E7F808336
:1028700080818F778083A9EDB0E003C08C9180FFC9
:1028800003C0808182FFFACFE8EEF0E080818B7F89
:10289000808380818F77808361C111114CC19091B9
:1028A000F100E3EEF0E080819F778078892B8083D0
:1028B000E8EEF0E08081877F808380818E7F808357
:1028C000A9EDB0E003C08C9180FF03C0808180FF40
:1028D000FACFE3EEF0E08081806880833FC1111180
:1028E0002AC18091F100823008F025C1E8EEF0E0C5
:1028F0009081977F90838093F51490819E7F908341
:102900000E9491162BC1112321F0123009F013C13E
:1029100003C08091F1000FC1E1EFF0E08081908170
:10292000811109C12091F1002F772093E900809156
:10293000EB0080FD03C01092E900FDC02223A1F04E
:10294000ABEEB0E08C9180618C9381E090E0022E40
:1029500002C0880F991F0A94E2F7EAEEF0E0808344
:1029600010828C9188608C931092E900E22FF0E045
:10297000E251FB4E1082E8EEF0E08081877F808399
:1029800080818E7F8083EAC0112321F0123009F00C
:10299000D2C003C08091F100CEC0E1EFF0E08081B1
:1029A00090818111C8C08091F1008F7751F4EBEED6
:1029B000F0E0908190629083E8EEF0E09081977F64
:1029C00090838093E9009091EB0090FD03C01092FA
:1029D000E900B1C0EBEEF0E090819062908310923C
:1029E000E900E82FF0E0E251FB4E81E08083E8EE61
:1029F000F0E08081877F808380818E7F8083AEC07E
:102A0000E1EFF0E0808180818081113869F0123837
:102A100099F0103809F08FC0E8EEF0E08081877FF0
:102A200080831092F10015C0E8EEF0E08081877F8E
:102A300080831092F1000DC0E8EEF0E09081977F66
:102A400090838F77E82FF0E0E251FB4E80818093F6
:102A5000F1001092F100E8EEF0E080818E7F80833B
:102A6000A9EDB0E003C08C9180FF03C0808182FF9C
:102A7000FACFE8EEF0E080818B7F808380818F77D2
:102A800080836CC0113809F056C0E1EFF0E080811E
:102A900020819081998390819A8381114CC021116A
:102AA0004AC008EE10E0F8018081877F8083898129
:102AB0009A810E94A4168093F100F80180818E7F94
:102AC0008083A9EDB0E003C08C9180FF03C08081BA
:102AD00082FFFACFE8EEF0E080818B7F80838081F7
:102AE0008F7780833BC0113031F5E1EFF0E06081FA
:102AF00080819081998390819A8381111CC008EE16
:102B000010E0F8018081877F808389819A810E940B
:102B1000A6161092E900F80180818E7F8083A8EECE
:102B2000B0E0E9EDF0E003C0808180FF17C08C9138
:102B300080FFFACF13C0602F812F0E94A41881114B
:102B40000DC0EBEEF0E0808180628083E8EEF0E083
:102B50008081877F808381E08093EE140F900F90B7
:102B6000DF91CF911F910F910895E7EDF0E0808103
:102B70008160808380818F7B808380818068808377
:102B80000E94BC1208951F920F920FB60F9211244B
:102B90000BB60F922F933F934F935F936F937F9357
:102BA0008F939F93AF93BF93EF93FF938091E10037
:102BB00082FF07C08091E20082FF03C08BEF809309
:102BC000E1008091E10080FF3EC08091E20080FF43
:102BD0003AC08091EA028130C9F48091F5148823CB
:102BE000A9F0E2EEF0E080818E7F80838FEE80930B
:102BF000E10080818061808389B58D7F89BD19BCAA
:102C0000E8EDF0E08081806280831DC0E1EEF0E0BD
:102C10008FEE80838091EB029091EC028062909322
:102C2000EC028093EB028EEF8083E2EEF0E0808195
:102C300080618083E8EDF0E080818062808389B5E7
:102C40008D7F89BD19BC8091E10084FF25C08091F2
:102C5000E20084FF21C009B400FC05C086E189BD03
:102C600009B400FEFDCFE8EDF0E080818F7D808328
:102C70008FEE8093E100E2EEF0E080818F7E808332
:102C80008091EB029091EC0280649093EC0280932F
:102C9000EB028081816080838091E10085FF18C014
:102CA0008091E20085FF14C0E2EEF0E080818F7E2B
:102CB00080838FED8093E10080818F7D8083809180
:102CC000EB029091EC0280689093EC028093EB020F
:102CD0008091E10083FF12C08091E20083FF0EC06B
:102CE00087EF8093E1000E9477128091EB02909130
:102CF000EC0291609093EC028093EB02FF91EF91D4
:102D0000BF91AF919F918F917F916F915F914F9103
:102D10003F912F910F900BBE0F900FBE0F901F9001
:102D20001895CF93DF93C9EED0E081E0888360E30C
:102D300081EC0E94611282E0888360E380EC0E9453
:102D40006112DF91CF91089580E00895CF93DF93D2
:102D5000892BD9F4C9EED0E081E08883EBEEF0E076
:102D6000808180618083AAEEB0E082E08C931C9227
:102D7000908198609083888380818061808384E0E3
:102D80008C931C92808188608083DF91CF9108951D
:102D9000833039F5613079F018F0623021F516C0D2
:102DA00084E08093F6148DEC90E09093F814809377
:102DB000F71481E008958CE08093F61487EF90E09B
:102DC0009093F8148093F71481E0089586E280933D
:102DD000F61481ED90E09093F8148093F71481E05D
:102DE000089580E0089580E00895CF93DF9300D0A8
:102DF00000D0CDB7DEB7E1EFF0E080818B8380813A
:102E00008C8385E38093F61488E990E09093F8141E
:102E10008093F7148081898380818A83E8EEF0E0D3
:102E20008081877F808389819A818633910550F0E4
:102E300050E08091F6148823C1F18091E80082FF70
:102E400005C033C08093F61450E0F3CF28EE30E095
:102E5000A1EFB0E0F901808180FFFCCF8091F614F2
:102E6000811104C017C0415011F414C040E4E09136
:102E7000F714F091F814CF0101969093F814809311
:102E8000F714E491EC938091F61481508093F6143A
:102E90008111E9CFF90180818E7F80838091F614C2
:102EA000882319F0808182FFD5CF8091E80082FFCE
:102EB00009C0E8EEF0E080818B7F808380818F778E
:102EC000808319C0513051F4E8EEF0E0808180FF3A
:102ED000FDCFE8EEF0E080818E7F8083E8EEF0E0C9
:102EE000808182FFFDCFE8EEF0E080818B7F8083E0
:102EF00080818F7780830F900F900F900F90DF91DC
:102F0000CF910895E8EEF0E08081877F8083808113
:102F10008E7F8083808182FFFDCFE8EEF0E08081AC
:102F20008B7F808380818F77808380818E7F808379
:102F30000895CF93DF9300D0CDB7DEB7E1EFF0E097
:102F40008081898380818A83E8EEF0E08081877FB9
:102F500080836093ED0280818E7F8083808180FFFB
:102F6000FDCF0F900F90DF91CF910895CF93DF9316
:102F700000D000D0CDB7DEB7E1EFF0E080818B83E9
:102F800080818C838081898380818A83E8EEF0E070
:102F90008081877F808389819A81892B39F0809114
:102FA000ED028093F10080818E7F8083E8EEF0E077
:102FB000808182FFFDCFE8EEF0E080818B7F80830F
:102FC00080818F7780830F900F900F900F90DF910B
:102FD000CF910895E8EEF0E08081877F8083808143
:102FE0008E7F8083808182FFFDCF8091F1008535C7
:102FF00079F48091F1008A3A59F48091F100853595
:1030000039F48091F1008A3A19F481E08093EE025C
:10301000E8EEF0E080818B7F808380818F778083F2
:1030200080818E7F8083808180FFFDCF0895CF9344
:10303000DF9300D000D0CDB7DEB7E1EFF0E08081C4
:103040008B8380818C8389E08093F61485E191E005
:103050009093F8148093F7148081898380818A8308
:10306000E8EEF0E08081877F808389819A818A30D1
:10307000910550F050E08091F6148823C1F18091C1
:10308000E80082FF05C033C08093F61450E0F3CF10
:1030900028EE30E0A1EFB0E0F901808180FFFCCFA5
:1030A0008091F614811104C017C0415011F414C06E
:1030B00040E4E091F714F091F814CF010196909359
:1030C000F8148093F714E491EC938091F6148150F6
:1030D0008093F6148111E9CFF90180818E7F80837E
:1030E0008091F614882319F0808182FFD5CF8091DA
:1030F000E80082FF09C0E8EEF0E080818B7F8083EA
:1031000080818F77808319C0513051F4E8EEF0E070
:10311000808180FFFDCFE8EEF0E080818E7F8083AC
:10312000E8EEF0E0808182FFFDCFE8EEF0E0808104
:103130008B7F808380818F7780830F900F900F909B
:103140000F90DF91CF910895E1EFF0E02081908121
:10315000813879F4663069F4913219F0923249F489
:1031600004C00E94171881E008950E94F51681E0BE
:1031700008958132C1F4693019F06A30A1F40DC0AC
:10318000923019F0933079F404C00E94821781E0E4
:1031900008950E94EA1781E00895692F822F0E9406
:1031A000991781E00895813A39F4623039F4822F19
:1031B0000E94B61781E0089580E0089580E00895A8
:1031C0000E94400708950E945D0708950E943307FA
:1031D0000895EF92FF920F931F93CF93DF9300D048
:1031E00000D0CDB7DEB7E82E8A0196E0998392E051
:1031F0009A837B836C830E943A07BE016F5F7F4F87
:1032000081E00E946A07F82E0E943D07F11012C06B
:103210000E943A07BE016E5F7F4F83E00E946A07FB
:10322000F82E811105C0B8018E2D0E946A07F82E74
:103230000E943D078F2D0F900F900F900F90DF9100
:10324000CF911F910F91FF90EF900895EF92FF9211
:103250000F931F93CF93DF9300D01F92CDB7DEB7AC
:10326000E82E8A0193E099837A836B830E943A0760
:10327000BE016F5F7F4F83E00E946A07F82E8111C5
:1032800005C0B8018E2D0E948707F82E0E943D07C9
:103290008F2D0F900F900F90DF91CF911F910F9175
:1032A000FF90EF90089580E008950F931F93CF93C0
:1032B000DF931F92CDB7DEB7082F8091EF02802BEE
:1032C00089830E945306182F811112C0BE016F5FBF
:1032D0007F4F81E00E948406182F882349F00E94C6
:1032E0006E06183F29F4013011F411EA01C010EA0A
:1032F000812F0F90DF91CF911F910F9108950E9420
:103300003C0680EA8093EF0208950E944B060895E0
:103310008E7F8093EF0280E00895EF92FF920F93EB
:103320001F93CF93DF9300D0CDB7DEB7E82E8A018D
:1033300079836A8380E00E945519F82E81111BC0A1
:10334000BE016F5F7F4F82E00E948406F82E8823C3
:1033500019F00E946E060FC0EE2051F0B8018E2DBC
:103360000E948406F82E882319F00E946E0603C07E
:103370000E946E06F82E8F2D0F900F90DF91CF9147
:103380001F910F91FF90EF900895EF92FF920F938E
:103390001F93CF93DF9300D0CDB7DEB7E82E8A011D
:1033A00079836A8380E00E945519F82E811117C035
:1033B000BE016F5F7F4F82E00E948406F82E882353
:1033C00019F00E946E060BC081E00E945519F82E7C
:1033D000811105C0B8018E2D0E94D506F82E8F2DC3
:1033E0000F900F90DF91CF911F910F91FF90EF9071
:1033F00008951F93CF93DF931F92CDB7DEB78FEF62
:1034000089830E945306882371F00E944B060E9414
:103410003C060E945306182F882371F00E944B0629
:103420000E943C0609C0BE016F5F7F4F81E00E9491
:1034300084060E946E06182F812F0F90DF91CF9186
:103440001F9108959091F002891758F4282F30E0C9
:10345000220F331F220F331F220F331F245E3A4ED9
:1034600002C020E030E0822F932F0895FF920F9347
:103470001F93CF93DF9300D0CDB7DEB78C01FC0153
:103480008081982F94509032B0F4F82EFA94FA94E8
:10349000AE014F5F5F4FB8018F2D0E945803F801B6
:1034A000EF0DF11D29813A8180819181281739071B
:1034B00021F480E003C084EE01C085EE0F900F90F0
:1034C000DF91CF911F910F91FF9008951F93CF939C
:1034D000DF9300D000D01F92CDB7DEB78D838091EF
:1034E000F002843008F043C08D818A838FEF8B8394
:1034F00080EF8C830E945306BE016E5F7F4F83E096
:103500000E948406182F882319F00E946E0630C08E
:103510008D8181608D830E945306BE016B5F7F4F5A
:1035200081E00E948406182F882319F00E946E06FD
:103530001FC0BE016F5F7F4F81E00E94D506182F2C
:10354000811112C0E091F002F0E0EE0FFF1FEE0FCC
:10355000FF1FEE0FFF1FE45EFA4E8D818E7F828388
:1035600082E0808388E081830E946E0601C010E0C3
:10357000812F0F900F900F900F900F90DF91CF91B0
:103580001F9108951F93CF93DF93CDB7DEB72E978A
:103590000FB6F894DEBF0FBECDBF8E878091F002CC
:1035A000843008F0ACC08E85898383E08A8384E010
:1035B0008A8781E18B8783E38C8783E48D870E94F0
:1035C0005306182F8111A0C08E8581608E87BE01A1
:1035D000625F7F4F81E00E948406182F882319F0D4
:1035E0000E946E0691C0BE016D5F7F4F84E00E9415
:1035F000D506182F811188C044E050E0BE01665FF7
:103600007F4FCE0103960E941924282F392F232B98
:1036100009F077C00E945306182F811175C0BE01B2
:103620006F5F7F4F82E00E948406182F882319F075
:103630000E946E0669C063E071E087E00E94840624
:10364000182F0E946E0611115FC08FE39FE1019752
:10365000F1F7000000C00E945306BE01625F7F4F79
:1036600081E00E948406182F882319F00E946E06BC
:103670004BC0BE016D5F7F4F87E00E94D506182FBB
:10368000811142C081E08A830E945306BE016F5FB0
:103690007F4F82E00E948406182F0E946E06CE01A2
:1036A00003960E94361A81112EC02091F00230E05C
:1036B000F901EE0FFF1FEE0FFF1FEE0FFF1FE45E7D
:1036C000FA4E8E858E7F828382E080834C815D817D
:1036D0006E817F81448355836683778386818111E0
:1036E00002C087E001C089E0220F331F220F331F81
:1036F000220F331FF901E45EFA4E818305C010E00A
:1037000003C010EF01C010EF812F2E960FB6F89472
:10371000DEBF0FBECDBFDF91CF911F910895809185
:10372000F0028430A0F50E943C060E94562380ECF3
:103730000E94C21A81110AC081E00E94C0078091D4
:10374000F0028F5F8093F002843010F588EC0E94C5
:10375000C21A81110AC081E00E94B4078091F00270
:103760008F5F8093F002843098F480EA0E94661A9A
:1037700081110AC081E00E94BA078091F0028F5F38
:103780008093F002843020F48091F002089580E06C
:1037900008952F923F924F925F926F927F928F92F5
:1037A0009F92AF92BF92CF92DF92EF92FF920F93D0
:1037B0001F93CF93DF93CDB7DEB727970FB6F8945B
:1037C000DEBF0FBECDBF8091F002882349F080910B
:1037D0001D15883019F40E94FC1D02C00E943C1E79
:1037E0001092F00280E2ECE1F5E1DF011D928A9592
:1037F000E9F70E948F1B8091F002882309F4DAC058
:10380000B0901C15F12C0F2EFFE82F2E332433948B
:10381000F02D44244394512C4C0E5D1E6F2C712CC2
:10382000F301EE0FFF1FEE0FFF1FEE0FFF1FE45E11
:10383000FA4E8181873019F0893009F06CC08B2DE8
:103840000E94611D0E94341EB2E0BB120BC0F30146
:10385000EE0FFF1FEE0FFF1FEE0FFF1FE45EFA4E8D
:1038600082810AC0F301EE0FFF1FEE0FFF1FEE0F64
:10387000FF1FE45EFA4E83810E942C1E89EF94E1C3
:103880000E94C903882371F00E94761E0E943C1E8C
:103890001092F00280E2ECE1F5E1DF011D928A95E1
:1038A000E9F737C0C1010197F1F7000000C089EFC7
:1038B00094E19F938F93B7E0BF935F924F92BF9332
:1038C000812C912CA12CC12CD12CE12C00E010E0FA
:1038D00020E040E050E060E080E30E94DD04182F2B
:1038E0000E94761E0F900F900F900F900F900F90E8
:1038F000112309F458C00E943C1E1092F002F301FB
:10390000EE0FFF1FEE0FFF1FEE0FFF1FE45EFA4EDC
:103910001082B12C50C08B2D0E94FB1C0E94F41D04
:1039200082E0B8120BC0F301EE0FFF1FEE0FFF1F76
:10393000EE0FFF1FE45EFA4E82810AC0F301EE0F24
:10394000FF1FEE0FFF1FEE0FFF1FE45EFA4E838195
:103950000E94041E69EF74E186E00E94310388230F
:1039600089F00E94FC1D1092F002F301EE0FFF1F80
:10397000EE0FFF1FEE0FFF1FE45EFA4E1082118262
:10398000B12C19C0F301EE0FFF1FEE0FFF1FEE0F5A
:10399000FF1FE45EFA4EABEFB4E18C918683ACEF8F
:1039A000B4E18C918783F3948091F002F81608F4C7
:1039B00035CF01C0B12C8B2D27960FB6F894DEBF02
:1039C0000FBECDBFDF91CF911F910F91FF90EF9070
:1039D000DF90CF90BF90AF909F908F907F906F902F
:1039E0005F904F903F902F900895ECEBF0E0808136
:1039F0008B7F80830895CF93C82F80912A018C17E5
:103A000009F45AC0C23039F50E94E3182FE739E1B2
:103A1000309329012093280125E839E130932701CB
:103A20002093260128E839E13093250120932401D1
:103A300029EF39E1309323012093220125EC39E16C
:103A400030931F0120931E012DE839E130932101AD
:103A50002093200128C0C13089F50E94851980EE8D
:103A600098E1909329018093280183EE98E1909347
:103A700027018093260186EE98E19093250180939B
:103A8000240183E599E1909323018093220126E2AA
:103A900039E130931F0120931E0129EE38E1309364
:103AA000210120932001C0932A01E0912801F09187
:103AB0002901099580E003C083EC01C083ECCF911C
:103AC0000895CF93C82F80912A018C1709F487C0DD
:103AD000C230E9F50E94542120E533E230931D0104
:103AE00020931C0185EF9CE190931B0180931A01A8
:103AF0004DE453E25093190140931801309317019C
:103B00002093160126E533E230931301209312012E
:103B100027E633E230931101209310012FE833E2BE
:103B200030930F0120930E012DE633E230930D0107
:103B300020930C0121E833E230930B0120930A011A
:103B40002BEB33E230931501209314013FC0C330B7
:103B500009F047C00E94F51C86E892E290931D018F
:103B600080931C0124E531E230931B0120931A015C
:103B700029E832E23093190120931801909317013C
:103B80008093160181ED92E29093130180931201CC
:103B90008CE892E2909311018093100183EA92E203
:103BA00090930F0180930E018FED92E290930D019F
:103BB00080930C0183EE92E290930B0180930A01B3
:103BC00087EE92E29093150180931401C0932A012D
:103BD000E0911C01F0911D01099580E003C083EC88
:103BE00001C083ECCF910895E0912801F091290163
:103BF000309709F009950895E0912601F091270189
:103C0000309709F009950895E0912401F09125017C
:103C1000309711F00995089584EC0895E0911E0104
:103C2000F0911F01309711F00995089584EC0895E3
:103C3000E0912001F0912101309711F0099508954C
:103C400084EC0895E0912201F0912301309711F066
:103C50000995089584EC0895E0911801F0911901F7
:103C6000309709F009950895E0911601F091170138
:103C7000309709F009950895E0911A01F0911B0120
:103C8000309709F009950895E0911401F09115011C
:103C9000309711F00995089584EC0895E091120190
:103CA000F0911301309711F00995089584EC08956F
:103CB000E0911001F0911101309711F009950895EC
:103CC00084EC0895E0910E01F0910F01309711F00E
:103CD0000995089584EC0895E0910C01F0910D018F
:103CE000309711F00995089584EC0895E0910A0148
:103CF000F0910B01309711F00995089584EC089527
:103D0000CF93DF9300D000D0CDB7DEB7E1E6F0E08F
:103D100080E8808310820E9437120E94A11211E075
:103D20001093F1020E94A2070E94AC070E94BC10EF
:103D300088EE93E00E945F080E94B0071093DC02B7
:103D40000E9498089C838B8303EF12E00F2EF4EF00
:103D5000AF2EF2E0BF2EF02D992493940F2EF8EEA3
:103D6000CF2EF3E0DF2EF02D0F2EF0EDEF2EF7E04B
:103D7000FF2EF02D0E94C010882319F00E94E61239
:103D800030C0F8018081882381F08091DB02882394
:103D900061F080903C15F501808180933C150E9474
:103DA0006C1E80923C151092DB028B819C810E94DC
:103DB000C6108823B1F0BE016D5F7F4F80E40E9482
:103DC000020A882371F0CE0101960E942109BC01EC
:103DD00089819A810E94451180E00E94A1089C83FC
:103DE0008B838091DC02882329F2892D9091F10246
:103DF000911180E08093F1020E94C010882319F095
:103E00008E2D9F2D02C08C2D9D2D0E9475088091B6
:103E10002B01882309F4AECF0E94C91BABCF682FBA
:103E200080E090E00E947524089580E090E00E9478
:103E30006D2408958F929F92AF92BF92CF92DF929E
:103E4000EF92FF920F931F93CF93DF93CDB7DEB71F
:103E50002C970FB6F894DEBF0FBECDBFCB015A0131
:103E6000690121E030E03A83298328E0E4E8F2E0C8
:103E7000DE01159601900D922A95E1F76AE370E054
:103E80000E9441247C01009709F4C3C181E0D8015C
:103E90008C93F7018181863609F445C020F484367D
:103EA00009F094C1CCC08D3609F46BC1863709F096
:103EB0008DC10E94C91BF82E81E0F11080E0809333
:103EC0002B016CE471E0C6010E940524FF2009F477
:103ED000A2C180E00E94221A8C01DC0111968C9113
:103EE000873031F463E671E0C6010E94FA23A4C171
:103EF000883031F46BE571E0C6010E94FA239CC161
:103F0000893009F099C163E571E0C6010E94FA2386
:103F100093C1D80112968C9103C0D80113968C914D
:103F2000808310E067C1AE014D5F5F4FBE016F5FE0
:103F30007F4FC7010E94EA11182F81114BC184E005
:103F400090E09A838983EB81FC818081813011F13B
:103F500038F0823009F43FC0833009F03EC155C0CB
:103F60006EE371E0C6010E940524EC2DFD2DDF01FA
:103F70000D900020E9F711977D01EE1AFF0A4981A3
:103F80005A81C701019661E771E08C0D9D1D0E9469
:103F9000F12330C163E671E0C6010E940524EC2DD7
:103FA000FD2DDF010D900020E9F711977D01EE1A3C
:103FB000FF0A99800A810E94160697012F5F3F4FE2
:103FC0002C0D3D1D492D502F682F792F822F932FB7
:103FD0000E9426240FC16BE571E0C6010E940524F2
:103FE000EC2DFD2DDF010D900020E9F711977D01EB
:103FF000EE1AFF0A49815A81C70101966EE671E007
:104000008C0D9D1D0E94F123F5C063E571E0C60192
:104010000E940524EC2DFD2DDF010D900020E9F715
:1040200011977D01EE1AFF0A49815A81C701019655
:104030006BE671E08C0D9D1D0E94F123DBC0F70142
:1040400082818F3369F482E090E09A838983809142
:104050002B01D60111968C93E12CF12C10E0CAC0F3
:10406000AE014D5F5F4FBE016F5F7F4FC7010E9482
:10407000EA11182F8111B5C0F7018281893641F408
:10408000EB81FC81808180932B01E12CF12CB2C06B
:104090000E94C91B082F91E0811190E090932B01A1
:1040A000EB81FC8180810E94221A4C01009709F467
:1040B0009BC0DC0111969C91973049F018F499232C
:1040C000C1F01EC0983049F09930D1F40CC063E6BD
:1040D00071E0C6010E9405241BC06BE571E0C601BA
:1040E0000E94052415C063E571E0C6010E94052405
:1040F0000FC06D817E81C6010E944C2415EC08C062
:104100008FE0E5E9F2E0D60101900D928A95E1F7A2
:10411000F401808181110BC0EC2DFD2DDF010D908C
:104120000020E9F711977D01EE1AFF0A63C0E02F26
:10413000F0E0EE0FFF1FEC0FFD1F65817681C601D9
:104140000E943624EC2DFD2DDF010D900020E9F7B3
:1041500011977D01EE1AFF0A89819A8101969A834F
:104160008983F7013196EC0DFD1DD4018C918230CD
:1041700019F412968C9103C0D40113968C9180830C
:1041800039C0AE014D5F5F4FBE016F5F7F4FC7010A
:104190000E94EA11182FF7018281873619F08337C0
:1041A00039F50CC081E090E0D5018D939C930E947D
:1041B000151FF6018083E12CF12C1CC0EB81FC81E2
:1041C00080810E940F1FE12CF12C14C0E12CF12CF6
:1041D00010EC10C0E12CF12C0DC0E12CF12C13ECF3
:1041E00009C0E12CF12C06C0E12CF12C15EC02C029
:1041F000E12CF12CB6016E0D7F1DDB011C93898132
:104200009A810E94B0088E0D9F1DF50191838083D5
:1042100037C010EC35C06D817E81C6010E94362406
:10422000EC2DFD2DDF010D900020E9F711977D01A8
:10423000EE1AFF0A10E0DECFEF2DF0E0EE0FFF1FC9
:10424000EC0FFD1F65817681C6010E943624EC2D9E
:10425000FD2DDF010D900020E9F711977D01EE1A89
:10426000FF0A89819A8101969A838983F7013196A1
:10427000EC0DFD1DD8018C91823009F04ECE49CE57
:10428000812F2C960FB6F894DEBF0FBECDBFDF9105
:10429000CF911F910F91FF90EF90DF90CF90BF9043
:1042A000AF909F908F900895E0912C01F0912D0197
:1042B000908180912E01809598239083E0912F0129
:1042C000F091300190818923808380E008958430CB
:1042D00030F58093F20290E0FC01E254FD4F208122
:1042E00020932E01880F991FFC01EE53FD4F208172
:1042F00031813093300120932F01FC01E653FD4FB3
:10430000208131813093320120933101FC01EE5242
:10431000FD4F8081918190932D0180932C01089510
:104320000895E0912C01F0912D01208190912E01B2
:10433000292B2083882341F0E0912F01F091300157
:104340008081982B90830895E0912F01F0913001A6
:1043500080819095982390830895EF92FF920F9318
:104360001F93CF93DF93882309F461C0E0912C0160
:10437000F0912D01208190912E01922B90839BE34F
:104380009A9501F0E9F7C895F894E0912F01F09122
:104390003001C0912E01DC2FD095E62EA62FB72F2D
:1043A00048E050E0FF24F39460E106E618E739C0E6
:1043B0007C91792379F070817D237083762F7A95B3
:1043C00001F0E9F770817C2B7083712F7A9501F0F1
:1043D000E9F71DC070817D237083762F7A9501F0F7
:1043E000E9F770817C2B7083762F7A9501F0E9F7DD
:1043F00070817D237083762F7A9501F0E9F77081C3
:104400007C2B7083702F7A9501F0E9F7C895990F8E
:104410002150310909F0CCCF11969A2F9E19981787
:1044200018F49A019F2DC4CF789480E001C082EEE9
:10443000DF91CF911F910F91FF90EF900895CF934F
:10444000DF931F92CDB7DEB78983BE016F5F7F4FC9
:1044500081E00E94AD210F90DF91CF9108951F93CD
:10446000CF93DF93E0912C01F0912D019081209169
:104470002E01209592239083F894882309F440C05C
:10448000E0913101F091320120912E01C62FD72FFA
:1044900060E011E05EEF7AE1DE011882412F04C096
:1044A0003081322319F405C0952FFACF9150C1F70E
:1044B00023C03081322319F49150D9F71DC0972FB2
:1044C0003081322321F09150D9F709C0932F3081E8
:1044D000322341F4392F31509111F8CF03C09C9110
:1044E000942B9C93440F01F76F5F21966813D4CFF0
:1044F00007C086EE789406C06111FBCF81EFFACF3A
:1045000080E0F8CFDF91CF911F9108950E94902114
:1045100008950E94672108951F93CF93DF93182F6A
:10452000EB0180E00E941F2287E70E941F22811179
:1045300005C0BE01812F0E94AD2101C080EFDF9137
:10454000CF911F9108951F93CF93DF93182FEB0105
:10455000882341F0862FEC2FFD2F11929E2F981B60
:104560009117D8F388E80E941F22BE01812F0E9474
:104570002F22882311F0863E39F48881843040F060
:10458000181740F484EE09C0813F31F487EE05C06E
:1045900084EE03C080E001C086EEDF91CF911F91D1
:1045A000089580E00E9491218CE00E94190681E02C
:1045B0000E94912183E00E94310680E008958BEBF8
:1045C0000E941F2208958CEC0E941F2208951F93C1
:1045D000CF93DF93182FEB0185E50E943106BE01D2
:1045E000812F0E94621EDF91CF911F9108951F932A
:1045F000CF93DF931F92CDB7DEB790913C15892BF7
:1046000089830E945306182F81110AC0BE016F5F73
:104610007F4F81E00E948406182F81110E946E0650
:10462000812F0F90DF91CF911F910895FF920F93EB
:104630001F93CF93DF931F92CDB7DEB78983F62EFA
:104640008A0180E00E94F722882321F00E946E06F2
:1046500080EF1CC0BE016F5F7F4F81E00E94840627
:10466000811111C0F11004C00E946E0680E00EC0DE
:10467000B8018F2D0E948406182F0E946E06112308
:1046800021F080EF03C080EF01C080E00F90DF9148
:10469000CF911F910F91FF90089580933C1508953D
:1046A0000E943C0688EC80933C1508950E94D80730
:1046B0001092F3021092BC00519A59988CE00E941B
:1046C0001906599A8AEF0E94190680E00895AB01F5
:1046D000682F83E00E94162308958091F3028111D0
:1046E00009C00E94C60781E08093F30280913C15C7
:1046F0008093F40240E050E060E082E00E941623E4
:10470000089540E050E060E081E00E9416230895A3
:1047100040E050E060E080E00E94162308951F937F
:10472000CF93DF93182FEB0181E00E94F7228823BB
:1047300019F0883FE1F418C0CE010E94B80681113B
:1047400015C08881843010F0181720F40E946E067E
:1047500084EE0DC0BE016F5F7F4F81500E94D50671
:10476000882329F080EF03C087EE01C080EFDF913E
:10477000CF911F910895CF93DF931F92CDB7DEB7EE
:104780008FEF89830E945306BE016F5F7F4F81E0E8
:104790000E94840681E00E94F722811107C00E94D6
:1047A0006E06811105C00E94882303C080EF01C0FE
:1047B00080EF0F90DF91CF910895A29FB001B39F3A
:1047C000C001A39F01D0B29F700D811D1124911DC6
:1047D00008959111089581548A5108F4805E855A94
:1047E0000895FB01DC0102C005900D92415050403C
:1047F000D8F70895FB01DC010D900020E9F711972F
:1048000005900D920020E1F70895FB01DC01059071
:104810000D920020E1F70895FC014150504030F026
:1048200001900616D1F73197CF010895882799276F
:104830000895FB01DC0104C08D910190801921F4E1
:1048400041505040C8F7881B990B0895FB01DC01CB
:1048500002C001900D9241505040D8F70895DC01FC
:1048600001C06D9341505040E0F70895FB01DC0119
:104870000D900020E9F7119701900D920020E1F7CB
:104880000895FC018191861721F08823D9F7992793
:1048900008953197CF010895FB01DC0101900D923D
:1048A0000020E1F70895FB0151915523A9F0BF01C4
:1048B000DC014D9145174111E1F759F4CD0101900B
:1048C000002049F04D9140154111C9F3FB01411100
:1048D000EFCF81E090E001970895F999FECF92BD66
:1048E00081BDF89A992780B50895262FF999FECFB2
:1048F0001FBA92BD81BD20BD0FB6F894FA9AF99AFD
:0A4900000FBE01960895F894FFCF52
:10490A000100F00730000000035D81236D238F232F
:10491A0067235623BB2350234D23F51C5023C51967
:10492A008D19F919881985197F1902012400802522
:10493A0000230009110000000000718109114000E4
:10494A00000000EF82090C00000000000000090EC0
:10495A000000000000D99C091000000000000000BF
:10496A000200000067E6096A85AE67BB72F36E3C17
:10497A003AF54FA57F520E518C68059BABD9831F20
:10498A0019CDE05B982F8A4291443771CFFBC0B5AD
:10499A00A5DBB5E95BC25639F111F159A4823F9200
:1049AA00D55E1CAB98AA07D8015B8312BE85312459
:1049BA00C37D0C55745DBE72FEB1DE80A706DC9B1A
:1049CA0074F19BC1C1699BE48647BEEFC69DC10FC6
:1049DA00CCA10C246F2CE92DAA84744ADCA9B05C02
:1049EA00DA88F97652513E986DC631A8C82703B0C5
:1049FA00C77F59BFF30BE0C64791A7D55163CA06D3
:104A0A0067292914850AB72738211B2EFC6D2C4DDE
:104A1A00130D385354730A65BB0A6A762EC9C281CC
:104A2A00852C7292A1E8BFA24B661AA8708B4BC262
:104A3A00A3516CC719E892D1240699D685350EF48C
:104A4A0070A06A1016C1A419086C371E4C77482743
:104A5A00B5BCB034B30C1C394AAAD84E4FCA9C5BB9
:104A6A00F36F2E68EE828F746F63A5781478C8840A
:104A7A000802C78CFAFFBE90EB6C50A4F7A3F9BEEC
:104A8A00F27871C6A402AF02B402B9027377006960
:104A9A003200737000756E6B6E6F776E5F64657649
:104AAA00696365006E6F5F646576696365200053AC
:104ABA00504920005457492000535749200080404C
:104ACA0004022500250025002B00230023002300D3
:0A4ADA0029002400240024002A0013
:00000001FF
