:100000000C9455010C9474010C9474010C947401BB
:100010000C9474010C9474010C9474010C9474018C
:100020000C9474010C9474010C9491150C9474014B
:100030000C94F2080C9474010C9474010C947401E7
:100040000C9474010C9474010C9474010C9474015C
:100050000C9474010C9474010C9474010C944C086D
:100060000C9474010C9474010C9474010C9474013C
:100070000C9474010C9474010C9474010C9474012C
:100080000C9474010C9474010C9474010C94860803
:100090000C9474010C947401EA05F8050E060E0622
:1000A0000E060E060E06D8050E060E060E060E06E7
:1000B0000E060E060E060E06C80507060E060E06EE
:1000C000C005E005D0050E060E060E06F005110669
:1000D0000E060E060E0600060E060E060E060E068E
:1000E0000E060E060E06B2050E060E060E060E06CD
:1000F0000E060E060E06BA05EF0F8A10B10F8A1013
:100100008A108A108A108A10E80F8A108A108A10C2
:100110008A108A108A1000108A10C20FDC0FFF0E9E
:100120008A108A10930F550F5F0F700F700F700FAA
:10013000700F700F480F700F700F700F700F700FEF
:10014000700F700F700F3E0F6B0F700F700F390F25
:100150004D0F430F700F700F700F5A0F2F0F700F4E
:10016000700F700F660F700F700F700F700F700FA1
:10017000700F700F2A0F700F700F700F700F700FCD
:10018000700F700F340F19106C10681093109310CB
:10019000931070109310931093109310931093106A
:1001A000931093102A10441093109310931016106C
:1001B000CE1453146915931469151B143C13691557
:1001C000F7133D141015431506FFFF0901A101099E
:1001D000020903150026FF007508954081020904F5
:1001E0000905150026FF00750895409102090609CA
:1001F00007150026FF0075089504B102C004030925
:10020000042603430072007900700074006F002020
:10021000004400650076006900630065002000442A
:100220000065006D006F000C03410054004D004557
:10023000004C00090229000101008032090400007D
:100240000203000000092111010001223500070509
:10025000810340001407050203400014120100024C
:1002600000000040EB031223001001020001415482
:100270003838434B4543435349474E455220004588
:1002800043435349474E2000454343313038200013
:10029000414553313332200053484132303420003D
:1002A0000001000101000100050011241FBECFEF75
:1002B000D0E2DEBFCDBF12E0A0E0B1E0E6EAF8E4B4
:1002C00000E00BBF02C007900D92AA3DB107D9F71D
:1002D00025E1AAEDB2E001C01D92AD33B207E1F70E
:1002E0000E945C1E0C9451240C940000BF92CF928B
:1002F000DF92EF92FF920F931F93CF93DF938823A8
:1003000099F1B62EE62FF72F60E090E06894CC24A8
:10031000C3F8D12C6894EE24E7F805E011E0F12C45
:100320001EC0B62FBB1FBB27BB1F660FA92FAA1F5E
:10033000AA27AA1F6A2B990FA12FC72FCD2309F433
:10034000AF2DAB1711F090276058769521503109E9
:100350002115310531F72E2F2B19281738F4D1919B
:100360002C2D3D2D7E2DDDCF60E090E0FA016083E5
:100370009183DF91CF911F910F91FF90EF90DF90CC
:10038000CF90BF90089540E050E060EE7FEF80E0B6
:100390000E94F41D08950E94FE1D811102C00E945A
:1003A000C3010895CF93DF93EC01AC0160EF7FEFC1
:1003B00081E00E94EA1D882331F0AE0160EF7FEFFB
:1003C00081E00E94EA1DDF91CF910895EF92FF92A4
:1003D0000F931F93CF93DF931F92CDB7DEB7F82E05
:1003E000E62E8A01AE014F5F5F4F60EF7FEF81E045
:1003F0000E94EA1D803A69F0811117C081E0E8127D
:1004000005C089818F218F1104C00AC099819F2165
:1004100049F0980121503109012B31F08901E2CFD7
:1004200080E003C080E001C087EE0F90DF91CF91A4
:100430001F910F91FF90EF90089540E659E060E022
:1004400081E00E94E601089548E95DE061E080E412
:100450000E94E60108957F928F929F92AF92BF9281
:10046000CF92DF92EF92FF920F931F93CF93DF9380
:1004700000D0CDB7DEB7B82E8B016894CC24C1F87C
:100480007B018FEFE81AF80A0F2EF5EE8F2EF02D74
:100490000F2EF4EEAF2EF02D0F2EF2EA9F2EF02D40
:1004A0000E942402D82E882319F00E94CB014BC051
:1004B000A80160E07EEF81E00E94EA1DD82E88232B
:1004C00019F00E94CB013FC0F8017080B71420F4EE
:1004D0000E94CB01D92C37C08CEF870D813320F0DF
:1004E0000E94CB01DA2C2FC0A70160E07EEF8FEFD6
:1004F000870D0E94EA1DD82E882319F00E94CB0197
:1005000022C07A947A94AE014F5F5F4FB801872D75
:100510000E947601272D30E0F801E20FF31F998148
:10052000808198130AC0F801E20FF31F9A8181813C
:10053000981303C0F801818109C00E94CB01D82C17
:1005400002C08D2D03C0CA94E1F3AACF0F900F9083
:10055000DF91CF911F910F91FF90EF90DF90CF909F
:10056000BF90AF909F908F907F9008958F929F92B1
:10057000AF92BF92CF92DF92EF92FF920F931F93B1
:10058000CF93DF9300D000D0CDB7DEB7982E8B018C
:100590007A01A22E6894BB24B1F86894882481F86B
:1005A000C82C0E941D02D82E811124C0A11018C091
:1005B000A701B801892D0E94F41DD82E811118C001
:1005C00001151E4FF0F483E00E949106BE016F5F9B
:1005D0007F4F84E00E942B02811119C08A8117C0CD
:1005E000A701B801892D0E94EA1DD82E882359F051
:1005F000CA94B9F6BA9441F00E94CB01D110D0CF81
:1006000005C080E004C003C08D2D01C08D2D0F906A
:100610000F900F900F90DF91CF911F910F91FF904E
:10062000EF90DF90CF90BF90AF909F908F90089504
:1006300020E00E94B6020895AF92BF92CF92DF925F
:10064000EF92FF920F931F93CF93DF931F92CDB73B
:10065000DEB78C01E62EFC01D08060FD0BC04D2D75
:1006600050E042505109480F591FBC018EEF8D0DCB
:100670000E9476016894FF24F1F8FE2DF270CF2ECF
:100680000F2EF4EDAF2EF02DA80160E07EEF8D2D42
:100690000E94180381111EC0EC2CC11016C0AE01BF
:1006A0004F5F5F4F60EF7FEF81E00E94EA1DB82E41
:1006B000811104C0898184FD0CC00FC080EAB81686
:1006C00061F00E94CB01EB2C08C0E12C06C0E82EA3
:1006D00004C08A2DFA94D9F3D7CF8E2D0F90DF91D5
:1006E000CF911F910F91FF90EF90DF90CF90BF902F
:1006F000AF9008951F93CF93DF93CDB7DEB7629786
:100700000FB6F894DEBF0FBECDBF182F99E0E3E31C
:10071000F1E0DE01119601900D929A95E1F799E0D2
:10072000ECE3F1E0DE011A9601900D929A95E1F763
:100730000E94C30181110DC0111106C063E0CE01FA
:1007400001960E941C0305C063E0CE010A960E9438
:100750001C0362960FB6F894DEBF0FBECDBFDF91CB
:10076000CF911F91089580E00E947A03089580E45C
:100770000E947A03089521E00E94B6020895FF9234
:100780000F931F93CF93DF93162FF42EE901602F61
:100790000E941C03811109C0112319F0812F0E94AE
:1007A0009106BE018F2D0E942B02DF91CF911F91E8
:1007B0000F91FF9008950F93CF93DF93CDB7DEB7DE
:1007C00029970FB6F894DEBF0FBECDBF9B0199E00D
:1007D000E5E4F1E0DE01119601900D929A95E1F7C2
:1007E0008D8300E046E060E0CE0101960E94BF03E9
:1007F00029960FB6F894DEBF0FBECDBFDF91CF9123
:100800000F910895CF92DF92EF92FF920F931F9373
:10081000CF93DF93882369F1C62EE62FF72F20E0D0
:1008200030E06894DD24D3F8E12CFF24F3941F2DED
:1008300000E01AC0B32FBB1FBB27BB1F220F331F03
:10084000A12FC92FCD2309F4A02FAB1719F0A5E0D4
:100850002A273058990F615071096115710551F7B8
:100860009E2F9C19981738F4D1916D2D7E2D9F2DB8
:10087000E1CF20E030E0FA0120833183DF91CF9196
:100880001F910F91FF90EF90DF90CF900895FF920E
:100890000F931F93CF93DF9300D0CDB7DEB78C01BA
:1008A000FC01F080FA94FA94AE014F5F5F4FBC01F7
:1008B0008F2D0E9402048F2D90E0F801E80FF91FA0
:1008C00039812081321309C0F801E80FF91F9A819C
:1008D0008181981721F085EE03C085EE01C080E08C
:1008E0000F900F90DF91CF911F910F91FF9008957E
:1008F000CF93DF93EC010E942A1E81111FC0BE011D
:1009000084E00E943E1E811119C08881843059F410
:100910008981813151F48A81833349F48B81833415
:1009200041F480E00BC0C4EE05C0C0EF03C0C5EECB
:1009300001C0C5EE86E40E9491068C2FDF91CF9115
:100940000895CF93DF93EB010E94201E882341F08E
:100950000E94521ECE010E947804811101C088EECF
:10096000DF91CF9108952F923F924F925F926F92B5
:100970007F928F929F92AF92BF92CF92DF92EF922F
:10098000FF920F931F93CF93DF9300D000D01F925D
:10099000CDB7DEB74C01762E5A01322EFC015080C5
:1009A000EEEFE50D202F30E0A8EEB3E00E94A82383
:1009B0006B017C01F5E2CF0ED11CE11CF11CA401FE
:1009C0004E0F511DB4018E2F0E9402040F2EF3E032
:1009D0006F2EF02D10EE6894222421F80A2D76C097
:1009E000B401852D0E94341E182F882341F0B501D3
:1009F000872D0E94A104873E09F068C06DC0832D39
:100A00000E949106422C5BC011928E2F801B87158D
:100A1000D8F3C982DA82EB82FC82B501872D0E946D
:100A20003E1E182F89819A81AB81BC818597A109CF
:100A3000B10989839A83AB83BC8389819A81AB8115
:100A4000BC818697A105B10518F0173E31F30CC0A3
:100A50001D83173E49F4B501872D0E94A104873EEE
:100A600009F43CC01D8132C0143E51F4B501872DFC
:100A70000E94A104882309F1883E41F184EE37C029
:100A8000C5010E944704182F81110DC0F501808116
:100A9000853030F58181833029F18F3029F18F3F06
:100AA000A1F080E024C0B501872D0E94A104882315
:100AB00021F0883E59F0812F1AC04A9439F07720EE
:100AC00009F4A7CFEA2DFB2D9FCF14ED6A9471F0A6
:100AD000111186CF812F0BC0812F09C087EE07C06F
:100AE00080E005C082ED03C083ED01C0812F0F902F
:100AF0000F900F900F900F90DF91CF911F910F915A
:100B0000FF90EF90DF90CF90BF90AF909F908F902D
:100B10007F906F905F904F903F902F9008952F920D
:100B20003F924F925F926F927F928F929F92AF927D
:100B3000BF92CF92DF92EF92FF920F931F93CF93CA
:100B4000DF93CDB7DEB7D8016E887F88282E312C91
:100B5000F1013197E033F10508F060C0E45BFF4F2D
:100B60000C94A22394E0988F0AE10F2EFCE0BF2E94
:100B7000F02D6CC0E7E0E88F01E0BB24B39466C0C1
:100B8000F4E0F88F00E20F2EFBE0BF2EF02D5EC0E8
:100B900093E2988F0BE20F2EFBE1BF2EF02D56C093
:100BA000E4E0E88F03E10F2EF5E0BF2EF02D4EC0FC
:100BB000F3E2F88F07E10F2EFCE0BF2EF02D46C0C8
:100BC0006330B9F594E0988F07E20F2EF6E1BF2E5F
:100BD000F02D3CC0E4E0E88F01E0BB24B39436C0C4
:100BE000F3E2F88F08E20F2EFBE0BF2EF02D2EC0AF
:100BF00066233CF593E2988F03E0BB24B39426C0B0
:100C0000E4E0E88F04E06894BB24B3F81FC0F4E08C
:100C1000F88F06E26894BB24B2F818C006E4B12C41
:100C200015C094E0988F01E30F2EFEE0BF2EF02D4B
:100C30000DC0E3E2E88F07E20F2EF6E1BF2EF02DA4
:100C400005C0F7E0F88F03E0BB24B3941E2D1A0D06
:100C5000120F97E0910FF3019083818362834383A6
:100C60002301F5E04F0E511CF3015483222349F078
:100C7000222E312CA101BD01C2010E94F423420C9D
:100C8000531CEE2041F0F12CA701B601C2010E94D5
:100C9000F4234E0C5F1CAA2049F0EA2CF12CA7018A
:100CA000B401C2010E94F4234E0C5F1CA201B301E7
:100CB00085E0810F0E9402042B2D498D5A8D688D8D
:100CC000C3010E94B304DF91CF911F910F91FF9058
:100CD000EF90DF90CF90BF90AF909F908F907F90DC
:100CE0006F905F904F903F902F90089580E691E035
:100CF0000895CF93DF931F92CDB7DEB7882369F0B5
:100D00002EE029839981992331F09981915099831B
:100D100099819111FACF8150A1F70F90DF91CF9176
:100D20000895CF93C82F882329F088E60E9479067A
:100D3000C150D9F7CF910895E4E6F0E080818F7734
:100D400080838AB18C7F8AB98BB183608BB98CE048
:100D50008093B80008951092BC00E4E6F0E0808132
:100D600080688083089584EA8093BC008AEFECEB6E
:100D7000F0E002C0815061F090819923DCF780910E
:100D8000B900887F883031F0803131F480E00895F7
:100D900081EF089580E0089580EF089584E98093BD
:100DA000BC008AEFECEBF0E002C0815049F090818A
:100DB00094FDFBCF8091B900887F21F480EF0895E6
:100DC00081EF089580E00895EF92FF921F93CF93F3
:100DD000DF93882339F1162FA62FB72F0F2EFBEBA9
:100DE000EF2EF12CF02DECEBF0E064E858EC29EB61
:100DF00030E09D91E70198836083952F02C0915068
:100E000099F040814423DCF7E9019881987F98317B
:100E100021F0983211F0903449F49A2F911B9817D1
:100E200040F306C080E005C081EF03C088EF01C039
:100E300080E0DF91CF911F91FF90EF90089524EC17
:100E40002093BC0028ECECEBF0E002C0215091F0C4
:100E500030813323DCF72091B900287F203521F041
:100E60000E94CE0680EF08952091BB00FC012083F4
:100E700080E0089581EF0895AF92BF92DF92EF92E4
:100E8000FF920F931F93CF93DF93482F50E0415071
:100E90005109141615069CF5D62EA62FB72FECEB8C
:100EA000F0E00F2EF4ECEF2EF02D0F2EF8ECFF2ECD
:100EB000F02D0F2EF9EBAF2EB12CF02D0BEB10E037
:100EC000E0828F2D02C08150B1F190819923DCF72F
:100ED000E5018881887F803521F00E94CE0680EF71
:100EE0002DC0CD010196BC01E80128812C93282F4B
:100EF0002D1930E02417350714F4DC01E1CF84E824
:100F00008093BC0088ECECEBF0E002C08150A9F0CB
:100F100090819923DCF78091B900887F883521F092
:100F20000E94CE0680EF0AC08091BB00FB01808347
:100F30000E94CE0603C081EF01C081EFDF91CF9107
:100F40001F910F91FF90EF90DF90BF90AF900895A9
:100F5000811103C01092DA02089583EE0895299852
:100F6000289808952998289A0895CF93DF931F927F
:100F7000CDB7DEB784B1866084B92998209A289AC3
:100F80002B9AE4E6F0E080818B7F808380E58CBD46
:100F900081E08DBD8DB589838EB589830F90DF91FA
:100FA000CF9108958CB58F7B8CBDE4E6F0E0808115
:100FB0008460808384B1897F84B920980895CF9319
:100FC000DF931F92CDB7DEB7882381F0E62FF72F8E
:100FD00091919EBD92E302C0915051F00DB407FE75
:100FE000FBCF9EB59983815099F704C080E003C080
:100FF00081EF01C080E00F90DF91CF9108958823A9
:10100000B1F0E62FF72F2AEF1EBC922F08C09150A7
:1010100031F40DB407FE0DC08EB587EE08950DB402
:1010200007FEF5CF9EB59193815071F704C080E023
:10103000089587EE089580E008958AB188638AB99B
:101040006A9884B1816184B92C9A289A0895089588
:101050005C985D985B9808950895089508958EE1D1
:101060008093DD02EEE6F0E080818E7F808314BC09
:1010700085E085BDA89A8081816080831092DB0223
:101080000895EEE6F0E080818E7F808315BCA89AFB
:1010900080818160808308951F920F920FB60F9216
:1010A00011248F938091DD0281508093DD028111A4
:1010B00006C081E08093DB028EE18093DD028F9198
:1010C0000F900FBE0F901F901895E1E7F0E0808120
:1010D0008E7F80831092900082E080939100109226
:1010E0009200C09A8081816080830895E1E7F0E0FA
:1010F00080818E7F808310929100C09A8081816070
:1011000080831092DF021092DE0208951F920F92E8
:101110000FB60F9211248F939F938091DE029091CE
:10112000DF02892B21F482E08093E10217C08091D5
:10113000DE029091DF0201979093DF028093DE023E
:10114000892B39F08FE298EF90939500809394006B
:1011500005C01092910081E08093DC029F918F91F5
:101160000F900FBE0F901F901895880F991F8095B4
:10117000909590939500809394000E94650810923A
:10118000E1028091E1028823E1F30E94760808954C
:101190000F931F93CF93DF938C01009751F0C0E022
:1011A000D0E088EE93E00E94B5082196C017D107E1
:1011B000C1F7DF91CF911F910F910895E1E7F0E022
:1011C00020812E7F20839093DF028093DE02109295
:1011D000DC028FE298EF90939500809394000E9438
:1011E000650808951F920F920FB60F9211248F93E6
:1011F00081E08093E0028F910F900FBE0F901F90BF
:1012000018958091E3029091E4028F50944F0895D5
:10121000682F70E04CEF58E081EF9BE00E94FD23C7
:101220001092E4021092E30281EF9BE008959F92F6
:10123000AF92BF92CF92DF92EF92FF920F931F93E4
:10124000CF93DF936B018C0101501109EC01C15068
:10125000D048CC0FDD1F5E0125E0A20EB11CFB01C2
:10126000EC0FFD1F2AE02483229629E22383011537
:101270001105E1F07B01E80EF91EC60FD71F0150E2
:101280001109F70192907F01892D0E947C118883BA
:10129000892D82958F700E947C11FE013197808389
:1012A00022970115110559F7C2E0D0E0F601EC0FC5
:1012B000FD1F88E28083F601F0808E010150110944
:1012C0000C0D1D1D8F2D0E947C11F801808322972B
:1012D000CC0DDD1D8F2D82958F700E947C1188832F
:1012E000C501DF91CF911F910F91FF90EF90DF909B
:1012F000CF90BF90AF909F900895AF92BF92CF9242
:10130000DF92EF92FF920F931F93CF93DF931F9281
:10131000CDB7DEB76C011982E090E302F090E402F1
:1013200080E00E942C0880E00E942D0880E00E944E
:101330002E0881E090E00E9491068091E6028823C9
:1013400079F08093F50281E090E0D6018D939C9333
:1013500065EF72E00E941709F60191838083A3C0B4
:101360005701F1E0AF1AB1088CEF98E0E5EFF2E039
:10137000DF019C011D9221503040E1F7A114B1041E
:1013800089F001EF1BE0C7018051944F7C01D80127
:101390008C9190E00E94B723F80181938F01EE15A4
:1013A000FF05A9F78091F10B8C3681F44091E3029F
:1013B0005091E4026AE370E081EF9BE00E94DA233F
:1013C000BC01009729F06F5F7F4F02C061EF7BE0A7
:1013D000DB018C91853609F128F4813641F08236A3
:1013E00039F13AC0893681F1833761F035C026EF93
:1013F00032E0A6018A2D0E94880B182F81E00E94FE
:101400002D0830C026EF32E0A601C5010E94D80E9B
:10141000182F81E00E942C0825C026EF32E0A6019B
:10142000C5010E94D80E182F81E00E942E081AC014
:101430008E010F5F1F4F25EF32E0A6018A2D90E04D
:101440000E94FA1E182F0EC026EF32E0A601C50139
:101450000E94810E182F06C081E090E0F601918372
:10146000808310EC998191111EC01093F502D60172
:101470008D919C9111978B37910518F401968D935E
:101480009C93F601808191818C37910528F082EC44
:101490008093F5028BE790E065EF72E00E941709F8
:1014A000D6018D939C931092E5021092E20285EF93
:1014B00092E00F90DF91CF911F910F91FF90EF90ED
:1014C000DF90CF90BF90AF900895CF92DF92EF92D0
:1014D000FF920F931F93CF93DF93882309F46DC07E
:1014E0004091E7022091E3023091E4021091E6027C
:1014F0000091E502D091E20290E0C3E0A1EFBBE0F1
:10150000EE24E394F12CC12CD12C413029F008F4C5
:1015100060C0433049F142C0F901EF50F44F5081AF
:101520005A30D9F404C0D1E010E020E030E010934C
:10153000E602D093E2021092E70281E08093E50296
:10154000C90101969093E4028093E3022F50344F37
:10155000FB013183208381E047C02C3FF8E03F0747
:10156000E0F42F5F3F4F1AC0F901EF50F44F508164
:101570005A30A1F43093E4022093E302D093E202C4
:101580009F01FB01318320831092E70281EC80935D
:10159000E60281E08093E50227C04C2F9F5F9813FD
:1015A000B4CF4093E7023093E4022093E302109318
:1015B000E6020093E502D093E2028091E30290916B
:1015C000E4028F50944FFB01918380838091E50268
:1015D0000BC02C912A3009F4A6CFDE2D0F2D1F2D24
:1015E0004E2D2C2D3D2DBDCFDF91CF911F910F9111
:1015F000FF90EF90DF90CF9008959F92AF92BF92AF
:10160000CF92DF92EF92FF920F931F93CF93DF93CE
:1016100000D000D0CDB7DEB7982E7B016A0159010A
:10162000AE014D5F5F4FBE016F5F7F4FC7010296F6
:101630000E94D711882319F0F601108259C00B813E
:101640001C81F70180818737C9F5F801618170E05D
:10165000762F66278281680F711D911025C0611554
:10166000FEEF7F0708F5A8014D5F5F4FF80180810D
:101670000E941803803FA8F40E94C301811138C062
:10168000A50160E07EEF84E00E94BB03813930F465
:10169000F5018081F601808380E02AC0F601108286
:1016A00027C0F601108224C0A8014D5F5F4FF801EA
:1016B00080810E94F41DF60110821AC0F801618138
:1016C00070E0762F66278281680F711D911005C02A
:1016D000A50180810E94BB0305C0A501F80180819E
:1016E0000E94EA1D811104C0F8019081F6019083E7
:1016F0000F900F900F900F90DF91CF911F910F914E
:10170000FF90EF90DF90CF90BF90AF909F900895A3
:10171000AF92BF92CF92DF92EF92FF920F931F93FF
:10172000CF93DF9300D000D000D0CDB7DEB77B01E0
:101730006A0159011D826AE370E0C7010E940F240B
:101740008C01009709F433C1FC018181833761F476
:10175000CE0106960E94D201811120C19E81F50121
:10176000908391E09D831AC18D3659F4B8016E5F64
:101770007F4F9501AE014B5F5F4F80E00E94FD0AF5
:101780000DC1843709F051C0AE014D5F5F4FBE01FE
:101790006F5F7F4FC80102960E94D711182F8111E9
:1017A00008C100E095014BE761E08B819C810E94BC
:1017B000BF03811104C0F50190819D83F2C081397E
:1017C00028F4F50180818D83812FEBC0873E18F4CA
:1017D0009D81992319F0803F09F0E0C01D820E948D
:1017E000C3018111DBC01E82AE014A5F5F4F60E022
:1017F0007EEF81E00E94EA1D8111D0C09E81F5013B
:101800009083911103C091E09D83C8C09C3710F074
:101810008BE78E838E818D83A5014F5F5F4F60E0E4
:101820007EEF81500E94EA1DB9C0833691F5F80120
:101830008281823771F489E0F701982F11929A958D
:10184000E9F7F7018083118262E0C7010E941C035F
:10185000A5C0AE014D5F5F4FBE016F5F7F4FC801F6
:1018600002960E94D7118111B0C08B819C81F80132
:101870002281233751F4FC018081882319F00E94D2
:10188000B7038CC00E94B30389C060E00E941C03B0
:1018900085C08237D9F4AE014D5F5F4FBE016F5FE7
:1018A0007F4FC80102960E94D711182F811182C064
:1018B000EB81FC81B50180810E942B02803F08F002
:1018C0006FC0F50180818D83812F6BC0873751F404
:1018D000F8018281843619F40E941D025FC00E94C3
:1018E00024025CC0803709F06AC06AE370E0C80176
:1018F00001960E940F24009709F45DC0FC0121812C
:101900002936B9F46AE370E001960E940F2400972B
:1019100009F453C0FC018181893621F482E00E94E0
:10192000D71C3CC0833709F04CC081E00E94D71C13
:1019300035C02D3659F4BC016E5F7F4F9501AE0165
:101940004B5F5F4F81E00E94FD0A28C02337C1F43E
:10195000FC012281293719F40E94FE1D1FC0AE012F
:101960004D5F5F4FBE016F5F7F4F02960E94D711A0
:1019700081112BC0EB81FC8180810E94E01D0EC093
:101980008CE9820F8230F8F4253621F40E94D01DB4
:1019900080E007C00E94D81D80E003C0803F08F0AF
:1019A0001D822D8130E0F601318320830EC080EC52
:1019B0000CC00BC00AC080EC08C080EC06C080ECF4
:1019C000F0CF80ECEECF80ECECCF26960FB6F894FB
:1019D000DEBF0FBECDBFDF91CF911F910F91FF9062
:1019E000EF90DF90CF90BF90AF900895EF92FF926D
:1019F0000F931F93CF93DF9300D000D0CDB7DEB706
:101A0000CB018A0179016AE370E00E940F24F8019A
:101A1000118210820097D1F1FC0121812437C1F499
:101A2000AE014D5F5F4FBE016F5F7F4F02960E9418
:101A3000D711811127C06B817C8189810E946B2124
:101A4000F701808321E030E0F8013183208318C062
:101A50002237F1F4AE014D5F5F4FBE016F5F7F4FE4
:101A600002960E94D71181110DC0B70189810E9491
:101A7000F121F701808329813A81F80131832083A4
:101A8000882341F0F8011182108204C080EC02C06A
:101A900080ECF8CF0F900F900F900F90DF91CF91C7
:101AA0001F910F91FF90EF900895EF92FF920F9387
:101AB0001F93CF93DF9300D000D0CDB7DEB7CB011B
:101AC0008A0179016AE370E00E940F24F801118213
:101AD0001082009709F453C0FC0121812437C1F41E
:101AE000AE014D5F5F4FBE016F5F7F4F02960E9458
:101AF000D711811140C06B817C8189810E94E406ED
:101B0000F701808381E090E0F801918380833BC0FE
:101B10002237D9F4AE014D5F5F4FBE016F5F7F4F3B
:101B200002960E94D711811126C0EB81FC81B7017A
:101B300080810E943C0781111EC0EB81FC81808165
:101B400090E0F801918380831EC02337D1F4FC011B
:101B50008381813619F40E94B30604C08F36A9F43C
:101B60000E94CE06F701808321E030E0F801318346
:101B70002083882371F0F801118210820AC080EC62
:101B800008C080ECF8CF80E004C080ECF7018083CF
:101B9000F2CF0F900F900F900F90DF91CF911F9188
:101BA0000F91FF90EF900895DF92EF92FF920F93C5
:101BB0001F93CF93DF9300D000D0CDB7DEB7CB011A
:101BC0008A0179016AE370E00E940F24F801118212
:101BD0001082009709F47EC0FC0121812436F1F4C3
:101BE000AE014D5F5F4FBE016F5F7F4F02960E9457
:101BF000D711D82E811108C0EB81FC818081882308
:101C000019F00E94B50702C00E94D207F7011082A6
:101C100021E030E0F8013183208356C02337F1F40E
:101C2000AE014D5F5F4FBE016F5F7F4F02960E9416
:101C3000D711D82E811108C0EB81FC8180818823C7
:101C400019F00E94AF0702C00E94B207F70110828C
:101C500021E030E0F8013183208336C02437D1F40D
:101C6000AE014D5F5F4FBE016F5F7F4F02960E94D6
:101C7000D711D82E81112AC06B817C8189810E9465
:101C8000DF07D82EF701808321E030E0F8013183AF
:101C900020831AC0223719F5AE014D5F5F4FBE0198
:101CA0006F5F7F4F02960E94D711D82E81110EC010
:101CB000B70189810E94FF07D82EF70180838981AF
:101CC0009A81F80191838083DD2071F0F8011182FF
:101CD00010820AC00F2EF0ECDF2EF02D05C00F2E63
:101CE000F0ECDF2EF02DF2CF8D2D0F900F900F9096
:101CF0000F90DF91CF911F910F91FF90EF90DF90A8
:101D00000895AF92BF92CF92DF92EF92FF920F931E
:101D10001F93CF93DF936C01CB015A0179016AE3E2
:101D200070E00E940F24EC010097A1F18C010F5F7D
:101D30001F4F6CE872E0C8010E942124892B19F41E
:101D4000C981C13339F49701A501B801C6010E94C8
:101D5000F60C23C06FE872E0C8010E942124892B91
:101D600011F4C23339F49701A501B801C6010E94EC
:101D7000550D13C062E972E0C8010E942124892B2D
:101D800011F4C33349F49701A501B801C6010E94BB
:101D9000D40D03C080EC01C080ECDF91CF911F9186
:101DA0000F91FF90EF90DF90CF90BF90AF9008958C
:101DB000CF92DF92EF92FF920F931F93CF93DF9317
:101DC00000D000D0CDB7DEB7CB017A0169016AE35C
:101DD00070E00E940F24F70111821082009709F42D
:101DE00097C1FC01018110E0F801E156F109E731EA
:101DF000F10508F08FC1E458FF4F0C94A223AE0107
:101E00004D5F5F4FBE016F5F7F4F02960E94D711FB
:101E1000182F811181C1F601108280910001882361
:101E200029F0C6010E947804811180C1AB81BC8178
:101E300012968C91129711964C91119750E0415047
:101E400051094033510508F04BC04D565F4FFA0120
:101E50000C94A22386E28093ED1464E049C08FE3E2
:101E60008093ED1464E044C082E08093ED1467E059
:101E70003FC08BE28093ED1464E03AC086E4809327
:101E8000ED1463E235C088E18093ED1464E030C066
:101E900083E28093ED1463E22BC09DE39093ED14F5
:101EA0008370833011F564E023C082E08093ED14E9
:101EB00064E01EC083E38093ED1463E219C094E0F4
:101EC0009093ED1488239CF463E212C08CE080931D
:101ED000ED1464E00DC08AE28093ED1464E008C064
:101EE00088EC8093ED146BE403C063E201C067E00B
:101EF0000091ED14055025E0A601CD010E94B30428
:101F00009FE2980F953008F0182FF601208130E0FD
:101F1000F7013183208380910001882309F4FDC0FB
:101F20000E94481E03C180910001882381F084E053
:101F3000F601808381E1818383E3828383E4838369
:101F400084E090E0F7019183808380E0EFC0C601D8
:101F50000E947804F601208130E0F701318320836C
:101F6000E5C0AE014D5F5F4FBE016F5F7F4F0296D0
:101F70000E94D7118111DAC06B817C8189810E9416
:101F8000341ED4C0AE014D5F5F4FBE016F5F7F4F07
:101F900002960E94D7118111C9C0F6011082EB810F
:101FA000FC81B60180810E943E1EF601208130E056
:101FB000F70131832083BAC080910001882329F082
:101FC000C6010E9478048111B1C00E94521EAEC0A9
:101FD000809100018111A3C00E94481EA7C0AE01DC
:101FE0004D5F5F4FBE016F5F7F4F02960E94D7111A
:101FF00081119CC0EB81FC8190819093000196C07F
:102000006AE370E001960E940F24009709F489C0EA
:10201000FC01418150E0FA01E356F109E531F10597
:1020200008F081C0ED53FF4F0C94A2230E942A1E9A
:102030007DC0AE014D5F5F4FBE016F5F7F4F029667
:102040000E94D711811172C06B817C8189810E94AD
:10205000341E6CC0AE014D5F5F4FBE016F5F7F4F9E
:1020600002960E94D711811161C0F6011082EB81A6
:10207000FC81B60180810E943E1EF601208130E085
:10208000F7013183208352C0FC012281293759F4A2
:10209000B60184E00E94201EF601208130E0F701A5
:1020A0003183208343C0AE014D5F5F4FBE016F5F40
:1020B0007F4F02960E94D711811107C0EB81FC81EE
:1020C00080810E94081E80E031C00E94521E2EC0F6
:1020D0000E94101E80E02AC00E94181E80E026C0C8
:1020E0006AE370E001960E940F24009771F0FC01F2
:1020F0008181893621F482E00E943D1D17C083371B
:10210000A1F483E00E943D1D11C00E94481E0EC034
:1021100080E00CC080EC0AC009C0812F07C080E0BD
:1021200005C080E003C080EC01C080E00F900F90FC
:102130000F900F90DF91CF911F910F91FF90EF9033
:10214000DF90CF9008950E9483157894089581E0E0
:102150009091F514911180E00895BF92CF92DF9293
:10216000EF92FF920F931F938C01029904C081E0BC
:102170008093E80206C08091E802813011F4109249
:10218000E8020E94CC128091F514882309F45DC006
:102190008091EE02882309F43CC00F2EF3E0BF2E9D
:1021A000F02D0F2EFFE7CF2EFAE1DF2EF6E0EF2E17
:1021B000F12CF02D0E942708D701C6010197A10933
:1021C000B109000001F0D1F7C89500000E9428086D
:1021D000D701C6010197A109B109000001F0D1F7AB
:1021E000C8950000BA9431F7E0EEF0E0808181609C
:1021F00080838FED92E2A2E0B0E00197A109B109DE
:10220000000001F0D1F7C89500001092EE020E9484
:10221000771282E08093E9008091E80082FF17C086
:10222000F801C801805C9F4FA1EFB0E02C91219391
:10223000E817F907D9F7E8EEF0E080818B7F80831B
:1022400080818F77808381E003C080E001C080E0DF
:102250001F910F91FF90EF90DF90CF90BF90089566
:10226000CF93DF939C010024220F331F001C220F09
:10227000331F001C232F302D422F8F739927892B5A
:1022800011F041E0420F81E08093E9008091E80085
:1022900085FF2FC0242F30E02115310551F1CB01EE
:1022A000805C9F4F00243695279507943695279597
:1022B0000794322F202D280F391FA1EFB0E0C8EE70
:1022C000D0E013C041914C93E817F907D9F7488142
:1022D0004E7F488348814F774883488140FFFDCF38
:1022E000805C9F4F8217930721F0FC01E054F109B5
:1022F000E9CFDF91CF9108958F708A3010F4805D1F
:102300000895895C0895982F80ED890F8A3078F0C0
:102310008FEB890F863018F489EC890F08958FE9C7
:10232000890F863018F489EA890F089580E00895AE
:10233000BF92CF92DF92EF92FF920F931F93CF93B2
:10234000DF936C0182E0C816D10410F1EB012196F5
:102350007B0100E010E0FE01319780810E94831133
:10236000B82EBB0CBB0CBB0CBB0CF701B0820F5FD3
:102370001F4F88810E9483118B29F70181937F0170
:1023800022969801220F331F2C153D0520F303C020
:1023900080E090E002C0802F912FDF91CF911F91BC
:1023A0000F91FF90EF90DF90CF90BF900895CF9264
:1023B000DF92EF92FF920F931F93CF93DF93EC0185
:1023C0008B017A01009749F16115710541F14115C1
:1023D000510539F168E270E00E940F246C0100970A
:1023E00011F169E270E00E940F24009731F4099026
:1023F0000020E9F7CE01019701C00197B6016F5F98
:102400007F4FF701718360838C199D090E94981199
:10241000F8019183808380E007C083EC05C083ECE2
:1024200003C083EC01C083ECDF91CF911F910F912A
:10243000FF90EF90DF90CF9008958FB7F89497EFCB
:1024400094BF98E10FB6F8949093600010926000EA
:102450000FBE88230CF4789408959FB79078F89471
:1024600027EF24BF83FF02C028E201C028E0877065
:10247000822B28E130E00FB6F894A89520936000F5
:102480000FBE80936000992309F078940895EBEED5
:10249000F0E09081916090838093EC00EDEEF0E0AD
:1024A00080818270682B60838081826080838091CC
:1024B000EE00881F8827881F0895E8EDF0E08081EE
:1024C0008F7B80838091D90081FF0DC01092E9003D
:1024D0008091EB0080FD09C01092E90060E382E08A
:1024E0000E944712089580E0089580E0089585E5F0
:1024F0009AEAAAEAB5E580933D1590933E15A0931C
:102500003F15B093401585E00E942D12FFCF8091BA
:102510003D1590913E15A0913F15B0914015853520
:102520009A4AAA4AB54569F410923D1510923E1593
:1025300010923F1510924015E0910101F0910201B7
:10254000099508957894E8EDF0E080818F76808396
:1025500080818069808380818F7B808378940895D7
:1025600086E189BD09B400FEFDCFF894E8EDF0E006
:1025700080818F7D80830E945D12E0EEF0E080819B
:102580008E7F80837894E2EEF0E0808181608083AA
:1025900080818860808308958091D90080FF14C075
:1025A0008091E902811110C081E08093E9021092CC
:1025B000EA028091EB029091EC0282609093EC022F
:1025C0008093EB020E94B0128091D90080FD1BC065
:1025D0008091E9028130B9F41092E9021092F51469
:1025E0008091EB029091EC0284609093EC028093D6
:1025F000EB02E0EEF0E0808181608083E8EDF0E0C6
:102600008081806280838091EB029091EC0290FF48
:1026100010C08091EB029091EC029E7F9093EC02AF
:102620008093EB02EAEEF0E081E08083108210926A
:10263000F5141092E9008091E80083FD0E942113B7
:1026400008950F931F93CF93DF9300D0CDB7DEB7DC
:10265000E8EEF0E080818B7F8083E1EFF0E0108195
:102660000081402F50E04C30510508F032C2FA0191
:10267000E852FF4F0C94A223103809F02AC2E1EF70
:10268000F0E060818081813019F0823059F014C00F
:1026900082E18093F6148CE592E09093F814809395
:1026A000F7140FC089E28093F61483E392E09093CD
:1026B000F8148093F71405C00E949616882309F435
:1026C00008C2E1EFF0E08081808180818983808190
:1026D0008A83E8EEF0E08081877F80834091F61462
:1026E00089819A81242F30E02817390728F44F7305
:1026F00071E029F070E003C08093F61470E0E8EE1A
:10270000F0E080818F7E80838091F614882309F425
:1027100043C08091E80084FF0EC03EC08C9184FDD0
:1027200004C0FA01808180FD0CC08091F6148823DA
:1027300011F160E40CC0A8EEB0E049ED50E021EFEB
:1027400030E08C9180FFEACFF0CF6150A1F0E091B2
:10275000F714F091F814CF0101969093F814809338
:10276000F7148491F90180838091F614815080934D
:10277000F6148111EACF8C9184FD0EC0FA0180819C
:1027800080FF0AC08C918E7F8C938091F6148823F1
:1027900019F08C9184FFD5CF7130C9F48091E80095
:1027A00084FD15C0A8EEB0E0E9EDF0E003C0808143
:1027B00080FF03C08C9180FFFACFE8EEF0E08081CB
:1027C0008E7F808304C08C9180FD05C007C0E8EE39
:1027D000F0E0A9EDB0E0808184FFF5CFE8EEF0E015
:1027E00080818F7E808380818B7F808385C110383C
:1027F00009F06FC1E8EEF0E08081877F80838091EF
:10280000F5148093F10080818E7F808380818F77A3
:102810008083A9EDB0E003C08C9180FF03C080816C
:1028200082FFFACFE8EEF0E080818B7F80838081A9
:102830008F77808361C111114CC19091F100E3EE5B
:10284000F0E080819F778078892B8083E8EEF0E04C
:102850008081877F808380818E7F8083A9EDB0E037
:1028600003C08C9180FF03C0808180FFFACFE3EE2C
:10287000F0E08081806880833FC111112AC180917E
:10288000F100823008F025C1E8EEF0E09081977FFA
:1028900090838093F51480818E7F80838091F514DE
:1028A0000E945F1629C1112319F0123021F011C1C5
:1028B0008091F1000EC1E1EFF0E080819081811103
:1028C00008C12091F1002F772093E9008091EB005F
:1028D00080FD03C01092E900FCC02223A1F0ABEE02
:1028E000B0E08C9180618C9381E090E0022E02C078
:1028F000880F991F0A94E2F7EAEEF0E080831082D5
:102900008C9188608C931092E900E22FF0E0E25104
:10291000FB4E1082E8EEF0E08081877F808380812B
:102920008E7F8083E9C0112319F0123021F0D1C0CD
:102930008091F100CEC0E1EFF0E0808190818111C3
:10294000C8C08091F1008F7751F4EBEEF0E09081F8
:1029500090629083E8EEF0E09081977F908380937F
:10296000E9009091EB0090FD03C01092E900B1C026
:10297000EBEEF0E09081906290831092E900E82FF6
:10298000F0E0E251FB4E81E08083E8EEF0E08081F0
:10299000877F808380818E7F8083AEC0E1EFF0E00F
:1029A000808180818081113869F0123899F0103867
:1029B00009F08FC0E8EEF0E08081877F808310927D
:1029C000F10015C0E8EEF0E08081877F80831092EF
:1029D000F1000DC0E8EEF0E09081977F90838F7753
:1029E000E82FF0E0E251FB4E80818093F1001092DD
:1029F000F100E8EEF0E080818E7F8083A9EDB0E009
:102A000003C08C9180FF03C0808182FFFACFE8EE83
:102A1000F0E080818B7F808380818F7780836CC0A2
:102A2000113809F056C0E1EFF0E0808120819081FB
:102A3000998390819A8381114CC021114AC008EE7C
:102A400010E0F8018081877F808389819A810E94CC
:102A500072168093F100F80180818E7F8083A8EE4A
:102A6000B0E0E9EDF0E003C0808180FF03C08C910D
:102A700082FFFACFE8EEF0E080818B7F8083808157
:102A80008F77808339C0113021F5E1EFF0E060816C
:102A900080819081998390819A8381111AC008EE78
:102AA00010E0F8018081877F808389819A810E946C
:102AB00074161092E900F80180818E7F8083A9ED61
:102AC000B0E003C08C9180FF17C0808180FFFACFF7
:102AD00013C0602F812F0E947E1881110DC0EBEE74
:102AE000F0E0808180628083E8EEF0E08081877F83
:102AF000808381E08093EE140F900F90DF91CF914F
:102B00001F910F910895E7EDF0E08081816080834F
:102B100080818F7B80838081806880830E94A21265
:102B200008951F920F920FB60F9211240BB60F92B9
:102B30002F933F934F935F936F937F938F939F93C5
:102B4000AF93BF93EF93FF938091E10082FF07C0A3
:102B50008091E20082FF03C08BEF8093E1008091BF
:102B6000E10080FF3EC08091E20080FF3AC080918A
:102B7000EA028130C9F48091F5148823A9F0E2EECD
:102B8000F0E080818E7F80838FEE8093E1008081F2
:102B90008061808389B58D7F89BD19BCE8EDF0E047
:102BA0008081806280831DC0E1EEF0E08FEE808343
:102BB0008091EB029091EC0280629093EC02809302
:102BC000EB028EEF8083E2EEF0E080818061808313
:102BD000E8EDF0E080818062808389B58D7F89BDDA
:102BE00019BC8091E10084FF25C08091E20084FF40
:102BF00021C009B400FC05C086E189BD09B400FE0E
:102C0000FDCFE8EDF0E080818F7D80838FEE8093B3
:102C1000E100E2EEF0E080818F7E80838091EB0224
:102C20009091EC0280649093EC028093EB0280819F
:102C3000816080838091E10085FF18C08091E2006F
:102C400085FF14C0E2EEF0E080818F7E80838FEDFF
:102C50008093E10080818F7D80838091EB02909151
:102C6000EC0280689093EC028093EB028091E1008B
:102C700083FF12C08091E20083FF0EC087EF809334
:102C8000E1000E945D128091EB029091EC02916054
:102C90009093EC028093EB02FF91EF91BF91AF9183
:102CA0009F918F917F916F915F914F913F912F9164
:102CB0000F900BBE0F900FBE0F901F901895CF93E3
:102CC000DF93C9EED0E081E0888360E381EC0E946D
:102CD000471282E0888360E380EC0E944712DF9114
:102CE000CF91089580E00895CF93DF93892BD9F495
:102CF000C9EED0E081E08883EBEEF0E08081806176
:102D00008083AAEEB0E082E08C931C929081986060
:102D10009083888380818061808384E08C931C927F
:102D2000808188608083DF91CF910895833039F569
:102D3000613079F018F06230B9F023C084E08093FC
:102D4000F6148DEF91E09093F8148093F71481E0DE
:102D500008958CE08093F61487E292E09093F81443
:102D60008093F71481E0089586E28093F61481E061
:102D700092E09093F8148093F71481E0089580E036
:102D8000089580E00895CF93DF9300D000D0CDB7B1
:102D9000DEB7E1EFF0E080818B8380818C8385E377
:102DA0008093F61488EC91E09093F8148093F714D4
:102DB0008081898380818A83E8EEF0E08081877F4B
:102DC00080834091F61489819A81242F30E028175E
:102DD000390768F44F7351E009F050E08091F61420
:102DE0008823B9F18091E80082FF05C032C080934A
:102DF000F61450E0F3CF28EE30E0A1EFB0E0F90197
:102E0000808180FFFCCF8091F6148823B9F040E4E4
:102E100002C0415099F0E091F714F091F814CF01FD
:102E200001969093F8148093F714E491EC938091B9
:102E3000F61481508093F6148111EBCFF901808153
:102E40008E7F80838091F614882319F0808182FF21
:102E5000D6CF8091E80082FF09C0E8EEF0E08081E3
:102E60008B7F808380818F77808319C0513051F4AC
:102E7000E8EEF0E0808180FFFDCFE8EEF0E08081B9
:102E80008E7F8083E8EEF0E0808182FFFDCFE8EE68
:102E9000F0E080818B7F808380818F7780830F90AB
:102EA0000F900F900F90DF91CF910895E8EEF0E032
:102EB0008081877F808380818E7F8083808182FF75
:102EC000FDCFE8EEF0E080818B7F808380818F777B
:102ED000808380818E7F80830895CF93DF9300D09D
:102EE000CDB7DEB7E1EFF0E08081898380818A830E
:102EF000E8EEF0E08081877F80836093ED0280813F
:102F00008E7F8083808180FFFDCF0F900F90DF91B7
:102F1000CF910895CF93DF9300D000D0CDB7DEB727
:102F2000E1EFF0E080818B8380818C8380818983D5
:102F300080818A83E8EEF0E08081877F80838981C9
:102F40009A81892B39F08091ED028093F100808184
:102F50008E7F8083E8EEF0E0808182FFFDCFE8EE97
:102F6000F0E080818B7F808380818F7780830F90DA
:102F70000F900F900F90DF91CF910895E8EEF0E061
:102F80008081877F808380818E7F8083808182FFA4
:102F9000FDCF8091F100853579F48091F1008A3A76
:102FA00059F48091F100853539F48091F1008A3A25
:102FB00019F481E08093EE02E8EEF0E080818B7FEF
:102FC000808380818F77808380818E7F80838081E2
:102FD00080FFFDCF0895CF93DF9300D000D0CDB711
:102FE000DEB7E1EFF0E080818B8380818C8389E024
:102FF0008093F61485E492E09093F8148093F7148C
:103000008081898380818A83E8EEF0E08081877FF8
:1030100080834091F61489819A81242F30E028170B
:10302000390768F44F7351E009F050E08091F614CD
:103030008823B9F18091E80082FF05C032C08093F7
:10304000F61450E0F3CF28EE30E0A1EFB0E0F90144
:10305000808180FFFCCF8091F6148823B9F040E492
:1030600002C0415099F0E091F714F091F814CF01AB
:1030700001969093F8148093F714E491EC93809167
:10308000F61481508093F6148111EBCFF901808101
:103090008E7F80838091F614882319F0808182FFCF
:1030A000D6CF8091E80082FF09C0E8EEF0E0808191
:1030B0008B7F808380818F77808319C0513051F45A
:1030C000E8EEF0E0808180FFFDCFE8EEF0E0808167
:1030D0008E7F8083E8EEF0E0808182FFFDCFE8EE16
:1030E000F0E080818B7F808380818F7780830F9059
:1030F0000F900F900F90DF91CF910895E1EFF0E0E6
:1031000020819081813879F4663069F4913219F028
:10311000923229F008C00E94EB1781E008950E94C6
:10312000C31681E008958132C1F4693019F06A3024
:1031300071F013C0923019F0933029F00EC00E9444
:10314000561781E008950E94BE1781E00895692F07
:10315000822F0E946D1781E00895813A39F4623020
:1031600039F4822F0E948A1781E0089580E0089543
:1031700080E008950E94B50708950E94D20708953F
:103180000E94A8070895EF92FF920F931F93CF9389
:10319000DF9300D000D0CDB7DEB7E82E8A0196E0ED
:1031A000998392E09A837B836C830E94AF07BE0170
:1031B0006F5F7F4F81E00E94DF07F82E0E94B20709
:1031C000F11014C00E94AF07BE016E5F7F4F83E015
:1031D0000E94DF07F82E811105C0B8018E2D0E94D4
:1031E000DF07F82E0E94B2078F2D01C08F2D0F90A0
:1031F0000F900F900F90DF91CF911F910F91FF9043
:10320000EF900895EF92FF920F931F93CF93DF9368
:1032100000D01F92CDB7DEB7E82E8A0193E09983E4
:103220007A836B830E94AF07BE016F5F7F4F83E09D
:103230000E94DF07F82E811105C0B8018E2D0E9473
:10324000FF07F82E0E94B2078F2D0F900F900F905E
:10325000DF91CF911F910F91FF90EF90089580E043
:1032600008950F931F93CF93DF931F92CDB7DEB7CF
:10327000182F8091EF02812B89830E94B306811160
:1032800015C0BE016F5F7F4F81E00E94E406082FEA
:10329000882341F00E94CE06083F29F4113029F41A
:1032A00081EA04C003C0802F01C080EA0F90DF9143
:1032B000CF911F910F9108950E949C0680EA809300
:1032C000EF0208950E94AB0608958E7F8093EF026F
:1032D00080E00895EF92FF920F931F93CF93DF93B7
:1032E00000D0CDB7DEB7F82E8A0179836A8380E0FB
:1032F0000E94311981111CC0BE016F5F7F4F82E0B7
:103300000E94E406E82E882321F00E94CE068E2D2E
:103310000FC0FF2059F0B8018F2D0E94E406182F2E
:10332000882321F00E94CE06812F02C00E94CE0683
:103330000F900F90DF91CF911F910F91FF90EF9021
:103340000895EF92FF920F931F93CF93DF9300D0D6
:10335000CDB7DEB7F82E8A0179836A8380E00E94B8
:103360003119811116C0BE016F5F7F4F82E00E944C
:10337000E406E82E882321F00E94CE068E2D09C097
:1033800081E00E943119811104C0B8018F2D0E9483
:103390003C070F900F90DF91CF911F910F91FF90FD
:1033A000EF9008951F93CF93DF931F92CDB7DEB7B1
:1033B0008FEF89830E94B306882381F00E94AB06B9
:1033C0000E949C060E94B306182F882331F00E94A9
:1033D000AB060E949C06812F09C008C0BE016F5F2A
:1033E0007F4F81E00E94E4060E94CE060F90DF919D
:1033F000CF911F9108959091F002891750F490E0B9
:10340000880F991F880F991F880F991F845E9A4E05
:10341000089580E090E00895FF920F931F93CF935B
:10342000DF9300D0CDB7DEB78C01FC0180819CEF2B
:10343000980F9032C0F40F2EFEEFFF2EF02DF80EF5
:10344000AE014F5F5F4FB8018F2D0E940204F8015B
:10345000EF0DF11D29813A8180819181281739076B
:1034600021F480E003C084EE01C085EE0F900F9040
:10347000DF91CF911F910F91FF9008951F93CF93EC
:10348000DF9300D000D01F92CDB7DEB78D8380913F
:10349000F002843008F046C08D818A838FEF8B83E1
:1034A00080EF8C830E94B306BE016E5F7F4F83E086
:1034B0000E94E406182F882321F00E94CE06812F57
:1034C00032C08D8181608D830E94B306BE016B5F27
:1034D0007F4F81E00E94E406182F882321F00E948C
:1034E000CE06812F20C0BE016F5F7F4F81E00E941A
:1034F0003C07182F811112C0E091F002F0E0EE0FAE
:10350000FF1FEE0FFF1FEE0FFF1FE45EFA4E8D81CF
:103510008E7F828382E0808388E081830E94CE0652
:10352000812F01C080E00F900F900F900F900F90AF
:10353000DF91CF911F9108951F93CF93DF93CDB764
:10354000DEB72E970FB6F894DEBF0FBECDBF8E87C5
:103550008091F002843008F0AAC08E85898383E0D0
:103560008A8384E08A8781E18B8783E38C8783E485
:103570008D870E94B3068111A1C08E8581608E87E0
:10358000BE01625F7F4F81E00E94E406182F88230E
:1035900021F00E94CE06812F91C0BE016D5F7F4F4A
:1035A00084E00E943C07811189C044E050E0BE01E4
:1035B000665F7F4FCE0103960E94E723892B09F0B7
:1035C00078C00E94B306811179C0BE016F5F7F4F42
:1035D00082E00E94E406182F882321F00E94CE0684
:1035E000812F6CC063E071E087E00E94E406182F31
:1035F0000E94CE0611115FC08FE39FE10197F1F7A2
:10360000000000C00E94B306BE01625F7F4F81E0F0
:103610000E94E406182F882321F00E94CE06812FF5
:103620004DC0BE016D5F7F4F87E00E943C07811156
:1036300045C081E08A830E94B306BE016F5F7F4F61
:1036400082E00E94E406182F0E94CE06CE01039667
:103650000E940C1A811131C02091F00230E0F90172
:10366000EE0FFF1FEE0FFF1FEE0FFF1FE45EFA4E7F
:103670008E858E7F828382E080834C815D816E8126
:103680007F8144835583668377838681811102C05D
:1036900097E001C099E0220F331F220F331F220F42
:1036A000331FF901E45EFA4E9183812F07C080E059
:1036B00005C080EF03C0812F01C080EF2E960FB6AA
:1036C000F894DEBF0FBECDBFDF91CF911F9108955B
:1036D0008091F0028430A0F50E949C060E9419237C
:1036E00080EC0E949C1A81110AC081E00E942E0881
:1036F0008091F0028F5F8093F002843010F588ECA7
:103700000E949C1A81110AC081E00E942C088091BD
:10371000F0028F5F8093F002843098F480EA0E9478
:103720003E1A81110AC081E00E942D088091F002AA
:103730008F5F8093F002843020F48091F00208952E
:1037400080E008952F923F924F925F926F927F9206
:103750008F929F92AF92BF92CF92DF92EF92FF92A1
:103760000F931F93CF93DF93CDB7DEB728970FB694
:10377000F894DEBF0FBECDBF8091F002882349F0E0
:1037800080911D15883019F40E94D81D02C00E9436
:10379000181E1092F00280E2ECE1F5E1DF011D92CB
:1037A0008A95E9F70E94681B8091F002882309F44A
:1037B000DCC0B0911C15B887F12C0F2EFFE82F2E1E
:1037C00033243394F02D0F2EF7E0BF2EF02DCE01D1
:1037D00001962C016F2C712CF301EE0FFF1FEE0FE1
:1037E000FF1FEE0FFF1FE45EFA4E8181873019F054
:1037F000893009F06BC088850E943D1D0E94101E13
:103800009885923059F4F301EE0FFF1FEE0FFF1F62
:10381000EE0FFF1FE45EFA4E82810AC0F301EE0F45
:10382000FF1FEE0FFF1FEE0FFF1FE45EFA4E8381B6
:103830000E94081E89EF94E10E947804882371F0A9
:103840000E94521E0E94181E1092F00280E2ECE1CB
:10385000F5E1DF011D928A95E9F736C0C1010197B4
:10386000F1F7000000C089EF94E19F938F93BF921E
:103870005F924F92BF92812C912CA12CC12CD12C04
:10388000E12C00E010E020E040E050E060E080E368
:103890000E948F05182F0E94521E0F900F900F90BC
:1038A0000F900F900F90112309F458C00E94181E1A
:1038B0001092F002F301EE0FFF1FEE0FFF1FEE0F4D
:1038C000FF1FE45EFA4E108280E052C088850E949D
:1038D000D71C0E94D01DB885B23059F4F301EE0F09
:1038E000FF1FEE0FFF1FEE0FFF1FE45EFA4E8281F7
:1038F0000AC0F301EE0FFF1FEE0FFF1FEE0FFF1FB9
:10390000E45EFA4E83810E94E01D69EF74E186E077
:103910000E94DB03882389F00E94D81D1092F002D8
:10392000F301EE0FFF1FEE0FFF1FEE0FFF1FE45E10
:10393000FA4E1082118280E01BC0F301EE0FFF1FD0
:10394000EE0FFF1FEE0FFF1FE45EFA4EABEFB4E188
:103950008C918683ACEFB4E18C918783F394809152
:10396000F002F81608F436CF02C080E001C0888566
:1039700028960FB6F894DEBF0FBECDBFDF91CF9172
:103980001F910F91FF90EF90DF90CF90BF90AF907D
:103990009F908F907F906F905F904F903F902F906F
:1039A0000895ECEBF0E080818B7F80830895CF93C6
:1039B000C82F80912A018C1709F45AC0C23039F5FA
:1039C0000E94BD182CE539E130932901209328018C
:1039D00022E639E1309327012093260125E639E1DB
:1039E000309325012093240122ED39E13093230106
:1039F0002093220121EA39E130931F0120931E0117
:103A00002AE639E1309321012093200128C0C130FA
:103A100089F50E9462198AEB98E1909329018093BD
:103A200028018DEB98E1909327018093260180EC8B
:103A300098E190932501809324018FE299E190937E
:103A400023018093220122E039E130931F0120936A
:103A50001E0123EC38E13093210120932001C09313
:103A60002A01E0912801F0912901099580E003C025
:103A700083EC01C083ECCF910895CF93C82F809140
:103A80002A018C1709F487C0C230E9F50E9412217F
:103A900023E133E230931D0120931C0181ED9CE171
:103AA00090931B0180931A0140E153E25093190156
:103AB00040931801309317012093160129E133E256
:103AC00030931301209312012AE233E23093110163
:103AD0002093100122E533E230930F0120930E0171
:103AE00020E333E230930D0120930C0124E433E210
:103AF00030930B0120930A0120E833E23093150143
:103B0000209314013FC0C33009F047C00E94D11C6C
:103B100088E492E290931D0180931C0122E131E23E
:103B200030931B0120931A012BE432E230931901E8
:103B300020931801909317018093160183E992E274
:103B400090931301809312018EE492E290931101FD
:103B50008093100185E692E290930F0180930E010D
:103B600081EA92E290930D0180930C0185EA92E242
:103B700090930B0180930A0189EA92E290931501D8
:103B800080931401C0932A01E0911C01F0911D0162
:103B9000099580E003C083EC01C083ECCF910895C8
:103BA000E0912801F0912901309709F009950895D5
:103BB000E0912601F0912701309709F009950895C9
:103BC000E0912401F0912501309711F009950895B5
:103BD00084EC0895E0911E01F0911F01309711F0DF
:103BE0000995089584EC0895E0912001F091210158
:103BF000309711F00995089584EC0895E091220121
:103C0000F0912301309711F00995089584EC0895FF
:103C1000E0911801F0911901309709F00995089584
:103C2000E0911601F0911701309709F00995089578
:103C3000E0911A01F0911B01309709F00995089560
:103C4000E0911401F0911501309711F00995089554
:103C500084EC0895E0911201F0911301309711F076
:103C60000995089584EC0895E0911001F0911101F7
:103C7000309711F00995089584EC0895E0910E01B4
:103C8000F0910F01309711F00995089584EC089593
:103C9000E0910C01F0910D01309711F00995089514
:103CA00084EC0895E0910A01F0910B01309711F036
:103CB0000995089584EC0895CF93DF9300D000D048
:103CC000CDB7DEB7E1E6F0E080E8808310820E94A5
:103CD0001D120E94871211E01093F1020E941D082C
:103CE0000E9427080E94A31088EE93E00E94C80853
:103CF0000E9428081093DC020E9401099C838B8398
:103D000003EF12E00F2EF4EFEF2EF2E0FF2EF02D76
:103D1000DD24D3940F2EF8EE9F2EF02D0F2EF3E01E
:103D2000AF2EF02D0F2EF0EDBF2EF02D0F2EF7E061
:103D3000CF2EF02D0E94A710882319F00E94CC12DC
:103D400030C0F8018081882381F08091DB028823D4
:103D500061F080903C15F701808180933C150E94B2
:103D6000481E80923C151092DB028B819C810E9440
:103D7000AD108823B1F0BE016D5F7F4F80E40E94DB
:103D8000650A882371F0CE0101960E947D09BC016D
:103D900089819A810E94301180E00E9408099C83E9
:103DA0008B838091DC02882329F28D2D9091F10282
:103DB000911180E08093F1020E94A710882319F0EE
:103DC0008B2D9C2D02C0892D9A2D0E94DE0880919A
:103DD0002B01882309F4AECF0E94A21BABCF682F22
:103DE00080E090E00E944324089580E090E00E94EB
:103DF0003B2408958F929F92AF92BF92CF92DF9211
:103E0000EF92FF920F931F93CF93DF93CDB7DEB75F
:103E10002C970FB6F894DEBF0FBECDBFCB015A0171
:103E2000690121E030E03A83298328E0E4E8F2E008
:103E3000DE01159601900D922A95E1F76AE370E094
:103E40000E940F247C01009709F4A9C181E0D801E8
:103E50008C93F7018181863609F445C020F48436BD
:103E600009F4BBC078C18D3609F450C1863709F01A
:103E700072C10E94A21BF82E81E0F11080E08093B5
:103E80002B016FE772E0C6010E94D323FF2009F4E3
:103E900088C180E00E94FB198C01DC0111968C9195
:103EA000873031F468E972E0C6010E94C82388C1F6
:103EB000883031F460E972E0C6010E94C82380C1F5
:103EC000893009F07DC168E872E0C6010E94C8230C
:103ED00077C1D80112968C9103C0D80113968C91AA
:103EE000808310E04CC1AE014D5F5F4FBE016F5F3C
:103EF0007F4FC7010E94D711182F811130C184E074
:103F000090E09A838983EB81FC8180818130E9F0A4
:103F100030F08230B1F1833009F449C023C16EE63C
:103F200072E0C6010E94D323F60101900020E9F758
:103F3000CF01019749815A817C01EC18FD0866EA9E
:103F400072E001960E94BF231AC168E972E0C601BF
:103F50000E94D323F60101900020E9F731977F01F9
:103F6000EC18FD0889809A800E94760697012F5FE1
:103F70003F4FA401BC01C601820F931F0E94F4238E
:103F8000FEC060E972E0C6010E94D323D6010D9005
:103F90000020E9F7CD01019749815A817C01EC1895
:103FA000FD0863EA72E001960E94BF23E8C068E85A
:103FB00072E0C6010E94D323F60101900020E9F7C8
:103FC000CF01019749815A817C01EC18FD0860EA14
:103FD00072E001960E94BF23D2C082818F3361F4C8
:103FE00082E090E09A83898380912B01F60181839E
:103FF000E12CF12C10E0C3C0AE014D5F5F4FBE015C
:104000006F5F7F4FC7010E94D711182F8111AEC07B
:10401000D70112968C91893641F4EB81FC81808125
:1040200080932B01E12CF12CAAC00E94A21B082F27
:1040300091E0811190E090932B01EB81FC818081D4
:104040000E94FB194C01009709F493C0FC01918177
:10405000973049F018F49923C1F01EC0983049F008
:10406000993069F019C068E972E0C6010E94D32353
:104070001BC060E972E0C6010E94D32315C068E846
:1040800072E0C6010E94D3230FC06D817E81C601FC
:104090000E941A2415EC08C08FE0E5E9F2E0D60191
:1040A00001900D928A95E1F7D4018C91811109C09C
:1040B000F60101900020E9F731977F01EC18FD0827
:1040C0005EC0E02FF0E0EE0FFF1FEC0FFD1F6581DB
:1040D0007681C6010E940424F60101900020E9F7D0
:1040E000319789819A8101969A8389837F01EC189F
:1040F000FD083196D4018C91823019F412968C917E
:1041000003C0D40113968C91808339C0AE014D5FFA
:104110005F4FBE016F5F7F4FC7010E94D711182FFD
:10412000F7018281873619F0833769F026C081E074
:1041300090E0D5018D939C930E94F51EF60180833B
:10414000E12CF12C1CC0EB81FC8180810E94EF1ED0
:10415000E12CF12C14C0E12CF12C10EC10C0E12C5E
:10416000F12C0DC0E12CF12C13EC09C0E12CF12C49
:1041700006C0E12CF12C15EC02C0E12CF12CB601AB
:104180006E0D7F1DDB011C9389819A810E941709A6
:104190008E0D9F1DF50191838083812F30C080ECAF
:1041A0002EC06D817E81C6010E940424F60101901B
:1041B0000020E9F731977F01EC18FD0810E0DFCF10
:1041C000EF2DF0E0EE0FFF1FEC0FFD1F65817681F4
:1041D000C6010E940424F60101900020E9F73197FE
:1041E00089819A8101969A8389837F01EC18FD0861
:1041F0003196D8018C91823009F06FCE6ACE2C9620
:104200000FB6F894DEBF0FBECDBFDF91CF911F91E7
:104210000F91FF90EF90DF90CF90BF90AF909F9065
:104220008F900895E0912C01F0912D019081809163
:104230003201809598239083E0913001F091310113
:1042400090818923808380E00895843030F58093C5
:10425000F20290E0FC01EA52FD4F208120933201EE
:10426000880F991FFC01E253FD4F2081318130936B
:10427000310120933001FC01E254FD4F2081318156
:1042800030932F0120932E01FC01EA53FD4F8081D2
:10429000918190932D0180932C0108950895E091D0
:1042A0002C01F0912D01208190913201292B208346
:1042B000882341F0E0913001F09131018081982B09
:1042C00090830895E0913001F091310180819095C3
:1042D000982390830895EF92FF920F931F93CF93AB
:1042E000DF93882309F465C0E0912C01F0912D0142
:1042F000208190913201922B90839BE39A9501F05B
:10430000E9F7C895F894E0913001F0913101C0913E
:104310003201DC2FD095E62EA62FB72F6894FF240C
:10432000F3F800E011E040E176E668E73BC05C911D
:10433000592379F050815D235083542F5A9501F011
:10434000E9F750815C2B5083562F5A9501F0E9F71D
:104350001DC050815D235083542F5A9501F0E9F719
:1043600050815C2B5083542F5A9501F0E9F750810E
:104370005D235083542F5A9501F0E9F750815C2B4F
:104380005083572F5A9501F0E9F7C895990F21509E
:1043900031092115310509F0CACF11969A2F9E19BE
:1043A000981720F42F2D302F912FC1CF789480E0D3
:1043B00001C082EEDF91CF911F910F91FF90EF909E
:1043C0000895CF93DF931F92CDB7DEB78983BE01E7
:1043D0006F5F7F4F81E00E946B210F90DF91CF9143
:1043E00008951F93CF93DF93E0912C01F0912D015D
:1043F000908120913201209592239083F894882314
:1044000009F440C0E0912E01F0912F01209132017A
:10441000C62FD72F60E011E05EEF7AE1DE0118824F
:10442000412F04C03081322319F405C0952FFACFF3
:104430009150C1F720C03081322319F49150D9F73F
:104440001AC0972F3081322319F09150D9F709C043
:104450003081322349F43FEF390F992329F0932F0C
:10446000F7CF9C91942B9C93440F01F76F5F21969B
:104470006813D4CF07C0611102C081EF01C086EE7E
:10448000789402C080E0FCCFDF91CF911F91089516
:104490000E944E2108950E94252108951F93CF93D5
:1044A000DF93182FEB0180E00E94E12187E70E9453
:1044B000E121811105C0BE01812F0E946B2101C045
:1044C00080EFDF91CF911F9108951F93CF93DF93DA
:1044D000182FEB01882341F0862FEC2FFD2F11922E
:1044E0009E2F981B9117D8F388E80E94E121BE0106
:1044F000812F0E94F121882311F0863E39F48881B2
:10450000843040F0181740F484EE09C0813F31F444
:1045100087EE05C084EE03C080E001C086EEDF9127
:10452000CF911F91089580E00E944F218CE00E945E
:10453000790681E00E944F2183E00E94910680E08D
:1045400008958BEB0E94E12108958CEC0E94E121FB
:1045500008951F93CF93DF93182FEB0185E50E94F9
:104560009106BE01812F0E943E1EDF91CF911F91C7
:1045700008951F93CF93DF931F92CDB7DEB790912D
:104580003C15892B89830E94B30681110DC0BE01A1
:104590006F5F7F4F81E00E94E406182F882321F08F
:1045A0000E94CE06812F00C00F90DF91CF911F9106
:1045B0000895FF920F931F93CF93DF931F92CDB770
:1045C000DEB78983F62E8A0180E00E94B922882313
:1045D00021F00E94CE0680EF1CC0BE016F5F7F4FAE
:1045E00081E00E94E406811111C0F11004C00E9414
:1045F000CE0680E00EC0B8018F2D0E94E406182F71
:104600000E94CE06112321F080EF03C080EF01C08D
:1046100080E00F90DF91CF911F910F91FF9008954F
:1046200080933C1508950E949C0688EC80933C156D
:1046300008950E9441081092F3021092BC00519A12
:1046400059988CE00E947906599A8AEF0E9479065F
:1046500080E00895AB01682F83E00E94D92208957D
:104660008091F302811109C00E942F0881E080939C
:10467000F30280913C158093F40240E050E060E04A
:1046800082E00E94D922089540E050E060E081E09D
:104690000E94D922089540E050E060E080E00E944E
:1046A000D92208951F93CF93DF93182FEB0181E058
:1046B0000E94B922882319F0883FC9F01DC0CE019D
:1046C0000E941F07811115C08881843010F01817CF
:1046D00020F40E94CE0684EE0FC0BE016F5F7F4FB4
:1046E00081500E943C07882331F080EF05C087EE9F
:1046F00003C080EF01C080E0DF91CF911F9108954A
:10470000CF93DF931F92CDB7DEB78FEF89830E94DF
:10471000B306BE016F5F7F4F81E00E94E40681E037
:104720000E94B922811107C00E94CE06811105C0E6
:104730000E944B2303C080EF01C080EF0F90DF91F8
:10474000CF910895EE0FFF1F0590F491E02D09948D
:10475000A29FB001B39FC001A39F700D811D1124C2
:10476000911DB29F700D811D1124911D089591110D
:10477000089581548A5108F4805E855A0895FB019A
:10478000DC0102C005900D9241505040D8F70895C9
:10479000FB01DC010D900020E9F7119705900D92C7
:1047A0000020E1F70895FB01DC0105900D92002047
:1047B000E1F70895FC014150504030F00190061699
:1047C000D1F73197CF010895882799270895FB01E4
:1047D000DC0104C08D910190801921F441505040BA
:1047E000C8F7881B990B0895FB01DC0102C00190FA
:1047F0000D9241505040D8F70895DC0101C06D93EF
:1048000041505040E0F70895FB01DC010D9000207D
:10481000E9F7119701900D920020E1F70895FC014E
:104820008191861721F08823D9F799270895319728
:10483000CF010895FB01DC0101900D920020E1F70A
:104840000895FB0151915523A9F0BF01DC014D9161
:1048500045174111E1F759F4CD010190002049F0CD
:104860004D9140154111C9F3FB014111EFCF81E09A
:1048700090E001970895F999FECF92BD81BDF89A15
:10488000992780B50895262FF999FECF1FBA92BDBA
:1048900081BD20BD0FB6F894FA9AF99A0FBE019621
:0648A0000895F894FFCF1B
:1048A6000100F00730000000035D4423302352234B
:1048B6002A231923802313231023D11C1323A11980
:1048C6006A19D219651962195C19020124002300BC
:1048D60025008009110000000000718109114000C7
:1048E600000000EF82090C00000000000000090E25
:1048F6000000000000D99C09100000000000000024
:104906000200000067E6096A85AE67BB72F36E3C7B
:104916003AF54FA57F520E518C68059BABD9831F84
:1049260019CDE05B982F8A4291443771CFFBC0B511
:10493600A5DBB5E95BC25639F111F159A4823F9264
:10494600D55E1CAB98AA07D8015B8312BE853124BD
:10495600C37D0C55745DBE72FEB1DE80A706DC9B7E
:1049660074F19BC1C1699BE48647BEEFC69DC10F2A
:10497600CCA10C246F2CE92DAA84744ADCA9B05C66
:10498600DA88F97652513E986DC631A8C82703B029
:10499600C77F59BFF30BE0C64791A7D55163CA0637
:1049A60067292914850AB72738211B2EFC6D2C4D43
:1049B600130D385354730A65BB0A6A762EC9C28131
:1049C600852C7292A1E8BFA24B661AA8708B4BC2C7
:1049D600A3516CC719E892D1240699D685350EF4F1
:1049E60070A06A1016C1A419086C371E4C774827A8
:1049F600B5BCB034B30C1C394AAAD84E4FCA9C5B1E
:104A0600F36F2E68EE828F746F63A5781478C8846E
:104A16000802C78CFAFFBE90EB6C50A4F7A3F9BE50
:104A2600F27871C6A402AF02B402B90273770069C4
:104A36003200737000756E6B6E6F776E5F646576AD
:104A4600696365006E6F5F64657669636520005310
:104A5600504920005457492000535749200023004D
:104A66002300230029002400240024002A00250016
:0A4A7600250025002B0080400402FB
:00000001FF
