:100000000C944C000C9463000C9463000C946300FB
:100010000C9463000C9463000C9463000C946300D4
:100020000C9463000C9463000C9463000C946300C4
:100030000C9463000C9463000C9463000C946300B4
:100040000C9463000C9463000C9463000C946300A4
:100050000C9463000C9463000C9463000C94630094
:100060000C9463000C9463000C9463000C94630084
:100070000C9463000C9463000C9463000C94630074
:100080000C9463000C9463000C9463000C94630064
:100090000C9463000C94630011241FBECFEFD0E2D8
:1000A000DEBFCDBF11E0A0E0B1E0E6E8F7E000E0A0
:1000B0000BBF02C007900D92A232B107D9F70E9480
:1000C000A7020C94C1030C940000FC018081809372
:1000D00000010895BF92CF92DF92EF92FF920F93AB
:1000E0001F93CF93DF93D82EEA018823C9F16115BE
:1000F0007105B1F14115510599F1C62E262F372F03
:10010000D90160E090E0BB24B394EE24FF2405E025
:10011000F0E01B2DEC915B2D9701792F771F77274E
:10012000771F862F881F8827881F660F990F982BA7
:100130004F2F852F8E2309F0412F471711F060278D
:100140009058550F2F5F3F4F2830310531F71196EA
:100150008A2F8C198D15F0F29883698380E001C095
:1001600081E2DF91CF911F910F91FF90EF90DF908F
:10017000CF90BF900895DF93CF930F92CDB7DEB7A6
:10018000198281E06FEF40EE9E012F5F3F4F0E948A
:100190004E020F90CF91DF9108954F925F926F9230
:1001A0007F928F929F92AF92BF92CF92DF92EF9207
:1001B000FF920F931F93DF93CF9300D0CDB7DEB79D
:1001C000D82E8B0180E48D15E0F161157105C9F120
:1001D0000F2EF3E0EF2EF02D0F2EFEEFCF2EF02D91
:1001E000CD0C3E010894611C711C4C2C55245B0104
:1001F000A40CB51C45010894811C911C8D2D6EEF3B
:1002000040E098010E940902F82E8823F1F48C2D19
:10021000B801A3010E946A009981F50180819817B5
:1002200029F49A81F4018081981779F40E94BB0027
:10023000EE2029F40F2EFBE2FF2EF02D06C0EA94EB
:10024000DDCF0F2EF1E2FF2EF02D8F2D0F900F90AE
:10025000CF91DF911F910F91FF90EF90DF90CF90A2
:10026000BF90AF909F908F907F906F905F904F90D6
:100270000895CF92DF92EF92FF920F931F93DF9337
:10028000CF930F92CDB7DEB78C01009709F443C02E
:100290001982FC01E080F0E4FE15E8F10E94BB0049
:1002A000982F8823C9F580910001882351F08E2D65
:1002B00090E00297A801480F591F8E2DB8010E94A7
:1002C0006A000F2EF3E0FF2EF02D6E010894C11C82
:1002D000D11C8E2D6EEF40E098010E944E02982FA7
:1002E0008823D1F081528230B8F0C6010E94970174
:1002F000982F882389F4898184FD06C0882311F40E
:1003000090E20AC0982F08C0982F882329F0FF2078
:1003100019F0FA94DECF91E2892F0F90CF91DF91FF
:100320001F910F91FF90EF90DF90CF900895CF92A3
:10033000DF92EF92FF920F931F93DF93CF930F9271
:10034000CDB7DEB77C0185E0898319EF6E01089493
:10035000C11CD11C0E941C0381E0B6010E946203F3
:1003600081E0B7010E948C03082F0E94250300231F
:1003700021F0112311F01150EDCFF7018081807829
:10038000802B0F90CF91DF911F910F91FF90EF90F5
:10039000DF90CF900895EF92FF921F93DF93CF935A
:1003A0000F92CDB7DEB7198219EF7E010894E11CD8
:1003B000F11CC7010E949701282F90E08F77907061
:1003C000892BC9F489818F3F19F4115090F71BC014
:1003D0001123C9F422E20FC01150C7010E949701F6
:1003E000282F882341F4898180FF02C01123A1F7BF
:1003F0008981282F2078822F0F90CF91DF911F9134
:10040000FF90EF90089511507E010894E11CF11CBB
:10041000E4CFDF92EF92FF920F931F93DF93CF937E
:1004200000D000D0CDB7DEB7182F062FD42E79011B
:100430006E3F21F4442311F480E401C080E21123D3
:1004400001F18117F0F0E114F104D9F00E94CB0121
:100450008823C1F483E08A830B83DC820E941C031F
:1004600083E0BE016E5F7F4F0E946203812FB70160
:100470000E948C030E942503CE0101960E949701E1
:1004800001C081E20F900F900F900F90CF91DF91FC
:100490001F910F91FF90EF90DF900895DF92EF9200
:1004A000FF920F931F93DF93CF9300D000D00F9252
:1004B000CDB7DEB7182F062FD42E79016E3F21F469
:1004C000442311F480E401C080E2112361F181171B
:1004D00050F1E114F10439F186E089830E94CB01E7
:1004E000882311F582E08B830C83DD820E941C033C
:1004F00081E0BE016F5F7F4F0E9462030E9425036F
:100500000E941C0383E0BE016D5F7F4F0E94620367
:10051000812FB7010E9462030E942503CE0102963B
:100520000E94970101C081E20F900F900F900F90F1
:100530000F90CF91DF911F910F91FF90EF90DF907F
:1005400008950E94520308950E942E0308950E9468
:10055000A4020E94CB01FDCF81E091E008959B01B0
:10056000AC01611571058105910509F463C0E1E0F5
:10057000F1E060E080819181A281B38182179307CD
:10058000A407B50728F46F5F3496683099F752C016
:10059000683009F44FC0EDE4F0E080818E7F808305
:1005A000ECE4F0E080818C7F8083633011F1643073
:1005B00028F4662359F0623039F40FC0653061F1D8
:1005C0006530F0F0663079F180E00895EDE4F0E018
:1005D00080818160808380E00895EDE4F0E0808197
:1005E00081608083ECE4F0E080818160808380E042
:1005F0000895ECE4F0E080818160808380E00895DC
:10060000EDE4F0E0808181608083ECE4F0E08081C3
:100610008260808380E00895ECE4F0E08081826075
:10062000808380E00895ECE4F0E080818360808343
:1006300080E0089581E20895E5E2F0E080818D7F19
:10064000808380818E7F80830895E5E2F0E0808161
:100650008D7F80838081816080830895DF93CF9335
:100660000F92CDB7DEB7E5E2F0E080818160808354
:1006700080818D7F8083A4E2B0E08C9187608C9331
:10068000808188608083E4E6F0E080818B7F8083D6
:1006900083E58CBD8DB589838EB589830F90CF910D
:1006A000DF910895ECE4F0E080818F7B8083E4E6C5
:1006B000F0E0808184608083E4E2F0E08081887FE4
:1006C000808308950F931F93DF93CF930F92CDB73D
:1006D000DEB78823D1F0282F21508B014EE450E063
:1006E000ADE4B0E030E02F5F3F4F260F371FF80139
:1006F00081918F01FA0180838C918823ECF7FA01B4
:10070000808189830217130791F780E00F90CF91C2
:10071000DF911F910F910895DF93CF930F92CDB783
:10072000DEB7982F8AEF8983992331F1292F215041
:100730004EE450E0EDE4F0E03AEFDA011C920EC036
:100740009981892F81508983992341F48DB588231C
:1007500014F082E212C08EB582E20FC0808188233D
:100760007CF7DA018C91DB018C933983222321F011
:100770006F5F7F4F2150E1CF80E00F90CF91DF91ED
:060780000895F894FFCF7C
:100786000100127A0000093D0080841E0040420FDD
:100796000020A1070090D0030048E80100000000F7
:0207A600000051
:00000001FF
