:100000000C944C000C946B000C946B000C946B00E3
:100010000C946B000C946B000C946B000C946B00B4
:100020000C946B000C946B000C946B000C946B00A4
:100030000C946B000C946B000C946B000C946B0094
:100040000C946B000C946B000C946B000C946B0084
:100050000C946B000C946B000C946B000C946B0074
:100060000C946B000C946B000C946B000C946B0064
:100070000C946B000C946B000C946B000C946B0054
:100080000C946B000C946B000C946B000C946B0044
:100090000C946B000C946B0011241FBECFEFD0E2C8
:1000A000DEBFCDBF11E0A0E0B1E0E0E6F6E100E0A8
:1000B0000BBF02C007900D92AA36B107D9F712E024
:1000C000AAE6B1E001C01D92A937B107E1F70E948D
:1000D00032020C942E0B0C94000080E880930001F7
:1000E00080E0089582E08093C80088E08093CC008F
:1000F00084E08093CA00E9ECF0E080818F7B80830C
:1001000080E00895E9ECF0E09081977E90839CEF89
:100110009AB9882341F0E5E2F0E0808190910001F6
:10012000892B808308C0E5E2F0E090818091000196
:10013000809589238083E4E2F0E080819091000142
:10014000892B80830895EF92FF920F931F93CF9393
:10015000DF93F82E882311F481ED49C0E4E2F0E04A
:10016000908180910001809589238083E9ECF0E003
:1001700080818F7E8083808188608083862F972F07
:10018000DC01EE24E39400E010E0E8ECF0E0CEECDB
:10019000D0E05FE77DE74C919E2D9801808185FF3F
:1001A000FDCF892F842311F4872F01C0852F8883E9
:1001B000990F2F5F3F4F2830310581F711968A2F15
:1001C000861B8F1540F397ECE8ECF0E003C09150EC
:1001D0009F3FA1F0808186FFFACFE8ECF0E08081BC
:1001E00080648083992311F080E001C081EFDF916A
:1001F000CF911F910F91FF90EF900895E8ECF0E000
:1002000080818064808380E0F2CF1F93CF93DF935F
:10021000182FE9ECF0E08081877F80838081806106
:100220008083112359F1262F372FD90130E068EC54
:1002300071E0E8ECF0E0CEECD0E05FE7462F1C92F6
:10024000962F272F09C0992331F4332311F087EF1C
:1002500016C081EF14C0915080818823A4F7888153
:1002600085278C7719F48C91822B8C93220F11F0B7
:10027000942FF2CF3F5F1196311708F380E0DF91A2
:10028000CF911F910895EF92FF920F931F93CF93F9
:10029000DF93182F00D081E091E0EDB7FEB7928395
:1002A00081830E944108012F112707FD10950F90AF
:1002B0000F90101611064CF5C0E0D0E00F2EFEE0B6
:1002C000EF2EF1E0FF2EF02D00D000D0ADB7BEB77D
:1002D00011961196FC92EE92E0912701F09128017F
:1002E0000190F081E02DEC0FFD1F808112968C9320
:1002F000129713961C920E94410821960F900F901E
:100300000F900F90C017D107FCF200D084E191E06C
:10031000EDB7FEB7928381830E944108E0912701E7
:10032000F091280184810F900F90882339F1C0E06B
:10033000D0E00EE011E000D000D0ADB7BEB711960E
:1003400011961C930E930280F381E02DEC0FFD1F9C
:10035000808112968C93129713961C920E944108EA
:100360002196E0912701F0912801848190E00F907F
:100370000F900F900F90C817D907ECF285E291E02B
:100380000E945308DF91CF911F910F91FF90EF9042
:100390000895DF93CF93CDB7DEB7C054D0400FB6EA
:1003A000F894DEBF0FBECDBFDE011196E9E2F1E0A9
:1003B00080E201900D928150E1F7FE01B19680E25A
:1003C000DF011D928A95E9F70E9472008823C1F52A
:1003D0000E94A10381E062E070E00E94650488E071
:1003E0000E94430181E063E070E00E94650488E0C0
:1003F0000E94430180E060E070E00E94650488E0B4
:100400000E94430180E061E070E00E94650488E0A2
:100410000E94430180E06FEF7FEFAE014F5F5F4FBF
:100420000E949E0488E20E94430180E06FEF7FEF0C
:10043000AE014F5D5F4F0E949E0488E20E9443011F
:1004400060E573EC80E090E00E949E0781E090E020
:10045000C05CDF4F0FB6F894DEBF0FBECDBFCF91AB
:10046000DF910895DF93CF93CDB7DEB7C054D0406E
:100470000FB6F894DEBF0FBECDBFDE011196E9E4E2
:10048000F1E080E201900D928150E1F7FE01B1961A
:1004900080E2DF011D928A95E9F70E9472008823AD
:1004A000C1F50E94A10381E062E070E00E94650452
:1004B00088E00E94430181E063E070E00E946504EF
:1004C00088E00E94430180E060E070E00E946504E3
:1004D00088E00E94430180E061E070E00E946504D2
:1004E00088E00E94430180E06FEF7FEFAE014F5F35
:1004F0005F4F0E949E0488E20E94430180E06FEFFC
:100500007FEFAE014F5D5F4F0E949E0488E20E9424
:10051000430160E573EC80E090E00E949E0781E07B
:1005200090E0C05CDF4F0FB6F894DEBF0FBECDBFCA
:10053000CF91DF910895AF92BF92DF92EF92FF9239
:100540000F931F93CF93DF93E82E5A01882319F45A
:1005500050E090E02FC0F62E262F372FD90150E023
:1005600090E0DD24D394C0E0D0E005E060E01D2DF4
:10057000FC917D2D9E01E92FEE1FEE27EE1F852FAA
:10058000881F8827881F550F990F982B462F872F74
:100590008F2309F0412F4E1711F050279058770FF5
:1005A0002F5F3F4F2830310531F711968A2F8F1971
:1005B0008E15F0F2F50150839183DF91CF911F9159
:1005C0000F91FF90EF90DF90BF90AF900895AF92A2
:1005D000BF92CF92DF92EF92FF920F931F93DF9320
:1005E000CF9300D0CDB7DEB78C01FC01B480C280C0
:1005F000D380E080F180009709F48CC0E114F1040D
:1006000009F488C0F701A080F5E0FA1508F082C06F
:1006100083E08B1508F07EC0C114D10409F47AC0C0
:100620008A2D8250A701480F511DB7010E949B02DD
:100630008A2DB7010E946407882371F08A2DB701C3
:100640000E946407F82E882339F060E47FE680E496
:1006500091E00E949E0767C0F801658176818781DD
:1006600090850E949E07BB2049F04C2D2C2D3D2DDE
:10067000F90111928E2F841B8B15D8F38B2DB601A7
:100680000E948107F82E882329F0F60180818823B3
:1006900009F449C0F4E0BF16D1F0F601808184303E
:1006A000B1F46181633029F40F2EF2EDFF2EF02DAD
:1006B0003AC06F3029F40F2EF3EDFF2EF02D33C02A
:1006C0006F3F89F10F2EF4EDFF2EF02D2CC0F601B7
:1006D00010811B1529F00F2EF2EFFF2EF02D23C0F5
:1006E0001250812FB601AE014F5F5F4F0E949B02F7
:1006F000612F70E0F601E60FF71F9081898198174E
:1007000071F4F601E60FF71F91818A81981739F489
:10071000FF2409C00F2EF1EDFF2EF02D04C00F2E87
:10072000F6EFFF2EF02D8F2D0F900F90CF91DF91D0
:100730001F910F91FF90EF90DF90CF90BF90AF90FF
:10074000089580E00E9482006CE370E080E090E019
:100750000E949E0781E00E94820068EB7BE080E0BF
:1007600090E00E949E070895FC018281918197315B
:10077000F1F0983170F4923119F1933128F49130FD
:10078000F9F0923009F519C09531D1F09631E1F4C4
:1007900010C09132A9F0923228F4983189F09C313E
:1007A00099F40EC0983261F0903371F40BC081E07F
:1007B00008958370833041F403C088231CF404C07F
:1007C00084E0089587E0089583E208950F931F93CE
:1007D000DF93CF9300D000D000D0CDB7DEB77A83BF
:1007E00069835C834B833E832D83AAE6B1E0FD01E0
:1007F0009BE0919392E1908312968C9312971496BA
:100800007C936E931397482F882384F4AFE6B1E06E
:100810008B819C81282F392FF90180E201900D9264
:100820008150E1F787E280936A010CC08B819C8143
:10083000AD81BE8180936F0190937001A09371018F
:10084000B09372018D819E81892BD9F044236CF481
:10085000AFE8B1E0FE01359680E201900D92815043
:10086000E1F787E480936A010CC0A3E7B1E0FE01E1
:10087000359680E201900D928150E1F78BE28093F2
:100880006A012AE632E0F9018AE691E081939193C8
:100890008AEE91E09183808384E0F901848388E982
:1008A0009AE3A0E0B0E085839683A783B087C9016F
:1008B0000E94E70226960FB6F894DEBF0FBECDBFAA
:1008C000CF91DF911F910F910895DF93CF9300D0C7
:1008D000CDB7DEB77A836983AAE6B1E0FD0197E080
:1008E000919392E0908312968C93129714967C9336
:1008F0006E931397EAE6F2E0A193B1932AEE31E00A
:1009000031832083882324F483E280936E0203C022
:1009100087E080936E02EFE6F2E088EE93E0A0E0DD
:10092000B0E080839183A283B383CF0105970E94B7
:10093000E7020F900F90CF91DF910895DF93CF934F
:1009400000D0CDB7DEB7982F7A836983AAE6B1E0ED
:10095000FD0187E0819388E0808312969C93129733
:1009600014967C936E9313974115510569F090FD91
:100970000BC0AFE6B1E0FA0180E201900D92815028
:10098000E1F787E280936A012AE632E0F9018AE61C
:1009900091E0819391938AEE91E09183808383E249
:1009A000F901848380E395E7A0E0B0E08583968336
:1009B000A783B087C9010E94E7020F900F90CF91E3
:1009C000DF910895DF93CF9300D0CDB7DEB77A8360
:1009D0006983AAE6B1E0FD0195E0919397E19083E8
:1009E00012968C93129714967C936E9313972AE623
:1009F00032E0F901A193B1938AEE91E09183808373
:100A000081E0F901848388E99AE3A0E0B0E085837E
:100A10009683A783B087C9010E94E7020F900F90C9
:100A2000CF91DF9108950F931F93DF93CF9300D061
:100A3000CDB7DEB78B017A836983622F732FAAE665
:100A4000B1E0FD0194E5919398E2908312968C9326
:100A5000129714961C930E9313971596842F952F27
:100A6000FC0180E201900D928150E1F7AFE8B1E026
:100A7000262F372FF90180E201900D928150E1F786
:100A800089819A819093B0018093AF012AE632E088
:100A9000F9018AE691E0819391938AEE91E0918346
:100AA000808384E0F901848380E395E7A0E0B0E0EF
:100AB00085839683A783B087C9010E94E7020F90C0
:100AC0000F90CF91DF911F910F9108950F931F9376
:100AD000DF93CF9300D0CDB7DEB78B017A836983E4
:100AE000622F732FAAE6B1E0FD0194E3919391E2A6
:100AF000908312968C93129714961C930E931397CF
:100B00001596842F952FFC0180E201900D92815063
:100B1000E1F7AFE8B1E0262F372FF9018DE0019022
:100B20000D928150E1F72AE632E0F9018AE691E080
:100B3000819391938AEE91E09183808384E0F9011F
:100B4000848380E395E7A0E0B0E085839683A78364
:100B5000B087C9010E94E7020F900F90CF91DF91FB
:100B60001F910F910895DF93CF9300D0CDB7DEB7DB
:100B70007A836983AAE6B1E0FD0197E0919391E160
:100B8000908312968C93129714967C936E9313977E
:100B90002AE632E0F901A193B1938AEE91E09183C4
:100BA000808383E2F901848380E395E7A0E0B0E0ED
:100BB00085839683A783B087C9010E94E7020F90BF
:100BC0000F90CF91DF910895DF93CF9300D0CDB7F1
:100BD000DEB77A836983AAE6B1E0FD0197E09193DD
:100BE00095E1908312968C93129714967C936E9352
:100BF00013974115510581F0FA0180819181A281FD
:100C0000B38180936F0190937001A0937101B093B1
:100C100072018BE080936A012AE632E0F9018AE6EC
:100C200091E0819391938AEE91E09183808384E0B7
:100C3000F901848388E99AE3A0E0B0E08583968394
:100C4000A783B087C9010E94E7020F900F90CF9150
:100C5000DF9108954AE651E067E0FA01619380E38D
:100C600080832AE632E0F901419351938AEE91E0C4
:100C700091838083F901648388EE93E0A0E0B0E083
:100C800085839683A783B087C9010E94E7020895F0
:100C9000DF93CF9300D0CDB7DEB77A836983AAE61E
:100CA000B1E0FD0197E091939CE1908312968C93C3
:100CB000129714967C936E9313974115510559F032
:100CC000AFE6B1E0FA0180E201900D928150E1F7C8
:100CD00087E280936A012AE632E0F9018AE691E030
:100CE000819391938AEE91E09183808384E0F9016E
:100CF000848380EA96E8A1E0B0E085839683A783A9
:100D0000B087C9010E94E7020F900F90CF91DF9149
:100D100008954AE651E0FA0187E0819388E18083F3
:100D2000FA01329683E0DF011D928A95E9F72AE6FF
:100D300032E0F901419351938AEE91E091838083EF
:100D400084E0F901848380E197E2A0E0B0E085834C
:100D50009683A783B087C9010E94E7020895AAE697
:100D6000B1E0FD0197E091939BE1908312968C9303
:100D7000129714961C921E9213972AE632E0F901FC
:100D8000A193B1938AEE91E09183808383E2F9018C
:100D9000848388E99AE3A0E0B0E085839683A78303
:100DA000B087C9010E94E7020895AAE6B1E0FD01FB
:100DB00097E0919391E0908312968C9312971496FA
:100DC0001C921E9213972AE632E0F901A193B19387
:100DD0008AEE91E09183808384E0F901848388EE38
:100DE00093E0A0E0B0E085839683A783B087C90134
:100DF0000E94E7020895AAE6B1E0FD019BE191930C
:100E000096E1908312968C93129714961C921E92E0
:100E100013978370833071F0AFE6B1E0262F372F40
:100E2000F90184E101900D928150E1F783E2809312
:100E30006E0210C0AFE6B1E0262F372FF90180E235
:100E400001900D928150E1F787E280936A0184E07E
:100E500080936E022AE632E0F9018AE691E08193FE
:100E600091938AEE91E09183808388E99AE3A0E0F0
:100E7000B0E0F90185839683A783B087C9010E94FA
:100E8000E7020895DF93CF930F92CDB7DEB78CECD6
:100E9000898381E0BE016F5F7F4F0E94A3000F90A6
:100EA000CF91DF910895DF93CF930F92CDB7DEB747
:100EB0008BEB898381E0BE016F5F7F4F0E94A300AF
:100EC0000F90CF91DF910895FF920F931F93DF93BF
:100ED000CF930F92CDB7DEB7F82E8B0187E78983CA
:100EE00081E0BE016F5F7F4F0E94A3008F2DB8018C
:100EF0000E94A3000F90CF91DF911F910F91FF905F
:100F00000895FF920F931F93DF93CF930F92CDB766
:100F1000DEB7F82E8B0188E8898381E0BE016F5F20
:100F20007F4F0E94A3008F2DB8010E9405010F90F2
:100F3000CF91DF911F910F91FF900895DF93CF9391
:100F4000CDB7DEB727970FB6F894DEBF0FBECDBF83
:100F5000683071058105910508F48AC09B01AC01D8
:100F60002750304040405040852F9927AA27BB2763
:100F700089834A833B832C831D821E821F82898141
:100F80008823D9F429C00000000000000000000000
:100F9000000000009D81892F81508D83992399F74E
:100FA0009E81892F81508E83992339F09D81892FCD
:100FB00081508D839923A1F3E6CF9F81892F8150A2
:100FC0008F83992369F79981892F81508983992388
:100FD000A1F71E828E818D838A81882371F421C0BE
:100FE00000000000000000000000000000009D81E3
:100FF000892F81508D83992399F79E81892F815064
:101000008E83992339F09D81892F81508D83992377
:1010100039F7F3CF9A81892F81508A83992369F711
:101020001D828B81882341F413C000000000000062
:1010300000000000000000009D81892F81508D83F9
:10104000992399F79B81892F81508B839923A1F74D
:101050008C81882369F0000000000000000000007F
:10106000000000009C81892F81508C83992399F77F
:1010700027960FB6F894DEBF0FBECDBFCF91DF919C
:101080000895DF93CF93CDB7DEB7FE01359661911A
:1010900071918091750290917602AF010E9488084B
:1010A000CF91DF9108950F931F93CF93DF938C011E
:1010B000E0917502F0917602838181FF21C0C0E04A
:1010C000D0E00DC0E0917502F09176022085318567
:1010D000BF01F9010995892B11F0CFEFDFEFF8017E
:1010E00081918F01882371F7E0917502F09176026A
:1010F000208531858AE0BF01F9010995892B11F01E
:10110000CFEFDFEFCE01DF91CF911F910F910895C7
:101110002F923F924F925F926F927F928F929F9207
:10112000AF92BF92CF92DF92EF92FF920F931F93F5
:10113000DF93CF93CDB7DEB72B970FB6F894DEBF12
:101140000FBECDBF3C012B015A01FC011782168254
:10115000838181FD03C06FEF7FEFC6C19AE0892EC6
:101160001E010894211C311CF3012381F20123FD8F
:10117000859123FF81912F01882309F4B2C1853223
:1011800039F423FD859123FF81912F01853229F4C4
:1011900090E0B3010E94A40AE7CF982FFF24EE2429
:1011A0009924FFE1FF15D0F09B3269F09C3228F4BE
:1011B000903259F0933291F40EC09D3249F0903341
:1011C00069F441E024C052E0F52A84E0F82A28C0FE
:1011D00098E0F92A25C0E0E1FE2A22C0F7FC29C0E8
:1011E000892F80538A3070F4F6FE05C0989C902CAD
:1011F0001124980E15C0E89CE02C1124E80EF0E2B2
:10120000FF2A0EC09E3229F4F6FC6BC140E4F42A9A
:1012100007C09C3619F450E8F52A02C0983649F404
:10122000F20123FD959123FF91912F01992309F05C
:10123000B8CF892F8554833018F08052833038F42A
:1012400044E050E0A40EB51E5FE359830FC093360F
:1012500031F0933779F0933509F056C020C0F5018D
:101260008081898342E050E0A40EB51E610101E057
:1012700010E012C0F501C080D180F6FC03C06FEF12
:101280007FEF02C0692D70E042E050E0A40EB51E71
:10129000C6010E94990A8C015FE7F52214C0F5018E
:1012A000C080D180F6FC03C06FEF7FEF02C0692DD4
:1012B00070E042E050E0A40EB51EC6010E948E0A06
:1012C0008C0150E8F52AF3FE07C01AC080E290E0D6
:1012D000B3010E94A40AEA948E2D90E00817190722
:1012E000A8F30EC0F601F7FC8591F7FE81916F011E
:1012F00090E0B3010E94A40AE110EA94015010406A
:101300000115110579F7EAC0943611F0993669F59F
:10131000F7FE08C0F501208131814281538184E0CC
:1013200090E00AC0F501808191819C01442737FD3E
:101330004095542F82E090E0A80EB91E9FE6F92256
:1013400057FF09C050954095309521953F4F4F4F1D
:101350005F4FE0E8FE2ACA01B901A1012AE030E0AE
:101360000E94D00AD82ED21840C0953729F41F2DDC
:101370001F7E2AE030E01DC01F2D197F9F3661F0CF
:10138000903720F4983509F0ACC00FC0903739F091
:10139000983709F0A6C004C028E030E00AC0106108
:1013A00014FD146020E130E004C014FD166020E15B
:1013B00032E017FF08C0F50160817181828193815D
:1013C00044E050E008C0F50180819181BC0180E0DB
:1013D00090E042E050E0A40EB51EA1010E94D00AA8
:1013E000D82ED2188FE7F82EF122F6FE0BC05EEF52
:1013F000F522D91438F4F4FE07C0F2FC05C08FEED4
:10140000F82202C01D2D01C0192DF4FE0DC0FE01F1
:10141000ED0DF11D8081803319F499EEF92208C099
:101420001F5FF2FE05C003C08F2D867809F01F5F95
:101430000F2DF3FC14C0F0FE0FC01E1510F09D2CF4
:101440000BC09D2C9E0C911A1E2D06C080E290E0D0
:10145000B3010E94A40A1F5F1E15C0F304C01E152D
:1014600010F4E11A01C0EE2404FF0FC080E390E005
:10147000B3010E94A40A02FF1DC001FD03C088E75A
:1014800090E00EC088E590E00BC0802F867891F048
:1014900001FF02C08BE201C080E2F7FC8DE290E028
:1014A000B3010E94A40A06C080E390E0B3010E9449
:1014B000A40A9A94D914C0F3DA94F101ED0DF11D48
:1014C000808190E0B3010E94A40ADD20A9F706C044
:1014D00080E290E0B3010E94A40AEA94EE20C1F7F2
:1014E00043CEF30166817781CB012B960FB6F8943A
:1014F000DEBF0FBECDBFCF91DF911F910F91FF9047
:10150000EF90DF90CF90BF90AF909F908F907F90A3
:101510006F905F904F903F902F900895FC01059041
:10152000615070400110D8F7809590958E0F9F1FE5
:101530000895FC016150704001900110D8F780952A
:1015400090958E0F9F1F08950F931F93CF93DF9356
:101550008C01EB018B8181FF1BC082FF0DC02E81AE
:101560003F818C819D812817390764F4E881F981D6
:101570000193F983E88306C0E885F985802F0995F2
:10158000892B31F48E819F8101969F838E8302C0C7
:101590000FEF1FEFC801DF91CF911F910F910895B9
:1015A000FA01AA27283051F1203181F1E8946F9394
:1015B0006E7F6E5F7F4F8F4F9F4FAF4FB1E03ED03A
:1015C000B4E03CD0670F781F891F9A1FA11D680FD8
:1015D000791F8A1F911DA11D6A0F711D811D911D0B
:1015E000A11D20D009F468943F912AE0269F112480
:1015F0003019305D3193DEF6CF010895462F4770E4
:10160000405D4193B3E00FD0C9F7F6CF462F4F703E
:10161000405D4A3318F0495D31FD4052419302D09C
:10162000A9F7EACFB4E0A695979587957795679542
:10163000BA95C9F700976105710508959B01AC0142
:101640000A2E06945795479537952795BA95C9F769
:10165000620F731F841F951FA01D0895F894FFCF7C
:101660008053656E642056616C75653A20002530A4
:10167000325820000A526563696576652056616CB0
:1016800075653A20000A006A02000102030405069B
:101690000708090A0B0C0D0E0F1011121314151662
:1016A0001718191A1B1C1D1E1F0001020304050632
:1016B0000708090A0B0C0D0E0F1011121314151642
:0A16C0001718191A1B1C1D1E1F002D
:00000001FF
