:100000000C9472000C9493000C9493000C94930045
:100010000C9493000C9493000C9493000C94930014
:100020000C9493000C9493000C9493000C94930004
:100030000C9493000C9493000C9493000C949300F4
:100040000C9493000C9493000C9493000C949300E4
:100050000C9493000C9493000C9493000C949300D4
:100060000C9493000C9493000C9493000C949300C4
:100070000C9493000C9493000C9493000C949300B4
:100080000C9493000C9493000C9493000C949300A4
:100090000C9493000C9493000C9493000C94930094
:1000A0000C9493000C9493000C9493000C94930084
:1000B0000C9493000C9493000C9493000C94930074
:1000C0000C9493000C9493000C9493000C94930064
:1000D0000C9493000C9493000C9493000C94930054
:1000E0000C94930011241FBECFEFD1E2DEBFCDBF31
:1000F00000E00CBF12E0A0E0B2E0E8E5FCE000E0C8
:100100000BBF02C007900D92AE32B107D9F712E0D3
:10011000AEE2B2E001C01D92A633B107E1F70E9442
:1001200089030C942A060C940000AF92BF92DF92D0
:10013000EF92FF920F931F93CF93DF93E82E5A0114
:10014000882319F450E090E031C0F62E262F372F87
:10015000D90150E090E00F2EF0E8DF2EF02DC0E046
:10016000D0E005E060E011E0FC917D2D9E01E92FDB
:10017000EE1FEE27EE1F852F881F8827881F550F3B
:10018000990F982B462F872F8F2309F0412F4E1759
:1001900011F05027905876952F5F3F4F283031054A
:1001A00031F711968A2F8F198E15F0F2F501908391
:1001B0005183DF91CF911F910F91FF90EF90DF90CE
:1001C000BF90AF900895CF92DF92EF92FF920F937E
:1001D0001F93DF93CF930F92CDB7DEB7F82EE62EA5
:1001E0008A016E010894C11CD11C81E060EF7FEF91
:1001F000A6010E94C504982F853A69F0882391F4DE
:1002000081E0E81629F489818F218F1521F40AC035
:1002100089818F2139F00115110519F00150104025
:10022000E4CF91EA892F0F90CF91DF911F910F9129
:10023000FF90EF90DF90CF90089580E461E040EB75
:1002400054E00E94E300089581E060E040EB54E058
:100250000E94E30008950E9424010895CF93DF9344
:10026000EC0181E060EF7FEFAE010E94C5048823BE
:1002700031F081E060EF7FEFAE010E94C504DF91B5
:10028000CF91089580E060EE7FEF40E050E00E9463
:100290008C0408950E943804882311F40E944201BE
:1002A00008953F924F925F926F927F928F929F92AA
:1002B000AF92BF92CF92DF92EF92FF920F931F9374
:1002C000DF93CF930F920F92CDB7DEB7C82E7B018D
:1002D000DD246894D1F85B010894A11CB11C3E0197
:1002E0000894611C711C0F2EF3EA3F2EF02D0F2E87
:1002F000F7EA5F2EF02D0F2EF2EA4F2EF02D0E941E
:100300001D01182F882319F00E944A0146C081E080
:1003100060E07EEFA7010E94C504182F882319F022
:100320000E944A013AC0F7010081C01620F40E94E1
:100330004A01142D32C0802F8450813320F00E9456
:100340004A01152D2AC0802F815060E07EEFA50163
:100350000E94C504182F882319F00E944A011DC06D
:10036000102F1250812FB701A3010E949500212F59
:1003700030E0F701E20FF31F99818081981751F463
:10038000F701E20FF31F9A818181981719F4F501A3
:10039000108106C00E944A01132DDA9409F0AFCFF4
:1003A000812F0F900F90CF91DF911F910F91FF90B0
:1003B000EF90DF90CF90BF90AF909F908F907F9005
:1003C0006F905F904F903F9008959F92AF92BF9231
:1003D000CF92DF92EF92FF920F931F93DF93CF9311
:1003E00000D00F92CDB7DEB7A82E6B017A01922E06
:1003F00002E00E942401B82E882311F0182F3EC07D
:10040000992049F08A2DB601A7010E94C504182F32
:10041000882341F43AC08A2DB601A7010E948C04BA
:10042000882379F00E942401182F882339F5992018
:10043000E9F48A2DB601A7010E948C04182F8823A5
:10044000E9F480E0C8168EEFD80610F01B2D1DC011
:1004500083E00E94160584E0BE016F5F7F4F0E941B
:100460005101182F882389F41A810FC08A2DB601F3
:10047000A7010E94C504182F882339F0015029F0E4
:100480000E944A01112309F0B4CF812F0F900F90E1
:100490000F900F90CF91DF911F910F91FF90EF90F0
:1004A000DF90CF90BF90AF909F90089521E00E9481
:1004B000E501089520E00E94E5010895DF92EF92A2
:1004C000FF920F931F93DF93CF930F92CDB7DEB7B9
:1004D0007C01FC010081D62E60FD0BC0802F90E0D6
:1004E0000297A701480F591F802F8250B7010E9421
:1004F0009500802F60E07EEFA7010E945A02182F1E
:10050000882381F4D1FC30C081E060EF7FEFAE0141
:100510004F5F5F4F0E94C504182F8823E9F489813B
:1005200084FF22C0802F60E07EEFA7010E945A0264
:10053000182F8823C9F4D1FC17C081E060EF7FEF4A
:10054000AE014F5F5F4F0E94C504182F882321F42E
:10055000898184FD08C008C0153A11F410E004C078
:100560000E944A0101C014EB812F0F90CF91DF91BF
:100570001F910F91FF90EF90DF900895FF920F93DE
:100580001F93CF93DF93162FF42EE901602F0E9463
:100590005E02882349F4112319F0812F0E94160569
:1005A0008F2DBE010E945101DF91CF911F910F91BC
:1005B000FF9008951F93182F0E944201882369F429
:1005C000112331F489E092E063E00E945E0205C0ED
:1005D00080E092E063E00E945E021F91089580E453
:1005E0000E94DA02089580E00E94DA0208950F93D3
:1005F000DF93CF93CDB7DEB729970FB6F894DEBF60
:100600000FBECDBF9A01DE011196E2E1F2E049E0B2
:1006100001900D924150E1F79C838D836F83462FAB
:100620004C5FCE01019664E000E00E94BE02299674
:100630000FB6F894DEBF0FBECDBFCF91DF910F9103
:100640000895EF92FF920F93DF93CF93CDB7DEB76C
:1006500028970FB6F894DEBF0FBECDBF7C018BE1AB
:1006600092E064E048E09E012F5F3F4F01E00E946E
:10067000BE02682F8823C9F49B8180E02D8130E081
:1006800040E05FEFF901E49F9001E59F300DF49F9A
:10069000300D1124820F931F2C81820F911D2E810A
:1006A000821B9109F70191838083862F28960FB6CC
:1006B000F894DEBF0FBECDBFCF91DF910F91FF90B9
:1006C000EF9008950F93DF93CF93CDB7DEB72997BF
:1006D0000FB6F894DEBF0FBECDBF9B01DE011196B1
:1006E000E4E2F2E099E001900D929150E1F78D8300
:1006F000CE01019660E046E000E00E94BE0229962D
:100700000FB6F894DEBF0FBECDBFCF91DF910F9132
:100710000895CF93DF930E943504CFE1DEE40E9479
:100720001E0480932E02882329F0CE010197F1F751
:10073000000000C00E94A60380932E02882379F354
:10074000CE010197F1F7000000C0E9CF82E190EF00
:1007500063E04FE252E00E94F702882339F480E41C
:1007600090EF62E04FE252E00E94F7020895DF93BB
:10077000CF93CDB7DEB728970FB6F894DEBF0FBE84
:10078000CDBF85E589838AEA8A838CEB8B838EEDE6
:100790008C8384E060E070E0AE014F5F5F4F0E94A9
:1007A0005A02882399F484E060E070E0AE014B5F68
:1007B0005F4F0E945602882349F4CE010196BE0184
:1007C0006B5F7F4F44E050E00E941D0628960FB6F5
:1007D000F894DEBF0FBECDBFCF91DF9108950F9388
:1007E0001F930E942B010E94F3020FEC17E0C80137
:1007F0000197F1F7000000C00E942B010E94EF0258
:10080000C8010197F1F7000000C080E01F910F912F
:100810000895DF93CF9300D000D0CDB7DEB786E048
:10082000BE016F5F7F4F0E94620326960FB6F89459
:10083000DEBF0FBECDBFCF91DF910895DF93CF9381
:100840000F920F92CDB7DEB7CE0101960E94210321
:100850000F900F90CF91DF9108958E7F80932D029E
:1008600080E008950E94340508950E9421050895AE
:100870001F93DF93CF930F92CDB7DEB78FEF8983AE
:100880000E943C05882351F00E9434050E942105F6
:100890000E943C05182F882379F00AC081E0BE0130
:1008A0006F5F7F4F0E946D050E945605182F04C090
:1008B0000E9434050E942105812F0F90CF91DF9176
:1008C0001F9108950F931F93DF93CF930F92CDB78E
:1008D000DEB7082F80912D02802B89830E943C0572
:1008E000182F882391F481E0BE016F5F7F4F0E9433
:1008F0006D05182F882349F00E945605183F29F4EA
:10090000013011F015EA01C016EA812F0F90CF9146
:10091000DF911F910F910895EF92FF920F931F9314
:10092000DF93CF930F920F92CDB7DEB7082F7A01E6
:1009300079836A8380E00E946204182F8823D9F4A7
:1009400082E0BE016F5F7F4F0E946D05182F8823E4
:1009500019F00E9456050FC0002351F0802FB701F7
:100960000E946D05182F882319F00E94560503C0B8
:100970000E945605182F812F0F900F90CF91DF9175
:100980001F910F91FF90EF900895EF92FF920F93B8
:100990001F93DF93CF930F920F92CDB7DEB7082F3F
:1009A0007A0179836A8380E00E946204182F882389
:1009B000B9F482E0BE016F5F7F4F0E946D05182F72
:1009C000882319F00E9456050BC081E00E94620442
:1009D000182F882329F4802FB7010E94C505182FEE
:1009E000812F0F900F90CF91DF911F910F91FF906A
:1009F000EF900895DF93CF930F92CDB7DEB7982F86
:100A0000882381F019828981882331F0898181507E
:100A1000898389818823D1F700000000000000004D
:100A2000915081F70F90CF91DF9108951F93882304
:100A300031F0182F84E60E94FA041150D9F71F9163
:100A40000895E4E6F0E080818F778083EAE2F0E0C9
:100A500080818C7F8083EBE2F0E080818360808303
:100A600082E08093B80008951092BC00E4E6F0E0C4
:100A7000808180688083089584EA8093BC0099EF28
:100A8000ECEBF0E005C0992311F481EF089591504B
:100A900080818823C4F78091B900887F883021F055
:100AA000803111F080EF089580E0089584E980930B
:100AB000BC0099EFECEBF0E005C0992311F481EF55
:100AC00008959150808184FDF8CF8091B900887F8E
:100AD00011F080E0089580EF0895EF92FF921F9348
:100AE000CF93DF93182F882359F1862F972FDC019E
:100AF0004BEB50E0ECEBF0E024E833E60F2EF9EBA3
:100B0000EF2EFF24F02D8D91EA0188832083932F0F
:100B100005C0992311F481EF14C09150808188237E
:100B2000C4F7E7018881887F883131F0883221F06D
:100B3000803411F088EF05C08A2F861B811718F3C7
:100B400080E0DF91CF911F91FF90EF900895DC013D
:100B500084EC8093BC0093E6ECEBF0E005C09923B5
:100B600011F481EF0895915080818823C4F780911A
:100B7000B900887F803521F00E94560580EF0895E6
:100B80008091BB008C9380E00895EF92FF920F93C9
:100B90001F93CF93DF937B0190E09C012150304065
:100BA000121613062CF5FB01ACEBB0E014EC03E6D7
:100BB00069EB70E04BEB50E01C93902F03C099233E
:100BC000A1F191508C918823D4F7EB018881887F23
:100BD000803521F00E94560580EF28C0EA01888107
:100BE00081938E2F8E1990E0821793072CF37F014B
:100BF00084E88093BC0093E6ECEBF0E003C099231B
:100C0000A1F0915080818823D4F78091B900887F2A
:100C1000883521F00E94560580EF08C08091BB0006
:100C2000F70180830E94560501C081EFDF91CF91CB
:100C30001F910F91FF90EF900895FB01DC0104C01C
:100C40008D910190801921F441505040C8F7881BC4
:080C5000990B0895F894FFCF01
:100C580009114000000000EF8209110000000000A7
:100C68007181091000000000000000090E0000005A
:0E0C78000000D99C090C00000000000000A044
:00000001FF
