:100000000C944C000C9463000C9463000C946300FB
:100010000C9463000C9463000C9463000C946300D4
:100020000C9463000C9463000C9463000C946300C4
:100030000C9463000C9463000C9463000C946300B4
:100040000C9463000C9463000C9463000C946300A4
:100050000C9463000C9463000C9463000C94630094
:100060000C9463000C9463000C9463000C94630084
:100070000C9463000C9463000C9463000C94630074
:100080000C9463000C9463000C9463000C94630064
:100090000C9463000C94630011241FBECFEFD0E2D8
:1000A000DEBFCDBF11E0A0E0B1E0ECEFF9E000E091
:1000B0000BBF02C007900D92A431B107D9F70E947F
:1000C000E6030C94FC040C940000E4E6F0E080816C
:1000D0008F778083EAE2F0E080818C7F8083EBE29F
:1000E000F0E08081836080838CE08093B800089585
:1000F0001092BC00E4E6F0E080818068808308957F
:1001000084EA8093BC0099EFECEBF0E005C0992302
:1001100011F481EF0895915080818823C4F7809174
:10012000B900887F883021F0803111F080EF089588
:1001300080E0089584E98093BC0099EFECEBF0E057
:1001400005C0992311F481EF08959150808184FDB9
:10015000F8CF8091B900887F11F080E0089580EF9A
:100160000895EF92FF921F93CF93DF93182F882368
:1001700059F1862F972FDC014BEB50E0ECEBF0E0D0
:1001800024E833E60F2EF9EBEF2EFF24F02D8D91AE
:10019000EA0188832083932F05C0992311F481EF0E
:1001A00014C0915080818823C4F7E7018881887F3B
:1001B000883131F0883221F0803411F088EF05C0A9
:1001C0008A2F861B811718F380E0DF91CF911F9152
:1001D000FF90EF900895DC0184EC8093BC0093E6DF
:1001E000ECEBF0E005C0992311F481EF08959150F4
:1001F00080818823C4F78091B900887F803521F001
:100200000E949A0080EF08958091BB008C9380E05B
:100210000895EF92FF920F931F93CF93DF937B018B
:1002200090E09C0121503040121613062CF5FB0182
:10023000ACEBB0E014EC03E669EB70E04BEB50E0A4
:100240001C93902F03C09923A1F191508C91882386
:10025000D4F7EB018881887F803521F00E949A00D5
:1002600080EF28C0EA01888181938E2F8E1990E05B
:10027000821793072CF37F0184E88093BC0093E6F8
:10028000ECEBF0E003C09923A1F09150808188232A
:10029000D4F78091B900887F883521F00E949A00B8
:1002A00080EF08C08091BB00F70180830E949A0014
:1002B00001C081EFDF91CF911F910F91FF90EF90DF
:1002C0000895DF93CF930F92CDB7DEB7982F882391
:1002D00069F02EE029838981882331F0898181505A
:1002E000898389818823D1F79150A1F70F90CF910D
:1002F000DF9108951F93882331F0182F88E60E941C
:1003000061011150D9F71F910895AF92BF92DF920A
:10031000EF92FF920F931F93CF93DF93E82E5A0132
:10032000882319F450E090E031C0F62E262F372FA5
:10033000D90150E090E00F2EF0E8DF2EF02DC0E064
:10034000D0E005E060E011E0FC917D2D9E01E92FF9
:10035000EE1FEE27EE1F852F881F8827881F550F59
:10036000990F982B462F872F8F2309F0412F4E1777
:1003700011F05027905876952F5F3F4F2830310568
:1003800031F711968A2F8F198E15F0F2F5019083AF
:100390005183DF91CF911F910F91FF90EF90DF90EC
:1003A000BF90AF900895CF92DF92EF92FF920F939C
:1003B0001F93DF93CF930F92CDB7DEB7F82EE62EC3
:1003C0008A016E010894C11CD11C81E060EF7FEFAF
:1003D000A6010E94BB04982F803A69F0882391F40B
:1003E00081E0E81629F489818F218F1521F40AC054
:1003F00089818F2139F00115110519F00150104044
:10040000E4CF97EE892F0F90CF91DF911F910F913D
:10041000FF90EF90DF90CF90089580E461E040E698
:1004200059E00E94D301089581E060E040E659E080
:100430000E94D30108950E9414020895CF93DF9380
:10044000EC0181E060EF7FEFAE010E94BB048823E6
:1004500031F081E060EF7FEFAE010E94BB04DF91DD
:10046000CF91089580E060EE7FEF40E050E00E9481
:10047000830408950E942F04882311F40E943202FD
:1004800008953F924F925F926F927F928F929F92C8
:10049000AF92BF92CF92DF92EF92FF920F931F9392
:1004A000DF93CF9300D0CDB7DEB7C82E7B01DD241C
:1004B0006894D1F85B010894A11CB11C3E0108941A
:1004C000611C711C0F2EF5EE3F2EF02D0F2EF4EE59
:1004D0005F2EF02D0F2EF2EA4F2EF02D0E940D020E
:1004E000182F882319F00E943A0246C081E060E08C
:1004F0007EEFA7010E94BB04182F882319F00E94E9
:100500003A023AC0F7010081C01620F40E943A0274
:10051000142D32C0802F8450813320F00E943A0283
:10052000152D2AC0802F815060E07EEFA5010E942A
:10053000BB04182F882319F00E943A021DC0102F07
:100540001250812FB701A3010E948501212F30E0B5
:10055000F701E20FF31F99818081981751F4F70199
:10056000E20FF31F9A818181981719F4F501108128
:1005700006C00E943A02132DDA9409F0AFCF812F02
:100580000F900F90CF91DF911F910F91FF90EF90FF
:10059000DF90CF90BF90AF909F908F907F906F90A3
:1005A0005F904F903F9008959F92AF92BF92CF92ED
:1005B000DF92EF92FF920F931F93DF93CF9300D0C0
:1005C00000D0CDB7DEB7A82E6B017A01922E02E0E3
:1005D0000E941402B82E882311F0182F3EC09920D3
:1005E00049F08A2DB601A7010E94BB04182F882369
:1005F00041F43AC08A2DB601A7010E9483048823E2
:1006000079F00E941402182F882339F59920E9F413
:100610008A2DB601A7010E948304182F8823E9F4CC
:1006200080E0C8168EEFD80610F01B2D1DC083E0A9
:100630000E947A0184E0BE016F5F7F4F0E944102F9
:10064000182F882389F41A810FC08A2DB601A701BB
:100650000E94BB04182F882339F0015029F00E9412
:100660003A02112309F0B4CF812F0F900F900F9011
:100670000F90CF91DF911F910F91FF90EF90DF903E
:10068000CF90BF90AF909F90089521E00E94D40238
:10069000089520E00E94D4020895DF92EF92FF9225
:1006A0000F931F93DF93CF930F92CDB7DEB77C01EB
:1006B000FC010081D62E60FD0BC0802F90E00297D8
:1006C000A701480F591F802F8250B7010E94850152
:1006D000802F60E07EEFA7010E944903182F882336
:1006E00081F4D1FC30C081E060EF7FEFAE014F5F5D
:1006F0005F4F0E94BB04182F8823E9F4898184FF8F
:1007000022C0802F60E07EEFA7010E944903182FCE
:100710008823C9F4D1FC17C081E060EF7FEFAE0100
:100720004F5F5F4F0E94BB04182F882321F48981FB
:1007300084FD08C008C0103A11F410E004C00E9403
:100740003A0201C014ED812F0F90CF91DF911F91DC
:100750000F91FF90EF90DF900895FF920F931F93FA
:10076000CF93DF93162FF42EE901602F0E944D03E3
:10077000882349F4112319F0812F0E947A018F2DCB
:10078000BE010E944102DF91CF911F910F91FF9016
:1007900008951F93182F0E943202882369F41123B1
:1007A00031F489E091E063E00E944D0305C080E0F0
:1007B00091E063E00E944D031F91089580E40E9440
:1007C000C903089580E00E94C9030895DF93CF9381
:1007D000CDB7DEB728970FB6F894DEBF0FBECDBFFA
:1007E0000E942C0485E589838AEA8A838CEB8B83BB
:1007F0008EED8C8384E060E070E0AE014F5F5F4F70
:100800000E944903882311F090E015C084E060E065
:1008100070E0AE014B5F5F4F0E944503882311F0EB
:1008200090E009C0CE010196BE016B5F7F4F44E0AE
:1008300050E00E94EF0428960FB6F894DEBF0FBE7A
:10084000CDBFCF91DF9108958E7F8093120180E01C
:1008500008950E94780008950E94650008951F93EE
:10086000DF93CF930F92CDB7DEB78FEF89830E94CE
:100870008000882351F00E9478000E9465000E9449
:100880008000182F882379F00AC081E0BE016F5FD5
:100890007F4F0E94B1000E949A00182F04C00E944E
:1008A00078000E946500812F0F90CF91DF911F91FA
:1008B00008950F931F93DF93CF930F92CDB7DEB7B9
:1008C000082F80911201802B89830E948000182FAD
:1008D000882391F481E0BE016F5F7F4F0E94B100D9
:1008E000182F882349F00E949A00183F29F40130FC
:1008F00011F010EA01C011EA812F0F90CF91DF9122
:100900001F910F910895EF92FF920F931F93DF9322
:10091000CF9300D0CDB7DEB7082F7A0179836A83F1
:1009200080E00E945904182F8823D9F482E0BE0188
:100930006F5F7F4F0E94B100182F882319F00E942B
:100940009A000FC0002351F0802FB7010E94B10020
:10095000182F882319F00E949A0003C00E949A0061
:10096000182F812F0F900F90CF91DF911F910F9132
:10097000FF90EF900895EF92FF920F931F93DF93F4
:10098000CF9300D0CDB7DEB7082F7A0179836A8381
:1009900080E00E945904182F8823B9F482E0BE0138
:1009A0006F5F7F4F0E94B100182F882319F00E94BB
:1009B0009A000BC081E00E945904182F882329F463
:1009C000802FB7010E940901182F812F0F900F90DF
:1009D000CF91DF911F910F91FF90EF900895FB0150
:1009E000DC0104C08D910190801921F441505040E8
:0C09F000C8F7881B990B0895F894FFCFFE
:1009FC0009114000000000EF820911000000000006
:040A0C007181A00054
:00000001FF
