:100000000C9472000C9493000C9493000C94930045
:100010000C9493000C9493000C9493000C94930014
:100020000C9493000C9493000C9493000C94930004
:100030000C9493000C9493000C9493000C949300F4
:100040000C9493000C9493000C9493000C949300E4
:100050000C9493000C9493000C9493000C949300D4
:100060000C9493000C9493000C9493000C949300C4
:100070000C9493000C9493000C9493000C949300B4
:100080000C9493000C9493000C9493000C949300A4
:100090000C9493000C9493000C9493000C94930094
:1000A0000C9493000C9493000C9493000C94930084
:1000B0000C9493000C9493000C9493000C94930074
:1000C0000C9493000C9493000C9493000C94930064
:1000D0000C9493000C9493000C9493000C94930054
:1000E0000C94930011241FBECFEFD1E2DEBFCDBF31
:1000F00000E00CBF12E0A0E0B2E0EAEAFBE000E0C2
:100100000BBF02C007900D92A233B107D9F712E0DE
:10011000A2E3B2E001C01D92A433B107E1F70E944F
:10012000FD030C94D3050C940000AF92BF92DF92B4
:10013000EF92FF920F931F93CF93DF93E82E5A0114
:10014000882319F450E090E031C0F62E262F372F87
:10015000D90150E090E00F2EF0E8DF2EF02DC0E046
:10016000D0E005E060E011E0FC917D2D9E01E92FDB
:10017000EE1FEE27EE1F852F881F8827881F550F3B
:10018000990F982B462F872F8F2309F0412F4E1759
:1001900011F05027905876952F5F3F4F283031054A
:1001A00031F711968A2F8F198E15F0F2F501908391
:1001B0005183DF91CF911F910F91FF90EF90DF90CE
:1001C000BF90AF900895CF92DF92EF92FF920F937E
:1001D0001F93DF93CF930F92CDB7DEB7F82EE62EA5
:1001E0008A016E010894C11CD11C81E060EF7FEF91
:1001F000A6010E948B03982F853A69F0882391F419
:1002000081E0E81629F489818F218F1521F40AC035
:1002100089818F2139F00115110519F00150104025
:10022000E4CF91EA892F0F90CF91DF911F910F9129
:10023000FF90EF90DF90CF90089580E461E040E67A
:1002400059E00E94E300089581E060E040E659E053
:100250000E94E30008950E9424010895CF93DF9344
:10026000EC0181E060EF7FEFAE010E948B038823F9
:1002700031F081E060EF7FEFAE010E948B03DF91F0
:10028000CF91089580E060EE7FEF40E050E00E9463
:10029000B70308950E948903882311F40E94420144
:1002A00008953F924F925F926F927F928F929F92AA
:1002B000AF92BF92CF92DF92EF92FF920F931F9374
:1002C000DF93CF930F920F92CDB7DEB7C82E7B018D
:1002D000DD246894D1F85B010894A11CB11C3E0197
:1002E0000894611C711C0F2EF3EA3F2EF02D0F2E87
:1002F000F7EA5F2EF02D0F2EF2EA4F2EF02D0E941E
:100300001D01182F882319F00E944A0146C081E080
:1003100060E07EEFA7010E948B03182F882319F05D
:100320000E944A013AC0F7010081C01620F40E94E1
:100330004A01142D32C0802F8450813320F00E9456
:100340004A01152D2AC0802F815060E07EEFA50163
:100350000E948B03182F882319F00E944A011DC0A8
:10036000102F1250812FB701A3010E949500212F59
:1003700030E0F701E20FF31F99818081981751F463
:10038000F701E20FF31F9A818181981719F4F501A3
:10039000108106C00E944A01132DDA9409F0AFCFF4
:1003A000812F0F900F90CF91DF911F910F91FF90B0
:1003B000EF90DF90CF90BF90AF909F908F907F9005
:1003C0006F905F904F903F9008959F92AF92BF9231
:1003D000CF92DF92EF92FF920F931F93DF93CF9311
:1003E00000D00F92CDB7DEB7A82E6B017A01922E06
:1003F00002E00E942401B82E882311F0182F3EC07D
:10040000992049F08A2DB601A7010E948B03182F6D
:10041000882341F43AC08A2DB601A7010E94B70390
:10042000882379F00E942401182F882339F5992018
:10043000E9F48A2DB601A7010E94B703182F88237B
:10044000E9F480E0C8168EEFD80610F01B2D1DC011
:1004500083E00E94BB0584E0BE016F5F7F4F0E9476
:100460005101182F882389F41A810FC08A2DB601F3
:10047000A7010E948B03182F882339F0015029F01F
:100480000E944A01112309F0B4CF812F0F900F90E1
:100490000F900F90CF91DF911F910F91FF90EF90F0
:1004A000DF90CF90BF90AF909F90089521E00E9481
:1004B000E501089520E00E94E5010895DF92EF92A2
:1004C000FF920F931F93DF93CF930F92CDB7DEB7B9
:1004D0007C01FC010081D62E60FD0BC0802F90E0D6
:1004E0000297A701480F591F802F8250B7010E9421
:1004F0009500802F60E07EEFA7010E945A02182F1E
:10050000882381F4D1FC30C081E060EF7FEFAE0141
:100510004F5F5F4F0E948B03182F8823E9F4898176
:1005200084FF22C0802F60E07EEFA7010E945A0264
:10053000182F8823C9F4D1FC17C081E060EF7FEF4A
:10054000AE014F5F5F4F0E948B03182F882321F469
:10055000898184FD08C008C0153A11F410E004C078
:100560000E944A0101C014EB812F0F90CF91DF91BF
:100570001F910F91FF90EF90DF900895FF920F93DE
:100580001F93CF93DF93162FF42EE901602F0E9463
:100590005E02882349F4112319F0812F0E94BB05C4
:1005A0008F2DBE010E945101DF91CF911F910F91BC
:1005B000FF9008951F93182F0E944201882369F429
:1005C000112331F489E092E063E00E945E0205C0ED
:1005D00080E092E063E00E945E021F91089580E453
:1005E0000E94DA02089580E00E94DA0208950F93D3
:1005F000DF93CF93CDB7DEB729970FB6F894DEBF60
:100600000FBECDBF9A01DE011196E2E1F2E049E0B2
:1006100001900D924150E1F79C838D836F83462FAB
:100620004C5FCE01019664E000E00E94BE02299674
:100630000FB6F894DEBF0FBECDBFCF91DF910F9103
:100640000895EF92FF920F93DF93CF93CDB7DEB76C
:1006500028970FB6F894DEBF0FBECDBF7C018BE1AB
:1006600092E064E048E09E012F5F3F4F01E00E946E
:10067000BE02682F8823C9F49B8180E02D8130E081
:1006800040E05FEFF901E49F9001E59F300DF49F9A
:10069000300D1124820F931F2C81820F911D2E810A
:1006A000821B9109F70191838083862F28960FB6CC
:1006B000F894DEBF0FBECDBFCF91DF910F91FF90B9
:1006C000EF9008950F93DF93CF93CDB7DEB72997BF
:1006D0000FB6F894DEBF0FBECDBF9B01DE011196B1
:1006E000E4E2F2E099E001900D929150E1F78D8300
:1006F000CE01019660E046E000E00E94BE0229962D
:100700000FB6F894DEBF0FBECDBFCF91DF910F9132
:10071000089580E00895EF92FF920F931F93DF9367
:10072000CF9300D0CDB7DEB7082F7A0183E089835D
:100730007A836B830E94BE0483E0BE016F5F7F4FAC
:100740000E945005182F882329F4802FB7010E949A
:100750007805182F0E94D604812F0F900F900F90CC
:10076000CF91DF911F910F91FF90EF900895EF923D
:10077000FF920F931F93DF93CF9300D00F92CDB7CB
:10078000DEB7082F7A0186E0898382E08A837B8343
:100790006C830E94BE0481E0BE016F5F7F4F0E94A8
:1007A0005005182F0E94D604112391F40E94BE0414
:1007B00083E0BE016E5F7F4F0E945005182F882393
:1007C00029F4802FB7010E945005182F0E94D604EB
:1007D000812F0F900F900F900F90CF91DF911F916D
:1007E0000F91FF90EF9008950E94B60408950E9423
:1007F0002E0508950E94ED040895CF93DF930E9483
:10080000FA03CFE1DEE40E948B0480933202882356
:10081000D1F3CE010197F1F7000000C0F4CFDF93D0
:10082000CF93CDB7DEB727970FB6F894DEBF0FBED4
:10083000CDBFFE01319687E0DF011D928A95E9F771
:1008400082E190EF63E0AF010E94F702882341F458
:1008500080E490EF62E0AE014F5F5F4F0E94F702CD
:1008600027960FB6F894DEBF0FBECDBFCF91DF91B4
:100870000895DF93CF93CDB7DEB728970FB6F894DE
:10088000DEBF0FBECDBF85E589838AEA8A838CEB04
:100890008B838EED8C8384E060E070E0AE014F5F6F
:1008A0005F4F0E945A02882399F484E060E070E070
:1008B000AE014B5F5F4F0E945602882349F4CE0180
:1008C0000196BE016B5F7F4F44E050E00E94C60579
:1008D00028960FB6F894DEBF0FBECDBFCF91DF9143
:1008E00008950F931F930E942B010E94F3020FECB7
:1008F00017E0C8010197F1F7000000C00E942B012A
:100900000E94EF02C8010197F1F7000000C080E0EB
:100910001F910F910895DF93CF9300D000D0CDB7F2
:10092000DEB7FE01319686E0DF011D928A95E9F778
:1009300086E0BF010E94620326960FB6F894DEBFE0
:100940000FBECDBFCF91DF910895DF93CF930F926C
:100950000F92CDB7DEB71A821982CE0101960E949E
:1009600021030F900F90CF91DF910895882311F00C
:1009700088EA08951092330280E00895E5E2F0E0FD
:1009800080818D7F8083A0913302B0E0FD01EE0F66
:10099000FF1FE05DFD4F0190F081E02D9081A15D92
:1009A000BD4F8C918095892380830895E5E2F0E026
:1009B00080818D7F8083A0913302B0E0FD01EE0F36
:1009C000FF1FE05DFD4F0190F081E02D8081A15D72
:1009D000BD4F9C91892B80830895DF93CF930F9215
:1009E000CDB7DEB7E4E2F0E080818660808345E247
:1009F00050E0DA018C918D7F8C93E0913302F0E02E
:100A0000CF01880F991FDC01A35DBD4F0D90BC91F4
:100A1000A02D2C91E15DFD4F3081232B2C93805D27
:100A20009D4FDC01ED91FC918081832B8083FA0145
:100A3000808188608083E4E6F0E080818B7F808322
:100A400082E58CBDEDE4F0E081E0808380818983E4
:100A50008EB589830F90CF91DF910895ECE4F0E09B
:100A600080818F7B8083E4E6F0E0808184608083F6
:100A7000E4E2F0E08081897F8083A0913302B0E0DE
:100A8000FD01EE0FFF1FE35DFD4F0190F081E02DB2
:100A90009081A15DBD4F8C918095892380830895BD
:100AA000DF93CF930F92CDB7DEB78823E1F0282FE5
:100AB00021504EE450E032E3EDE4F0E0DB018D91B3
:100AC000BD01DA018C93932F02C0915051F08081C7
:100AD0008823DCF7DA018C918983222321F02150CD
:100AE000EDCF81EF01C080E00F90CF91DF910895AD
:100AF000CF93DF93DB018823F1F0282F2150CEE440
:100B0000D0E03AEFEDE4F0E01882932F0AC0915064
:100B100041F48DB5882314F081EA0EC08EB581EAC8
:100B20000BC0808188239CF788818C93222319F045
:100B300011962150E9CF80E0DF91CF910895DF93A6
:100B4000CF930F92CDB7DEB7982F882381F019820B
:100B50008981882331F08981815089838981882323
:100B6000D1F70000000000000000915081F70F90C5
:100B7000CF91DF9108951F93882331F0182F84E6D9
:100B80000E949F051150D9F71F910895FB01DC01C8
:100B900004C08D910190801921F441505040C8F754
:0A0BA000881B990B0895F894FFCF0D
:100BAA0009114000000000EF820911000000000056
:100BBA007181091000000000000000090E00000009
:100BCA000000D99C090C000000000000002400016C
:020BDA002500F4
:00000001FF
